:020000040800F2
:10000000306C0020410100086B0100082B640008DF
:1000100000000000000000000000000000000000E0
:1000200000000000000000000000000065A90008BA
:100030000000000000000000FF000008BDC3000831
:1000400075010008750100087501000875010008B8
:1000500075010008750100087501000875010008A8
:1000600075010008AD250008B9250008FD25000828
:100070007501000875010008750100087501000888
:100080007501000875010008750100087501000878
:100090007501000875010008750100087501000868
:1000A000750100087501000875010008D9CB00082A
:1000B000E9CB0008F9CB0008750100080348854624
:1000C00000F066FE0048004749E30008306C00205D
:1000D000064B19680868203080F30988022080F3F5
:1000E00014883FBCAE4662B600BD0000C8030020C5
:1000F000EFF3108072B6704780F310887047EFF30B
:1001000009800E4B1A6820381060F0C044464D46F6
:1001100056465F46F0C008B572B610F06FFC62B686
:100120000CBC116808681030F0C8A046A946B24659
:10013000BB4680F309882038F0C81847C803002060
:100140000D480E49026800608A4203D00C4880477F
:100150000C4800470C480D4901600D480B490160EF
:100160000C4801688D4640680047FEE7FEE7FEE761
:10017000FEE7FEE7FEE70000F07F0020EFBEADDE09
:100180006DC40008BD000008181002400100000006
:100190000000014000D8FF1F30B50B46014600208B
:1001A0002022012409E00D46D5409D4205D31D467D
:1001B0009540491B2546954040191546521E002D75
:1001C000F1DC30BDF8B500242546002904DA0E46DE
:1001D000012400214042B141002B04DA1E460023D5
:1001E00052420125B34100F021FC8C4617461E46C1
:1001F000AC4203D0002540428D41AC46002C02D0D9
:10020000002657429E4161463A46334601B0F0BD52
:10021000F0B51FB486B000200090019002900698BF
:10022000069980B204900798090C02040014114347
:1002300007900027089D099806913E463C4603908A
:100240000398A9B20204000C039004982D0C1543E6
:1002500048430021224600F019FCC71971411034AF
:100260000E46402CECDB3846029A00F00FFC009A58
:10027000019B801800905941029801911030029022
:100280004028CCDB00980BB0F0BD10B5202A04DB71
:100290000846203AD040002110BD0B46D340D04044
:1002A0002024A21A91400843194610BD0048704707
:1002B0004019010810B50446FFF7F8FF0068005D1B
:1002C000C007C00F10BD01464139192900D82030A0
:1002D000704700000549064A08685043054A8018DF
:1002E00008604008704701490860704734040020E6
:1002F0006D4EC6413930000003460B439B0703D0C7
:1003000009E008C9121F08C0042AFAD203E00B78DA
:100310000370401C491C521EF9D27047D2B201E052
:100320000270401C491EFBD270470022F6E710B550
:1003300013460A4604461946FFF7F0FF204610BD53
:10034000421E5378521C002BFBD10B781370491CB2
:10035000521C002BF9D1704710B5044605E00B780C
:100360000370401C002B00D0491C521EF7D22046BF
:1003700010BDCAB2401E4178401C8A4202D00029FA
:10038000F9D100207047421C0178401C0029FBD1A4
:10039000801A704710B5002200E0521C835C8C5C10
:1003A000A34201D1002BF8D1D8B2E1B2401A10BD5E
:1003B00030B504460020034600E05B1C934203D2A4
:1003C000E05CCD5C401BF8D030BD03460A7802707B
:1003D000401C491C002AF9D11846704730B5054623
:1003E0000020034600E05B1C934205D2EC5CC85C35
:1003F000201A01D1002CF6D130BD000070B5104D8F
:10040000002800D12868002414E00A4602E09E4239
:1004100003D0521C1378002BF9D1DAB2224307D053
:10042000002B06D0002C04D000210170401C04E0F9
:100430000446401C0678002EE7D12860204670BD97
:100440003804002070B506460CF0E8FC0468054648
:100450000A220021304600F08FFB2C6070BD70B581
:1004600006460CF0DBFC046805460A2200213046F3
:1004700000F082FB2C6070BDF8B502464A40D40FF4
:1004800042004B0052085B089A4202D202460846DC
:1004900011464A0023D0C30D4A00DDB2120EAD1A38
:1004A000202D35DA49020126490AF6058A19002C61
:1004B00000D0524220214F1B1146B9402A4110184A
:1004C000C20D9A4221D0002C17D0012D08DCDA058C
:1004D000801AD20F8019D207DBB200F08DFBF8BD75
:1004E000DA05801A012340001B06C01880185A4202
:1004F0008018CA0F1043490007E04908C20711439A
:10050000DA05801A80194008801800F06DFBF8BDEC
:1005100061000122511A001BF7E70122D207514066
:10052000AAE70122D2075040A6E7024670B54A402A
:10053000D30FDB0740002DD04A002AD0010E140E45
:10054000000212020919400A520A8418E501044601
:100550005443000A120A2E045043A4194219200CD5
:10056000C543AA18120C0125AD03521C52191204DE
:100570007F39240400D0521C104301D44000491E8E
:10058000C2B20C06C0092018401C4008802A02D0C4
:1005900003E0002070BD40084000002900DA002080
:1005A000184370BD70B502464A40D50F40004A005E
:1005B000ED0740085208002814D0002A12D0C40DBC
:1005C000D30D41020120C0055202490A520AE41A21
:1005D000091812187D34914201D3641C00E04900CF
:1005E000002C01DA002070BD0023914201D3891A4A
:1005F0000343400849000028F7D100290AD091425E
:1006000002D10121C90705E0914201D2012101E097
:100610000121C943E005C018401900F0E5FA70BD9A
:10062000420005D04200120E52428A4201DB0020F5
:100630007047C90508187047F0B507460846584086
:1006400087B0C00F049048000E4659004008490882
:10065000BC1A884105D2384631461E4617460B461D
:1006600002465800400810434CD0300D039040051E
:100670005900400D490D0590401A0290402872DA49
:1006800018030121000B090508430190049800920A
:10069000002805D001995242002088410092019023
:1006A000029840210A1A0199009800F0EFF90546D6
:1006B0000C466B4607CB00F0F9F9C0197141039A5B
:1006C0000E0D0023D71756401A467A40164344D0E1
:1006D000049A002A2DD0029A012A039A15DC1205E9
:1006E000C01A914101263605001C7141D20F059EAA
:1006F000D2070093019202962A46234600F0C2FADE
:1007000007B0F0BD38463146FAE71605224A0F46D3
:10071000B218C01AB74101210905001C4F41001849
:100720007F41114618187941E20F10436D19644159
:1007300013E0E2076D0815436408C2071443039AE7
:1007400001261205C01A91413605001C7141CE07E1
:10075000400830434908C01851412A46234600F05A
:1007600084FACDE7FFE7049801224000C117121A6E
:1007700000238B4104983146C417381AA141EEE793
:1007800030B40124E407634030BC55E730B40124A1
:10079000E407614030BC4FE70000E0FFF0B51FB454
:1007A00088B00B990998002448400999C00F490066
:1007B00049080991C0070B990090490049080B911D
:1007C00009990898A64608431CD00B990A98084333
:1007D00018D0099801244000420D4800410D0998A5
:1007E00024050003000B204309900B980003000B25
:1007F00020430B9050181C494018002201901446C9
:10080000104605E0002001460DB0F0BD032801DAD6
:10081000034600E003239C46C11A0AAE0AE05F00CB
:1008200008ADED5B4F00F75B7D430027AA187C41C4
:10083000491C5B1E6145F2DD410004AB5A522104A4
:10084000120C0A43240C401C0828DFDB019802909C
:100850000099704601910090059B049A07990698AB
:1008600000F010FAD0E700000DFCFFFFF0B50C46D9
:100870005C4085B0E40FE40703944C000026640854
:1008800059009446490802460296224321D0624606
:100890000A431ED06200570D4A000E032303550D74
:1008A000012402462C492405781B1B0B360B4018EB
:1008B00023432643614600901C46501AB44103D39B
:1008C0000098401C009002E0921800985B410028BC
:1008D00003DA0020014605B0F0BD00200121090522
:1008E0000746864611E064461D46141BB54106D3F3
:1008F0006546521BB341744607430C43A646CD07D9
:1009000040084908284392185B4105460D43EAD147
:100910001046184313D060461946504071400843B2
:1009200006D06046101AB34106D20122002306E029
:1009300000220123DB0702E00122D243531000987A
:1009400074460105381C6141029C039D00196941F0
:1009500000F08BF9BFE70000FD030000C217C10FD4
:10096000504010B54018CA079623002100F044F902
:1009700010BDC20F410040020123400ADB05D2072F
:10098000090EC0187F2901DA00207047962903DC80
:100990009623591AC84001E096398840002AF4D0BD
:1009A00040427047C20FD207400040080BD0C10D33
:1009B0000723DB01C91840020905400A1143C20898
:1009C000400711437047002001467047CB0FDB07FB
:1009D000490010B5490802460A4307D00A0D07240A
:1009E0000903E401090B121B002A01DC002010BDE1
:1009F000C900440F0C43C100E018D205801800F074
:100A0000F3F810BD0122D207002800DB101A0029DC
:100A100000DB511A814270470122D207002800DB17
:100A2000101A002900DB511A88427047F0B51FB434
:100A30000646002082B005464024019100901BE04C
:100A4000019922460F463046FFF71FFC049A059B8A
:100A5000801A994110D310461946224600F016F824
:100A6000361A8F410197224601200021009F00F095
:100A70000DF838184D4100902046641E0028DFDC38
:100A8000019B00982946324607B0F0BD10B5202AD8
:100A900004DB0146203A9140002010BD9140202304
:100AA0009C1A0346E3401943904010BD10B5202A1C
:100AB00006DBCB170846203A1041C1170B4306E06E
:100AC0000B461341D0402024A21A914008431946F6
:100AD00010BD00000FB400B589B00CA900910B99AE
:100AE0000023CB60204B214A0693079204220192F7
:100AF0001F4A02921F4A089202466B46002000F0ED
:100B0000E8F909B008BC04B0184770B586B00646CD
:100B10000020C0430190002015460C460091029130
:100B200004903246694604A8FFF7D4FF02460498B1
:100B30002118002D05D0002801D0084600E02046ED
:100B40002860049800280DD0002A02DD0098884211
:100B500008D0081B0190009432466946029404A80C
:100B6000FFF7B8FF06B070BD291100084911000851
:100B7000FFFFFF7FB5020008F7B5009C0F46002677
:100B80002578641C002D05D0FFF790FB0068405DC0
:100B9000C007F5D12B2D02D02D2D18D0641E39465B
:100BA0002046029A00F0E2FA002F04D03968A142F0
:100BB00001D1009939607105022400290BDA404205
:100BC000002803DD0CF02AF90460A007FEBD012017
:100BD00080020643E3E70028F8DA0CF01FF904600E
:100BE0000048FEBDFFFFFF7F002904DA401C4900DA
:100BF00001D140084000704770B40024050C05D1B5
:100C00001024000402D1002921D01124050E01D1A5
:100C100000020834050F01D10001241D850F01D108
:100C20008000A41C002801DB4000641C002908D0BF
:100C300020252E1B0D46F540A14000D0012129435F
:100C4000084301061B1B000ADB1D02D5002070BCF7
:100C50007047DB05181880180029F8DA401C490095
:100C6000F5D170BC40084000704710B5002B08DA81
:100C70000024401C614192185B411A4301D1400895
:100C8000400010BDF0B51FB482B005460C0003D083
:100C900008460CF09FF802E00CF09CF82030024669
:100CA000009021462846FFF7F1FE049B059A044672
:100CB0000F4618431143084314D0184610431BD065
:100CC000009840210A1A18460599FFF7DEFA0546F2
:100CD0000E46009A05990498FFF7D8FE084305D000
:100CE000012004E02046394607B0F0BD0020C117BE
:100CF00005430E432C43374300990E986305401A71
:100D00007905E40A00220C43FD0A0A3002D50020CE
:100D10000146E9E70105101969410C9C0D9D001978
:100D20006941FFF7A2FFDFE74A0009030123090B2E
:100D30001B0519430A4B10B5520D9A4202DA0020E6
:100D4000014610BD064B34339A4203DC9A1AFFF772
:100D50009CFA10BD034BD218FFF798FE10BD00009F
:100D6000FF030000CDFBFFFF10B5002904DB0124C9
:100D7000E40740428C412146002B04DB1C46012342
:100D8000DB075242A341994200D1904210BD0000BE
:100D9000064C0125064E05E0E36807CC2B430C3CCE
:100DA00098471034B442F7D3FFF78CF99C39010807
:100DB000BC390108FFB5087889B01546FF2805D071
:100DC000491C2D2804D00022002407E000240BE059
:100DD0000122F9E70A235C430419491C0878FF281B
:100DE000F8D1002A00D06442002004902A780146FD
:100DF0002D2A01D02B2A0FD16D1C2D2A02D00022C2
:100E0000049209E00122FBE700260A2233466D1C0A
:100E1000FFF7FEF9381871412F78FF2FF4D10C9AA3
:100E2000A218069202460A4304D0FF23069A913381
:100E3000DA4205DA002109980A4606C00DB0F0BD75
:100E40000024B74AB54D2646079200F0F1F902900A
:100E500006980391002801DA474200E00746390569
:100E60000020AF4A001C51410191009012E0F807A8
:100E700007D022462B4630460799FFF78FFC0646DF
:100E8000079122462B4610461946FFF787FC044679
:100E90000D467F10002FEAD10698019B0028009A8A
:100EA0000399029806DAFFF7E1FC3246079BFFF749
:100EB000DDFC05E0FFF772FC3246079BFFF76EFC96
:100EC000049A002A02D00122D2075140099A03C293
:100ED000B4E7FFB591B0002009900025ED432E2026
:100EE0009E685C681F460190B9696D1C129888471E
:100EF0000090396A88470028F6D10098401C0AD033
:100F00000D20C0018443002E12DD00982B2809D04B
:100F10002D280DD103E00020C04315B0F0BD012005
:100F200080020443B9696D1C12988847761E0090B0
:100F300003A9600501D52D2000E02B206A4610731F
:100F4000491C0CA80F9102900AE0B9696D1C129817
:100F5000884700900120400204431398761E0560E4
:100F6000002E02DD00983028EFD0019900988842C9
:100F700046D18020044308E00998401E09900120D2
:100F8000400204431399681C0860B9696D1C761E01
:100F90001298884700903028EED031E001998842BD
:100FA00005D1200603D480200443761E1EE000985D
:100FB0000CF064F8002826D001204002044307A961
:100FC0000F980331761E88420BD200980F99303863
:100FD00008700F98401C0F90200607D50998401EF6
:100FE00003E0200602D40998401C0990A00502D510
:100FF0001399681C0860B9696D1C129888470090A5
:10100000002ECBDC59E0002E57DD0098652801D07A
:10101000452852D1A00550D5032000028443B96968
:101020006D1C761E129888470090002E0CDD2B2830
:1010300004D02D2808D1FF2001300443B9696D1C6C
:1010400012988847761E0090E00501D52D2100E01A
:101050002B21029801700298401C0290019025E01B
:101060000120400204430EA902980131761E8842F5
:101070000ED20098029930380006000E087003D195
:101080000299019881420AD90298401C029006E018
:10109000E00501D5234801E0224840420990B969A2
:1010A0006D1C12988847009013980560002E04DD8F
:1010B00000980BF0E3FF0028D2D1F9691298884715
:1010C0000F99FF200870029903AA087000200A9067
:1010D0000B900CA90AA8099BFFF76CFEA00502D48F
:1010E0000120C04319E72420044209D0E00713D1AE
:1010F00038680B9A0A99031D3B60006806C00BE034
:101100000B990A98FFF762FC0146E00704D13868A2
:10111000021D3A60006801602846FEE600001440A7
:101120000000F03FF1D8FFFF4268002A08D00168B4
:101130000B78491C002B03D0521E06C0184670477E
:101140000121C160881E70474268002A0BD0C36825
:101150000168002B07D183688B4204D0491E521CC2
:1011600006C0002070470020C0437047F7B582B02A
:10117000029C00272078641C15460197302802D075
:10118000002D15D015E020780127641C782804D0A4
:10119000582802D0002D09D00BE0002D01D0102DD1
:1011A00007D1002710252078641C02E0082500E004
:1011B0000A250026009610E00099012769430818C7
:1011C000020C294680B2714300908E183804864282
:1011D00001D3012001902078641C294600F019F801
:1011E0000028E9DA0398002805D0002F01D0641EFA
:1011F00000E0029C04600198002806D00BF00EFE6F
:1012000002210160C81E05B0F0BD009930040843FA
:10121000F9E73A2800D23038202302469A43412A7F
:1012200001D310463738884201D30020C0437047AD
:101230000EB5054A02920022009213460192FFF772
:1012400021FD03B000BD00003304000070B58C1810
:101250000578401C6B075B0F01D10378401C2A11F5
:1012600006D10278401C03E006780E70401C491C31
:101270005B1EF9D12B0705D40023521E0DD40B7031
:10128000491CFAE70378401CCB1A921C03E01D7836
:101290000D70491C5B1C521EF9D5A142D8D3002009
:1012A00070BD0000F3B581B0002100910024334EE1
:1012B000401E45000A20604381190298FFF76AF832
:1012C000002811D0641C0A2CF4DB00242C4FA00051
:1012D000C1190298FFF75EF800280DD0641C042C99
:1012E000F5DB0124274F13E0274A0120515BA04082
:1012F000014351530098FEBD0620FEBD0A2023493C
:10130000604341180298FFF745F8002806D0641C96
:1013100078788442F2DB1E48B86310E00720FEBDF7
:10132000006804682046FFF72EF80246214602981E
:10133000FFF754F8002817D0B86B4068B863B86B53
:101340000028EDD1002420460A214843305C0028C3
:101350000CD0641C0A2CF6DB0B4A0120515BA04028
:10136000014351530098FEBD0820FEBD0A20604392
:1013700080190299FFF729F8EEE70000CA0400205F
:101380004216010818000020D6080020D1070020CE
:10139000C0030020F3B58DB00C4600200B90414EE9
:1013A000B07A002808D04048A50040590DF054F804
:1013B0003E4840590DF050F83D4904200855B07A98
:1013C000002804D0204602F0E9FC04F064FC02A8E6
:1013D000009004AB03AA05A9204602F051FC684620
:1013E000808906900120079000250895099506A997
:1013F000059803F097FA6846008906900795022041
:10140000089006A9049803F08DFAE100294A6118B2
:1014100089180D984870601E85002E46EC36B0B2D3
:1014200001A901F0FDFF0D9A210312021143B21C24
:10143000771CEF3589B20C92002813D00191B0B21D
:1014400002F062F8B8B2002102F05EF80C980021B8
:1014500080B202F059F8A8B2002102F055F80B98BA
:101460000FB0F0BD68468088000A0209A24206D18A
:1014700002070D98120F824201D10020F0E701917E
:10148000B0B202F041F8B8B2002102F03DF80C9879
:10149000002180B202F038F8A8B2002102F034F83E
:1014A000DDE700001800002098110020B411002092
:1014B000DE010020D10B0020F8B50F4601280FD027
:1014C0002C4E2D4D31781422491E514349190228C2
:1014D0000AD0032846D10120087409F071FE41E0CA
:1014E000384606F079FEF8BDC868002823D0FEF71C
:1014F0004AFF04463846FEF746FF011930781422A9
:10150000401E50434019891CC0680DF025FE3178FB
:101510001422491E51434919C860611C40183946BC
:10152000FEF753FF30781422401E13215043401918
:10153000C06801550EE03846FEF725FF401C0BF051
:10154000A3FC31781422491E51434919C860394619
:10155000FEF73BFF30781421401E48434019C16814
:10156000002901D00020F8BD1421FEF7DEFE0E2078
:10157000F8BD000080020020340F0020F0B587B0D5
:101580000E9E0F9D0D9C7D273F01D21B6F46FA7664
:101590007876B9763B76002206A91D4804F002FA57
:1015A000002802D0FF2007B0F0BD69460E714C71D3
:1015B0000C988871002005901822164C0C2E00D92A
:1015C00062730C21012D0BD0022D0DD0627300220D
:1015D00001A90F4804F056FA00280AD0FF20E2E7DC
:1015E0006A4610736173F2E740206A4610736173B4
:1015F000EDE7607B010220790143FF201B3001F001
:1016000083FF054A0121024804F027F90020CAE7B8
:10161000080E0020FC0C0020F2320000F8B508F0A3
:10162000D7F902F087FB01F0E3FC02F053FA01F076
:1016300043F80AF0BDFF00F0E9FC0AF08BFF05F06B
:101640006FF8002803D001F0C3FC06F0DBFC05F0C6
:10165000D9F80127344D002813D02F7332200AF017
:1016600011FB06F0F7FBE120304E4002B060012490
:101670002046B1680BF04AFB641CE4B2062CF7D993
:1016800004E032200AF0FEFA06F0E4FB06F00AF964
:101690000BF046FB0AF00EFAA87801260924F602A0
:1016A000E406002831D001223146204603F0F1F94A
:1016B000FF20F5300AF0E6FA00223146204603F01A
:1016C000E8F964200AF0DEFA01223146204603F0F0
:1016D000E0F964200AF0D6FA00223146204603F0F1
:1016E000D8F964200AF0CEFA01223146204603F0F0
:1016F000D0F964200AF0C6FA00223146204603F0F1
:10170000C8F909F00FF9AF72F8BD01223146204641
:1017100003F0BFF9FF20F5300AF0B4FA0022314699
:10172000204603F0B6F9ECE718000020FC0C00207E
:101730008CB00025002000900124B948005D0128EC
:1017400001D000287ED1B748001920380B90C67F01
:1017500040E03F2E0ADA601E8101B3480818815D1F
:10176000482903D1801940785A2802D03F2E02D050
:101770000CE0354630E0601EAB4980014218203253
:10178000D27F482A02D1085C5A2802D03F2E02D0CC
:101790001FE03F2520E0A548C07E002817D10B9808
:1017A000C07FA14B611E8A01D1180EE00F5C0D2F86
:1017B0000AD13F2803DA0F187F78002F12D03F2874
:1017C00002D19F5C002F0DD0401C4028EEDB012091
:1017D0000090761C402EBCDB0098002816D000201C
:1017E000009015E100220A540B99401CC8779049DB
:1017F0008B480B78C254032202550C708D4800238D
:101800000222194680690FF0D5FCE0E73D2D23D078
:101810003E2D2AD03F2D2FD0601E8101824808180E
:1018200040198678E81C0190AF19FF1C3F2F00DD9E
:10183000403FBD427CD0012002F0BAFFBD4223DA16
:10184000601E00E0CDE081017748F21C08184119C4
:101850007948FEF751FD2CE0601E8101724808189E
:101860002030C67F00200190DEE7601E81016E48B7
:10187000465C01200190D7E7601E81016A48081884
:10188000467802200190CFE74020421B601E810174
:1018900065480A920918099149196748FEF72CFD15
:1018A0000A9A6548B31ADB1C10181A460999FEF704
:1018B00023FDF01CC117890F0818821008905E499B
:1018C0005E4802F0FCFA5B490870F01C80070AD001
:1018D000089801228108584889000918574802F0E1
:1018E000C1FA5449087038215348FEF71EFD601EA6
:1018F0004D49820151180791CA5D4E4909788A42C3
:101900004CD1474901220A554D4909192039CE7752
:1019100001993F22511AB1420BDB019A07998918AC
:1019200038225043474A80183246FEF7E5FC15E05E
:1019300034E0019A40218A1A0692019B0799C9183E
:10194000382358433F4BC0180590FEF7D5FC069A44
:10195000059807998018B21AFEF7CEFCBD4205DA49
:101960000798311D4019FEF7E0FC0CE04020411BB8
:10197000079804914019FEF7D8FC04990798711A4A
:10198000091DFEF7D2FC0B987F1CC7772948818878
:10199000491C8180204606F09FFB39E0BD4208DAF1
:1019A000601E8101204808184019311DFEF7BDFC5A
:1019B00010E04020411B601E82011B48039110185B
:1019C00002904019FEF7B1FC03990298711A091DA3
:1019D000FEF7ABFC0B987F1CC77716494888401C64
:1019E0004880194800192038C17F012910D10021F1
:1019F000C1770B48025D052A00D10155204602F04F
:101A0000CDF9611E8A0108495118402204F040FBBB
:101A1000641CE4B2062C00D88FE60EF069FD8BE65C
:101A2000DE01002098020020980F0020FC0C00200E
:101A300021000020A802002018110020DC1700203F
:101A4000D8010020080900209E0200201FB50A4688
:101A50000123991E019102910224044900940393E9
:101A60008B7819460AF020F904B010BD1800002048
:101A700038B51C460D4B0125DD701971FF290CD0BE
:101A800013460146FE220020009409F06BFC21461B
:101A90000748FEF74AFC002038BD13460146FF22E6
:101AA0000020009409F05EFCF1E70000180000201F
:101AB000900A002038B500240A4A0023D370107120
:101AC000FF2807D00091FE221946184609F04AFC6B
:101AD000204638BD00230091FF221946184609F020
:101AE00041FCF5E718000020FFB585B0002002900A
:101AF00003900490D14F07980AF0DDFBD04C60783A
:101B0000002806D10322CFA10798FEF767FC002822
:101B100037D06078002806D00622CBA10798FEF7C0
:101B20005DFC002842D0C648407802284AD02E21C9
:101B30000798FEF71EFC044620007DD00322C4A1B6
:101B4000E01EFEF74BFC0028F7D0FEF7AFFB006865
:101B50006178405C2028F0D00798221A014602A83C
:101B6000FEF7FAFB02A802F003F805463878854232
:101B700038D199229200601C089901F02FFF064687
:101B800026E107990120C91CFFF796FC002806D022
:101B9000B04908980BF00AF90020607004E00220B8
:101BA000607008980D210170002611E1002060701E
:101BB000A9A10320FFF780FCA84908980BF0F6F8CC
:101BC000002605E102200799FFF776FC002804D0E3
:101BD000A04908980BF0EAF802E008990D20087077
:101BE0000026F5E0642D4ED0662D52D0FF2D56D044
:101BF000E8B2FE287AD0062299A1601CFEF7EEFB1F
:101C0000002874D00798FEF7BEFB064602A8FEF730
:101C1000BAFB321A521E611C9348FEF79DFB0798CF
:101C2000FEF7B1FB044602A8FEF7ADFB201A401EEA
:101C300082B2E8B2172100E0C3E009F013FD2A46A2
:101C40008AA108980BF0B2F80898FEF79CFB0028D0
:101C50000DD0069800280AD00898FEF794FB82B2AF
:101C6000012000903223089905980EF05DFF089836
:101C7000FEF789FB01460898FEF757FB84488079F8
:101C8000602875D09BE083A108980BF08FF80026A0
:101C90009EE08AA108980BF089F8002698E01921A7
:101CA0009048FEF742FB0798FEF76DFB054602A839
:101CB000FEF769FB2A1A521E611C6B48FEF74CFBAB
:101CC0000798FEF760FB054602A8FEF75CFB281AA2
:101CD00083B21722FF213878FFF7CAFE99229200BB
:101CE000601C089901F07AFE064601E005E040E03C
:101CF0007DA10898FEF724FB6AE0514928128870FC
:101D000019217848FEF711FB0798FEF73CFB0546C2
:101D100002A8FEF738FB2A1A521E611C5248FEF731
:101D20001BFB0798FEF72FFB054602A8FEF72BFBCF
:101D3000281A83B24248172281783878FFF798FE34
:101D40003878401E41007048405A3D498978C84063
:101D5000C00706D099229200601C089901F03EFE4F
:101D60000646089A02AB69A110460BF01FF82FE057
:101D700012E0474900208871E8B20022192109F0D9
:101D800071FC64200CF042FB6B48E9B2027800233E
:101D900038780DF01BFA71E77D21C90001200EF0A3
:101DA00009FA66480078002809D065490888401C6F
:101DB0000880089A2B4663A110460AF0F7FF002618
:101DC00006E0992292000899079801F007FE06465E
:101DD0000898FEF7D8FA00280ED0069800280BD0F5
:101DE0000898FEF7D0FA82B20020C0430090322358
:101DF000089905980EF098FE0898FEF7C4FA014677
:101E00000898FEF792FA002E00D074E600200290A7
:101E1000039004900A4C607800280DD106980028A1
:101E20000AD0E068FEF7AFFA82B2701E009032234B
:101E3000E16805980EF078FE09B0F0BD1A000020A8
:101E40008002002069662000656E642069660000DB
:101E5000626F73003C3501080000000090350108F6
:101E60007570646174650000900A0020436F6D6DA9
:101E7000616E6420666F7277617264656420746F4E
:101E8000204D6F64756C652025640A0D000000000C
:101E9000FC0C002057726F6E67206D6F64756C6567
:101EA000206E616D652120506C65617365207472D0
:101EB0007920616761696E2E0A0D000057726F6E9E
:101EC00067206D6F64756C652049442120506C65F6
:101ED0006173652074727920616761696E2E0A0DE5
:101EE00000000000280E0020436F6D6D616E6420BD
:101EF00062726F616463617374656420746F2061E2
:101F00006C6C0A0D00000000D608002025734D758A
:101F10006C74696361737420436F6D6D616E6420CE
:101F2000666F7277617264656420746F2067726F88
:101F300075702025730A0D00210000201F0000206D
:101F4000DC02002025734D6F64756C6520256420CC
:101F50006973206E6F7420726561636861626C657D
:101F60002E0A0D0070B5002355080AE09C000C5B9A
:101F70005E002404761C76008E5B34430668346071
:101F80005B1C9D42F2D8D20703D09A00895A02689E
:101F900011800068006870BDF0B5002397080EE05E
:101FA0009D006C184D5DE6782D062E436578A4786B
:101FB0002D042402254304682E4326605B1C9F42A7
:101FC000EED894071FD09407A40F012C03D19D00D5
:101FD00006684D5D3570022C07D19C000D5D2D0209
:101FE00064186478254304682580D24392070AD197
:101FF0009A008B5C1B0251184A78134302681380C5
:1020000002688978117000680068F0BD10B5084852
:10201000064901601021C1600021417101714161D7
:1020200081610321016201F07BFF10BD003002409D
:10203000DC170020F0B587B00020019000250124B6
:10204000E0002018DF4F0690C6197078002876D07F
:10205000DD48407B002802D106980021395402A8AF
:10206000009004AB03AA05A9204601F009FE6846CA
:1020700081890022059802F00CFD0A2009F0F0FD8C
:1020800068460189049802F0F9FC00280ED16846E0
:1020900081890122059802F0FCFC0A2009F0E0FD8C
:1020A00068460189049802F0E9FC0190684681893C
:1020B0000022059802F0EDFC7078012806D0022875
:1020C0000FD0032818D004282BD120E00198012834
:1020D00003D00198002802D023E0042521E0032545
:1020E0001FE00198012803D00198002802D018E0D1
:1020F000042516E0032514E00198012803D0019877
:10210000002802D00DE002250BE0012509E001982E
:10211000012803D00198002802D002E0012500E048
:102120000225042D01D0022D0CD1A64AA0003F3279
:102130001158A64B994203D2491C115002E0C7E046
:1021400000211150032D01D0012D21D19D4AA00065
:102150005B3211589D4B994202D2491C115001E04B
:1021600000211150984B987D022808D19849994A2E
:10217000085D5279904202D8401C085508E0944905
:1021800094480A5D4079824202D90020987508552A
:102190008C489049A7003F300988C0598C46884236
:1021A00042D3604507D1874A069907235354114605
:1021B0003F31401CC8518348864B5B30C259624551
:1021C00001D90021C1517F4859883F30C0591A4672
:1021D00088421BD9FF21F531884217D27A49887D80
:1021E000002802D0022803D01EE0012088751BE0E1
:1021F000774B1179185D884216D95179884213D2EC
:10220000714803218175002018550DE0FF3872498F
:10221000F538884208D26C48817D002901D0002120
:102220008175204600F0DAF866486A495B300A8812
:10223000C0599446904238D3604507D1614A069907
:102240000823535411465B31401CC8515D4A614913
:102250003F32D059604501D90020D05159484988B2
:102260005B30C059884218D9FF21F531884214D219
:102270005549887D012802D0032807D015E0514A2E
:10228000069805231354022088750EE04D4A0698DF
:10229000062313540020887507E0FF384E49F538AF
:1022A000884202D2204600F0BDF8464F0698385CBE
:1022B000401F03000AF0A5FD0A1421060D2E3B491C
:1022C0005764727F20460BF033FC06990020785447
:1022D00071E020460BF02EFC0699002078546AE04D
:1022E0003948417B002966D1317AC90763D0012181
:1022F000417320460BF01AFC5DE03348417B002916
:1023000059D1317A890756D50121417320460BF006
:102310000EFC50E02C48417B00294CD1317A490712
:1023200049D50121417320460BF003FC43E02648C8
:10233000417B00293FD1317A09073CD50121417306
:10234000022120460BF0F5FB35E01F48417B0029B8
:1023500031D1317AC9062ED501214173032120469E
:102360000BF0E7FB27E01848417B002923D1317AA5
:10237000890620D50121417320460BF0DCFB1AE0D1
:102380001148417B002916D1317A490613D5012124
:102390004173022120460BF0CEFB0CE00A48417B42
:1023A000002908D1317A090605D50121417303219D
:1023B00020460BF0C0FB641CE4B2062C00D83FE6BC
:1023C00007B0F0BDD10B002018000020FFFF000077
:1023D000E5010020FC0C00200BFE0000F0B50026FB
:1023E000C1000F4B4118CA189478D57812797D270F
:1023F000FF007C437D437A43870018463F30C05935
:10240000A04202D10920585407E00A24A84201D171
:102410005C5402E0904200D15C543046F0BD0000B4
:10242000D10B0020F0B50026C1000F4B4118CA188F
:1024300054799579D2797D27FF007C437D437A4397
:10244000870018465B30C059A04202D10C20585476
:1024500007E00D24A84201D15C5402E0904200D173
:102460005C543046F0BD0000D10B002038B514217B
:10247000484330490A5C4118012A04D0022A56D048
:10248000032A54D10BE08878C978C20080182A4A00
:10249000105C814201D1012038BD002038BDC878D0
:1024A0000C22401E5043254A10580468C8886A46CA
:1024B000108008895080487803000AF0A2FC073891
:1024C000050C131D242E380020460099FEF79AFAB9
:1024D0002DD1012038BD20460099FEF79DFA26D265
:1024E000012038BD20460099FEF78CFA1FD260000B
:1024F000000E1CD0012038BD20460099FEF78CFA52
:1025000015D8012038BD20460099FEF77BFA0ED879
:102510006000000E0BD0012038BD20460099FEF768
:1025200071FA04D06000000E01D0012038BD0020F7
:1025300038BD0000340F0020D10B00201003002014
:10254000F8B5002532210D48FDF7EFFE01240B4EB2
:102550000B4F0DE0601E4000315A002902D0601C74
:1025600000F0D2FFA01C1C2800D30A25641CE4B292
:1025700078788442EED92846F8BD00005407002040
:102580001800002010B506490648FDF7CEFE0648A3
:10259000012141700021817008F012FE10BD000081
:1025A000260200002E0500201800002010B5012092
:1025B00000F056F810BD000010B50D480068C0438B
:1025C000C00603D4052000F04BF810BD094801688F
:1025D000C943C90503D4022000F042F810BD0068C9
:1025E000C043C006FAD4044801F002FD10BD00004B
:1025F0000004024000000240E415002010B5154818
:102600000168C943C90303D4032000F029F810BDB1
:102610000168C943C90203D4042000F021F810BDA9
:102620000D490968C943C90503D4062000F018F80C
:1026300010BD0168C943C90403D4084801F0D8FC9F
:1026400010BD0068C043C001FAD40448383001F01E
:10265000CFFC10BD00000240000402401C16002008
:1026600070B504461048611E005D0D463822514386
:10267000022804D00D48081801F0BAFC70BD0C48BF
:10268000081801F0B5FC0B48A9000A4A4058183A4E
:10269000002802D053585B1C535051588142EDD34F
:1026A000204609F0E5FB70BDDE01002094140020F7
:1026B0008C1600208011002008B5214841690122B4
:1026C00011434161416911400091426902210A436D
:1026D00042614069084000901A491B4800F03AF8EE
:1026E000184919482831383000F034F8154916488F
:1026F0005031703000F02EF8124913486431A83080
:1027000000F028F810481149E03000F023F80F4994
:102710000F48143100F01EF80A490D4814313830C2
:1027200000F042F807490A483C31703000F03CF8AC
:10273000044907487831A83000F036F808BD000099
:102740000010024008000240941400201C040240C3
:10275000AC15002010B5016000214160816080222D
:10276000C26001614161202181610902C16101F002
:10277000CDFF10BD70B504460D462946204607F032
:10278000B1F90021284609F08FF8204601F04AFAF5
:10279000401E0449800141184022204603F078FC85
:1027A00070BD0000980F002010B50160102141603D
:1027B000002181608022C2600161416181619101DB
:1027C000C16101F0A3FF10BD10B502460E48416A79
:1027D000002908D0C06D002807D00B488030406920
:1027E000002805D006E0084C04E0074C383401E02E
:1027F000054C70342146104607F0CCFC00212046E1
:1028000009F052F810BD0000E415002010B5044690
:10281000206E0AF007FA216E00204862206610BD83
:1028200010B50160002141608160C16001614161BA
:1028300020218161C901C16101F068FF10BD000064
:10284000F8B504460D461646204601F0EBF9401E49
:1028500038214843094947183946204607F042F9CC
:102860000121384609F020F8012169200155296825
:1028700032462831204603F00BFCF8BD8C160020B0
:1028800010B5046863604368102B04D00368996036
:102890000068C26010BD03689A600068C16010BD26
:1028A000F1B582B001F066F8019001980021017045
:1028B000714C72A1A27878480AF078FA76490198AA
:1028C000FDF73EFD627A75A173480AF06FFA72490E
:1028D0000198FDF735FD012000900223002276A12A
:1028E0006D480AF063FA6C490198FDF729FD7AA258
:1028F0007CA169480AF05AFA67490198FDF720FD62
:102900007EA281A164480AF051FA63490198FDF75B
:1029100017FD84A160480AF049FA5F490198FDF764
:102920000FFD0124844D224684A15B480AF03EFA43
:1029300059490198FDF704FD285D03000AF061FA8A
:102940000504090E13181C007EA153480AF02EFA44
:1029500012E07EA150480AF029FA0DE081A14E480C
:102960000AF024FA08E082A14B480AF01FFA03E0BB
:1029700086A149480AF01AFA47490198FDF7E0FC98
:10298000641CE4B2062CCED988A143480AF00EFAA2
:1029900041490198FDF7D4FC01248A4E601E01468E
:1029A000382250430546305800285BD088008649BD
:1029B000085801F037F90746A819406A01F032F9C2
:1029C0000346224681A1344800970AF0EFF93249C4
:1029D0000198FDF7B5FC641CE4B2062CDED955A1C4
:1029E0000198FDF7ADFC85A10198FDF7A9FC0198C0
:1029F000FDF7C9FC85B201241F4EE703B0783A46C3
:102A0000401E41008548405A611ECA40104208D00D
:102A1000224683A120480AF0C9F91F490198FDF711
:102A20008FFC641CE4B2062CE8D90198FDF7ABFCDE
:102A3000A84203D17CA10198FDF782FC3DA1019839
:102A4000FDF77EFC029800280BD00198FDF79BFC57
:102A500082B20020C04300903223019902980EF008
:102A600063F8FEBD224672A10B480AF09FF90A499D
:102A70000198FDF765FCAEE7180000200A0D2A2A30
:102A80002A204D6F64756C65202564205374617431
:102A90007573202A2A2A0A00AC0C00200A0D436F05
:102AA0006E6E65637465642076696120706F727400
:102AB0003A205025640A0D000A0D4669726D77614F
:102AC00072652076657273696F6E3A2025642E25D3
:102AD000642E2564000000004A756C2020352032E9
:102AE000303230000A0D4669726D7761726520647C
:102AF0006174653A202020202573000032313A317C
:102B0000333A3033000000000A0D4669726D776178
:102B100072652074696D653A2020202025730A0DA6
:102B2000000000000A0D506F7274732053746174BA
:102B300075733A0A0A0D0000DE0100205025643A40
:102B400020000000467265650A0D0000526563654D
:102B50006976696E67206D657373616765730A0DC9
:102B60000000000053747265616D696E670A0D00A4
:102B7000526563656976696E672075736572206357
:102B80006F6D6D616E64730A0D000000436F6E6EB1
:102B9000656374656420746F206120627574746F5E
:102BA0006E2F7377697463680A0D00000A0D444D37
:102BB000412053747265616D732053746174757331
:102BC0003A0A0D008C160020501100200A0D537493
:102BD0007265616D696E6720444D412025642069EE
:102BE000732073747265616D696E672066726F6DB4
:102BF0002050256420746F20502564000A0D54680D
:102C000065736520706F72747320617265207265E0
:102C10007665727365643A20000000005407002056
:102C200050256420000000004E6F6E65000000001B
:102C30000A0D53747265616D696E6720444D4120C1
:102C4000256420697320667265650000F1B582B065
:102C500022A129480AF0AAF82748FDF794FB00278B
:102C600082B2FF4332232449009702980DF05CFFA3
:102C7000012520E00124681E46002048621E815B79
:102C80000120C003D04001420FD023462A461CA198
:102C900019480AF08BF81848FDF775FB82B2322309
:102CA0001549009702980DF03FFF641CE4B20A2C0E
:102CB000E3D96D1CEDB2174840788542DAD916A1E8
:102CC0000D480AF073F80C48FDF75DFB82B2322321
:102CD0000949009702980DF027FFFEBD0A0D5468C0
:102CE00065736520706F7274732061726520726500
:102CF0007665727365643A00AC0C002054070020BE
:102D00000A0D4D6F64756C65202564203A205025AE
:102D100064000000180000200A0A0D416C6C206F4E
:102D20007468657220706F72747320617265206EB2
:102D30006F726D616C0A0D00F1B582B049A14E4809
:102D40000AF034F84C48FDF71EFB002682B2F64329
:102D500032234949009602980DF0E6FE01242246EE
:102D600046A145480AF022F84348FDF70CFB82B221
:102D700032234149009602980DF0D6FE641CE4B25D
:102D8000062CECD9322303223EA1009602980DF0C6
:102D9000CBFE002551E06A1C3BA137480AF006F83B
:102DA0003548FDF7F0FA002482B2E4433223324979
:102DB000009402980DF0B8FE16202F46354E47437A
:102DC000F05B062148433449052241182A48FDF7A3
:102DD000C3FA322305222849009402980DF0A4FE7C
:102DE0003223012223A1009402980DF09DFE0124BC
:102DF0003046A61E3F186000385A00282BD04307E3
:102E0000C2085B0F25A11C4809F0D0FF1A48FDF746
:102E1000BAFA82B232231849009602980DF084FE65
:102E2000641CE4B2062CE6D9322302221DA10096CE
:102E300002980DF079FE6D1CEDB21B48407885427A
:102E4000A9D30020C04300903223012217A1029889
:102E50000DF06AFEFEBD002215A1074809F0A6FF8D
:102E6000D4E700000A0D284D6F64756C653A506F09
:102E70007274290909000000AC0C00205025640977
:102E8000000000000A0A0D004D6F64756C65202576
:102E9000643A09002E050020C415010825643A256E
:102EA000640900000A0D0000180000200A0000005C
:102EB0002564090013490988134A1288002816D08E
:102EC000012801D0002070471048002A03D00029B3
:102ED00007D0AB207047814201D10020704702200B
:102EE0007047824201D102207047002070470029BC
:102EF00003D0002A03D0AB20704700207047022087
:102F00007047000000E0010800F00108EEEE00004C
:102F1000F8B501F0F5FC274F384600F07FFB264D51
:102F2000284600F0B5FB254C002802D0E06980B2AD
:102F3000F8BD234800F072FB284600F0A9FB0028EA
:102F400002D0E06980B2F8BD1E4E3069022188438C
:102F50003061002213463946012001F08FFC2846DB
:102F600000F096FB002802D0E06980B2F8BD30691D
:102F7000400840003061144800F050FB284600F043
:102F800087FB002802D0E06980B2F8BD0F4800F04E
:102F900045FB284600F07CFB0546002D02D0E06989
:102FA00080B2F8BD306940084000306101F05CFC3F
:102FB0002846F8BD00E0010850C300004804002086
:102FC00000E801080020024000F0010800F80108B4
:102FD00070B5054C054D206BA84204D0FFF798FF53
:102FE000002800D1256370BDC07F0020ADDEEFBE9C
:102FF000F8B50025ED4301F083FCBB480188BB48D0
:103000000088BB4E2A0CBB4F002979D0BA4BC91897
:1030100066D0BA4AD14210D1002819D0594288420C
:1030200054D1B14800F0FAFAB54C204600F030FB1C
:10303000002829D0F06980B2F8BDFFF769FFB048D9
:1030400000F026FB0028F7D101F00EFC0020F8BDAF
:10305000A54800F0E3FAAA4C204600F019FB00282E
:1030600002D0F06980B2F8BDA64800F0D7FA204639
:1030700000F00EFB002802D0F06980B2F8BD38697C
:10308000022188433861DFE79E4800F0C7FA2046F6
:1030900000F0FEFA002802D0F06980B2F8BD39696C
:1030A000022081433961002213469049012001F03A
:1030B000E5FB204600F0ECFA002802D0F06980B26F
:1030C000F8BD3869400840003861BDE7FFF720FFD0
:1030D0008B4800F0DDFA0028B6D0F06980B2F8BD68
:1030E00000280ED090427ED1804800F097FA844CA0
:1030F000204600F0CDFA002852D0F06980B2F8BD29
:103100007BE001247848C088A04200D125B2AC42BF
:1031100012D07D49204600F083F901280CD07A486E
:103120000188204600F0A0F90090754800F0B0FA40
:10313000002801D00098E2E7641CA4B201208002BC
:103140008442DFD9002213466749012001F096FB33
:103150006B4C204600F09CFA002802D0F06980B247
:10316000CDE73869400840003861604800F056FA01
:10317000204600F08DFA002802D0F06980B2BEE748
:10318000624800F04BFA204600F082FA002802D094
:10319000F06980B2B3E7386902218843386153E7A8
:1031A0005A4800F03BFA204600F072FA002802D09C
:1031B000F06980B2A3E739690220814339610022B6
:1031C00013464949012001F059FB204600F060FAFE
:1031D000002803D0F06980B291E704E03869400824
:1031E0004000386130E7FFF793FE454800F050FAA1
:1031F0000028D4D0F06980B281E700280DD0904239
:1032000023D13A4800F00AFA3D4C204600F040FA3B
:1032100000280AD0F06980B271E7FFF779FE3848DC
:1032200000F036FA002886D10EE7384800F0F6F9AB
:10323000204600F02DFA002802D0F06980B25EE747
:103240003869022188433861FEE601242748C08896
:10325000A04200D125B2AC4212D02B49204600F04A
:10326000DFF801280CD028480188204600F0FCF83F
:103270000090234800F00CFA002801D000983EE7A7
:10328000641CA4B2012080028442DFD900221346CC
:103290001649012001F0F2FA194C204600F0F8F925
:1032A000002802D0F06980B229E738694008400060
:1032B00038610D4800F0B2F9204600F0E9F9002825
:1032C00002D0F06980B21AE70E4800F0A7F9204654
:1032D00000F0DEF9002802D0F06980B20FE739690A
:1032E000022081433961AFE600E0010800F00108E7
:1032F00048040020002002401211FFFFEFEEFFFF04
:1033000050C3000000E80108A402002000F80108F2
:10331000F3B581B00C4601F0F3FA0020FFF7CAFDC7
:103320003849394D022803D0002803D0AB20FEBD18
:103330000F4601E02F460D46344A0023394601204E
:1033400001F09CFA324800F0A3F9324E002802D076
:10335000F06980B2FEBD3048016949084900016149
:103360002146019800F080F80028F3D1012401984B
:1033700084420CD02949204600F052F8012806D09A
:1033800026480188204600F06FF80028E2D1641C2E
:10339000A4B2012080028442E9D9284600F03EF917
:1033A0001B4C204600F074F9002802D0F06980B26E
:1033B000FEBD0120C002281800F030F9204600F0C0
:1033C00067F9002802D0F06980B2FEBD124D28696D
:1033D000022188432861002213463946012001F06A
:1033E0004DFA204600F054F90446002C02D0F06952
:1033F00080B2FEBD286940084000286101F034FA1F
:103400002046FEBD00E0010800F00108EEEE0000DD
:1034100050C300004804002000200240A402002005
:1034200070B505460E4601240020FFF743FDAB288A
:1034300008D00C4AC1028918801CC002921E821852
:10344000891C0AE0AB2070BD1088A84204D1403A24
:10345000D08F3080002402E0121F8A42F4D8204628
:1034600070BD000000E00108F8B505460E4601F009
:1034700047FA0120FFF71EFDAB2807D01E4AC10204
:103480008C18801CC002911E411805E0AB20F8BDCD
:103490002068401C06D0241D8C42F9D301F0E4F9C9
:1034A0008020F8BD324600232146012001F0E6F9D4
:1034B000124800F0EDF8124E002802D0F06980B2F8
:1034C000F8BD104F38694008400038612A46002393
:1034D000A11C012001F0D2F9084800F0D9F8002819
:1034E00002D0F06980B2F8BD386940084000386108
:1034F000F06980B2F8BD000000E0010850C3000090
:10350000480400200020024070B505460E4601F038
:10351000F7F931462846FFF7A7FF0446802C04D16F
:1035200031462846FFF7F4FE044601F09DF9204697
:1035300070BD0000FEB500200190002400F01AFAD2
:103540000090174F26E014206043C519287C0028FE
:103550001ED0E0B2FEF78AFF002819D011492020C2
:103560008871114E0DE00E4A0021323A3078009BEE
:10357000FEF7BAFA0098FCF706FF01460098FCF740
:10358000D4FE0749E868323904F0ECFD0028EAD19E
:10359000641CA4B2054800788442D4D30198FEBDCF
:1035A000340F0020FC0C00202100002080020020AD
:1035B000FEB505460020019001240D4F0D4EAC4292
:1035C0000FD0788B010A31707070B4700320002224
:1035D00000900A231146204607F0C4FE0A200AF094
:1035E00015FF641CE4B2062CE9D90198FEBD000069
:1035F00018000020900A002006490020C8610648F3
:1036000001690422114301610169402211430161F2
:10361000704700004804002000200240064A0021B4
:10362000D16106490A6902231A430A61486108699F
:1036300040221043086170474804002000200240E7
:1036400010B5054B0022DA61044A136901242343B3
:103650001361018010BD00004804002000200240DA
:103660000949C868C206094803D5C26902231A433A
:10367000C261CA68520703D5C26901231A43C261F5
:103680001420C86070470000002002404804002059
:1036900070B5044601F012FA0546104E0AE0601CAF
:1036A00008D0002C04D001F009FA401BA04201D937
:1036B000032070BDF068C007F1D1F068800601D525
:1036C0002020F060F068C00602D4F068400703D5FF
:1036D000FFF7C6FF012070BD002070BD0020024032
:1036E000FEB504460020009000250026384F78786B
:1036F00009F0CAFB002305E0435536496A008B52A6
:103700006D1CEDB2324949788D42F5D3761C011912
:103710002039CE77761CF3B20121641EA44616220E
:1037200054432C4A9632A218964672464C00125BBD
:10373000002A0DD064466400264D4E1E01272D5BE5
:10374000B740244E3D433553D2081218203AD37760
:10375000491CC9B20629E8D900245B1CDBB200224F
:103760002BE0855C591E8D4225D10121194E16256D
:1037700096365543AD190195019D4E00AD5B002D68
:1037800015D0ED082D18203DAC46ED7F002D0ED153
:103790005700104DBE46ED5B4E1E0127B7403D431E
:1037A0000C4E7746F5536546EB77641CE4B2491C32
:1037B000C9B20629E0D9521CD2B2054949788A42D9
:1037C000CFD3002CC8D1009C09F02CFB2046FEBDB5
:1037D0001800002098040020F0B58FB007460E4670
:1037E00034216846FCF7A1FD002400251921514829
:1037F000FCF79BFD4F4900203239C9192039C877A1
:103800004C491939C9192039C8770120791E162267
:103810005143494A89180E9146493239891920394C
:103820000D910E994300C95A00290AD0C908B14226
:1038300007D10D9A0121D1773E490E70C0B20FB069
:10384000F0BD401C0628ECDD01203C494A780EE022
:10385000B8420BD03749FF23323909182039CB77CA
:10386000344B0021193B1B18203BD977401C904258
:10387000EEDD36E02F48694632380AF071FD401C13
:10388000C4B2B44232D06946012009192039C87740
:10389000611E16225143284A89188C46614642000F
:1038A000895A002919D04905090E6A465218203A4A
:1038B000D27F002A11D11F4B323B1A19203AD27FF6
:1038C000521CD2B25B18203BDF7F974205D9DA77D2
:1038D000184A193A51182039CC77401CC0B2062832
:1038E000DCD9684605F0B2FF0028C3D0114A114662
:1038F000193904E02B466D1CEDB2D4540446081966
:103900002038C07F0028F5D101200A4A521E0E99A6
:103910004300C95A002907D0CB080D99C97F895C9B
:103920008B4201D1C0B28AE7401C0628EFDD00209F
:1039300085E70000B80700202E05002018000020B1
:10394000F8B5044609480026C670611E3822514366
:10395000074A555C80782946FFF73EFF00232A4638
:103960001946009407F0FEFC3046F8BD1800002010
:1039700008090020004870473C18002030B500239B
:1039800000250024146025E0401C00240457002C6E
:1039900003D0202CF8D100E0401C00240457002C58
:1039A00001D0202CF8D00478002C15D05B1C8B4261
:1039B00010D1054603E01168491C1160401C00212C
:1039C0004156002901D02029F5D11068002803D1E3
:1039D000002501E08B42D8D3284630BDF7B5064616
:1039E00001242A4DA86800281AD128461430A8605E
:1039F00013E0006807683846FCF7C5FC0246B0567D
:103A0000202801D0002805D139463046FCF7E6FCD5
:103A1000002817D0A8684068A860A8680028E8D1E6
:103A2000A8680027002801D0002C1DD0002824D031
:103A3000006832468368029901989847044620003E
:103A400019D020E0A8680C21006841560029E7DB66
:103A500030460AF097FF0146A8680C22006882569B
:103A60009142DDD00024DBE70949029A0198FCF776
:103A700073FCAF6007E0AF6005E00649029A019869
:103A8000FCF76AFC00242046FEBD0000AC030020C9
:103A9000F43801084C39010870B50546002D12D0E4
:103AA00008200BF0D1FA0446002C0ED00CF0E4FCF8
:103AB000256000206060064841684C6044600CF05E
:103AC000E7FC012070BD72B6FEE772B6FEE70000AB
:103AD000AC03002008B5154842690121C9040A4316
:103AE000426142690A400092426989100A43426178
:103AF00042690A4000924269C9000A434261426930
:103B00000A400092426989100A43426142690A40B0
:103B10000092426909010A434261406908400090ED
:103B200002F0ECFD03F074FF08BD0000001002403D
:103B30001CB51E2009F0A8F904461E212046FCF7FA
:103B4000F4FB0849088B4A7D00920190087D8B7D2B
:103B5000401E054980000A580449204609F026F90C
:103B600020461CBDFC0C0020440200203418010833
:103B7000F8B50546002426A12846FCF70BFC254E87
:103B800000280AD024A12846FCF704FC002806D00F
:103B90002878232805D0214F22E0B078F8BDFF20F7
:103BA000F8BD681CFCF75BFCC0B2002802D071783D
:103BB0008842F5D9B178884201D10846F8BD66201F
:103BC000F8BD0A206043C1192846FCF7E3FB002832
:103BD00004D12878002801D02046F8BD641CE4B246
:103BE00070788442EDD300240D4E0A206043811981
:103BF0002846FCF7CFFB002805D0641CE4B20A2C51
:103C0000F3D36420F8BD2002FE3000B2F8BD0000FE
:103C10006D65000018000020616C6C00D107002069
:103C2000CA04002000681049884201D10120704771
:103C30000E49884201D1022070470D49884201D1C6
:103C4000032070470B49884201D1042070470A497C
:103C5000884201D1052070470849884201D10620D9
:103C60007047002070470000004C004000440040B6
:103C7000001401400048004000380140005000405E
:103C8000F0B5059D1C46002600F088F8224F092358
:103C9000DB06B84207D10B60012040021080236090
:103CA0004000288035E01D4FB84206D10B6004204B
:103CB00010802360082028802BE0194FB84208D1DB
:103CC000184808600121890211802060480028807E
:103CD0001FE0154FB84206D10B6001201080236011
:103CE0000220288015E0114FB84207D10D48086026
:103CF000082111802060102028800AE00C4FB84273
:103D000006D10B601020108023602020288000E066
:103D1000FF263046F0BD0000F411002064120020A0
:103D2000D41200200004004844130020B4130020E3
:103D30002414002000B587B0002201A9154801F025
:103D4000B5FD002206A9134801F08EFD6946087BE7
:103D5000C1091148491CC1740299C903090CC181E8
:103D600069468979017469464979417469460979D6
:103D700081746946897E41756946497E81756946C7
:103D8000097E01756946C97E7D2212018918018369
:103D900007B000BD080E0020FC0C002000B5030099
:103DA00009F02FF807110507090B0D0F110007483F
:103DB00000BD074800BD074800BD074800BD0748D3
:103DC00000BD074800BD002000BD000044130020D6
:103DD0006412002024140020D4120020F4110020CA
:103DE000B413002000B50179002907D0C2688168AA
:103DF00000F010F8002809D0012000BD0268044935
:103E0000516100688168182291438160002000BDE3
:103E1000B71DC10430B51F2301252C469C400C4220
:103E200002D15B1E5C1CF8D1002A11D0082A0BD0ED
:103E3000102A05D0182A0BD1072B09D3012030BD39
:103E4000082B05D3012030BD102B01D3012030BD3C
:103E500003685961006881681823994311438160A0
:103E6000002030BD70B5044600200023257F012DC1
:103E70000BD00125257702266677266A012E10D001
:103E8000022E13D0032E15D106E0022070BD830050
:103E90002668CB583360401C9042F8D320680368F2
:103EA00008E02046FEF778F8034603E02046FEF7D8
:103EB00059F80346657700202077184670BDF8B59D
:103EC000044600200023257F012D0FD001252577F2
:103ED000022666772668B7682F43B760266A012EE8
:103EE00010D0022E13D0032E15D106E00220F8BD0B
:103EF00083002668CB583360401C9042F8D320687A
:103F0000036808E02046FEF747F8034603E0204632
:103F1000FEF728F803466577002020771846F8BD9D
:103F200010B50446002C03D0607F002802D006E0C4
:103F3000012010BD00202077204600F027F8022045
:103F400060772046FFF74EFF002801D0012010BD0A
:103F50006079002814D02168206908612068816890
:103F600060229143626911438160206881688022E8
:103F70009143A2691143816001206077002010BD48
:103F800000202168C0430861E8E7000008B5044844
:103F9000426940210A43426140690840009008BDDF
:103FA00000100240F8B5044620680168490849003D
:103FB000016000F083FD06460027254620350EE00F
:103FC00000F07CFD811B7D20C000814207D9606B21
:103FD000202108436063032068702F70F8BD2068BB
:103FE0000068C007ECD1012068702F700020F8BD78
:103FF000F8B50446F749F74DF64EF64F2068CB1456
:10400000783D643E503F88423FD9F3490A68A84250
:1040100001D1082137E0B04201D1802133E0B8421C
:1040200001D119462FE0EB493C39884202D10121E8
:10403000C90328E0E7492839884202D10121C9048F
:1040400021E0E4491439884202D10121C9051AE06E
:10405000E1490831884201D1082114E0DE491C31D0
:10406000884201D180210EE0DB493031884201D104
:10407000194608E0D8494431884202D10121C903D8
:1040800001E00121C9040A4044E0D24980390A68AC
:10409000A84201D108213CE0B04201D1802138E0A2
:1040A000B84201D1194634E0CA493C39884202D1AC
:1040B0000121C9032DE0C7492839884202D10121D5
:1040C000C90426E0C3491439884202D10121C90537
:1040D0001FE0C049884201D101051AE0BE490831FC
:1040E000884201D1082114E0BB491C31884201D12A
:1040F00080210EE0B8493031884201D1194608E0EC
:10410000B5494431884202D10121C90301E00121AE
:10411000C9040A40214620310091002A70D001686C
:10412000C94309076CD40168082291430160A94979
:10413000206888423ED9A84201D1082037E0B04229
:1041400001D1802033E0B84201D118462FE0A149C7
:104150003C39884202D10120C00328E09D4928391A
:10416000884202D10120C00421E09A4914398842D2
:1041700002D10120C0051AE097490831884201D1D7
:10418000082014E094491C31884201D180200EE0BF
:1041900091493031884201D1184608E08E494431B6
:1041A000884202D10120C00301E00120C0048A49F5
:1041B000486044E0A84201D108203DE0B04201D16E
:1041C000802039E0B84201D1184635E0814A3C3AB6
:1041D000904202D10120C0032EE07E4A283A90424C
:1041E00002D10120C00427E07A4A143A904202D159
:1041F0000120C00520E0884203D10120C0061BE059
:104200002CE075490831884201D1082014E0724938
:104210001C31884201D180200EE06F493031884244
:1042200001D1184608E06C494431884202D101208E
:10423000C00301E00120C004664980394860606B1A
:104240000121084360630099042048700099002010
:104250000870216B002901D0204688475D492068FD
:104260000B1588423FD95C490A68A84201D1042154
:1042700037E0B04201D1402133E0B84201D11946C4
:104280002FE054493C39884202D10121890328E0BA
:1042900050492839884202D10121890421E04D4941
:1042A0001439884202D1012189051AE04A490831AE
:1042B000884201D1042114E047491C31884201D1D0
:1042C00040210EE044493031884201D1194608E0CE
:1042D00041494431884202D10121890301E0012191
:1042E00089040A4044E03B4980390A68A84201D168
:1042F00004213CE0B04201D1402138E0B84201D174
:10430000194634E033493C39884202D101218903FE
:104310002DE030492839884202D10121890426E064
:104320002C491439884202D1012189051FE029490D
:10433000884201D1C1041AE027490831884201D1DD
:10434000042114E024491C31884201D140210EE0AF
:1043500021493031884201D1194608E01E494431D3
:10436000884202D10121890301E0012189040A4028
:10437000002A71D00168C94349076DD401688906D4
:1043800003D40168042291430160124920688842E5
:1043900042D9A84201D104203AE0B04201D14020E4
:1043A00036E0B84201D1184632E00A493C39884229
:1043B00002D1012080032BE006492839884202D12E
:1043C0000120800424E003491439884206D10120E9
:1043D00080051DE08000024000040240C949884277
:1043E00001D1042014E0C7491431884201D1402092
:1043F0000EE0C4492831884201D1184608E0C1497D
:104400003C31884202D10120800301E00120800478
:10441000BC490839486042E0A84201D104203BE091
:10442000B04201D1402037E0B84201D1184633E014
:10443000B54A904202D1012080032DE0B24A1432E5
:10444000904202D10120800426E0AF4A28329042F7
:1044500003D1012080051FE029E0884202D101201C
:10446000800619E0A749884201D1042014E0A5493B
:104470001431884201D140200EE0A24928318842FF
:1044800001D1184608E09F493C31884202D1012001
:10449000800301E0012080049B4944394860009872
:1044A00011214170E16A002901D020468847964ACF
:1044B00020683C3290423FD9924908390B68A842A3
:1044C00001D1022136E0B04201D1202132E0B842D0
:1044D00002D1012149022DE08B49884202D10121FC
:1044E000490327E088491431884202D10121490457
:1044F00020E085492831884202D10121490519E08F
:104500008049884201D1022114E07E491431884259
:1045100001D120210EE07B492831884201D141158B
:1045200008E078493C31884202D10121490301E089
:10453000012149040B4043E0734944390B68A84208
:1045400001D102213BE0B04201D1202137E0B84245
:1045500002D10121490232E06B49884202D1012196
:1045600049032CE068491431884202D101214904F1
:1045700025E065492831884202D1012149051EE024
:10458000904202D10121490619E05E49884201D1D9
:10459000022114E05B491431884201D120210EE050
:1045A00058492831884201D1411508E055493C312C
:1045B000884202D10121490301E0012149040B4055
:1045C000002B72D00168C94389076ED4016889063F
:1045D00003D40168022399430160206890423ED9C8
:1045E000A84201D1022036E0B04201D1202032E0C1
:1045F000B84202D1012040022DE04349884202D155
:104600000120400327E040491431884202D10120B3
:10461000400420E03C492831884202D10120400575
:1046200019E03849884201D1022014E0354914319B
:10463000884201D120200EE032492831884201D140
:10464000401508E02F493C31884202D10120400347
:1046500001E0012040042B490839486043E0A842AA
:1046600001D102203CE0B04201D1202038E0B84224
:1046700002D10120400233E02349884202D10120C7
:1046800040032DE020491431884202D1012040042A
:1046900026E01D492831884202D1012040051FE053
:1046A000904203D1012040061AE029E015498842D2
:1046B00001D1022014E013491431884201D1202095
:1046C0000EE010492831884201D1401508E00D491B
:1046D0003C31884202D10120400301E00120400426
:1046E000094944394860606B606300990120487053
:1046F000009900200870A16A002901D0204688474F
:10470000F8BD00000804024044000240F0B5002853
:1047100006D0014620314A780025002A02D002E066
:104720000120F0BD0D7002224A70026814680B4B24
:104730001C408668436807693343C6683E43334379
:104740004669334386693343C66933432343136061
:104750004563012048700020F0BD00000FC0FFFF3E
:10476000F8B50446204620300578012D1ED00125DD
:1047700005700226467020680768AF430760204630
:10478000FEF77EF820680168314301602068016807
:10479000042211430160206801680822114301606E
:1047A00020680168294301600020F8BD0220F8BD9F
:1047B00031B500F083F9044600F080F90099001B40
:1047C0008842F9D338BD0000F8B505460F460126EA
:1047D0002248017E01290BD0012101762868204C56
:1047E000012807D02046FEF753FF002813D030E001
:1047F0000220F8BD2046FEF74BFF002829D1FEF726
:10480000FBFE2046FEF744FF0646164801690422D7
:10481000914301611DE00020C04338606C6812E0E4
:104820002046FEF7FBFE0E48FEF732FF06460D4817
:104830000169022291430161300001D03C6008E02F
:104840000120C0022418A9686868C9024018A04263
:10485000E6D80248002101763046F8BD4804002021
:1048600050C3000000200240034801698022114328
:10487000016100207047000000200240F0B51FB425
:10488000074615461E4600241A48017E012907D016
:10489000012101761848FEF7FBFE002803D025E031
:1048A000022005B0F0BD012F03D0022F03D0042752
:1048B0001AE0012718E0022716E0220128463146B7
:1048C000FBF7E3FC81B2019862001018FEF7B8FE16
:1048D0000948FEF7DDFE09490A69520852000A61DB
:1048E000002803D1641CE4B2BC42E6D30149002293
:1048F0000A76D6E74804002050C30000002002409A
:1049000005480169090605D504494160044941602B
:1049100000207047012070470020024023016745B6
:10492000AB89EFCDF8B5002293E001249440A44672
:104930002340002B7ED04C68022C01D0122C0CD1CD
:10494000D408A40027183D6A5407E40E0F26A64099
:10495000B5430E69A6402E433E6207685500032406
:10496000AC40A7430E79B607B60FAE403E43066093
:104970004E68012E05D0022E03D0112E01D0122E2A
:104980000ED18768A743CE68AE403E438660476835
:104990006646B7430E79F606F60F96403E434660EC
:1049A000C668A6438C68AC403443C4604C68E400DD
:1049B0004ED52B4CA56901263543A561A469344029
:1049C00000949508274CAD002F19BD689407240F5B
:1049D0000F26A640B5430926F606B04201D10026AF
:1049E00014E0214EB04201D101260FE01F4EB0422B
:1049F00001D102260AE01E4EB04201D1032605E095
:104A00001C4EB04201D1042600E00526A6402E43EC
:104A1000BE60194D2C689C434E68F60300D51C43BC
:104A20002C606C689C434E68B60300D51C436C60D8
:104A3000AC6800E00CE09C434E68F60200D51C43D5
:104A4000AC60EC689C434E68B60200D51C43EC6039
:104A5000521C0B681C46D44000D066E7F8BD00002D
:104A60000010024000000140000400480008004817
:104A7000000C004800100048000401400069084292
:104A800001D0012070470020704742694A404261CE
:104A90007047002A01D08161704781627047000031
:104AA000024800680005000D7047000000580140F2
:104AB00001480068000C7047005801400148006838
:104AC000704700001400002070B502462032537D6C
:104AD000022B27D0537D122B24D0537D222B21D0A3
:104AE000537D322B1ED0537D422B1BD0137D012BC7
:104AF0001AD0012414750223537503681D68A54359
:104B00001D6003681D682603B5431D6003681D68AA
:104B10000D431D6000680168214301605475002049
:104B2000107570BD022070BD022070BD70B50246C8
:104B30002032537D022B26D0537D122B23D0537D60
:104B4000222B20D0537D322B1DD0537D422B1AD0E7
:104B5000137D012B19D001241475022353750368AA
:104B60001D68A5431D6003681D680F263602B54306
:104B700009022943196000680168214301605475E6
:104B80000020107570BD022070BD022070BD0000B5
:104B900070B50446002C06D025462035687D0026D9
:104BA000002802D005E0012070BD2E75204600F0DF
:104BB00097F902206875206801684908490001607A
:104BC0000F216068090688432168086120688268AF
:104BD0000121C9038A438260A068002807D0E268E7
:104BE000012A08D021218902084321688860E068F1
:104BF000022804D007E0084321688860F7E7012015
:104C00002168C0024860206841680C4A1143416035
:104C1000616920690843A169090208432168C860E5
:104C2000216AE06908432168086020680268012160
:104C30000A430260A6636975002070BD008000020F
:104C4000FFB581B00B9C064637462037787D01289A
:104C500002D0022005B0F0BD0A98002808D0002C30
:104C600006D030688069C043000403D40220F1E715
:104C70000120EFE7387D012814D00120387562202B
:104C800078750020B0630C9800903046029901F0CE
:104C900017FC00280CD0B06B042805D00020387514
:104CA0000320D7E70220D5E7002038750120D1E79F
:104CB00009208002FF2C09D9012300901B06FF2246
:104CC0003046029901F07AFCFF2508E001230090AC
:104CD000E2B25B063046029901F070FC25460022E4
:104CE000042130460C9B01F07BFC002801D00320FE
:104CF000B0E73068406A0A9908700A98401C0A9028
:104D00006D1E641EA4B2002D22D1002C20D00022E2
:104D1000802130460C9B01F063FC002801D0032069
:104D200098E7FF2C0AD90020012300901B06FF22E0
:104D30003046029901F042FCFF2509E000200123E2
:104D40000090E2B25B063046029901F037FC25463E
:104D5000002CC4D11921304601F07EFC002806D079
:104D6000B06B042801D0032074E7012072E731689A
:104D70002020C86130684168034A11404160012029
:104D800078750020387565E700E800FEFFB581B052
:104D90000B9C064637462037787D012802D002203A
:104DA00005B0F0BD0A98002808D0002C06D0306865
:104DB0008069C043000403D40220F1E70120EFE73B
:104DC000387D012814D001203875522078750020D4
:104DD000B0630C9800903046029901F0B0FB0028B7
:104DE0000CD0B06B042805D0002038750320D7E71D
:104DF0000220D5E7002038750120D1E7FF2C0AD921
:104E00000020012300901B06FF223046029901F08A
:104E1000D5FBFF2509E0002001230090E2B25B06EC
:104E20003046029901F0CAFB254630460C9901F044
:104E30003BFC002806D0B06B042801D00320AFE76C
:104E40000120ADE70A983168007888620A98401C12
:104E50000A906D1E641EA4B2002D22D1002C20D019
:104E60000022802130460C9B01F0BAFB002801D0C3
:104E7000032095E7FF2C0AD90020012300901B0690
:104E8000FF223046029901F099FBFF2509E000203E
:104E900001230090E2B25B063046029901F08EFBDE
:104EA0002546002CC1D11921304601F0D5FB002840
:104EB00006D0B06B042801D0032071E701206FE712
:104EC00031682020C86130684168044A114041605F
:104ED000012078750020387562E7000000E800FEC8
:104EE0007047000002480168491C016070470000DB
:104EF0001400002010B5064801681022114301601B
:104F0000002000F007F800F016F8002010BD0000A7
:104F10000020024010B5044600F0C8F97D21C90008
:104F2000FBF73AF900F052FE00222146501E00F035
:104F300017F8002010BD7047C106C90E0120884037
:104F4000014908607047000080E100E0C106C90E19
:104F500001208840014908607047000000E100E03E
:104F600010B503F02DF810BD0248016882151143F9
:104F70000160704700700040F8B5044620683C4D61
:104F8000C00344D5296A0320000262680140024040
:104F900091423CD0E86929040843E861E869084087
:104FA0000090344F3868091508433860FFF786FDD4
:104FB000064606E0FFF782FD801B642801D9032026
:104FC000F8BD3868C005F5D5286A03273F02B84305
:104FD0002A6A012109040A432A622A6A8A432A6248
:104FE000286280070ED5FFF769FD064607E0FFF748
:104FF00065FD811B2048814201D90320F8BD286A44
:105000008007F4D5286A6168B8430843286220788D
:10501000C00705D0286BA16880088000084328637A
:105020002078800706D5286B032109048843E168AE
:10503000084328632068400306D5286B03218904B0
:1050400088432169084328632078800605D5286BAA
:10505000102188436169084328632088400505D5ED
:10506000286B40218843A169084328630020F8BDCC
:10507000001002400070004088130000F8B504469C
:105080000F4687480068F021C007C00F854EB84220
:105090007DD283480268520852003A430260006899
:1050A000C007C00FB84201D00120F8BD20788007AA
:1050B00004D570688843A168084370602078C007F1
:1050C00039D06068012808D002280BD003280ED000
:1050D0003168890710D40120F8BD316889030BD4E9
:1050E0000120F8BD3168890106D40120F8BD716B3B
:1050F000C90301D40120F8BD716889088900014302
:105100007160FFF7DBFC05466068012805D00228C6
:1051100012D003281FD0644F34E0634F06E0FFF73E
:10512000CDFC401BB84201D90320F8BD70680007D0
:10513000800F0128F3D1A3E05B4F06E0FFF7BEFC30
:10514000401BB84201D90320F8BD70680007800FEA
:105150000228F3D194E0544F06E0FFF7AFFC401B68
:10516000B84201D90320F8BD70680007800F0328FA
:10517000F3D185E00BE0FFF7A1FC401BB84201D959
:105180000320F8BD70680007800FF4D178E0207824
:10519000800704D570688843A16808437060207850
:1051A000C00760D06068012808D002280BD003280F
:1051B0000ED03168890710D40120F8BD3168890309
:1051C0000BD40120F8BD3168890106D40120F8BD57
:1051D000716BC90301D40120F8BD71688908890089
:1051E00001437160FFF76AFC0546606801280CD036
:1051F000022818D0032824D031E0FFF75FFC411BC0
:105200002948814201D90320F8BD70680007800F4A
:105210000128F2D127E0FFF751FC411B22488142CF
:1052200001D90320F8BD70680007800F0228F2D171
:1052300019E0FFF743FC411B1B48814201D90320C1
:10524000F8BD70680007800F0328F2D10BE0FFF76C
:1052500035FC411B1448814201D90320F8BD706818
:105260000007800FF3D10E4801684908490039430F
:1052700001600068C007C00FB84201D00120F8BD2E
:105280002078400706D57068072109028843E16845
:10529000084370600020FFF73DFE0020F8BD0000CD
:1052A00000200240001002408813000010B500F0FA
:1052B00021F805494968054A0906090F515CC840AB
:1052C0000349086010BD000000100240B415010839
:1052D0000000002010B5FFF7E9FF04494968044ABF
:1052E0004905490F515CC84010BD00000010024044
:1052F000B415010830B589B01CA001460EC9C068BC
:1053000005AC0EC408901DA001460EC9C06801ACD2
:105310000EC404901D4D6A680C20114601401C48C3
:10532000042905D01B4B082904D00C2900D11846AC
:1053300009B030BD9102090F05AC645CE96A01ADAA
:105340000907090F695CD203920F022A05D0032ACC
:1053500007D0FAF721FF6043EAE7FAF71DFF604341
:10536000E6E71846FAF718FF6043E1E70203040591
:10537000060708090A0B0C0D0E0F1010010203049A
:1053800005060708090A0B0C0D0E0F10001002404D
:1053900000127A00006CDC02F8B504462078FA4D61
:1053A000C00775D068680007800F012816D06868AC
:1053B0000007800F022804D16868C003800F02280C
:1053C0000CD0286801263604B04328602968B00054
:1053D00081432960FFF772FB07460EE028688003CF
:1053E00056D56068002853D10120F8BDFFF766FB51
:1053F000C01B642801D90320F8BD28688003F5D4B8
:105400006068012813D0002815D005281DD0296810
:105410002846B1432960016801229204914301604A
:105420006068002826D0FFF749FB06461EE0296881
:1054300031432960F4E729682846B14329600268AE
:10544000012189048A430260EAE72A68284601218B
:1054500089040A432A60016831430160E0E7FFF7ED
:105460002DFB801B642801D90320F8BD2868800328
:10547000F5D50DE0FFF722FB064606E0FFF71EFB21
:10548000801B642801D90320F8BD28688003F5D467
:1054900020780126800700284BDA68680007800F13
:1054A00013D068680007800F022804D16868C00321
:1054B000800F012809D0E068002828D028683043F0
:1054C0002860FFF7FBFA074616E02868800704D536
:1054D000E068012801D00120F8BD2868F821884340
:1054E0002169C9000843286023E0FFF7E7FAC01BE1
:1054F000642801D90320F8BD28688007F5D52868FD
:10550000F82188432169C9000843286011E0286810
:10551000400840002860FFF7D1FA074606E0FFF791
:10552000CDFAC01B642801D90320F8BD2868800784
:10553000F5D42078000726D5206A002811D0686AA3
:1055400030436862FFF7BAFA074606E0FFF7B6FA9B
:10555000C01B642801D90320F8BD686A8007F5D50F
:1055600011E0686A400840006862FFF7A7FA074642
:1055700006E0FFF7A3FAC01B642801D90320F8BD99
:10558000686A8007F5D4207840077BD5E969012057
:1055900000070143E961E969014000917B48016826
:1055A000821511430160FFF789FA074606E0FFF70D
:1055B00085FAC01B642801D90320F8BD7348006830
:1055C000C005F4D5286A400840002862296A0420F2
:1055D00081432962FFF772FA074607E0FFF76EFA88
:1055E000C11B6B48814201D90320F8BD286A80079E
:1055F000F4D4A068012813D0002815D005281DD0A8
:10560000296A2846490849002962026A04218A4316
:105610000262A068002826D0FFF750FA07461EE075
:10562000296A31432962F4E7296A28464908490072
:105630002962026A04218A430262EAE7296A28464B
:10564000042211432962016A31430162E1E7FFF755
:1056500035FAC11B4E48814201D90320F8BD286AA2
:105660008007F4D50EE0FFF729FA074607E0FFF7B9
:1056700025FAC11B4648814201D90320F8BD286A9A
:105680008007F4D42078C00643D5606901280DD086
:10569000401D28D0686B042108436863686B40088C
:1056A00040006863FFF70AFA06462FE0686B0421A2
:1056B00008436863686B30436863FFF7FFF9064689
:1056C00006E0FFF7FBF9801B642801D90320F8BD31
:1056D000686B8007F5D5686BF8218843A169C9001C
:1056E0000843686315E0686B042188436863686B4E
:1056F000F8218843A169C9000843686309E0FFF7FE
:10570000DDF9801B642801D90320F8BD686B800790
:10571000F5D42078800647D568680007800F0328F5
:1057200015D068680007800F022804D16868C0039C
:10573000800F03280BD0E06900281BD0686B012183
:10574000090408436863FFF7B9F906460EE0686B81
:10575000C00329D5E069012826D00120F8BDFFF754
:10576000ADF9801B642801D90320F8BD686BC00324
:10577000F5D519E0686B0121090488436863FFF7D8
:105780009DF906460DE00000001002400070004048
:1057900088130000FFF792F9801B642801D90320C9
:1057A000F8BD686BC003F5D4606A00284BD0696807
:1057B0000907890F022948D001273F06022806D091
:1057C0002868B8432860FFF779F9044638E028686C
:1057D000B8432860FFF772F9064606E0FFF76EF956
:1057E000801B642801D90320F8BD28688001F5D406
:1057F000E86A216B000900010843E862A16AE06AD7
:10580000084369687B22D203914308436860286893
:1058100038432860FFF752F9044606E0FFF74EF9D7
:10582000001B642801D90320F8BD28688001F5D544
:1058300009E0FFF743F9001B642801D90320F8BDF4
:1058400028688001F5D40020F8BD0120F8BD00686B
:10585000503089000818006870470068503089008F
:10586000081802607047000010B50B4600684168D8
:105870000D480140080CD870CC04E40E5C708C0616
:10588000A40E9C700904490F1970002A0AD103F074
:10589000EDFFD870587803F0E9FF5870987803F05E
:1058A000E5FF9870002010BD3FFFFF0010B50B46CC
:1058B0000168896A5960006801680F4801408802E0
:1058C000800E18704C04640E5C704C06640E9C7064
:1058D000090C402421401972002A0AD103F0C6FFA6
:1058E0001870587803F0C2FF5870987803F0BEFF24
:1058F0009870002010BD00007F7F7F0070B50446C7
:10590000002C03D0607F002802D006E0012070BD8B
:1059100000202077204600F043F8022060772168BD
:10592000CA204862216853204862204604F034F8B7
:10593000FF21002805D02068416204206077012003
:1059400070BD20688268154B1A40826020688268AA
:10595000636865691A4323692B431A43826022688E
:10596000E06810612068026923891B041A43026100
:105970002068C26880239A43C2602068026CDB0200
:105980009A4302642068026CA3691A430264206887
:10599000416201206077002070BD0000BFFF8FFFD3
:1059A00070470000F8B504460B46207F012806D05A
:1059B0000120207702206077002A02D008E0022030
:1059C000F8BD5878C10603D5EF2108400A30587059
:1059D000002A23D0587803F049FF987803F046FF57
:1059E000D8789D7800040543587819780002490357
:1059F000084305432168CA20486221685320486251
:105A0000204603F0C9FF0026FF27002817D0206892
:105A100047620420607726770120F8BDD87803F02C
:105A20002DFF0504587803F029FF000205439878FC
:105A300003F024FF0543187840030543DAE71048D4
:105A40000540206845602068C16880229143C1609C
:105A50002068806880060BD4204600F08FF800286C
:105A600006D0206847620420607726770120F8BDC1
:105A7000206847620120607726770020F8BD00008B
:105A80003FFFFF00F8B504460D46207F01280ED0E9
:105A900001202077022060770026002A09D02068A4
:105AA000806840061BD5287803F0E0FE18E002204D
:105AB000F8BD20688068400600D42E72287803F074
:105AC000DDFE0704687803F0D9FE00020743A878DA
:105AD00003F0D4FE0743287A000407430AE02E723D
