:020000040800F2
:100000000040022015E20008A5E200084DD50008D6
:1000100000000000000000000000000000000000E0
:10002000000000000000000000000000A5F600082D
:10003000000000000000000001F7000841D50008A2
:10004000A5E20008A5E20008A5E20008A5E2000874
:10005000A5E20008A5E20008A5E20008A5E2000864
:10006000A5E20008A5E20008A5E20008A5E2000854
:10007000A5E20008A5E20008A5E20008A5E2000844
:10008000A5E20008A5E20008A5E20008A5E2000834
:10009000A5E20008A5E20008A5E20008A5E2000824
:1000A000A5E20008A5E20008A5E2000885D5000841
:0C00B00095D50008A5D50008A5E20008C1
:1000C00010B5064C2378002B07D1054B002B02D02E
:1000D000044800E000BF0123237010BD8808002001
:1000E000000000003CC00108044B10B5002B03D0F9
:1000F0000349044800E000BF10BDC04600000000F6
:100100008C0800203CC0010802780B78002A03D03C
:10011000013001319A42F7D0D01A70470023C25CF7
:100120000133002AFBD1581E7047000002B471460B
:1001300049084900095C49008E4402BC7047C0462A
:1001400003B47146490840004900095A49008E44E9
:1001500003BC7047002243088B4274D303098B42CF
:100160005FD3030A8B4244D3030B8B4228D3030C87
:100170008B420DD3FF22090212BA030C8B4202D329
:100180001212090265D0030B8B4219D300E0090A51
:10019000C30B8B4201D3CB03C01A5241830B8B425A
:1001A00001D38B03C01A5241430B8B4201D34B0343
:1001B000C01A5241030B8B4201D30B03C01A5241A8
:1001C000C30A8B4201D3CB02C01A5241830A8B422D
:1001D00001D38B02C01A5241430A8B4201D34B0216
:1001E000C01A5241030A8B4201D30B02C01A52417A
:1001F000CDD2C3098B4201D3CB01C01A524183092E
:100200008B4201D38B01C01A524143098B4201D367
:100210004B01C01A524103098B4201D30B01C01A92
:100220005241C3088B4201D3CB00C01A524183080C
:100230008B4201D38B00C01A524143088B4201D339
:100240004B00C01A5241411A00D201465241104699
:100250007047FFE701B5002000F0F0F802BDC0468E
:100260000029F7D076E7704703460B437FD400227E
:1002700043088B4274D303098B425FD3030A8B423A
:1002800044D3030B8B4228D3030C8B420DD3FF22A4
:10029000090212BA030C8B4202D31212090265D072
:1002A000030B8B4219D300E0090AC30B8B4201D325
:1002B000CB03C01A5241830B8B4201D38B03C01A6C
:1002C0005241430B8B4201D34B03C01A5241030BE3
:1002D0008B4201D30B03C01A5241C30A8B4201D394
:1002E000CB02C01A5241830A8B4201D38B02C01A3F
:1002F0005241430A8B4201D34B02C01A5241030AB6
:100300008B4201D30B02C01A5241CDD2C3098B429A
:1003100001D3CB01C01A524183098B4201D38B0117
:10032000C01A524143098B4201D34B01C01A5241BA
:1003300003098B4201D30B01C01A5241C3088B42FF
:1003400001D3CB00C01A524183088B4201D38B00EA
:10035000C01A524143088B4201D34B00C01A52418C
:10036000411A00D201465241104670475DE0CA0F63
:1003700000D04942031000D34042534000229C4623
:1003800003098B422DD3030A8B4212D3FC2289012D
:1003900012BA030A8B420CD3890192118B4208D303
:1003A000890192118B4204D389013AD0921100E065
:1003B0008909C3098B4201D3CB01C01A5241830979
:1003C0008B4201D38B01C01A524143098B4201D3A6
:1003D0004B01C01A524103098B4201D30B01C01AD1
:1003E0005241C3088B4201D3CB00C01A524183084B
:1003F0008B4201D38B00C01A5241D9D243088B42A1
:1004000001D34B00C01A5241411A00D20146634643
:1004100052415B10104601D34042002B00D54942A7
:10042000704763465B1000D3404201B5002000F0E6
:1004300005F802BD0029F8D016E770477047C0469E
:100440008446100062468C461900634600E0C046B0
:100450001FB502F017F8002801D40021C8421FBDC3
:1004600010B501F067FF4042013010BD10B502F039
:1004700009F8002801DB002010BD012010BDC04696
:1004800010B501F0FFFF002801DD002010BD0120A4
:1004900010BDC04610B501F08FFF002801DC002020
:1004A00010BD012010BDC04610B501F085FF002829
:1004B00001DA002010BD012010BDC04684460800AE
:1004C0006146FFE71FB500F0FBFC002801D40021C6
:1004D000C8421FBD10B500F087FC4042013010BD7E
:1004E00010B500F0EDFC002801DB002010BD01205C
:1004F00010BDC04610B500F0E3FC002801DD00206F
:1005000010BD012010BDC04610B500F093FC0028BE
:1005100001DC002010BD012010BDC04610B500F068
:1005200089FC002801DA002010BD012010BDC04662
:10053000002B11D1002A0FD1002900D1002802D0B0
:100540000021C943080007B4024802A140180290E4
:1005500003BDC046E9FEFFFF03B4684601B502983B
:1005600000F0BCF8019B9E4602B00CBC7047C04630
:10057000F0B5CE469946030C9C46130447461B0C27
:100580001D000E0061460404240C80B50700100C09
:100590004B436543414360432C0CC01820188C46E4
:1005A000834203D980235B029846C4444946794379
:1005B0005643030C2D042D0C891963440004401983
:1005C000C918C0BCB946B046F0BDC0469E2110B5A2
:1005D000C905041CFFF7A2FF002803D1201C00F06E
:1005E000A1FF10BD9E21201CC90500F0FBFD00F0FD
:1005F00099FF80231B069C466044F2E770B50022F9
:100600000C4B04000D00FFF74FFF002804D1200021
:10061000290002F0FDFD70BD064B002220002900DC
:1006200002F056FA02F0F4FD80231B069C4660445B
:10063000F1E7C0460000E04170B505000C00002263
:10064000002328002100FFF711FF002808D128000F
:10065000210000F00FF802000B001000190070BD1F
:1006600080231B06E118280000F004F80023424212
:100670008B41F2E770B500220B4B0D00040001F036
:1006800065FFFFF7BBFF060002F028FE0022074BC4
:1006900001F05CFF02000B002000290002F018FAB4
:1006A000FFF7ACFF310070BD0000F03D0000F041ED
:1006B00070B50600080002F0E1FD0022064B01F0D3
:1006C00045FF0D000400300002F008FE2B00220060
:1006D00000F0E2FF70BDC0460000F041F0B55746A3
:1006E0004E464546DE46E0B504000D00924699466A
:1006F00083B08B4230D82DD04946504602F000FFDF
:1007000029000600200002F0FBFE331A9846203B29
:1007100034D49B4653465A46934042461F005346A4
:1007200093401E00AF423BD8AF4200D179E05B4618
:10073000A41BBD41002B00DA76E0002200230092CA
:10074000019301235A46934001930123424693406B
:10075000009329E08242CFD9002200230092019326
:100760000C9B002B01D01C605D600098019903B0C8
:10077000F0BCBB46B246A946A046F0BD42469B46E9
:1007800020239B1A5246DA40414613004A468A40CB
:10079000170042461F43534693401E00AF42C3D941
:1007A00000220023009201934346002BD8D0FB0780
:1007B00072081A4346467B080EE0AB4201D1A242C2
:1007C0000CD8A41A9D41012024196D410021013E3D
:1007D00024184D41002E06D0AB42EED9013E24191B
:1007E0006D41002EF8D1009801995B4600196941CE
:1007F000002B24DB2B005A464446D3402A00E2401B
:100800001C005B461500002B2ADB26009E403300AF
:1008100026004746BE403200801A9941009001915F
:100820009EE7A342BCD882E74246202300219B1AC0
:100830000022009101920122DA40019285E74246AE
:1008400020239B1A2A0046469A402300F340444640
:1008500013432A00E2401C005B461500002BD4DA4B
:1008600042462F002023260097409B1ADE403B0083
:100870003343CDE7F8B54746CE464A02430245002A
:10088000C40F500A804648005B0A000E9209944645
:1008900080B51E00814602002D0EDF00C90F8C427C
:1008A00024D0281A00280EDD002A3ED16246002AF4
:1008B00000D1FDE0421E012800D137E1FF2800D120
:1008C000A9E0100039E0002863D04B46521B002DF0
:1008D00000D0E0E0002F00D1CEE0531E012A00D16D
:1008E00055E1FF2A00D194E01A00D9E02A1A002A23
:1008F00000DC99E0002862D0FF2D00D18BE080233E
:100900006146DB0419438C461B2A00DCD2E001233C
:10091000DB195A016AD50135FF2D5BD00122A349AD
:100920001A405B080B4013431CE0FF2D00D172E01E
:1009300080236246DB041A4394461B2800DC90E0C7
:100940000123FB1A5A0151D59B019E09300002F088
:10095000B9FD330005388340854200DC75E0944AD8
:100960002D1A13405A0704D00F221A40042A00D02F
:1009700004335A013CD5681CFE2D2BD09B015E0A26
:10098000C0B2C0053043E4072043C0BCB946B046FE
:10099000F8BDFE206A1C104272D1002D00D0AEE0DE
:1009A000002F00D1ECE063460020002BE9D0FB1AB9
:1009B0005A0100D4F3E063460C00DB1BD2E761462A
:1009C00000295BD0511E012A00D1A7E0FF2A22D0C6
:1009D0000A0099E7FF200026D3E7FE216A1C114296
:1009E00073D0FF2AF6D0150067447B085A07BBD1A5
:1009F000DB08FF2D0FD05B025E0AE8B2C1E762465A
:100A0000002A08D08022D203134204D0404610426C
:100A100001D10C004346002BDCD08026F6031E4398
:100A20007602FF20760AACE7002AD6D0421B002DC2
:100A30005CD0FF28EED08023DB041F431B2A00DCA0
:100A400082E001234D46634463E72022401B0130CE
:100A5000121A19009340C1405A1E934100250B43BE
:100A600080E7202361461B1A994062460B00C24072
:100A7000591E8B41134364E70C0043461500B8E749
:100A80006346FE1A730145D4002E00D05EE70024B1
:100A90000020002675E7FF2BBBD08023DB041F431B
:100AA0001B2A47DD012362460C004D46D31A49E755
:100AB00005009EE761462023D1409B1A62469A407A
:100AC00013005A1E93410B4322E7002D46D1002FFD
:100AD00062D063460020002B00D152E73B00634404
:100AE0005A0183D5324A013513407FE7002FC4D025
:100AF000531E012A12D0FF2A8CD01A009EE7002F25
:100B000000D07CE76346002B83D180260024FF20A1
:100B1000F60336E763460C00DE1B17E73B00634431
:100B200001255A0100D461E70225F7E66346012555
:100B3000FB1A07E720239B1A38009F403B00D04058
:100B40005A1E93410343AEE720239B1A39009F406E
:100B50003B00D1405A1E93410B4373E7002F00D155
:100B600058E76246002A00D155E78022D20313429B
:100B700000D150E74146114200D04CE743464AE7D6
:100B80006346002B83D00C0046460020F9E66346FE
:100B90000C00DB1B0135D5E646460020F1E6002BB4
:100BA00000D023E700240026EBE6C046FFFFFF7DD0
:100BB000FFFFFFFBF0B54F464646D6464502C0B59F
:100BC00047000C1C6D0A3F0EC60F002F00D16FE0CE
:100BD000FF2F00D174E00023802299469A46ED0051
:100BE000D20415437F3F63025B0A984663001B0EE5
:100BF000E40F002B4DD0FF2B45D042468021D20080
:100C0000C9041143884600227F3B3100FF1A4B463E
:100C10006140C9B20F2B00D9B8E070489B00C3589F
:100C20009F46002398462600454692465346022B8F
:100C300000D18DE0032B00D1A1E0012B18D03B00A7
:100C40007F33002B6DDD6A0704D00F222A40042A6F
:100C500000D004352A0103D5614B1D403B00803391
:100C6000FE2B00DD74E0AA01520AD8B202E00E00A9
:100C700000200022C005F60710433043E0BCBA460E
:100C8000B146A846F0BD4346002B3FD10222FF3FAC
:100C900003E04346002B2DD1012231004B46614039
:100CA000C9B213430F2B38D84E489B00C3589F46F8
:100CB000002D13D104239946033B00279A4692E75F
:100CC000002D05D108239946063BFF279A468AE75F
:100CD0000C239946093BFF279A4684E7280002F037
:100CE000F1FB7627431F9D4000237F4299469A4699
:100CF0003F1A78E7404602F0E5FB4246431F9A4020
:100D000076235B4290461B1A00227EE703234A4665
:100D10001A439146FC33032277E70E00FF2000229E
:100D2000A8E70122D31A1B2BA2DC9E372A00BD4064
:100D3000DA406B1E9D4115436A0704D00F222A40FA
:100D4000042A00D004356A0144D50120002291E72D
:100D5000FF2000228EE780220026FF20D20389E7B1
:100D6000002398468022D203154208D043461342FE
:100D700005D11A4352022600FF20520A7AE7802248
:100D8000D2032A435202FF20520A73E742466B0104
:100D90005501AB421AD21B200022013F01261C0044
:100DA00052005B00002C01DB9D4201D85B1B3243EB
:100DB00001380028F3D1581E834113431D003B0026
:100DC0007F330E00002B00DD3DE7AAE71A20012249
:100DD0005B1BE3E7AA010020520A4BE774CA010833
:100DE000FFFFFFF7B4CA010870B5420045024E028A
:100DF0004C00C30F6D0A0120120E760A240EC90F93
:100E0000FF2A06D0FF2C03D0A24201D1B54206D062
:100E100070BD002DFCD1FF2CFAD1002EF8D18B42F1
:100E200006D00120002AF3D12800431E9841EFE7A5
:100E30000020EDE770B5420045024E024C00C30FA2
:100E40006D0A120E760A240EC80FFF2A1BD0FF2C43
:100E50000ED0002A1BD1002C01D1002E1CD0002D59
:100E60000CD083421CD00221581E0840013870BDAE
:100E7000002E22D1002AF4D1002DF2D10028F6D183
:100E800001204042F3E7002D17D1FF2CF0D0002CB9
:100E9000E7D1002EE5D1E6E70020002DE7D0E2E71C
:100EA000A24205DCEADBB54202D8E7D30020DEE748
:100EB0004342584140000138D9E702204042D6E77A
:100EC00070B5420045024E024C00C30F6D0A120E6F
:100ED000760A240EC80FFF2A0BD0FF2C0DD0002A53
:100EE0001FD1002C16D1002E14D10020002D10D0BF
:100EF00009E0002D0CD1FF2C13D1002E08D1002ABF
:100F000008D0834212D00221581E0840013800E068
:100F1000022070BD002DF4D10028FAD101204042FA
:100F2000F7E7002CEDD1002EEBD1ECE7A24205DC77
:100F3000F2DBB54202D8EFD30020EAE74342584142
:100F400040000138E5E7C04643025B0AF0B54F4672
:100F500046469946D646C30F45009846C0B54B460F
:100F60000F1C2D0E00D1CBE0FF2D00D1CFE0802251
:100F7000DB00D2041A430023914600269A467F3DA7
:100F80007C027B00640A1B0EFF0F002B00D1A9E03E
:100F9000FF2B11D08022E400D204144342467F3B51
:100FA0005B197A400020D2B25D1C0A2E13DD3A0094
:100FB0000B2E47D047463FE02B00FF33002C1ED1BD
:100FC00002221643424601357A40D2B2FF350A2E3C
:100FD00000DDE4E00220022E1CDC013E012E42D89E
:100FE00002283DD0012866D100200021C005084319
:100FF000D2071043E0BCBA46B146A846F0BD032272
:101000001643424601357A40D2B2FF350A2E00DD42
:10101000E4E003200121B140A626F60031420AD1C6
:101020009026B600314216D1B93EFF3E0E421AD08C
:10103000A146824600E0170053463A00022B0FD02B
:101040004C4650460328CDD18021C9032143490293
:10105000FF20490ACAE780210022FF20C903C5E713
:10106000FF200021C2E7200C49462404240C27005D
:101070000E0C0904090C74434F4346434843390C92
:10108000001909188C4203D9802040028446664426
:101090003F0408043F0CC0198401671EBC41090CC1
:1010A000800E8919044389010C43090171D501237C
:1010B00061081C400C432B007F33002B51DD61077E
:1010C00004D00F212140042900D00434210103D58C
:1010D000434B1C402B008033FE2BC1DCA101490A8D
:1010E000D8B283E7002C2CD1012342461E432B00AB
:1010F0007A400120D2B25D1C0A2E00DD57E76AE774
:10110000002B10D10123042600259A4638E7002B36
:1011100004D102230826FF259A4631E703230C2633
:10112000FF259A462CE7484602F0CCF94A46431F71
:1011300076259A4000236D42914600269A462D1A44
:101140001EE7200002F0BEF94246431F9C402B1AC6
:10115000763B7A400020D2B25D1C0A2E00DD26E7E5
:1011600039E70121CB1A1B2B00DD3DE79E3521001D
:10117000AC40D940631E9C4121434B0704D00F2350
:101180000B40042B00D004314B0104D50120002179
:101190002CE71D008FE789010020490A26E702237A
:1011A0000F2E0CD180214B46C9030B420DD00C42AF
:1011B0000BD1214349023A00FF20490A16E70B2EC2
:1011C00000D0F7E6A1469A4636E780214B46C90390
:1011D000194349024246FF20490A07E70323DFE794
:1011E000FFFFFFF7F0B5C64643025B0A4500DA0091
:1011F000C40F48024F009446420A1E00904600B5B4
:101200002D0E3F0EC90F8009FF2F59D001225140EA
:101210008C4239D0EA1B002A58DD002F68D0FF2D00
:1012200000D1D1E08023DB0418431B2A00DCE3E07B
:1012300001236246D31A5A0100D4ACE09B019E09F7
:10124000300002F03FF9330005388340854200DC6E
:10125000C6E0B24A2D1A13405A0704D00F221A4092
:10126000042A00D004335A0100D497E06A1CFE2DF2
:1012700000D184E09B015E0AD2B2D0053043E4077E
:10128000204380BCB846F0BDEA1B002A41DD002F98
:101290006BD0FF2D00D197E08023DB0418431B2A7D
:1012A00000DCCCE0012363445A0174D50135FF2DE5
:1012B00065D001229A491A405B080B401343CBE7E3
:1012C00000281FD08C4222D02A00FF3A002A35D0B5
:1012D0007A1B002D00D099E06346002B00D1DDE0A1
:1012E000531E012A00D105E1FF2A6BD01A0094E0B9
:1012F000002873D0511E012A00D1DFE0FF2A63D0FD
:101300000A0092E701225140A14200D082E72A0060
:10131000FF3A002A36D07A1B002D00D1AAE0FF2F19
:1013200000D1DAE080236146DB0419438C461B2A96
:1013300000DCD4E001233D001B18B5E7FE276A1C42
:10134000174271D1002D00D09EE06346002B00D1E2
:10135000D5E00022002800D18FE71B1A5E0100D4DF
:10136000D6E063460C00C31A76E7002836D0511E3B
:10137000012A00D19AE0FF2A26D00A008FE7FF2237
:1013800000267AE7FE276A1C174262D0FF2AF6D0B1
:101390001500604443085A0700D05FE7DB08FF2DC3
:1013A00012D05B025E0AEAB267E76246002A00D109
:1013B00093E0002808D08022D203134204D0404694
:1013C000104201D10C004346002BD8D08026F603F2
:1013D0001E437602FF22760A4FE743461500DEE7FA
:1013E0002022401B0130121A19009340C1405A1E9E
:1013F000934100250B432FE720239B1A01009840BF
:101400000300D1405A1E93410B4312E7FF2FD9D05E
:1014100080236446DB041C43A4461B2A52DD0123BF
:101420000C003D00C31A06E763461E1A730139D447
:10143000002E00D004E70024002200261DE7202310
:101440009B1A010098400300D1405A1E93410B4360
:1014500029E7002DA9D16346002B56D00022002891
:1014600000D10AE7030063445A0194D52B4A0135A1
:10147000134090E76346002BAFD0531E012A15D0CE
:10148000FF2A2AD01A0052E76246002A91D100288A
:1014900098D180260024FF22F603EEE60C00434696
:1014A00015007CE763460C00C61AC9E603006344D6
:1014B00001255A0100D46EE70225FAE663460125AC
:1014C0001B1AB8E664462023D4409B1A62469A4011
:1014D00013005A1E93412343A2E7434674E7614633
:1014E0002023D1409B1A62469A4013005A1E934112
:1014F0000B4320E763460C000125C31A9BE6002836
:1015000099D00C0046460022B7E646460022B4E6D3
:10151000002B00D03FE700240026AEE6FFFFFFFBD4
:10152000FFFFFF7D41024200C30F490A0020120E57
:101530007E2A03DD9D2A02DD094A98187047802023
:1015400000040143952A07DC9620821AD1404842C4
:10155000002BF3D10800F1E7963A9140F7E7C04637
:10156000FFFFFF7F70B5002813D0C317C5185D407B
:10157000C40F280001F0A6FF9E2301001B1A962B22
:101580000FDC082831D008398D406D026D0AD8B2C1
:1015900002E0002400200025C0052843E407204382
:1015A00070BD992B0CDD0522121A2800D0400200D4
:1015B00008001B3085402800451EA8410243150045
:1015C000052916DC2A000F4802406E0709D00F26B5
:1015D0003540042D05D00432550102D59F23024029
:1015E0005B1A9201550AD8B2D6E76D0296206D0AB1
:1015F000D2E74A1F95402A00024802406E07F0D009
:10160000E5E7C046FFFFFFFB70B5041E0ED001F0FA
:1016100059FF9E2301001B1A962B0CDC08282CD0A6
:1016200008398C406402640AD8B201E0002000242A
:10163000C005204370BD992B0ADD020020001B323B
:1016400090400200501E82410520401AC4401443BD
:10165000052916DC22000F480240650709D00F2536
:101660002C40042C05D00432540102D59F230240A3
:101670005B1A9201540AD8B2DAE764029620640A2F
:10168000D6E74A1F94402200024802406507F0D086
:10169000E5E7C046FFFFFFFBF0B54F464646D6469E
:1016A0000400C0B51F000B0310004E005B0ACD0FF5
:1016B000610F7A001943E3003C03FF0FBC46640A44
:1016C000470F2743760D520DC000B9468046B71A22
:1016D000654500D19BE0002F00DC84E0002A00D1AA
:1016E000BEE0C84A964200D124E180224C46120452
:1016F0001443A146382F00DD67E11F2F00DDD6E13E
:1017000020224C46D21B9440A2464446FC40200076
:101710005446044340469040421E90414A46FA4097
:101720000443891A1C1BA342924152428B1A9A46C7
:1017300053461B0200D4D4E053465A02530A9A4639
:101740005346002B00D104E1504601F0BBFE0300DC
:10175000083B20222000D21A5146D0409940020076
:101760009C400A43B34200DA02E19B1B591C1F292B
:1017700000DDA7E02023100026005B1A9C40984063
:10178000CE40CA40631E9C4130439246002604432B
:10179000630709D00F232340042B05D0231DA34248
:1017A000A4416442A2441C0053461B0200D49BE0A7
:1017B000944B01369E4200D1B8E053469249E4086A
:1017C0000B4019005B07234372054C02240B520D9A
:1017D0001205ED0722432A4318001100E0BCBA4667
:1017E000B146A846F0BD002F48D0971B002E00D070
:1017F0000EE10C001C4300D1B7E17C1E012F00D18B
:1018000026E2804DAF4200D1D5E1270007E1002F4D
:1018100000DCB2E0002A47D07A4A964200D189E043
:1018200080224C4612041443A146382F6BDC1F2F34
:1018300000DC6EE13A004846203AD0408446202F32
:1018400007D040224846D21B904002004046104339
:1018500080464046421E904162460400144357E0D1
:101860004A46024300D103E17A1E012F00D193E1E1
:10187000644CA74200D18AE117003BE7634C721C1D
:10188000224200D0E0E00A001A43002E00D074E1AA
:10189000002A00D1D0E14A46024300D0E3E14A07E2
:1018A000DB081343C90829E04A46024300D17DE121
:1018B0007A1E012F00D1E0E0524CA74200D166E130
:1018C0001700B2E710001F3BD840202903D0402367
:1018D0005B1A9A401443631E9C41002300269A46DB
:1018E0000443630700D055E75246E3085207134309
:1018F00052463700D108434A97421FD009037A0560
:101900000C0B520D64E742464C461443621E944150
:10191000E4189C429241524292468A4453461B022A
:10192000DFD5384B01369E4200D0B3E032000024B0
:1019300000234DE74A07DB081343C9081A000A438E
:1019400000D100E2802424030C4324032D4A240BFD
:101950003EE7200001F0B6FD030018331F2B00DC2A
:10196000F7E62200083882400024B34200DBFCE6A0
:10197000F61A254B1A4092460AE7002F2BD0971BE8
:10198000002E00D1B8E01F4CA24200D11CE18024FF
:1019900024042143382F00DD1EE11F2F00DD9EE1CE
:1019A00020260C00F61B1800B340B440F8405E1E21
:1019B000B341F94004431C438944444444459B419A
:1019C0005B424B449A461600A8E742464C461443F5
:1019D000621E9441A6E60D4C721C224200D0A8E083
:1019E0000A001A43002E00D00AE1002A00D15EE16D
:1019F0004A46024300D061E14A07DB081343C908A5
:101A00007CE7C046FF070000FFFF7FFFFE070000E6
:101A1000CF4CA24200D1CEE0802424042143382FB1
:101A20005BDC1F2F00DDDCE020250C00ED1B1E0021
:101A3000AB40AC40FE405D1EAB413443F9401C431B
:101A40004B465B1A99464CE04A461C1A881AA34238
:101A500092415242924602005046121A9246120297
:101A600078D45346234300D06AE60021002545E799
:101A70004A07DB081343C9083DE71C189C429B41F9
:101A800049448A465B429A44534601261B0200D4CD
:101A900027E702265246AF4B01211A40130021408E
:101AA00062080A43DC075B089A46144370E63A0072
:101AB0004C46203AD440A446202F07D04022484626
:101AC000D21B904002004046104380464046421ED2
:101AD000904162460400144324E619430C00631E3F
:101AE0009C4143461C1BA0459B4149465B42CB1A87
:101AF0009A46654616001BE60C001C4300D1C7E061
:101B00007C1E012F00D1F9E0914EB7425CD0270036
:101B100040E720224C464046D21B9440F840044304
:101B200040469040421E90414A46FA40044389187C
:101B3000EEE6874CA24200D1F9E6181898429B4184
:101B400049445B42CB18DC0740085B089A46160004
:101B50000443C6E64246D41AA04580414B46404263
:101B6000591A0B1A9A466546EAE54B464A46C0089A
:101B70005B0765460343D108BDE6002A00D08EE02E
:101B80004B46034317D1802100250903DAE64A07B3
:101B9000DB081343C908D1E61C1A4A46A3429B41FD
:101BA000891A5B42CB1A9A460126C1E54A07DB082F
:101BB0001343C9089FE64346D8084B464A465B078D
:101BC00065460343D108B9E64346D8084B464A4622
:101BD0005B070343D108B1E619430C00631E9C4127
:101BE000EBE63C000D00203CE540202F03D04024D4
:101BF000E41BA1400B431C00631E9C412C4370E777
:101C0000002AE1D04A460243C1D04A07DB08134309
:101C10008022C9081203114208D04846C408144261
:101C200004D143462100DB08420713435A0FDB006F
:101C30005207DB08134381E64B46034300D114E708
:101C40004B464A46C0085B0765460343D10855E644
:101C5000C41AA04580414B464042591A0B1A9A4675
:101C60006546012664E51C1A4A46A34280418A1A49
:101C70004042121A9246120249D54246D41AA04551
:101C800080414B464042591A0B1A9A4665467FE5F9
:101C90004B464A46C0085B070343D1082BE64A4639
:101CA000DB08024338D14A071343C90846E64B46CE
:101CB0004A46C0085B070343D1081FE61C189C4234
:101CC0009B4149448A465B429A4453461B0200D4D6
:101CD00007E652461F4B01261A40924601E63C0099
:101CE0000E00203CE640202F03D04024E41BA140FE
:101CF0000B431C00631E9C4134435EE64344834215
:101D0000804149448A4640421C008244BCE6534616
:101D1000234300D1A9E6E4E54A0713438022C9081A
:101D20001203114209D04846C408144205D1434663
:101D300065462100DB08420713435A0FDB00DB082E
:101D400052071343FAE50023014A1C0040E5C04650
:101D5000FF070000FFFF7FFFF0B557464E464546A0
:101D6000DE46E0B50C031F004B008146924605009D
:101D700085B0240B5B0DCE0F002B00D152E1D24A6F
:101D8000934200D16EE1420FE4001443802212041A
:101D900022439046CD4AC50093469B440023994672
:101DA00000933C037B005046240B5B0DFF0F002B80
:101DB00000D11AE1C44A934200D15EE1420FE4002F
:101DC0002243802424041443C04AC10094465A4646
:101DD0006344D31A9B46002033007B409A464B460F
:101DE0000F2B27D8BA4A9B00D3589F46B246009B78
:101DF000022B16D0032B00D187E2012B00D0D5E0B7
:101E00000023002200251B0513435246D20713432B
:101E10002800190005B0F0BCBB46B246A946A04652
:101E2000F0BD00220025A84BEDE7BA46A0460D0004
:101E30000090DCE7444500D2C4E100D1BFE10123BA
:101E40005B429C462E0040460025E34423020C0ED4
:101E50001C431B0C994623040A021F0C494600929E
:101E60000197FEF7FDF902007A430B04310C80461E
:101E700019438A4207D901235B429C460919E04471
:101E80008C4200D801E2881A4946FEF7E9F9019A26
:101E9000360442430904360C03000E43B24204D90F
:101EA0003619013BB44200D8E9E1B01A4246009E1F
:101EB00012041A43330C1F00110C904602931304B2
:101EC0003204160C32001B0C5A4303967B434E43DC
:101ED0007943170CBC469B1963449E4203D9802664
:101EE0007602B44661441E0C711816041B04360CAD
:101EF0009E19884202D312D1B54210D243465A1ECF
:101F0000009B9C4665441F009D429B415B421B1900
:101F1000C018844200D29EE100D199E19046AE1BE8
:101F2000B542AD41401A6D42401B844200D1D2E11E
:101F30004946FEF795F9019A0B044243310C05001E
:101F400019438A4200D96CE1881A4946FEF788F99C
:101F5000019A360442430904360C03000E43B24290
:101F600000D953E10398B61A02002D041D43029FC5
:101F70002B041B0C5A437B439C46290C4843130CEF
:101F8000844463447943984203D9802040028446C4
:101F90006144180C12041B04120C40189B18864252
:101FA00000D200E100D1FBE001231D43494B5B441B
:101FB000002B00DCAAE06A0700D03DE1E9084246B8
:101FC000D20106D54246444B1A4080239046DB009E
:101FD0005B44424A934200DD23E742465B055507D6
:101FE00052020D43120B5B0D0DE75146214300D108
:101FF0007CE0002C00D1FBE0200001F063FA02003D
:102000000B3A1D239B1A52460100DA405346083909
:102010008B408C4019001443314B58449B468344F9
:102020000020D9E603002343984644D0002C00D179
:10203000CFE0200001F046FA010002000B391D2319
:102040005B1A49461000D940083884400B004D46C1
:10205000234398468540234B9B1A9B460023994671
:1020600000939EE60200224390461DD108229B4623
:10207000022300259146009393E65146214309D15E
:1020800002234A461A43184B91469C4600240220DC
:10209000E344A1E603234A461A43134B91469C4668
:1020A00051460320E34497E60C229B460323A046B7
:1020B0009146009375E60423994600239B4601331D
:1020C000002500936DE6C046FF07000001FCFFFFFE
:1020D000F4CA0108FF030000FFFFFFFEFE07000037
:1020E000F30300000DFCFFFF01F8FFFF4A46012348
:1020F0001A439146002401206EE6002380229A466E
:102100000025884B12037EE601256D420122D21A7A
:10211000382A00DD74E61F2A00DCBDE01F21494299
:10212000CB1A4146D9400B00202A04D041467E4AB2
:102130005A4491400D4329004A1E914119430723F7
:102140001D0000220D400B4200D1D0E00F220023E1
:102150000A40042A00D1C7E00A1D8A428941494247
:102160005B1811001A0200D4BEE0012300220025F2
:1021700049E6802243461203134208D0144206D196
:1021800022431203BA460D00664B120B3BE6802237
:10219000434612031A431203B246624B120B32E655
:1021A000002B00D102E7A6196A1EA64200D289E0E0
:1021B000864200D29FE000D1AFE01500F4E6A942CC
:1021C00000D93CE64346DE0758086B081E43ED077E
:1021D0003CE601F077F901000200153120321C299C
:1021E00000DC2CE74B46083883400025984632E750
:1021F00001F068F903001A00153220301C2A00DCB7
:10220000FFE65446083B00219C4005E73619013B98
:10221000B44200D9A6E6B24200D8A3E6831E36191E
:10222000A0E60919013D8C4200D98DE68A4200D80A
:102230008AE6851E091987E60F222A40042A00D162
:10224000BCE6291DA942AD416D42C908A844B6E6C5
:10225000AF4200D962E6814204D800D05EE6AE42C9
:1022600000D85BE602235B429C46009BE0449C4610
:1022700065449D429B415B421B19C0184FE6B24228
:1022800000D812E6831E36190FE68A4200D8FAE516
:10229000831E98460919F6E5244B28005B44414605
:1022A0009D409940D0406B1E9D41434601432943C8
:1022B000D3404A0700D155E70F220A40042A00D034
:1022C0004AE74FE71500864200D06DE6009A9A4231
:1022D00000D069E66AE6164B5B44002B00DC13E78E
:1022E00001250021A8446AE65D075B021A0BC908B4
:1022F00000230D4387E50099023D4A008A42BF4111
:102300007F423F19F6190092DDE78022434612030F
:102310001A431203034B120B75E500999942EAD355
:102320001500D3E7FF0700003E0400001E04000074
:10233000FF030000F0B54E464546DE465746904640
:10234000E0B517001A03120B0500844619480E0366
:102350004C0091465A00DB0F9B46360B640DC90FAB
:10236000520D844219D0824210D0012094420ED1E5
:102370004E450CD10120C44509D1594517D0002C38
:1023800005D130002843431E984100E00120F0BCF5
:10239000BB46B246A946A046F0BD330001202B4300
:1023A000F5D1A242F3D14B463B43F0D1E2E7002006
:1023B000EDE7C046FF070000F0B54746CE460400F3
:1023C000180016001B031B0B2D4D4A00994680B5C3
:1023D00043000F03A446B0463F0B520DC90F5B0DDF
:1023E000C00FAA4221D0AB4213D0002A22D13C43D5
:1023F000002B02D14D462E4322D0002C10D081421A
:1024000022D00220013908400138C0BCB946B0468C
:10241000F0BD4D462E4329D1002AF0D13C43EED1E8
:102420000028F2D101204042EFE73D0025431DD1B5
:102430009342EED0002BE2D14C462643DFD1E0E7B9
:102440000020002CE1D0DCE79A420ADCE8DB4F45B3
:10245000D7D80ED000204F45D7D20029E2D00800AF
:10246000D3E74342584140000138CEE702204042C2
:10247000CBE7C445C5D80020C445C6D2EDE7C04669
:10248000FF070000F0B54746CE46040018001600CE
:102490001B031B0B2C4D4A00994680B543000F03CC
:1024A000A446B0463F0B520DC90F5B0DC00FAA42A8
:1024B0000DD0AB4210D0002A27D13C43002B11D1C4
:1024C0004D462E430ED10020002C15D00EE03D00CD
:1024D000254310D1934218D14D462E430BD1002AEB
:1024E00002D13C43002C0BD0814214D00220013990
:1024F0000840013800E00220C0BCB946B046F0BD3B
:102500000028F9D101204042F6E7002BECD14C46DF
:102510002643E9D1EAE79A4204DD434258414000AC
:102520000138E9E79A42EBDB4F45DFD806D00020BF
:102530004F45E1D20029E5D00800DDE7C445D5D8F4
:102540000020C445D8D2F5E7FF070000F0B54546A6
:10255000DE4657464E46E0B51F000B031B0B9B465D
:102560004D00CB0F04009146984687B06D0D00D109
:10257000CDE1CE4B9D4200D1E9E15A46430FD20056
:102580001343802212041A43C3009A46C84B934651
:102590009C4600230026654400933C037B0048468C
:1025A000240B5B0DFF0F002B00D189E1BF4A934242
:1025B00019D0420FE4002243802424041443BC4A6F
:1025C00000219446424663445B190193019B7A4083
:1025D0000133C000D2B202930A2E1CDD3A000B2E4A
:1025E0005ED0474656E04946B04B2143EB18019375
:1025F00000292AD18020022200012B0084461643A4
:10260000424663447A40D2B202930A2E00DD31E2A0
:10261000002000240221022E26DC013E012E52D889
:1026200002294CD0012900D018E100230024002504
:102630001B052343D20713432800190007B0F0BC41
:10264000BB46B246A946A046F0BD8021032209013F
:102650002B008C461643424663447A40D2B2029322
:102660000A2E00DD28E203210125B540AC46A6264E
:102670006346F600354033420BD19026B600334214
:1026800018D1B93EFF3E1E421DD0A346824600919E
:1026900000E0170000993A00022910D05C4650462D
:1026A0000329BFD180231B031C43240305007F4B58
:1026B000240BBDE7802400227C4B2403B8E70024D0
:1026C00000257A4BB4E753461E04360C1F0C33002A
:1026D000010C0004000C4343984603007B439946D9
:1026E00033004B439C4643460D001B0C9A467D43EA
:1026F000CC44D4440095E14504D980235B0299463B
:102700004D44009563461B0C1D0063461B049C460C
:1027100043461B041B0C9846634643440393230C17
:10272000984633002404240C63439C4623007B43D7
:10273000994643465E435F434E446346B2461E0C91
:102740005644B14503D980235B0299464F44330C6C
:1027500099463B004B4405936346AC461F043F0C2F
:102760003604F619B444634604935B461B0C9C463E
:102770005B461F043F0C3B0043439946634643437B
:102780009A464B4660461B0C9B464843794351444E
:1027900059448A4503D980235B029A4650440B0C66
:1027A0009A464B461B041B0C99463B0063430904A5
:1027B00045464944994663465C436B439C464B46B9
:1027C0001B0C98466F433F1947445044BC4203D901
:1027D00080235B029846C444049B009D9846454470
:1027E000B542B641734298464B461E04059B3C04D5
:1027F0009946360CA4194C44A14683466E18C14430
:102800008E428941CB445D4649426D189C42A441A9
:10281000C1459B41834580418D4289415B42644271
:102820001C434042039B4942014370023F0C184342
:10283000E419471EB84164186444F60D6102304340
:10284000EC0D6E020C433043C90100D4F1E00121CC
:10285000430801400B43E007184364081549029BF5
:102860008C466344002B00DC97E0410709D00F2120
:102870000140042905D0011D8142804140422418B5
:102880000800E10106D58021C9008C460A4B1C4096
:10289000029B634409498B4200DD10E76107C508CC
:1028A00064025B050D43240B5B0DC1E6FF070000CE
:1028B00001FCFFFFFF030000FFFFFFFEFE0700001B
:1028C0004B46234359D0002C00D1A3E0200000F058
:1028D000F9FD010003000B391D22521A4946180068
:1028E000D1404A4608388240844010000C43744A64
:1028F000EB1A9446424663440193019B7A400133AC
:102900000021D2B202930A2E00DD67E683E65B4621
:1029100003439A462AD05B46002B6DD0584600F000
:10292000D1FD010003000B391D22521A21001800AD
:102930005D46D140083885400A0084402A439346CA
:10294000A2465F4D0026ED1A0023009325E65B4664
:1029500003439A4605D100239B4602330826009381
:102960001BE6032382460C26009316E600239B46B3
:1029700001330426002500930FE6424601330195FA
:102980001E43019B7A400133002400200121D2B272
:1029900002930A2E00DD21E63DE60121C91A3829FD
:1029A00000DD42E61F2947DD1F2625007642F31A87
:1029B000DD402B00202905D04249029D8C4665440C
:1029C000AC402043411E8841184307231D000024CA
:1029D000054003424AD00F2300240340042B42D079
:1029E000031D8342804140422418180023023AD537
:1029F0000123002400251BE600F064FD0100030014
:102A0000153120331C298FDD08380022844092467E
:102A1000A34696E700F056FD010003001531203370
:102A20001C2900DC58E702004C46083A002094407C
:102A30005DE7019B029311E7234B26009C460300B0
:102A4000029DCB406544AE401E430300AB40581E80
:102A5000834130001843CC404307C7D00F230340C5
:102A6000042BBDD1C2E765076402240BC008002314
:102A70000543DDE5002502230F2E0CD180245B46A3
:102A8000240323420ED021420CD10C4324033A00EC
:102A90000E4B240BCCE50B2E00D0A2E58B46AA46AC
:102AA0000093F7E580245B4624031C43240342463D
:102AB0005546064B240BBBE54D4621000323DBE7BF
:102AC0000DFCFFFF3E0400001E040000FF07000095
:102AD000F0B557464E464546DE46E0B50D000400CB
:102AE000190010002B035B0A620F1A43E3000C036A
:102AF000640A470F2743D04C6E00914683B04A00CA
:102B0000C0009846A246760DED0F520DC90F0190F8
:102B1000A24200D1B9E0012461408B468D4200D130
:102B20008DE0B41AA446002C00DCB7E0002A00D1E6
:102B3000CBE0C14A964200D186E1802212041743BD
:102B40006246382A00DDA4E11F2A00DD1DE261464D
:102B500020223C00521A010090409440421E9041B5
:102B60006246A0466446D7404A46E1404446D21BEE
:102B700091460C4304431C1BA34292414B465242D4
:102B80009B1A9A4653461B0200D42BE153465A0225
:102B9000530A9A465346002B00D166E1504600F096
:102BA00091FC0300083B20222000D21A5146D0405D
:102BB000994002009C400A439E4200DD64E19B1B59
:102BC000591C1F2900DDFEE02023100026005B1A9F
:102BD0009C409840CE40CA40631E9C413043924680
:102BE00000260443630709D00F232340042B05D09C
:102BF000231DA342A4416442A2441C0053461B026D
:102C000000D4F2E08C4B01369E4200D10FE15346D6
:102C10008A49E4080B4019005B07234372054C0204
:102C2000240B520D12052243ED072A431800110010
:102C300003B0F0BCBB46B246A946A046F0BDB41AEC
:102C4000A446002C59DD002A00D1B0E0564500D141
:102C5000FAE08022120417436246382A00DDD4E0ED
:102C60001F2A00DCC0E13900203AD1406246202A08
:102C700006D064464022121B3C0094400443019459
:102C8000019C621E94410C43C3E03C0004432BD0E2
:102C90008B468D422ED06A4CA446B4446446002C28
:102CA0005FD0941BA446002E00D020E14C461C436C
:102CB00000D1C7E161464C1E012900D123E25E4DDF
:102CC000AC4500D1D8E1A4461AE13A00024300D154
:102CD000E4E02200013A012C00D1C3E156498C42C4
:102CE00000D1B1E094462BE7012461408B468D4230
:102CF00000D016E752498C46B4446446002C00D1FB
:102D0000D3E0911B8C46002E00D15EE14A498A42F5
:102D100000D1BEE180214C4609040C43A146614626
:102D2000382900DDBAE11F2900DD27E22024641ADA
:102D30004946A1401E0088466146A340CE40414618
:102D40005C1EA341314319430C0063464946D940F8
:102D50007F18241884429B415B429A461600BA446D
:102D60005DE0384C721C224200D0DFE04A461A4334
:102D7000002E00D05CE1002A00D1CFE13A000243EE
:102D800000D17FE11C1A4A46A3428941D21B494225
:102D9000521A9246120200D40AE2C41AA04280419A
:102DA0004B464042FF1A3B1A9A465D461AE73A00E4
:102DB000024373D02200013A012C00D1CBE05445EC
:102DC00042D0944648E710001F3BD840202903D04A
:102DD00040235B1A9A401443631E9C410023002643
:102DE0009A460443630700D0FEE65246E3085207C2
:102DF00013435246B446D2080F498C452AD01203D9
:102E0000140B62465205520D0CE73C000443621E4F
:102E10009441E4189C42924152424A44924653469D
:102E20001B02DFD5044B01369E4200D0A0E03200E9
:102E300000240023F6E6C046FF070000FFFF7FFFE7
:102E400001F8FFFFFE070000DB084A465207134364
:102E50004A46D2081900114300D1B5E18024240369
:102E600014432403D54A240BDCE6200000F02AFB9F
:102E7000030018331F2B00DC95E62200083882403F
:102E800000249E4200DC9AE6F61ACD4B1A40924688
:102E9000A8E63C000443621E94416CE64A46DB0807
:102EA000520713434A46D208A6E7C64C721C224278
:102EB00000D0ACE04A461A43002E00D005E1002ABB
:102EC00000D156E13A00024300D1DBE01C189C42DD
:102ED0009B414F44BA465B429A4453461B0200D47E
:102EE00080E75246B64B01261A4092467AE7B34C29
:102EF000A24200D1C0E080244D4624042543A946C7
:102F00006446382C53DC61461F2C00DDCDE02025C3
:102F10001E002D1B4C46AB40AC40CE405D1EAB416D
:102F2000344323434C46CC403F1B45E04A461C1AE1
:102F3000D11BA3429241524292460A005146521A74
:102F40009246120200D583E05346234300D021E687
:102F50000022002553E71C189C429B414F44BA466F
:102F60005B429A44534601261B0200D43AE70226EC
:102F70005246934B01211A401300214062080A4334
:102F8000DC075B089A4614432CE63900203AD1400E
:102F90006246202A06D064464022121B3C00944020
:102FA00004430194019C621E94410C43E3E54946AD
:102FB00019430B005C1EA341C41AA0429B415B4213
:102FC000FB1A9A465D461600DCE54946194300D1D6
:102FD000AEE0614664460139012C00D1E0E0774C57
:102FE000A44556D08C469AE6614620223C00521AEF
:102FF000944001009040A0466446421E90416246C3
:10300000E1404446D7400C430443B94401E76B49CF
:103010008A4200D10CE7181898429B414F445B420A
:10302000FB18DC0740085B089A4616000443D9E603
:10303000002A00D081E03B0003431DD180220025FF
:1030400012030BE7C0087B075D460343FA08D3E68B
:10305000C41AA04280414B464042FF1A3B1A9A468E
:103060005D4697E51C1A4A46A3429B41D71B5B422B
:10307000FB1A9A46012685E5C0087B075D46034397
:10308000FA08E7E64A46DB08520713434A46D208E5
:10309000B5E6C0087B070343FA08DBE64946194357
:1030A0000B00591E8B411C0053E64D46203CE54069
:1030B000202905D04024641A4946A1400B43984674
:1030C00043465C1EA3412B4376E7002AE1D03A0039
:1030D000DB08024300D1B8E64A4652078024134376
:1030E0004A462403D208224207D0FE08264204D1D1
:1030F0005D463200C3087F073B43590FDB00490799
:10310000DB080B43A6E6C41AA04280414B4640426E
:10311000FF1A3B1A9A465D46012633E53B000343FE
:1031200000D115E7C0087B075D460343FA0866E651
:10313000C0087B070343FA085EE63A00DB08024357
:1031400000D182E64A465207802413434A462403AC
:10315000D208224207D0FE08264204D15D46320042
:10316000C3087F073B43590FDB00DB0849070B43CC
:1031700070E6C0087B070343FA0840E64C46203956
:10318000CC406146202906D066464021891B4E4628
:103190008E40334398464346591E8B411C43D8E525
:1031A0001C18844280414F44BA4640428244D9E6CA
:1031B0005346234300D1CBE614E6C046FF07000088
:1031C000FFFF7FFFFE0700000023014A1C0029E5E6
:1031D000FF07000070B505000C481C0316005B00DB
:1031E0000A034900120B490D240B5B0D814208D0E4
:1031F000064A0020934203D120003043431E9841E9
:1032000070BD01202A43FBD1F2E7C046FF07000052
:103210000A0030B5134C530009030500090B0020C8
:103220005B0DD20FA34204DD0F48834202DD0F4B3A
:10323000D01830BD8020400301430D48C01A1F281C
:1032400008DD0C48C31AD9400B005842002AF0D1BF
:103250001800EEE7084CC540A446634499400B00B3
:103260002B43F2E7FE0300001D040000FFFFFF7F79
:103270003304000013040000EDFBFFFF70B50028CD
:1032800016D0C317C5185D40C40F280000F01AF906
:10329000114B1B1A0A2816DC02002E00153296402C
:1032A0000B22121AD5405B052D032D0B5B0D03E09D
:1032B00000240023002500261B052B43E40723439D
:1032C0003000190070BD0B3885405B052D030026CA
:1032D0002D0B5B0DF0E7C0461E04000010B5041E68
:1032E00010D000F0EFF80F4B1B1A0A2811DC0B224C
:1032F0002100121AD14015300A035B058440120BDD
:103300005B0D01E0002300221B0513432000190080
:1033100010BD22000B3882405B0512030024120B03
:103320005B0DF1E71E04000070B542024300C40FBC
:10333000FE201B0E591C550A08420CD0E0218900C2
:103340008C466D07120B63441B051343E4072343AC
:103350002800190070BD002B14D1002D1BD02800AF
:1033600000F0B0F80A281CDC0B232A001B1ADA40F4
:10337000030015339D400E4B12031B1A5B05120B05
:103380005B0DE1E7002D09D0130B802212031A43D5
:103390006D07084BD8E700230022D5E70022054B34
:1033A000D2E703002A000B3B9A400025E3E7C04622
:1033B00089030000FF0700000200F0B54B000D0379
:1033C000400F5B0DCC0F6D0A3A490543581CD700DE
:1033D00008420AD038495918FE2916DDFF2000227C
:1033E000C0051043E4072043F0BD002B06D13D4348
:1033F00026D005229201520AD8B2F1E72F43EDD030
:103400008022D203FF202A43EAE700291BDD920134
:10341000501E8241ED007F0F2A433A43530747D0A5
:103420000F231340042B00D004328023DB0413400D
:103430003ED0481CFE29D1D09201520AC0B2CFE73B
:1034400000200022CCE70A0017322FDB802636044A
:103450002E431E256D1A1F2D11DD02225242521AD3
:103460003100D140202D04D0144A944663449E403C
:1034700037433A00531E9A410A430021CEE7104ACF
:1034800038009446634498403A00411E88419E406B
:10349000EA403043024300215307C1D18021130089
:1034A000C90401200B400A42C6D1A3E70023A0E7CC
:1034B0000B009FE7FE07000080FCFFFFA2FCFFFF60
:1034C00082FCFFFF1C2101231B04984201D3000C46
:1034D00010391B0A984201D3000A08391B09984287
:1034E00001D30009043902A2105C40187047C0469D
:1034F00004030202010101010000000000000000BD
:1035000010B5002903D1FFF7DDFF203002E00800ED
:10351000FFF7D8FF10BDC0461B2807D8044A012377
:10352000C24047201340C01AC0B270474720FCE792
:1035300060C08A0BF0B5C646060000B51D0006AB9C
:103540001B781700013BDA002148D21A5200135AA7
:1035500030000C0098460AF0C7FD002818D01D4B1B
:10356000B2002900D0580BF067FE002810D1434666
:10357000DBB21B2B03D8184ADA40D20710D4300034
:103580000AF0B2FD3A00210010F0C8FE050000E08C
:1035900001250A200DF082FE280080BCB846F0BD4F
:1035A00000239846002FF3D030000AF09DFD012241
:1035B000210010F0B3FE050002200DF06FFE43461F
:1035C0000133DAB290460134BA42EDD3E1E7C046A6
:1035D00000000020941B002060C08A0BF0B5574605
:1035E0004E46DE464546E0B583B06B469E1D002341
:1035F00098463380194B21279A46194B9B464346E0
:103600009B001D00994645447C1F6D00A4B25544A3
:103610002000310008F0C0FB338801346B70A4B285
:103620001B0A2B700235BC42F2D14F46002347449F
:103630007F0057447B7243460133DBB298462A220F
:103640005B469B5C0534A7B24345D8D2002003B04B
:10365000F0BCBB46B246A946A046F0BDA808002073
:1036600000000020F0B54646D6464F46C0B582B0B1
:103670006B469E1D0023254D33802A33EB5C0024CE
:10368000002B3FD0224B00219846282343449946E3
:103690002A2720004900CB30494480B208F07CFB47
:1036A000611CEB5D8CB2C9B28B42F2D8302327008B
:1036B000D0349C46A3B2994600239A469E37E044F4
:1036C000BFB245467C1FA4B22000310008F064FB65
:1036D000338801346B70A4B21B0A2B700235BC42D4
:1036E000F2D1434652465A720A239C460534A7B289
:1036F000E0444F45E5D1002002B0E0BCBA46B146F7
:10370000A846F0BD024B9846D0E7C0460000002016
:10371000A8080020F0B585B000236A46E42003A97C
:103720009381D38108F038FB0025002801D16B4636
:103730001D7B03A9E52008F02FFB0E236B4404003A
:103740001900E62008F028FB0443A4B20026002C50
:1037500004D16B469E89DB893604F61803A9E7205D
:1037600008F01AFB0E236B4404001900E82008F04F
:1037700013FB0443A4B20027002C04D16B469F899D
:10378000DB893F04FF18E92003A908F005FB0028A6
:103790002BD0244CEA2003A908F0FEFA002804D11B
:1037A0006B469B891A0AA275E375EB2003A908F002
:1037B000F3FA002804D16B469B891A0A22766376B5
:1037C000237D002B02D0627D002A1CD1A37D002B1B
:1037D00002D0E27D002A1DD1237E002B02D0627E22
:1037E000002A09D1002005B0F0BD6B469B890D4C25
:1037F0001A0A22756375CDE7009231003A0028005D
:1038000004F066FDEEE7009231003A00280004F073
:103810005FFDDBE7009231003A00280004F058FD1C
:10382000DAE7C046280900208A2030B583B001A914
:10383000400008F0B1FA002800D06AE06B468E2004
:103840009B885C4C01A9237740001B0A637708F032
:10385000A3FA002800D06CE06B46202116209B883C
:10386000FF30DA0B62545B0801A9638408F094FA14
:10387000002800D06DE06B468B209B8801A940009A
:10388000A38408F089FA002800D06DE06B46182068
:103890009B8801A9FF30E38408F07EFA002800D05D
:1038A0006DE06B4622009B88243213711B0A2200B4
:1038B0008C20243201A94000537108F06DFA6B4648
:1038C00005001A20991DFF3008F066FA0543ADB2D5
:1038D000002D64D16B466A46DB8892881B04134333
:1038E0008D2001A94000E36208F056FA002852D169
:1038F0006B469B8823861C2001A9FF3008F04CFAF8
:10390000002844D16B461B7900202434A37603B0F1
:1039100030BD2C228E20284B264C9A5C2C332277EB
:103920005B7801A94000637708F036FA002800D1DF
:1039300092E7214B16201A002C3211792022A15433
:103940005B8E01A9FF30638408F026FA002800D1BD
:1039500091E78B20184B01A99B8E4000A38408F0AF
:103960001BFA002800D191E71820134B01A9DB8E28
:10397000FF30E38408F010FA002800D191E722001C
:103980000D4B24323433197911715B798FE70A4B6F
:1039900034339B7EB8E7C0235B012386ABE740232B
:1039A000E35C002B02D0E1235B0299E7024BDB6B67
:1039B00096E7C0462809002000000020F0B55746D1
:1039C0004E464546DE46E0B589B000236A46D383BD
:1039D0000F3399460E3B9A460833FF330127EC24F8
:1039E0009846344E05E00434A4B209360137444504
:1039F00058D01E236B441900200008F0CDF9051E95
:103A0000F1D16B46DB8B190A1A0BBA42EBD14A464D
:103A100048460A400842E6D073741E23601C6B447B
:103A20001900B27280B208F0B7F96B46DB8BA01CAC
:103A30001A0AB3731E236B441900F27280B208F0A5
:103A4000ABF96B46DB8BE01C1A0AF3731E236B4445
:103A50001900327380B208F09FF96B46DB8BB07AA5
:103A60001A0A3374FBB2190072739B4608F03EFECB
:103A70005046717CF37A4A10059502400140307C33
:103A800004340490F07BA4B20390B07B0137029021
:103A9000707B09360190F0780090584608F020FFBE
:103AA0004445A6D1002009B0F0BCBB46B246A946A9
:103AB000A046F0BD98290020F0B5D64646464F46B0
:103AC0003220C0B512F00CF8061E6CD0374C2378AB
:103AD000FE2B57D1431C994664239A46344B354FED
:103AE0009846BA44210023001431351B1A78EA5451
:103AF00001338B42FAD114224946380013F057FDA6
:103B0000283414220021300013F025FC2278FD2AED
:103B10003AD80023283D01E0322B30D02A55627874
:103B200001330134DBB2FD2AF6D91D005A1EB25C06
:103B3000002A01D00133DDB2280011F0D1FFF86076
:103B4000002826D02A00310013F031FD43464246BA
:103B50001B7800210133137030002A0013F0FBFBA7
:103B60002378FE2B02D114375745BBD1300011F01A
:103B7000C1FF0020E0BCBA46B146A846F0BD3122E4
:103B80003225D4E7FF20F5E7012200250023524229
:103B9000CDE714220021380013F0DDFB300011F0D6
:103BA000A9FF0E20E6E7FB20E4E7C046001004086A
:103BB0006413002068130020F8B52A230F4CE35C3F
:103BC000002B0DD001202A250D4E411E471C490017
:103BD0003800711808F0E0F8635DF8B28342F4D25F
:103BE000FFF7FCFCFFF73EFDFFF794FDFFF71CFE1F
:103BF000FFF7E4FEFFF760FFF8BDC04600000020BD
:103C0000C82D0020F8B5CE4647462A2380B5124E6F
:103C1000F35C9946002B19D0002399460F4B0124E1
:103C200098462A2707E0192C01D90A239946F35D03
:103C3000ECB2A3420AD34246631E5B00D15A651C14
:103C40000029F0D0A8B208F0CFF8ECE74846C0BC95
:103C5000B946B046F8BDC04600000020C82D00207F
:103C6000F8B5002345469846204B4E469946204BD2
:103C7000DE4657469B462A23E0B59A46002606E0D4
:103C80005B46524601369B5CF6B2B34227D34B46A5
:103C9000B400A41964001B5D002BF1D045464746D3
:103CA00001341C3521374C44ADB2BFB221781B0220
:103CB0002800C918013589B2ADB208F095F8BD42A7
:103CC00002D063780234F1E7434605339BB298464D
:103CD00052465B4601369B5CF6B2B342D7D2002017
:103CE000F0BCBB46B246A946A046F8BDA8080020D5
:103CF00000000020F8B5DE4657464E4645468B4646
:103D0000E0B51C000AAB1B7801009A460BAB1B7890
:103D1000E42098460CAB1F780DAB1E780EAB914695
:103D20001D7808F061F85B46190A89B2E52008F0B1
:103D30005BF85B46E62099B208F056F84B46190A44
:103D400089B2E72008F050F84B46E82099B208F015
:103D50004BF82102514489B2E92008F045F8434666
:103D60001902C91989B2EA2008F03EF8310249194E
:103D700089B2EB2008F038F80020F0BCBB46B24610
:103D8000A946A046F8BDC0468A2070B51F4C400029
:103D9000637F217F5B01194308F026F820238E20E2
:103DA000E15C638CC903194389B2400008F01CF838
:103DB0001620A18CFF3008F017F88B202500E18C2D
:103DC000400008F011F8182024356B79297B1B027C
:103DD0001943FF3008F008F88C20A18D400008F04E
:103DE00003F81A20E18DFF3007F0FEFF8D206B7B7A
:103DF00029791B021943400007F0F6FF1C20A97E19
:103E0000FF3007F0F1FF002070BDC04628090020F8
:103E1000F8B5CE464746164E06220021300080B542
:103E200013F099FA2A23134DEB5C9846002B19D016
:103E3000002398460233012499462A27192C01D9D8
:103E40000A2398464B46DCB2EB5DA3420AD3631EBD
:103E50005B00F15A631C99460029EFD0180007F067
:103E6000C3FFEBE74046C0BCB946B046F8BDC0460C
:103E7000C82D0020000000200E2330B512248FB082
:103E80006B446C44009303AA06AB05A9012008F01B
:103E90009FFA04AA08AB07A90220009408F098FA38
:103EA00001230A936B4600259B89059809A909936C
:103EB0000B950EF057FA02230B932388089809A953
:103EC00009930A950EF04EFA6B46002299890598DF
:103ED0000EF0EAFB052009F0FBFD218808980EF0A2
:103EE000DDFB03000020002B01D00FB030BD6B467E
:103EF0000122998905980EF0D7FB052009F0E8FD0D
:103F0000218808980EF0CAFB013843425841C0B2DC
:103F1000EBE7C04670B506000024084D3000296864
:103F2000FCF7F2F80134002805D0E4B20C350D2C72
:103F3000F4D1002070BDE0B2FCE7C04618010020BB
:103F400070B5017803000C003D3C3D2900D1447858
:103F50000D0006203E3D3C39002C27D0002D02D11B
:103F60005A78002A24D0002902D15A78002A21D078
:103F70001A783E2A05D15E783D2E02D19E78002E19
:103F80001AD03C2A05D15E783D2E02D19E78002EB3
:103F900014D0212A05D15A783D2A02D19A78002AD4
:103FA0000ED00138C0B20028D6D170BD0120FCE788
:103FB0000220FAE70320F8E70420F6E70520F4E7FB
:103FC0000620F2E7F0B557464E464546DE46E0B5D8
:103FD0004C4B85B000AF1A00FB602A23D65C6A46C2
:103FE000F31DDB08DB00D31A9D4604006D46002E4E
:103FF0000AD032000021684613F0ADF94248002192
:104000007200443013F0A7F90122631EEA543E48BF
:10401000DA00F968D21A5B00C01801238C465200FE
:104020009846023201336244002144249C46AB4648
:10403000BE601388002B0DD0065BDB08B1464646F8
:104040008E40B2464E4655462E4365465B44013B84
:1040500006531D70013102320629EAD102235D4662
:104060009B46BE68AC46B0465E46274B7B604346E7
:104070000136F6B2002B18D0731E9946FB68B24683
:104080009D1C002300229B4666467C684434B35C3A
:104090004B4513D00132D3B20E3502349845F6D8D1
:1040A0005B46B4465646002BE1D10020BD4605B024
:1040B000F0BCBB46B246A946A046F0BD4B46280020
:1040C000A946002194462500BB600388002B0FD031
:1040D000DB08013BF25C002A0AD101248C402A88CB
:1040E00022432A805246F2545B460133DBB29B46A0
:1040F000013102300629E8D1BB682C0062464D46EA
:104100009946C7E70000002028090020F0B5DE46E8
:10411000454657464E46E0B50026744B87B01B888F
:1041200005AC2380724B05000F000322180001919B
:1041300000210293A67013F00EF978216D4B6A1ED0
:1041400098469B185E5404315E546B4B01209B468D
:10415000D3009B1A5B0002335B441A000393B9B28D
:104160001388002B03D0DB088B4200D1B2E0013072
:1041700002320728F4D12A235A46D05C002800D105
:10418000A3E07722464642449446FF270021293B7C
:104190007B369D4203D06246D7549A191170013381
:1041A0008342F6DD002347469A46783399467837AE
:1041B000250022000121002316780133314001320D
:1041C0008342F9DB00294CD12378002B44D04346AD
:1041D0004A46FF269A5C00238C4600E0DA5DB24234
:1041E00005D22978002902D1D9B28C4616000133B4
:1041F00001358342F2DB61460131CBB29A46019B25
:104200009A452FD053465E1E01235D46A355F30009
:104210009B1B5B009A1C0E355A44ED1846440090D7
:104220001388002B13D0DB08DBB2013BE15C0029D3
:104230000DD149464846715C43440131185CC9B20E
:10424000884204D9484619547C21504658540232B9
:10425000AA42E5D10098ABE74A4643469E5C32004D
:10426000B9E75346013B7C214344595C00230029B4
:104270000FD050464546029C00E011001A00A054A1
:104280006A187B32127801330800DBB2002AF4D1BD
:10429000A84601200199039C4144029D773123885F
:1042A000002B06D00A78DB08AA18013A12789A4245
:1042B0001AD0013002340728F1D1002007B0F0BC39
:1042C000BB46B246A946A046F0BD012300225B4290
:1042D0009246C8E7019901220B00434477331A70D4
:1042E000029BC0B21970E9E7C0B2E7E7B4C00108A9
:1042F000CC1B00202809002000000020F8B52B234B
:104300004746CE469846002380B54A4F01243D00DB
:104310009946494E4346F05CA04245D14B462B702E
:104320000134E4B20135042CF4D109F08DFA09F01E
:1043300021FB07F051FE08F00DF807F095F909F0A0
:104340005FFB07F059FC09F085FB08F0AFF8002887
:104350005DD1FFF791FD00282BD1322009F0B8FB89
:1043600006F08CFDFFF728FC07F026FA2B238021AE
:10437000F35C012231484901002B31D10EF094F950
:10438000FA20400009F0A4FB802100222B484901BB
:104390000EF08AF903F040FC09F01EFB0123FB70CC
:1043A000C0BCB946B046F8BD2100FFF7AFFE28708B
:1043B000B6E740230122224D3220EA5409F088FB5F
:1043C00006F05CFDE12149020124E96200E0E96AAE
:1043D00020000134E4B209F075FE072CF7D1C1E7E3
:1043E0000EF062F9FA20400009F072FB80210022F1
:1043F000490112480EF058F9642009F069FB802148
:104400000E48012249010EF04FF96420BAE70D4C25
:104410000D4D2368AB4204D007F07EFD002800D18B
:104420002560BFF34F8F094B094ADA60BFF34F8F06
:10443000C046FDE7A809002000000020000400504D
:1044400028090020F07F0020ADDEEFBE00ED00E087
:104450000400FA0510B50CF0FBFE06F021FBFFF797
:104460004DFF03F01BFE0AF0C3FE10BDF0B5DE46A3
:104470004E4645465746614BE0B51E1D32009846F4
:104480005F4B070013CB13C2196889B011609B887A
:10449000300093800125FBF741FE6D42322382B24A
:1044A00031003800009509F0B7FD564B01249946BC
:1044B00022004946300012F0CFFE3000FBF72EFEFE
:1044C000013482B2322331003800009509F0A4FD96
:1044D000072CEDD13223032238004B49009509F017
:1044E0009BFD4A4B9B462A235A46D35C002B74D033
:1044F000474B45460493474B00240593464B0435F0
:104500000693464B079301235B429846444B9A46D9
:10451000444B9946631C1A0004992800039312F037
:104520009BFE2800FBF7FAFD434682B22900009368
:104530003800322309F070FD5B46E600361B76003A
:104540009B5B05225900C918059B49009C46280021
:10455000614412F034FF43460522290000933800DD
:10456000322309F059FD43460122009338003223DB
:10457000069909F051FD5B46B41C0E335C449E194C
:1045800011E04946280012F067FE2800FBF7C6FD3F
:10459000434682B20093290032233800023409F0E6
:1045A0003BFDB4420AD02288002AEAD007235146B4
:1045B00013402800D20812F04FFEE6E743460222DD
:1045C000009338003223079909F026FD6B465A46BE
:1045D0001C7B2A23D35CA3429CD801235B4200931B
:1045E000012238001049333309F016FD09B0F0BC40
:1045F000BB46B246A946A046F0BDC046A809002069
:1046000034CB010848CB01082CDA01080000002057
:1046100050CB010808C1010844CB01086CCC01084B
:1046200060CB01085CCB010824E40108F0B5DE464C
:10463000454657464E463C4BE0B51C1D220085B012
:1046400002933A4B824623CB23C223CB23C21B685F
:1046500020001360FBF762FD01235B4282B20093EE
:1046600021003333504609F0D7FC314B1A00039335
:104670002A23D35C002B39D0012399462D4B802768
:1046800098462D4B3F029B464B465D1E029B6D009C
:104690001E1D2B0000244546984601E00A2C1BD025
:1046A0002200390043461141EB5A01341942F5D03A
:1046B00023004A465946300012F0CEFD3000FBF789
:1046C0002DFD01235B4282B200933100504633330B
:1046D00009F0A2FC0A2CE3D14B460133DBB2994628
:1046E0002A23039AA846D35C4B45CDD2029C134B98
:1046F0000434220023CB23C223CB23C203CB03C227
:104700002000FBF70BFD01235B4282B200932100E6
:104710005046333309F080FC05B0F0BCBB46B246CE
:10472000A946A046F0BDC046A809002068CB0108F4
:1047300000000020C82D0020A4CB010884CB010874
:10474000F0B5DE464E4645465746E0B587B0049084
:104750000AF0FAFE002303709C4B04001A00029337
:104760002B23D25C9A4B9B499B461D1D280012F0BF
:1047700073FD2900200012F0F6FD54235A46964995
:10478000D25C280012F068FD2900200012F0EBFD39
:1047900006230022914900932800043B12F05CFD9F
:1047A0002900200012F0DFFD8D4A8E49280012F00A
:1047B00053FD2900200012F0D6FD8B4A8B492800BA
:1047C00012F04AFD2900200012F0CDFD2A00884B8E
:1047D00043CB43C21968200011609988012691805B
:1047E0009B792900937112F0BEFD824B9946824B52
:1047F0009846824B9A4632004946280012F02CFD1A
:104800002900200012F0AFFD5B465833F35C042B07
:104810000BD842469B00D3589F46794B794A83CBAD
:1048200083C283CB83C21B881380290020000136FA
:1048300012F099FD072EDED1734B724AA04643CB8E
:1048400043C243CB43C22900200012F08CFD6F4BC2
:104850006F4F9A4604235B4499466E4B01253C00FA
:104860006D4E039316E0B06A06F0A0FB07002068C7
:1048700006F09CFB2A003B0051460090484612F08F
:10488000EBFC01354946404612F06DFD60360434BC
:10489000072D10D03368002BE5D12A000399484634
:1048A00012F0DAFC01354946404612F05CFD6036F4
:1048B0000434072DEED14046FBF730FC444605009A
:1048C000564B0222190020189A4612F070FEA81CBE
:1048D00020181D22524912F06AFE524B802698463B
:1048E000514B1E35A14605952B270025444636021F
:1048F000039301E0062D18D02A0031001141029BDC
:104900000135DB5D013B5B00E35A1942F2D0042321
:104910005B44984603992A00180012F09DFC41461A
:10492000484612F020FD062DE6D14846FBF7F6FB7F
:10493000059B4C461B0405001B0C98423ED00322ED
:104940005146601912F033FE049B002B29D107B0A9
:10495000F0BCBB46B246A946A046F0BD334B294A3F
:1049600083CB83C261E7324B264A83CB83C203CB1E
:1049700003C21B78137058E75246224B83CA83C385
:1049800083CA83C3116819609188998092799A715A
:104990004BE7284B1A682A609A88AA809B79AB71EA
:1049A00043E72000FBF7BAFB01235B4282B200938E
:1049B00021000498333309F02FFBC8E705221E4974
:1049C000201812F0F4FD0435B9E7C04600000020BD
:1049D000A8090020B8CB0108D4CB0108F0CB01080E
:1049E00010CC01081CCC010834CC010840CC0108D3
:1049F0005CCC010870CC010858C00108C0CC01088B
:104A0000A4CC0108AC090020E0CC010814CD0108B9
:104A100044150020F8CC0108A02300206CCC01082C
:104A200044CD0108C82D002064CD010898CC0108B0
:104A300080CC010878CC01086CCD0108F8B5CE46D1
:104A4000474680B5037806006D2B0CD14378652B63
:104A500009D18378002B06D12B22284B985CC0BC4F
:104A6000B946B046F8BD30002549FBF74DFB00289C
:104A70003FD03778232F2AD02A22204B9B5C9846A0
:104A8000002B38D01F4B002499461D002900300010
:104A9000FBF73AFB002801D1002F16D10134E4B214
:104AA0000A35A045F2D14F46002430373900300096
:104AB000FBF72AFB002805D001340A370A2CF5D170
:104AC0006420CCE7FE2324021C4320B2C7E7701CFD
:104AD00010F0A7FFC3B2094A002B03D02A21515C72
:104AE000994204D22B21525C66209A42B7D118B267
:104AF000B5E7FF20B3E7034B9946D4E70000002059
:104B000074CD0108A8080020F0B54646D6464F46A9
:104B10008046C0B50E002C4D2C1D143521003000F0
:104B2000FBF7F2FA002842D00434AC42F6D12A2234
:104B3000264B9F5C264B9A46012F13DD1C00012556
:104B40000A3403E001350A34BD420BDA210030009B
:104B5000FBF7DAFA0028F5D10720E0BCBA46B146E7
:104B6000A846F0BD544655463034943521003000F7
:104B7000FBF7CAFA0028EFD00A34A542F6D1154B4C
:104B8000154C99461C6604E04B4664681C66002C74
:104B90000FD023681D682800FBF7C0FA2900020027
:104BA000300012F0FBFB0028EED10820D5E70620EC
:104BB000D3E743469B00434458003100504412F071
:104BC000EEFCFFF74DF8C8E7B4C001080000002074
:104BD000A8080020A8090020B4010020F0B54F4625
:104BE0004646D6463D4BC0B51F00303780460E00C6
:104BF00099463D00002429003000FBF785FA002883
:104C000053D001340A350A2CF5D1354D2C1D1435FD
:104C100021003000FBF778FA002850D00434A54278
:104C2000F6D12A222F4B9B5C9A46012B13DD4C4672
:104C300001250A3403E001350A34AA450BDD2100C1
:104C40003000FBF761FA0028F5D10720E0BCBA4636
:104C5000B146A846F0BD244B244C9A465C6604E05D
:104C6000534664685C66002C0DD023681D682800DC
:104C7000FBF754FA29000200300012F08FFB0028E5
:104C8000EED10820E2E73B78002B1AD001340A3736
:104C90000A2CF8D18022D2004746013F7F004F44C2
:104CA000398D00200A433A85D0E701224746A240C9
:104CB000013F7F004F443B8D13433B85C6E70620F1
:104CC000C4E74846A3001B195B0030303100C01810
:104CD00012F065FC0122A24092B2DDE7A808002094
:104CE000B4C0010800000020A8090020B401002081
:104CF000F8B5DE4657464E464546E0B58C460AA90D
:104D000020C9934E2C008346307F09788246601E6E
:104D10008441640134770C00611E8C416100802461
:104D200020312405A2422BD268218A4C62542200F1
:104D300068325370082B18D8874A9B00D3589F4677
:104D400063461B686834A37063461B681B12E370DC
:104D500063461B681B14237163461B681B160622DF
:104D600020215846637103F023FE53460020337719
:104D7000002D22D1F0BCBB46B246A946A046F8BDE4
:104D8000682080460020814640464F46714CA04432
:104D9000275440464370100E814640464F46877068
:104DA000100C814640464F4652BAC7708280082B8D
:104DB000DBD86A4A9B00D3589F460CF069FA04007E
:104DC000674EB07D0028D5D00CF062FA001BA842D7
:104DD000F7D3B07DCEE763461B7868340722584688
:104DE000A37103F0E5FDC0E763461B786834032236
:104DF00020215846A37003F0DBFDB6E763461B880D
:104E00006834A37063461B881B0A0422202158467D
:104E1000E37003F0CDFDA8E763461B786834A37008
:104E200063465B780A22E37063469B7820212371F6
:104E30006346DB785846637163461B79A37163460A
:104E40005B79E37163469B7923726346DB79637216
:104E500003F0AEFD89E763461B786834A3716346AF
:104E60005B780E22E37163469B7858462372634653
:104E7000DB78637263461B79A37263465B79E372E6
:104E800063469B7923736346DB79637303F090FD7C
:104E90006BE763461B686834A37063461B681B0A94
:104EA000E37063461B681B0C237163461B681B0E73
:104EB00055E763461B886834A37063461B881BB2A2
:104EC0001B12A2E763461B686834A37163461B6824
:104ED0000A221B12E37163461B6858461B14237297
:104EE00063461B681B16637203F062FD3DE7634671
:104EF0001B686834A37163461B680A221B0AE371AE
:104F000063461B6858461B0C237263461B681B0EC6
:104F1000637203F04DFD28E763461B886834A37174
:104F200063461B8808221BB21B125846E37103F02C
:104F30003FFD1AE763461B886834A37163461B88EC
:104F400008221B0A5846E37103F032FD0DE7C04604
:104F500028090020A80900206CC0010890C00108A1
:104F6000280A002030B5012183B01E2010F060FD1A
:104F70000A4D040028002430027DAD8F837D08494E
:104F80000195013A407D92008A18009052692000F4
:104F9000303112F061F9200003B030BD2809002043
:104FA000B4C001080A002B2100B5074B85B0595C3D
:104FB00001230393023B02930193033300930B00FD
:104FC00003F02AFD05B000BD0000002070B505000B
:104FD0000C00E420002106F007FF0021E52006F088
:104FE00003FF0021E62006F0FFFE0021E72006F087
:104FF000FBFE0021E82006F0F7FE0021E92006F084
:10500000F3FE0021EA2006F0EFFE0021EB2006F07F
:10501000EBFE691E4B005B18104A5B019B58611E3A
:10502000002B11D04B005B185B019B582800002B14
:1050300003D106F087FC002070BD06F083FC200041
:1050400006F080FC0020F7E74B005B185B019B58E3
:10505000002B01D02000ECE76820EDE7A023002022
:1050600030B583B009F040F8154A03680500934253
:1050700006D0144A934203D0134AFF2093421CD116
:1050800080214902DA690A42FCD18024E403DA690A
:105090002242FCD08021019A89032800009110F05F
:1050A000C3FB2B6828009A6814439C6010F006FC30
:1050B00080200121C0010DF05DFF03B030BDC0466E
:1050C0000038014000440040004800400F4B104AA7
:1050D00010B59A61022811D00AD8002812D00820F1
:1050E0000DF03AFF0DF082FF0DF06EFF002010BDB5
:1050F0000328F7D102200DF02FFFF3E720200DF059
:105100002BFFEFE701200DF027FFEBE700700040D9
:105110003F000100F0B5C64600B5264D07002B78CC
:10512000013B9C00E418A4002C1923699846002B2D
:105130002ED01800FAF7F2FF06003800FAF7EEFF5B
:1051400031180231404610F01DFF2A782061013AE3
:1051500093009B189B00EB181869721C801839008B
:1051600012F01DFA2A78013A93009B1813229B0033
:10517000EB181B699A552A78013A93009B189B00FB
:10518000EA181269002A0DD0002080BCB846F0BD94
:10519000FAF7C4FF013010F0A3FC3900206112F0CF
:1051A000FEF9F1E7281D14220021C01812F0D3F8EF
:1051B0000E20EAE764130020F0B54E464546DE4671
:1051C0005746E0B5D04C0500267889B0052E65D04D
:1051D000B300981980009946231898460023424648
:1051E0004046938000210422063012F0B4F82B7858
:1051F000622B02D1AB782E2B52D0270068372900C2
:10520000380012F0CCF9C14E3800310012F0ECF841
:1052100031000500002012F0E7F8310007000020FF
:1052200012F0E2F80600002D36D02800FEF772FEDC
:10523000804600282CD1002F2ED0002E2CD03000FC
:10524000FEF768FE002859D004222678B500AB1975
:105250009B00E3181A714246D872DA713800FEF7E3
:105260006FFE2278AD199300AD009B1865199B0065
:105270006871E3185B79002B0ED000270132227091
:10528000380009B0F0BCBB46B246A946A046F0BD06
:10529000002FD2D1002E68D06727F1E70E27EFE765
:1052A0006B780027303BDBB29A46062BE8D84146A4
:1052B0005046012388718B80E91C8B460722584693
:1052C000934912F06BF8002832D00E2258469149CB
:1052D00012F064F8002862D106234246D371524688
:1052E0008D4BD20052449B18022217001B7A1F409C
:1052F0001A4245D0002701362670C1E722783000D7
:1053000093009B1803229B00E3181A714246DA713E
:1053100010F07CFBFEF750F826780790B500A8192E
:1053200080002018042207A90A3012F040F995E7FE
:1053300005234146CB715146774BCA0052449B1816
:1053400001221B7A01371F401A42D3D101230022C8
:105350000593012100235046049703970297019774
:10536000009707F0BDFA2678C5E70221227893005E
:105370009B189B00E31801321971D87122707FE7E6
:1053800001230021059350460023049703970297B9
:1053900001970097013A07F0A3FA2678ABE70C22B1
:1053A00058465E4911F0FAFF00280FD152465A4B79
:1053B000D20052449B189F78002F21D0DF78002F15
:1053C0003AD01F79002F65D00C2794E70D2258465C
:1053D000534911F0E3FF00288DD153464E4AD900BE
:1053E000CB18D3185F79002F3DD09F79002F6BD059
:1053F00051445218D779002F00D193E00D277AE756
:10540000092342462800D3710F3010F004FB2178A5
:10541000C3B28A0052189200A21813720122049794
:1054200005920397029701970097002200215046AA
:1054300007F056FA26785EE70A2342462800D37121
:105440000F3010F0E8FA2278C0B293009B189B004E
:10545000E31818720123049705930397002302971A
:1054600001970090E1E70C2342462800D3711030E9
:1054700010F0D1FA2278C0B293009B189B00E31879
:105480001872012304970593039700230290019754
:105490000097CAE733000B2228004B449B00E31817
:1054A000DA710F3010F0B7FA2278C0B293009B186F
:1054B0009B00E318187201230593002301900493C5
:1054C000039302930093B0E71423280098465E43A9
:1054D000073BA619F371103010F09DFA424623786D
:1054E000C0B25343E31818720021012303900593BF
:1054F0000A000B005046049102910191009107F0BF
:10550000EFF92678F7E6C0466413002074CC010852
:1055100060DA010838D201089829002048D2010831
:1055200058D201081423280098465E43063BA6196A
:10553000F371103010F06FFA42462378C0B2534333
:10554000E318187201230593002304901A00190030
:105550005046039702970197009707F0C1F9267804
:10556000C9E6C046F0B5DE464E4657464546E0B56C
:105570001E0000238BB083468A46150000210522B9
:1055800008A8079311F0E7FEC84BC94C99462B7841
:105590002A000320002B0AD0E15C0140012901D13F
:1055A0002033DBB2137053780132002BF4D14B4619
:1055B0009F7E002F4DD006222800BE4911F0EEFE3E
:1055C000002800D1A6E0022F25D12800FFF7A2FD78
:1055D000002800D0D8E00D2333705346002B00D1B3
:1055E000AEE0002398463000FAF798FD01235B42B5
:1055F00082B2009331005846333308F00DFD30007D
:10560000FAF78CFD00210200300011F0A4FE4346A1
:10561000002BBCD19CE02E21280011F0B1FE071E0A
:1056200009D0C31E1A78622A2AD15A786F2A27D144
:105630009B78732B24D1992231002800920009F025
:1056400001FF80463378002BD9D05346002BD6D0AB
:10565000C9E72B78692BDED16B78662BDBD1AB7871
:105660001F00203F202BD6D1E81CFFF7A5FD002806
:1056700000D080E002234A4693760B333370ACE7C8
:105680007B78E35C5B07D6D429007A1B07A811F06E
:1056900096FE07A8FFF7D2F9874B029004931B7878
:1056A0000393984200D187E0029B642B00D172E003
:1056B000029B662B00D187E0029BFF2B00D1C4E048
:1056C0006B461B7A0593FE2B00D127E17B1C06223B
:1056D00018007A49984611F061FE002800D07AE05F
:1056E000059B774F9846002219213870180003F067
:1056F0005FF9642009F082FD724B41461A78049BE1
:105700001878002305F032FB3B78602B00D1EFE0E6
:10571000337812E04B466C4A9876117801398B0049
:105720005B189B00D2180123137505F00BFA412278
:105730003000664911F03BFF3378002B00D04CE776
:105740003000FAF7EBFC00210200300011F003FEFC
:105750000922002107A811F0FEFD4B469B7E002B7D
:1057600002D15346002B1DD10BB0F0BCBB46B24654
:10577000A946A046F0BD52223000554911F017FF4E
:105780004B469F763378D8E752223000504911F0CB
:105790000EFF3378D1E7272230004E4911F007FF82
:1057A0003378CAE701235B420093382258464A49BE
:1057B000333308F031FCD7E799223100781C92008E
:1057C00009F040FE80463DE725223000434911F0B4
:1057D000EEFE3378B1E72800FAF7A0FC07AB0390A0
:1057E0001800FAF79BFC039A4146013A121A070087
:1057F0003B4811F0E4FD2800FAF790FC421ED21B52
:10580000172192B2059803F0D3F830003549029A77
:1058100011F022FD3378002B0DD05346002B0AD017
:105820003000FAF77BFC012382B200933100584626
:10583000313308F0F1FB3000FAF770FC0021020070
:10584000300011F088FD1E4F5EE70322002126483C
:1058500011F081FD7B1C28009846FAF75FFC07AB2E
:1058600002901800FAF75AFC029A4146013A121ABD
:1058700007001B4811F0A3FD2800FAF74FFCC31BDB
:105880009BB21722FF21039803F046F899223100BA
:105890009200404609F0D6FD80463000FAF73EFC03
:1058A0001D221249301811F082FECBE6E4130020CD
:1058B00059F40108BCD201082B000020A4D3010830
:1058C00044090020FC09002064130020C4D2010810
:1058D00068D2010808D30108F0D3010830D30108C9
:1058E000100A0020ACD30108580C002058D301083E
:1058F000FA21012089000BF02FFA284B1B78002B8E
:1059000000D105E7264A3000138826490133138069
:10591000029B320011F0A0FC33780EE74A46029B4E
:1059200000211B12DBB2D3761F480322029311F031
:1059300012FD2800FAF7F2FB059007A8FAF7EEFB34
:10594000059A0137013A121A39000590174811F0EB
:1059500036FD2800FAF7E2FB059A0299831A9BB2FA
:105960001722039802F0D8FF049B114A1B78013BD1
:105970005B009B5A4A46D27E1341DB0706D43200B5
:1059800030000C4907AB11F067FC5BE6992231004F
:105990003800920009F056FD8046F0E73E0A0020EC
:1059A000501E0020D0D30108580C0020100A0020FF
:1059B000D008002078D30108F0B5DE4657464E46A1
:1059C0004546E0B589B004AB9C460F240121002375
:1059D00064444942012023700BF0BEF909F0B4FD84
:1059E000E1225A4B03909B681203934200D1A9E035
:1059F000574B0125984646461B789D4205D0E1212C
:105A00002800090308F05EFB33780135EDB2072D5D
:105A1000F3D1B0464F48504B0500029040461A88DB
:105A20009B4653009B184D4A5B0000789B184C4ADC
:105A30001C3512784B490090280011F00DFC4246AD
:105A40001078A4220A234849920008F01BFB280082
:105A5000FAF764FB414682B20A230878290008F06D
:105A600011FB424A029B0492414A9C469146414A9C
:105A70000027059278226244002692463E4D24E09B
:105A800043464A461878431ED25C22704A46D65492
:105A90000A23012221002E7008F0F4FA23780D2B3E
:105AA00023D00A2B0FD0082B3BD07F2B39D01A00E4
:105AB000203A5E2A07D8312F05DC7821029AD219C4
:105AC000013753547FB209F0EFFD2B78012BFAD147
:105AD0005B461878FDF720FD4728D1D1049A13784A
