:020000040800F2
:100000000040022059DD0008E9DD00080DD000089D
:1000100000000000000000000000000000000000E0
:10002000000000000000000000000000B5180108FA
:1000300000000000000000001119010801D00008B4
:10004000E9DD0008E9DD0008E9DD0008E9DD000878
:10005000E9DD0008E9DD0008E9DD0008E9DD000868
:10006000E9DD0008E9DD0008E9DD0008E9DD000858
:10007000E9DD0008E9DD0008E9DD0008E9DD000848
:10008000E9DD0008E9DD0008E9DD0008E9DD000838
:10009000E9DD0008E9DD0008E9DD0008E9DD000828
:1000A000E9DD0008E9DD0008E9DD000845D00008C9
:0C00B00055D0000865D00008E9DD00080C
:1000C00010B5064C2378002B07D1054B002B02D02E
:1000D000044800E000BF0123237010BD0808002081
:1000E00000000000A8E10108044B10B5002B03D06C
:1000F0000349044800E000BF10BDC04600000000F6
:100100000C080020A8E1010802780B78002A03D02F
:10011000013001319A42F7D0D01A70470023C25CF7
:100120000133002AFBD1581E7047000002B471460B
:1001300049084900095C49008E4402BC7047C0462A
:1001400003B47146490840004900095A49008E44E9
:1001500003BC7047002243088B4274D303098B42CF
:100160005FD3030A8B4244D3030B8B4228D3030C87
:100170008B420DD3FF22090212BA030C8B4202D329
:100180001212090265D0030B8B4219D300E0090A51
:10019000C30B8B4201D3CB03C01A5241830B8B425A
:1001A00001D38B03C01A5241430B8B4201D34B0343
:1001B000C01A5241030B8B4201D30B03C01A5241A8
:1001C000C30A8B4201D3CB02C01A5241830A8B422D
:1001D00001D38B02C01A5241430A8B4201D34B0216
:1001E000C01A5241030A8B4201D30B02C01A52417A
:1001F000CDD2C3098B4201D3CB01C01A524183092E
:100200008B4201D38B01C01A524143098B4201D367
:100210004B01C01A524103098B4201D30B01C01A92
:100220005241C3088B4201D3CB00C01A524183080C
:100230008B4201D38B00C01A524143088B4201D339
:100240004B00C01A5241411A00D201465241104699
:100250007047FFE701B5002000F0F0F802BDC0468E
:100260000029F7D076E7704703460B437FD400227E
:1002700043088B4274D303098B425FD3030A8B423A
:1002800044D3030B8B4228D3030C8B420DD3FF22A4
:10029000090212BA030C8B4202D31212090265D072
:1002A000030B8B4219D300E0090AC30B8B4201D325
:1002B000CB03C01A5241830B8B4201D38B03C01A6C
:1002C0005241430B8B4201D34B03C01A5241030BE3
:1002D0008B4201D30B03C01A5241C30A8B4201D394
:1002E000CB02C01A5241830A8B4201D38B02C01A3F
:1002F0005241430A8B4201D34B02C01A5241030AB6
:100300008B4201D30B02C01A5241CDD2C3098B429A
:1003100001D3CB01C01A524183098B4201D38B0117
:10032000C01A524143098B4201D34B01C01A5241BA
:1003300003098B4201D30B01C01A5241C3088B42FF
:1003400001D3CB00C01A524183088B4201D38B00EA
:10035000C01A524143088B4201D34B00C01A52418C
:10036000411A00D201465241104670475DE0CA0F63
:1003700000D04942031000D34042534000229C4623
:1003800003098B422DD3030A8B4212D3FC2289012D
:1003900012BA030A8B420CD3890192118B4208D303
:1003A000890192118B4204D389013AD0921100E065
:1003B0008909C3098B4201D3CB01C01A5241830979
:1003C0008B4201D38B01C01A524143098B4201D3A6
:1003D0004B01C01A524103098B4201D30B01C01AD1
:1003E0005241C3088B4201D3CB00C01A524183084B
:1003F0008B4201D38B00C01A5241D9D243088B42A1
:1004000001D34B00C01A5241411A00D20146634643
:1004100052415B10104601D34042002B00D54942A7
:10042000704763465B1000D3404201B5002000F0E6
:1004300005F802BD0029F8D016E770477047C0469E
:100440008446100062468C461900634600E0C046B0
:100450001FB502F043F8002801D40021C8421FBD97
:1004600010B501F083FF4042013010BD10B502F01D
:1004700035F8002801DB002010BD012010BDC0466A
:1004800010B502F02BF8002801DD002010BD01207E
:1004900010BDC04610B501F0ADFF002801DC002002
:1004A00010BD012010BDC04610B501F0A3FF00280B
:1004B00001DA002010BD012010BDC04684460800AE
:1004C0006146FFE71FB500F0F5FC002801D40021CC
:1004D000C8421FBD10B500F075FC4042013010BD90
:1004E00010B500F0E7FC002801DB002010BD012062
:1004F00010BDC04610B500F0DDFC002801DD002075
:1005000010BD012010BDC04610B500F083FC0028CE
:1005100001DC002010BD012010BDC04610B500F068
:1005200079FC002801DA002010BD012010BDC04672
:10053000002B11D1002A0FD1002900D1002802D0B0
:100540000021C943080007B4024802A140180290E4
:1005500003BDC046E9FEFFFF03B4684601B502983B
:1005600000F0BAF8019B9E4602B00CBC7047C04632
:10057000F0B5CE469946030C9C46130447461B0C27
:100580001D000E0061460404240C80B50700100C09
:100590004B436543414360432C0CC01824188C46E0
:1005A000A34203D980235B029846C4444946794359
:1005B0005643230C2D042D0C89196344240460191F
:1005C000C918C0BCB946B046F0BDC0469E2110B5A2
:1005D000C905041CFFF7A2FF002803D1201C00F06E
:1005E00099FF10BD9E21201CC90500F0EFFD00F011
:1005F00091FF80231B069C466044F2E770B5002201
:100600000C4B04000D00FFF74FFF002804D1200021
:10061000290002F05BFE70BD064B0022200029007D
:1006200002F096FA02F052FE80231B069C466044BC
:10063000F1E7C0460000E04170B50022002304004D
:100640000D00FFF713FF002808D12000290000F05B
:100650000FF802000B001000190070BD80231B066C
:10066000E918200000F004F8002342428B41F2E731
:1006700070B500220B4B0D00040001F0A1FFFFF745
:10068000BDFF060002F08CFE0022074B01F098FF30
:1006900002000B002000290002F05AFAFFF7AEFF1B
:1006A000310070BD0000F03D0000F04170B5060063
:1006B000080002F047FE0022064B01F081FF0D000A
:1006C0000400300002F06CFE2B00220000F0D0FF8E
:1006D00070BDC0460000F041F0B557464E46454655
:1006E000DE46E0B504000D009246994683B08B4289
:1006F00030D82DD04946504602F060FF2900060050
:10070000200002F05BFF331A9846203B34D49B460E
:1007100053465A46934042461F00534693401E009C
:10072000AF423BD8AF4200D179E05B46A41BBD414C
:10073000002B00DA76E000220023009201930123CF
:100740005A4693400193012342469340009329E087
:100750008242CFD900220023009201930C9B002BF0
:1007600001D01C605D600098019903B0F0BCBB46ED
:10077000B246A946A046F0BD42469B4620239B1A9E
:100780005246DA40414613004A468A401700424624
:100790001F43534693401E00AF42C3D9002200239B
:1007A000009201934346002BD8D0FB0772081A43EE
:1007B00046467B080EE0AB4201D1A2420CD8A41AF7
:1007C0009D41012024196D410021013E24184D4115
:1007D000002E06D0AB42EED9013E24196D41002E09
:1007E000F8D1009801995B4600196941002B24DB80
:1007F0002B005A464446D3402A00E2401C005B4688
:100800001500002B2ADB26009E40330026004746B9
:10081000BE403200801A9941009001919EE7A342A8
:10082000BCD882E74246202300219B1A0022009177
:1008300001920122DA40019285E7424620239B1A69
:100840002A0046469A402300F340444613432A00B8
:10085000E2401C005B461500002BD4DA42462F0014
:100860002023260097409B1ADE403B003343CDE710
:10087000F8B5CE46474643025A0A4E024500C40F19
:10088000480091462D0E720A000E944680B59B09D1
:10089000C90FB6092A1A8C4221D0002A0DDD002882
:1008A0002DD1002E00D18DE0511E012A00D11DE175
:1008B000FF2A00D1ABE00A0027E0002A4DD0421BFE
:1008C000002D00D0CCE0002B00D179E0541E012A8D
:1008D00000D128E1FF2A00D197E02200C5E0002ADC
:1008E00000DC96E000284FD0FF2D00D18FE0802162
:1008F000C9040E431B2A51DD2A00013318E0FF2DE5
:1009000000D184E08021C9040E4301211B2A08DCA8
:1009100031002020D140821A96403200501E824180
:1009200011435B1A5A0159D407212A00194049D0B2
:100930000F211940042900D00433590142D5501C1D
:10094000FE2A3AD09B01C0B25B0AC0051843E407F7
:100950002043C0BCB946B046F8BDFE2080466F1C9F
:1009600038004746074200D08EE0002D00D0B4E0AA
:10097000002B00D1DBE0002E6CD0981B450100D489
:10098000F7E00C00F31A3DE0002E1BD0511E012AA7
:1009900000D182E0FF2A3AD00A00ABE731002020E4
:1009A000D140821A96403200501E82410A439B1861
:1009B0005A01B9D56A1CFE2D75D1FF200023C4E76A
:1009C0000C003300DB08FF2A46D1002BF5D0802233
:1009D000D20313435B02FF205B0AB6E79F01BF0906
:1009E000380002F0CDFD05388740854224DC3B000D
:1009F0002021421B0132D3408A1A97407A1E974128
:100A000000223B43590793D197E70C003300DB08E2
:100A1000DBE7002A14D0421B002D4BD1002BD0D095
:100A2000511E012A00D19EE0FF2AEFD00A001B2AA6
:100A30005FDD0200731C7BE7504B2A1A3B40E1E765
:100A4000FE216A1C11423BD1002D5DD1002B7FD0CD
:100A5000002E7FD10022DB085B025B0AD0B274E774
:100A6000FF28D2D08024E404234301241B2A07DC7E
:100A70001C002025D440AA1A93405A1E93411C43BF
:100A8000331B05000C004DE79F1B7A0122D4002F79
:100A9000A6D100240020002357E79B19012501322D
:100AA000590100D440E70121354819405B08034053
:100AB0000B43A7E7FF28A9D08021C9040B43B6E761
:100AC000FF2A00D179E79B195B08590700D02FE76F
:100AD000DB08C1E70C00F71A82E7002B2CD1002EAF
:100AE00093D180230024FF20DB032EE701259B1BED
:100AF00018E719002025D140AA1A93405A1E9341A5
:100B00000B4305009B1953E7002B00D17EE7002E15
:100B100000D17CE78022D203914502D3944500D2D4
:100B20003300DB0853E70C00F31A0135FAE6002E18
:100B3000AFD00C0033008DE7002E00D167E7802294
:100B4000D2039145EDD39445EBD20C003300E8E796
:100B500033007FE79B1900225901B9D5074A13409A
:100B6000DB08012278E79B190132013559019AD43B
:100B7000DAE6031E8DD0DB086EE7C046FFFFFFFB01
:100B8000FFFFFF7DF0B54F464646D6464402C0B54E
:100B900047000E1C640A3F0EC50F002F3CD0FF2FEC
:100BA00042D00023802299469A46E400D20414439E
:100BB0007F3F73025B0A984673001B0EF60F002BF3
:100BC0001BD0FF2B13D042468021D200C904114311
:100BD000884600207F3B2900FF1A4B467140C9B26E
:100BE0000F2B00D9B5E0744A9B00D3589F4643466B
:100BF000002B3FD1FF3F023303E04346002B2DD1B2
:100C0000012329004A467140C9B21A430E2A38D836
:100C10006A48920082589746002C13D104239946C3
:100C2000033B00279A46C4E7002C05D108239946C8
:100C3000063BFF279A46BCE70C239946093BFF2752
:100C40009A46B6E7200002F09BFC7627431F9C40A3
:100C500000237F4299469A463F1AAAE7404602F08F
:100C60008FFC4246431F9A4076235B421B1A9046F4
:100C70000020B0E703234A461A4391460320FC3381
:100C8000A9E70D00FF200022C005ED07104328430F
:100C9000E0BCBA46B146A846F0BD0D0000200022D7
:100CA000F2E75346022BEDD0032B33D0A046012BA5
:100CB00005D100200022E7E7350003287AD03B0069
:100CC0007F33002B2DDD4246520707D00F224146CD
:100CD0000A40042A02D004229446E044424612010B
:100CE00005D54246364B1A403B0090468033FE2BDA
:100CF000C8DC42469201520AD8B2C5E780220025DC
:100D0000FF20D203C0E78022D203144202D0434620
:100D1000134249D08022D20322435202FF20520ABA
:100D2000B2E70122D31A1B2BC3DC4246DA4043460A
:100D30009E37BB40591E8B411A43530704D00F23E3
:100D40001340042B00D00432530129D50120002286
:100D50009AE7424663015501AB4215D21B2000229F
:100D6000013F01261C0052005B00002C01DB9D426C
:100D700001D85B1B324301380028F3D1581E834150
:100D8000134398460D009AE71A2001225B1BE8E7FF
:100D9000023B5A4253415B4235000022D8B273E70E
:100DA00092010020520A6FE71A4352023500FF20D9
:100DB000520A69E74446ADE77CEB0108BCEB010849
:100DC000FFFFFFF770B542004E024C0045026D0A6E
:100DD000120EC30F760A240EC90FFF2A10D0FF2C63
:100DE0000CD00120A2420AD1B54208D18B420FD0CB
:100DF000002A04D12800431E984100E0012070BD64
:100E00000120FF2CFBD13543F9D14B401800F6E708
:100E10000020F4E730B5420044024D02C30F480001
:100E2000640A120E6D0A000EC90FFF2A19D0FF289E
:100E30000BD0002A1ED100280BD1002D27D0002C6A
:100E400034D100292FD0080030BD002D28D1002A30
:100E500001D1002CF5D08B4207D1002B23D01800F4
:100E6000F2E7002C1CD1FF2814D0581E0223184092
:100E70000138E9E70028F8D08B42F6D18242F4DC51
:100E8000EBDBAC42F1D80020AC42DDD2E5E7002C30
:100E9000DAD0EAE7002D03D18B42E6D10020D3E778
:100EA00002204042D0E701204042CDE78B42E8D00B
:100EB000DBE7C04630B5420044024D02C30F480094
:100EC000640A120E6D0A000EC90FFF2A1AD0FF28FD
:100ED0000ED0002A1ED100280ED1002D2AD0002CC1
:100EE0000CD08B421DD0581E02231840013810E050
:100EF000002D0DD1002A20D1002C1ED1002923D095
:100F0000080006E0002C03D1FF28ECD1002D17D0FB
:100F1000022030BD0028E6D08B42E4D18242E2DCE0
:100F200004DBAC42DFD80020AC42F2D2002B0BD065
:100F30001800EEE7002CECD0D5E78B42D3D1F5E7D3
:100F400000208B42E5D0CEE701204042E1E7C046D9
:100F5000F0B54F464646D64643025B0A4500C0B54B
:100F600099460F1C2D0EC60F002D00D188E0FF2DD5
:100F700000D18DE08022DB00D2041A430023914689
:100F800098469A467F3D7C027B00640A1B0EFF0F49
:100F9000002B68D0FF2B21D08022E400D204144320
:100FA00042467F3B5B1900215D1C0A2A2EDC7E40F5
:100FB0004246022A23DC013A012A00D9BDE0022977
:100FC0006ED001292CD100200022C005F607104365
:100FD0003043E0BCBA46B146A846F0BD2B00FF3313
:100FE000002C65D00322414611433200013588466A
:100FF0007A40FF350A2900DDD8E01600032140467B
:1010000001228240A620C000024220D05346022B7B
:1010100046D0032B00D1BBE051464C460129D2D02B
:101020002B007F33002B70DD620704D00F2222409B
:10103000042A00D00434220103D5634B1C402B004A
:101040008033FE2B2CDCA201520AD8B2BDE79020DF
:101050008000024227D1B938FF3810426DD03E00DF
:10106000A1468A46D2E7002C41D1012342461A43C9
:1010700090462B00424601215D1C0A2A97DDC5E7F8
:10108000002B26D104239846033B00259A467AE795
:10109000002B18D108239846063BFF259A4672E795
:1010A000FF20002291E780220026FF20D2038CE758
:1010B00041460222013511438846FF350A29A5DC45
:1010C00002217E4074E70C239846093BFF259A468F
:1010D00059E7180002F054FA4A46431F76259A4011
:1010E00000236D42914698469A462D1A4BE7200000
:1010F00002F046FA4246431F9C402B1A763B0021E1
:101100005D1C0A2A00DC52E780E70122D31A1B2B60
:1011100000DD58E79E352200AC40DA40631E9C415A
:101120002243530704D00F231340042B00D0043272
:10113000530137D50120002247E7210C4A462404F9
:10114000240C2700100C1204120C4443574348434C
:1011500051433A0C09195218944203D9802149028B
:101160008C4660443F0411043F0CC9198C01671E72
:10117000BC41120C890E12180C4392011443120147
:101180000ED5012362081C40144349E73E00A146E6
:1011900080224B46D2031A435202FF20520A14E720
:1011A0001D003DE792010020520A0EE70F29EDD104
:1011B00080224B46D2031342EAD01442E8D13E00CB
:1011C000FF20224301E7C046FFFFFFF7F8B547467F
:1011D000CE464E0243024500720AC40F480080B555
:1011E00094465F0A2D0E9B09000EC90FB609FF2811
:1011F00024D0012251402A1A8C420FD0002A00DC50
:101200006AE1002835D1002E00D1A2E0511E012A4A
:1012100000D124E1FF2A21D00A002FE0002A00DCBF
:1012200067E100285ED0FF2D18D08021C9040E434D
:101230001B2A00DC76E02A00013332E02A00FF3A64
:101240009146002E42D08C4255D04A46002A00D109
:101250009CE0002D00D177E00C003300DB08002B70
:1012600000D16EE08022D20313435B02FF205B0AB1
:1012700024E0FF2DF2D08021C9040E4301211B2A56
:1012800008DC31002020D140821A96403200501EE6
:10129000824111435B1A5A0160D407212A00194088
:1012A00057D00F211940042900D00433590150D5DB
:1012B000501CFE2A45D09B01C0B25B0AC0051843F2
:1012C000E4072043C0BCB946B046F8BD01225140F6
:1012D0008C42BAD14A46002A10D0002D00D198E0A5
:1012E0000023BBE7002E34D0511E012A6ED0FF2A06
:1012F000B4D00A009CE7002A00D088E0FE206A1CD7
:10130000104200D092E0002D00D0A4E0002B00D1CC
:10131000CBE0002E00D0CAE00022DB085B025B0AB3
:10132000D0B2CBE731002020D140821A9640320063
:10133000501E82410A439B185A01AED56A1CFE2DED
:101340004AD1FF200023B9E7FF22002B4BD10C002C
:101350003300DB08FF2A00D181E7DFE79F01BF09E7
:10136000380002F00DF905388740854221DC3B004A
:101370002021421B0132D3408A1A97407A1E97419E
:1013800000223B43590700D08BE78FE7FE206A1C01
:10139000104212D1002D52D1002B7CD0002EBBD098
:1013A0009A1B500100D48BE001240022F31A0C4058
:1013B000E8E7564B2A1A3B40E4E79F1B7A0146D4E4
:1013C000002FCDD100240020002377E79B190125B1
:1013D0000132590100D460E701214D4819405B08F2
:1013E00003400B43CEE7571E012A5AD00C00FF2AB8
:1013F00033D001221B2F07DC2021C91B1A008B4090
:10140000FA40591E8B411A430500B31A43E7002DD9
:1014100023D1FF22002B9BD0511E012AD6D0FF2AB8
:101420001BD01B292CDD0200731C3AE7FF2A88D051
:101430009B195B08590700D033E7DB086EE7002BE8
:1014400010D1002E43D0012433000C4006E70124C4
:10145000F71A0C4084E7002B04D13300FEE6012587
:101460009B1B18E7002E00D1F8E68022D20397429A
:1014700004D3944502D2012433000C40DB08F1E68A
:101480001A002025CA40691A8B40591E8B4113430C
:1014900005009B1950E7002E94D0012433000C4026
:1014A0003AE70C000125F31AF5E6330034E79B19FF
:1014B00000225901C1D5154A1340DB0801222DE74E
:1014C000002A00D17EE713000022DB0826E78023F4
:1014D0000024FF20DB03F1E6002A00D156E7471B7A
:1014E0003A00002D00D130E78022D2040C001343D3
:1014F0007FE7002A00D101E7411B002D01D10A003E
:1015000088E78022D20413438BE7C046FFFFFFFB2E
:10151000FFFFFF7D41024200C30F490A0020120E67
:101520007E2A03DD9D2A02DD094A98187047802033
:1015300000040143952A07DC9620821AD1404842D4
:10154000002BF3D10800F1E7963A9140F7E7C04647
:10155000FFFFFF7F70B5002813D0C317C5185D408B
:10156000C40F280002F00CF89E2301001B1A962BD2
:101570000FDC082834D008398D406D026D0AD8B2CE
:1015800002E0002400200025C0052843E407204392
:1015900070BD992B16DC421F052800D095402A000B
:1015A000114802406E0709D00F263540042D05D0A2
:1015B0000432550102D59F2302405B1A9201550A5D
:1015C000D8B2E1E70522121A2800D0400200080034
:1015D0001B3085402800451EA84102431500DEE768
:1015E0006D0296206D0ACFE7FFFFFFFB70B5041E6A
:1015F0000ED001F0C5FF9E2301001B1A962B0CDCB8
:1016000008282FD008398C406402640AD8B201E05F
:1016100000200024C005204370BD992B16DC421F1A
:10162000052800D09440220010480240650709D0E8
:101630000F252C40042C05D00432540102D59F23E1
:1016400002405B1A9201540AD8B2E3E7020020007C
:101650001B3290400200501E82410520401AC440B7
:101660001443E0E764029620640AD3E7FFFFFFFB20
:10167000F0B557464E464546DE46E0B583B000908D
:1016800001910C034F00CE0F610A009C1D03640FF3
:101690000C43009900920193C80059004B0D9946E4
:1016A000009A019B6D0AD90F530F2B439A46009B5A
:1016B0007F0DDA0094464A46B046BA1A8E4200D1EF
:1016C000B0E0002A00DC78E04946002900D1E9E0DA
:1016D000C9498F4200D195E10125382A16DC8021C5
:1016E000534609040B439A461F2A00DDE7E12021F7
:1016F00055468B1A61469D40D1400D436146994045
:101700004B1E99415346D3400D43E41A451BA84252
:1017100080414042241A230200D40FE16402640A8B
:10172000002C00D139E1200001F02AFF0300083B22
:1017300020212800CA1AD0409C4002009D4022432C
:101740009F4200DD73E1D81B0130091A2C008D4047
:10175000C4406B1E9D411300C2408B4025430027AF
:1017600014001D436B0709D00F232B40042B05D019
:101770002B1DAB42AD416D4264191D00230200D404
:101780002DE19D4A0137974200D1D3E046469B495F
:10179000ED0821404A072A437C054D022D0B640DBC
:1017A00024052C43F60734431000210003B0F0BC9D
:1017B000BB46B246A946A046F0BD002A00D184E04F
:1017C0004A46D21B002F00D06DE12500054300D111
:1017D00027E1561E012A00D13BE2874DAA4200D1E3
:1017E0006AE20125382E12DC32001F2A00DDF8E102
:1017F00020262500B61A07005346B040D440B54015
:10180000D740461EB0411B1B9A463D4305436246E6
:10181000551BAC459241534652420E004F468846F6
:101820009C1A78E7002A00DC8EE04946002975D131
:1018300061465346194300D1F6E0511E012A00D1FA
:1018400091E16D4DAA4200D1DCE00125382914DC7C
:101850000A001F2A00DDA2E120215346891A8B408D
:101860001D006346D3401D4363468B4019004B1E49
:1018700099415346D3400D43E4182D1885428041C9
:1018800040422418230259D55B4B01379F4251D067
:1018900001215A4B6A081C4029400A43E5071543B9
:1018A00064085FE761465346194300D1BCE0511E0E
:1018B000012A00D164E1504DAA4200D16AE101251C
:1018C000382900DD22E70A000EE74D4A7D1C15424B
:1018D00000D0D0E025006246534605431A43002F4E
:1018E00000D037E1002D00D1A8E1002A00D16AE143
:1018F0006346C51A5346E21AA8429B415B42D31A7B
:101900001A0200D403E263461D1AAC4592415346C5
:1019100052421C1B0E008846A41A23E736498F4208
:1019200070D00125382AA8DC8021534609040B43D6
:101930009A468EE73C000025002231E707232B4022
:10194000002B00D010E793E0002A74D04A46D21B47
:10195000002F00D1C7E02849894500D185E1012544
:10196000382A12DC802109040C431F2A00DDABE178
:1019700020212500891A070088408D40D740411E4C
:101980008841D4403D430543A244654465459241A6
:101990005242524414004F4674E7280001F0F0FD13
:1019A000030018331F2B00DCC2E62A0008388240EF
:1019B0009F4200DDA9E0DB1B581C1F2800DCACE1C6
:1019C00015001F3BDD40202805D040231B1A9A40FC
:1019D000531E9A411543072300272B40B0E7ED081B
:1019E000054B62072A43E4089F420FD02403250BCE
:1019F0007C05640DD4E6C046FF070000FFFF7FFFB3
:101A0000FE070000C00862070243E40813002343F6
:101A100000D186E180252D0325432D03C34C2D0BDA
:101A2000BEE6604654460E001700C508D8E7C04C15
:101A3000FF1A144096E6BF4A791C11426BD122006E
:101A40000243002F00D0DBE0002A00D12DE16246E6
:101A500053461A4300D1B6E06346C518854280411B
:101A6000544440422418230202D50F00B04B1C40BE
:101A70003A002800D8E76246851AA84292415346A8
:101A800052429146E31A1A004B46D21A130091466D
:101A90001A0254D44A464C462A4300D040E6002657
:101AA000002400257CE6A14DA94500D190E0012548
:101AB000382A00DDABE680252D042C4395E6110085
:101AC00055462039CD40A946202A06D0402153460C
:101AD0008A1A934062461A43944665466B1E9D419E
:101AE0004B461D4312E62100014300D1C4E0511EC4
:101AF000012A00D1FBE08D4DAA4200D1B5E00125BD
:101B0000382900DD41E70A002FE7894CFF1A14400D
:101B10006207E4086AE7854A914200D1E3E0634640
:101B2000C218824280412300404253441B18DD0703
:101B30005C080723520815430F002B4000E763465B
:101B40001D1AAC459241534652421C1B0E0088465A
:101B5000A41AE5E5002D00D091E0002A38D18024B8
:101B60000026240356E76346C51885428041544445
:101B7000404224180127230200D4DFE6022787E62B
:101B80006346C51AA842804153464042E41A0127E1
:101B9000241AC0E56207C0080243E40836E71100D2
:101BA00053462039CB409946202A06D0402153463F
:101BB0008A1A934062461A43944665466B1E9D41BD
:101BC0004B461D4359E66207C0080243E4080DE78F
:101BD00053465A076346D80853460E000243DC08B2
:101BE00014E715002600203DEE40202A03D04025B2
:101BF000AA1A94402043421E90410500354306E650
:101C0000002A7CD062465346C0081A4300D1FAE647
:101C1000620710438022E4081203144208D0D90856
:101C2000114205D16346D80853460C005B071843A0
:101C3000420FC000C00852070243E7E6002A00D165
:101C40002DE76346D80853465A070E000243DC08C6
:101C5000CCE663461D1AAC459241534652421C1BCA
:101C60000E008846A41A013755E56346D908534645
:101C70005A070A43DC08C9E660465446D4E6C00861
:101C8000002A00D1BFE6620710438022E408120355
:101C90001442CDD0DD081542CAD16346D808534658
:101CA0005B070E002C001843C2E76346D908534671
:101CB0005A070A43DC0899E66346D80853465A0790
:101CC0000E000243DC08A1E6110027002039CF40B6
:101CD000202A03D040218A1A94402043421E90417A
:101CE00005003D4351E60C000025002258E5604404
:101CF00060459241544452420500A4183AE75346C5
:101D00005A076346D90853460A43DC087EE61A00A0
:101D10001C002A4300D0ABE6C1E620210025091AA9
:101D200019E500220025014C3AE5C046FF070000F6
:101D3000FFFF7FFFFE070000F0B5DE464546574631
:101D40004E46E0B587B0009201930B031B0B9B46F8
:101D5000CA0F4B00040080465B0D029200D16AE17D
:101D6000D44A934200D18CE15946420FC9000A433C
:101D7000802109041143C2009046CF4A8946924609
:101D80009A44002300240393009E019F3B031B0BF6
:101D90009B467B0030005B0DFD0F002B00D128E13E
:101DA000C44A934200D177E15946720FC9000A43F1
:101DB0008021090411438B46BF49F2008C465146ED
:101DC0006344CB1A9A460023029E6E400F2C27D8FC
:101DD000BA49A40009598F46CB464246029E039B4E
:101DE000022B16D0032B00D1A6E2012B00D0DFE09E
:101DF00000220023002490461B052343F6073343AB
:101E00004046190007B0F0BCBB46B246A946A04602
:101E1000F0BD002200249046A64BEDE72E00DFE740
:101E2000CB4500D2D4E100D1CFE101235B429C46F7
:101E3000444648460027E2445B46150E1B021D43FC
:101E4000190C2B04120200951D0C9146029103956A
:101E5000FEF706FA02006A430B04210C8046194380
:101E60008A4209D9009D0123AC465B4261449C46ED
:101E7000E0448D4200D8FBE1881A0299FEF7F0F9A0
:101E8000039A240442430904240C03000C43A24295
:101E900006D90099013B8C466444A14200D8E1E197
:101EA000A01A424612041A4393464B4659461B0C4D
:101EB0001D0004930B0449460904090C0C001B0C7B
:101EC0005C43120C6B43884651436A43250CAC4675
:101ED0005B186344994203D9802149028C466244CD
:101EE000190C24041B04240C8A181C19904202D3D8
:101EF00016D1A74214D25B46009D013B4F44059387
:101F00004F459B41AC465B426344C018854200D3B9
:101F1000A1E1824200D9F6E100D1F1E1059B9B46A7
:101F20003C1BA742BF41009D801A7F42C01B8542D7
:101F300000D1D0E10299FEF793F9039A0B044243D2
:101F4000210C070019438A4200D978E1881A0299C6
:101F5000FEF786F9039A240442430904240C030083
:101F60000C43A24200D95DE14146A41A3A041A4347
:101F7000049D13041B0C594347466B439C46100CAD
:101F800047430B0CBC44634468439F4203D98025FC
:101F90006D02AC4660441F0C09041B04090C3F1879
:101FA0005B18BC4200D202E100D1FDE001231A43DC
:101FB000434B5344002B00DCAEE0510700D098E1C6
:101FC0005946C90106D559463E4B194080238B46D8
:101FD000DB0053443C498B4200DD1AE75946D208E6
:101FE000490711435A465B0554028846240B5B0D92
:101FF00002E75A46009B1A4300D17EE05B46002B65
:1020000000D100E1584601F0BBFA020003000B3A90
:102010001D27009EBA1A19005846D6400839884034
:10202000320002439346009A8A40284953448A4624
:102030009A440023C8E65B460343994656D05B4664
:10204000002B00D1CDE0584601F09AFA0B235B42F9
:102050009C460200844466461D239B1B26001100FB
:102060005846DE4008398840330003439946230030
:102070008B409846164B00249B1A9A4600230393E4
:1020800082E65A46024391462AD100229A4602230A
:1020900090460824039377E65A46009B1A430D4B5B
:1020A0009C46E244002A17D102231C4300239B468E
:1020B000023389E6FF07000001FCFFFFF8EB01088F
:1020C000FF030000FFFFFFFEFE070000F303000018
:1020D0000DFCFFFF01F8FFFF032332001C4373E6F2
:1020E0009A460323D9460C2403934DE600239846D1
:1020F0009A4601330424039346E601231C4300233C
:102100009B46013360E60023802498460026924BCC
:10211000240371E6012252420121C91A382900DD47
:1021200066E61F2900DCABE01F204042C31A584678
:10213000D8400300202904D058468849514488409B
:102140000243511E8A411A430723190000241140FB
:1021500013420CD00F231340042B00D1F9E0111DC2
:1021600091429B410A005B4259075B021C0BD2085B
:102170000A43904600233FE680244B462403234233
:1021800009D05B46234206D11C4324032E0090460F
:10219000714B240B30E680244B4624031C4324035C
:1021A000029E6D4B240B27E6002B00D100E7009820
:1021B000511E84466444844200D284E0BC4200D272
:1021C000AEE000D1C1E00A00F0E6424500D92CE6BD
:1021D0004B46DC07580843465B081C434346DF0771
:1021E0002AE601F0CDF915239C468444020063469B
:1021F00020321C2B00DC2EE7230008388340994650
:102200000023984636E701F0BBF9020003001532BF
:1022100020331C2A00DCFBE60099083881400022AC
:102220008B4602E70099013B8C466444A14200D9E9
:102230009AE6A24200D897E6831E644494E6AC4630
:102240006144013F8D4200D980E68A4200D87DE694
:10225000871E61447AE6854200D05FE6B94500D921
:102260005CE656E6A24200D81AE6831E644417E6EE
:102270008A4200D800E6AC46831E98466144FBE5DE
:1022800037481400504482405B4617008340CC40DE
:102290007A1E974123433B431A005B46CB405107CC
:1022A00009D00F211140042905D0111D91429241FE
:1022B00052429B180A00190200D455E7002201235C
:1022C0000024904698E50A00BC4200D06EE64B45DB
:1022D00000D06BE66CE6234B234A5344924500DA68
:1022E00018E7012149420A1D8A42894149428B442B
:1022F00066E60F211140042900D161E61100F2E7E2
:10230000BC4200D80AE602235B429C4600994F4437
:102310004F459B41E3448C465B426344C018FFE554
:102320004946009D480048458941AC4649426144C0
:102330008146023A6418C7E780245B4624031C43A5
:1023400024039046044B240B56E59945E8D30A0034
:10235000BDE7002308E7C046FF0700003E04000079
:102360001E040000FF03000002FCFFFFF0B557460B
:10237000DE464E464546E0B50D000400E80F8346B4
:102380000903D80F090B824619488C461F036900C0
:102390005E00490D3F0B760D814218D086420FD06A
:1023A0000120B1420DD1BC450BD1944209D1D34596
:1023B0001CD0002905D160462043431E984100E00F
:1023C0000120F0BCBB46B246A946A046F0BD0120A4
:1023D0008E42F6D1614639430F0017432743F0D1AF
:1023E0005B465246981A431E9841EAE70020E8E708
:1023F000FF070000F0B557464E464546DE46E0B5BD
:102400000D000F03390B83B0040080460191580082
:10241000E90F314F400D8C466E00190382469146FC
:10242000760D090BD80FBE421FD0BA450FD0002E33
:102430002FD15546019E3443002D27D10A433AD06F
:10244000002C45D100281AD10120404217E0114349
:102450003BD1002E02D1019F2743F3D0844509D1FF
:102460006346002BF0D0604609E0019F27432CD142
:10247000B24524D063460220013B1840013803B026
:10248000F0BCBB46B246A946A046F0BD002CD9D050
:10249000E4E75446002CEDD08445EBD15645E9DC09
:1024A000DEDB019B8B42E5D8DAD1C845E2D80020BB
:1024B000C845E4D2D4E70020002CE0D0DAE711438D
:1024C00003D18445D6D10020D9E702204042D6E787
:1024D0008445E6D0CEE7C046FF070000F0B557467A
:1024E0004E464546DE46E0B50D000F03040080462B
:1024F000E80F390B844683B05800304F400D0191EE
:102500001E03690082469146490D360BD80FB94229
:1025100020D0BA450FD000292BD101990C43514648
:10252000002937D1324338D0002C44D1002819D1AA
:102530000120404216E0164313D1002902D1019F29
:102540002743F3D0844520D063460220013B184046
:10255000013807E0019F274303D18A45F4D1164390
:102560001FD0022003B0F0BCBB46B246A946A0462D
:10257000F0BD5446002CE7D08445E5D15145E3DC5D
:1025800003DB019BB342DFD80FD06346002BCFD0D3
:102590006046E7E7002CC9D0D4E70020002CE1D04A
:1025A000D2E78445D0D10020DCE7C845CCD8002054
:1025B000C845D7D2E9E78445E3D0C5E7FF07000067
:1025C000F0B55746DE464E464546E0B51F000B03C4
:1025D0001B0B16009A46CA0F4B000400934687B0A7
:1025E0005B0D00D1D5E0BB4A934200D1F8E05146E3
:1025F000420FC9000A43802109041143C2009146D9
:10260000B54A8A469D180023984602933C037B00F6
:10261000FA0F3000240B5B0D009200D196E0AD4A1A
:10262000934231D0720FE4002243802424041443E7
:10263000A94AF000944663445B195A1C0192424631
:1026400000260A2A42DC5A4600994A4093464246EE
:10265000022A32DC013A012A00D949E1022E00D1D6
:10266000CAE0012E3DD100230024002210005A466A
:102670001B052343D2071343190007B0F0BCBB4628
:10268000B246A946A046F0BD924B2643EB18002E59
:1026900000D1BBE00322414611435A4688460099C7
:1026A0004A40802109018C4629006144019141463C
:1026B0000A2900DD33E2934603264246012797406C
:1026C000A6213A00C9000A400F4231D0029E022ED4
:1026D00000D135E2032E00D1D2E154464846012E06
:1026E000C1D0019A7D4B94466344002B00DCC0E0CE
:1026F000420709D00F220240042A05D0021D82425F
:102700008041404224181000E20106D5744B019A22
:102710001C4080239446DB006344724A93426BDC86
:102720006207C00864025B050243240B5B0D9DE752
:10273000902189000F4263D188223A4200D1D7E02C
:10274000009BA2469B4681460296BFE72300334387
:1027500000D17FE0002C00D1ADE1200000F010FF9F
:10276000020003000B3A1D201900821A30000839BC
:10277000D0408C400443300088405B4AEB1A9446BA
:1027800063445A1C0192424600260A2A00DC5AE79A
:102790009CE753460343994654D05346002B00D13F
:1027A00077E1504600F0ECFE0B235B429C460200B2
:1027B000844411005046083988401D2380466046F5
:1027C0001B1A2000D8400300404603439A462300CA
:1027D0008B4099460023444D9846AD1A029315E765
:1027E00052460243914626D100221D000223924602
:1027F00008329046029309E700240022354B35E762
:10280000002380249B462403324B2FE702224146BB
:1028100011438022120194462A00624488460192A4
:102820000A2900DD52E75A460020009904004A4078
:10283000934602260BE70C221D0003238146904697
:102840000293E3E600239A4604339846033B0025AF
:102850000293DBE6424601331A432B0090465A1C92
:10286000019242460024002001260A2A00DCEAE602
:102870002CE70122D21A382A00DDF4E61F2A00DCF8
:102880002AE11F214942CB1A2100D9400B00202AFE
:1028900005D0164A019D94466544AC402043421E33
:1028A00090411843072319000024014003420CD033
:1028B0000F230340042B00D140E1031D8342A441B8
:1028C0001800644261076402240BC20800230A4313
:1028D000CCE6C046FF07000001FCFFFFFF0300003D
:1028E000FFFFFFFEFE0700000DFCFFFF3E0400009F
:1028F00049464A460904090C0D00160C020C000456
:10290000000C4543AC4605007543A84615000F0072
:102910007543009202952A00009D6F4365462D0C79
:10292000A94647444F44B84505D9150080225202B4
:102930009046454402953D0C039565462D043F04A1
:102940002D0CAC463D0065440495250C2404240C54
:10295000AC4625007543A84665460F0069434144CF
:1029600089466743390C49446E43884503D9802220
:102970005202904646440D0CA84635004544059544
:10298000039D3F04A8463F0C0904C91988444546E5
:10299000039555462E04360C2F0C350045437843DD
:1029A00081463800A8462D0CAA46009A504372432F
:1029B0004A445244914503D980256D02A9464844B2
:1029C000150CA94645462D042D0CA84665467D43A9
:1029D000120448449044A9463200654662436E435F
:1029E0007C43170C3619BF19BC4203D980246402FA
:1029F000A446E144029C039EA446059D66448E4283
:102A00008941AC4612043C04120CA21862444942AB
:102A100054184644A4464645A44182466442A04612
:102A2000AA4292418C458941E244D04449425242F3
:102A30000A43A045A44182458941644249420C436E
:102A400041463F0CD2191219CC0D0499700208436B
:102A5000411E884141464A44F60D52023043490224
:102A600014430843D20135D50122430802401343E1
:102A7000E0071843640834E6009BA2469B46814663
:102A80008024534624031C4324034A462E4B240B24
:102A9000ECE500F075FD15239C4684440200634676
:102AA00020321C2B00DC84E60023994623000838E2
:102AB00083409A468EE600F063FD02000300153263
:102AC00020331C2A00DC4EE602003400083A0020C5
:102AD000944052E6019304E61C4B21009C460300FF
:102AE000019DD3406544A94019430300AB40581EE3
:102AF000834119430800D4404B0709D00F230B40F2
:102B0000042B05D00B1D8B42804140422418180035
:102B1000230200D4D6E6012300240022A6E50F29D3
:102B2000AAD1802352461B031A42A9D01C42A7D126
:102B30001C43009B02009B46034B97E50024C1E623
:102B40000024014B220091E5FF0700001E04000055
:102B5000F0B54E464546DE465746E0B585B0009096
:102B600001910C034F00CE0F610A009CB046640F28
:102B70000C4300997F0DC80011001A001B039C46EE
:102B80000091019251004B0D9946019B009DD90F78
:102B900063466A0F5B0A1343EA0094469346C14AB0
:102BA00003900293914500D1CDE0012569404D4647
:102BB0007D1BAA468E4200D180E0002D00DC35E36B
:102BC0004946002900D1DFE0974200D194E1524606
:102BD0000125382A19DC8022029B12041343029338
:102BE00052461F2A00DDE3E1534620226146029D42
:102BF000D21A9540D9400D43614691400A00511EBA
:102C00008A411543029ADA40A41A451BA842804122
:102C10004042241A230200D43DE16402640A002CDD
:102C200000D147E1200000F0ABFC0300083B20216D
:102C30002800CA1AD0409C4002009D4022439F4277
:102C400000DD77E1D81B0130091A2C008D40C4400B
:102C50006B1E9D411300C2408B402543002714008A
:102C60001D436B0709D00F232B40042B05D02B1DD0
:102C7000AB42AD416D4264191D00230200D440E116
:102C8000884A0137974200D101E10126434686492F
:102C9000ED0821404A072A437C054D022D0B640DA7
:102CA0001E4024052C43F60734431000210005B0D4
:102CB000F0BCBB46B246A946A046F0BD002D00DCE4
:102CC000D0E24946002900D0D4E06146029B194376
:102CD00000D12BE1691E012D00D1D9E1954200D12F
:102CE0000AE10125382917DC8A4653461F2B00DDEF
:102CF000E7E12022D21A029B614693401D00534611
:102D0000D940634693401A000D43511E8A415346F1
:102D10001543029ADA40A4182D188542804140429A
:102D20002418230200D4B6E05E4B01379F4200D145
:102D3000ADE001215C4B6A081C4029400A43E507CD
:102D4000154364088DE7594A029B92466246BA448D
:102D50001A432CD08E422ED05246002A60D0002F2B
:102D600000D1DBE063460E00029CD80862070243F4
:102D7000E4081300234300D154E280252D032543AA
:102D80002D03484C2D0B8CE76146029B194300D163
:102D9000CCE029000139012D00D188E1954200D114
:102DA000AAE00125382900DD2FE78A4618E701222D
:102DB00051408E42D0D15346002B00D1BEE0002FAF
:102DC00000D038E1CA462200024300D1E2E1534676
:102DD000591E012B00D10DE2324A924500D1D2E1B9
:102DE0000127382913DC1F2900DDEEE12022029B98
:102DF000521A250007009A46CC4090409540CF409B
:102E0000A244421E904153462F43074302933D0084
:102E1000654465459241029B52424F46D41880E773
:102E2000234A7D1C154200D0AAE062462500029B81
:102E300005431A43002F00D0F5E0002D00D16BE1CF
:102E4000002A00D152E16346C51A029BE21AA84249
:102E50009B415B42D31A1A0200D4D5E163461D1A86
:102E6000AC4592410126029B52421C1B8846A41A83
:102E70000E40F6E697423FD052460125382A00DD43
:102E80004AE78022029B1204134302932DE73C0081
:102E90000025002205E707232B40002B00D0E2E6A7
:102EA0006BE0C046FF070000FFFF7FFF01F8FFFF58
:102EB000FE070000280000F063FB030018331F2BFF
:102EC00000DCB4E62A00083882409F4200DDB9E009
:102ED000DB1B581C1F2800DCA0E115001F3BDD4058
:102EE000202805D040231B1A9A40531E9A411543AF
:102EF000072300272B40D0E7C00862070243E408FD
:102F000037E7EA0863071A43D34BE4089F4200D12E
:102F10002FE72403250B7C05640DC2E6CA46220078
:102F2000024358D163460E00029C0393039B57460D
:102F3000DA08E7E7C94CFF1A144092E6C84D7A1C3C
:102F40002A4200D084E022000243002F00D0EFE0AC
:102F5000002A00D1E5E0624602990A4300D1C5E0AB
:102F60006346C5188C46854280416444404224181B
:102F7000230202D5B94B01371C40BA460395D5E769
:102F80006246851AA842924152429146029BE31A38
:102F90001A004B46D21A130091461A026CD44A46C4
:102FA0004C462A4300D03AE600260024002578E665
:102FB000029953460D00203AD540202B06D04022DE
:102FC000D21A0B00934062461A4393465B465A1E40
:102FD00093411D4319E653465A1E012B00D1C6E00A
:102FE0009D4EB24500D1BDE688460E000125382A27
:102FF00010DC1F2A7FDC20212500891A0700884069
:103000008D40D740D440411E8841029B3D431B1B4D
:10301000054302936246551BAC459241029B5242C6
:103020004F469C1AF6E5002D00D0B7E0002A00D1EB
:10303000F0E001260E4063460298D90842070A4391
:10304000C40896E6854CFF1A14406207E40860E75E
:1030500081498A4200D1C9E06346C118814280415A
:10306000029B4042E3181B18DD075C080723490850
:103070000D4317002B4010E763461D1AAC459241E3
:103080000126029B52421C1B8846A41A0E40C6E52C
:103090006346C518029B854280419C464042644479
:1030A00024180127230200D4F5E6022741E66346EF
:1030B000C51AA8428041029B4042E41A0127241A03
:1030C000A8E5029D52462B00203AD34019005346F2
:1030D000202B06D04022D21A2B00934062461A437E
:1030E00093465D466B1E9D410D4315E66207C00881
:1030F0000243E4080DE7110027002039CF40202AC1
:1031000005D040218A1A9440250005430395039D6C
:103110006A1E95413D437DE7002A00D144E7012620
:103120000E406346D908029B5A070A43DC08F0E6C2
:10313000002A28D06246029FC0083A4300D1DCE64C
:10314000620710438022E4081203144209D0FD08EC
:10315000154206D1634601262C00D8087B07184388
:103160000E40420FC000C0085207024301E663460A
:103170001D1AAC459241029B52421C1B0E00884610
:103180000127A41A46E56346D908029B5A070A4359
:10319000DC08EEE56346029C0393C7E6C008002AFC
:1031A00000D1AAE6620710438022E4081203144209
:1031B000D7D0029FFD081542D3D163460126D80817
:1031C0007B072C0018430E40CBE70A002700203A6B
:1031D000D740202905D04022521A944025000543AB
:1031E0000395039D6A1E95412F4310E614000025A8
:1031F000002256E5029B60449946604592414C444A
:1032000052420500A4184CE71A001C002A4300D0C3
:10321000B3E6C9E6802400262403AEE5202100257C
:10322000091A17E5002200250B4C3AE5002D00D1C4
:10323000F6E54B46DA1B9246002F00D16FE6382A9E
:1032400005DC80263604344388460E00D1E68846E5
:103250000E000125DEE6C046FF070000FFFF7FFFEE
:10326000FE070000002D00D168E64B46D91B002F59
:1032700001D18A46A7E50127382900DDC7E580226C
:1032800012041443AFE5C046F0B5C6461E03360B24
:10329000B0460D4E0C034D005F0000B5240B6D0DC4
:1032A0007F0DB5420BD0084900208F4204D146461D
:1032B00016433000431E984180BCB846F0BD04431D
:1032C0000120002CF8D1EEE7FF0700000B00020000
:1032D00070B5164D0C0382B0490000200092019396
:1032E000240B490DDE0FA94204DD1148814203DDA4
:1032F000104BF01802B070BD8020400320430E4CEC
:10330000641A1F2C08DD0D4B5B1AD840030058428D
:10331000002EEFD11800EDE7094B009A9C46030000
:1033200061448B40E2401343F1E7C046FE030000D6
:103330001D040000FFFFFF7F3304000013040000A2
:10334000EDFBFFFF70B5002816D0C317C5185D4010
:10335000C40F280000F014F9104B1B1A5B055B0D1D
:103360000A2814DC02002E00153296400B22121A95
:10337000D5402D032D0B03E000240023002500265B
:103380001B052B43E40723433000190070BD0B38A5
:1033900085402D0300262D0BF2E7C0461E040000D9
:1033A00010B5041E10D000F0EBF80E4B1B1A5B0595
:1033B0005B0D0A280FDC0B222100121AD1401530B8
:1033C0000A038440120B01E0002300221B05134373
:1033D0002000190010BD22000B3882401203002487
:1033E000120BF3E71E04000070B542024300C40F45
:1033F000FE201B0E591C550A08420CD0E021890002
:103400008C466D07120B63441B051343E4072343EB
:103410002800190070BD002B14D1002D1BD02800EE
:1034200000F0AEF80A281CDC0B232A001B1ADA4035
:10343000030015339D400E4B12031B1A5B05120B44
:103440005B0DE1E7002D09D0130B802212031A4314
:103450006D07084BD8E700230022D5E70022054B73
:10346000D2E703002A000B3B9A400025E3E7C04661
:1034700089030000FF070000F0B54B000F035B0D50
:103480003B4C450F83B07F0A5E1C2F430090019197
:10349000CA0FC50026420BD036495C18FE2C13DD3E
:1034A000FF200023C0051843D207104303B0F0BD2E
:1034B000002B02D100200023F4E73D43F0D080230D
:1034C000DB03FF203B43EDE7002C14DD009BFF00F6
:1034D0009B01581E8341690F3B430B43590741D061
:1034E0000F211940042928D00433590125D501346E
:1034F0000023E0B2D6E721001731DBDB80211E205C
:1035000009043943001B1F281BDD02267642341BA9
:103510000E00E6403400202804D017488446634457
:1035200099400D432B00591E8B412343590715D059
:103530000F2100241940042917D19B015B0AE0B236
:10354000B0E70E4C1C192B00A540C340A140681EDB
:10355000854129430B4300245907C1D19B01002019
:103560005B0A9FE7DB08E0B29CE70433E5E7C0466F
:10357000FE07000080FCFFFFA2FCFFFF82FCFFFFB4
:103580001C2101231B04984201D3000C10391B0A93
:10359000984201D3000A08391B09984201D3000957
:1035A000043902A2105C40187047C04604030202AE
:1035B00001010101000000000000000010B5002919
:1035C00003D1FFF7DDFF203002E00800FFF7D8FF4E
:1035D00010BDC04610B52D4C22706370082B09D861
:1035E0002B4A9B00D3589F460B7803222021A370BF
:1035F00005F0A2F910BD0B780A22A3704B78E37096
:103600008B782371CB7863710B79A3714B79E3715C
:103610008B792372CB792021637205F08DF9E9E76C
:103620000B880422A3700B8820211B0AE37005F08D
:1036300083F9DFE70B880422A3700B8820211BB2DB
:103640001B12E37005F078F9D4E70B680622A3702B
:103650000B681B0AE3700B681B0C23710B6820219D
:103660001B0E637105F068F9C4E70B680622A370AE
:103670000B681B12E3700B681B1423710B6820216D
:103680001B16637105F058F9B4E7C04628080020FE
:10369000C0E101081B2807D8044A0123C240472083
:1036A0001340C01AC0B270474720FCE760800A0B85
:1036B000F0B5C6460700162000B51C0006AB1B7807
:1036C0009046013B58431E4A0D00865A38000AF0C6
:1036D00049FA002817D01B4BBA002100D0580DF032
:1036E000CDFE00280FD1F6B21B2E03D8164BF340A7
:1036F000DB0710D438000AF035FA4246290012F0F0
:10370000E9FE060000E0012605200FF0CDFE3000A6
:1037100080BCB846F0BD43460024002BF3D03800EF
:103720000AF020FA2900012212F0D4FE013406002A
:10373000E4B202200FF0B8FE01354445EFD3E3E7D1
:10374000380D0020B01E002060800A0BF0B5234B1E
:1037500023491A8883B093B28A4235D01E0A2FD0EB
:10376000F6B23100DBB21F4A012511702E211E4A2C
:103770001E4C53546B46D91D002302229C466346BF
:103780000B700B780A2B14D86B1E9800C0184000E1
:10379000C018124BD7180B783F88C3185B00E7524C
:1037A0000B7802320133DBB20B700B7892B20A2B2A
:1037B000EFD90135EDB2AE42E1D2002003B0F0BD49
:1037C00001210126DBB2CEE701220021054BFA20C0
:1037D0001A70054B2D329954F0E7C04600000408DA
:1037E000FFFF00000000002028080020380D002006
:1037F000F0B54E465746DE464546E0B583B06B46CB
:103800009E1D002399463380194B21279A46194B58
:103810009B464B469B001D0098464D447C1F6D0007
:10382000A4B255442000310008F0CEFA33880134A8
:103830006B70A4B21B0A2B700235A742F2D143462B
:1038400000224B445B0053445A724B460133DBB2B7
:1038500099465B461B780537BFB24B45D9D200204D
:1038600003B0F0BCBB46B246A946A046F0BDC04678
:10387000280C002000000020F0B54646D6464F46F2
:10388000C0B582B06B469E1D0023234D33802B783C
:103890000024002B3DD0214B00211F0098463037DB
:1038A00020004900CB30791880B208F08DFA611CF5
:1038B0002B788CB2C9B28B42F2D864232700D03463
:1038C0009C46A3B2994600239A469E37E044BFB275
:1038D00045467C1FA4B22000310008F075FA3388F9
:1038E00001346B70A4B21B0A2B700235BC42F2D1BA
:1038F000434652465A720A239C460534A7B2E04416
:103900004F45E5D1002002B0E0BCBA46B146A8461A
:10391000F0BD024B9846D0E70000002028080020A8
:10392000F0B585B000236A46E42003A99381D381D2
:1039300008F04AFA0025002801D16B461D7B03A937
:10394000E52008F041FA0E236B4404001900E6203C
:1039500008F03AFA0443E4B20026002C04D16B4686
:103960009E89DB893604F61803A9E72008F02CFAB3
:103970000E236B4404001900E82008F025FA0443E4
:10398000E4B20027002C04D16B469F89DB893F04F9
:10399000FF18E92003A908F017FA002835D02A4CAF
:1039A000EA2003A908F010FA002806D16B464A2243
:1039B0009B89190AA1540132A354EB2003A908F0F2
:1039C00003FA002806D16B464C229B89190AA154A0
:1039D0000132A3544823E35C002B03D04922A25CAC
:1039E000002A22D14A23E35C002B03D04B22A25CA5
:1039F000002A21D14C23E35C002B03D04D22A25C92
:103A0000002A0BD1002005B0F0BD6B4648229B89EF
:103A10000D4C190AA1540132A354C1E700923100A0
:103A20003A00280004F026FEECE7009231003A004C
:103A3000280004F01FFED5E7009231003A0028006C
:103A400004F018FED6E7C046A80800208A2030B54A
:103A500083B001A9400008F0B7F9002800D06CE05D
:103A60006B469A888E205023444C01A94000E252B4
:103A700008F0AAF9002800D079E06B469988CA0BB3
:103A80004908230016205033D980FF3001A91A714C
:103A900008F09AF9002800D066E06B469A888B20DF
:103AA000582301A94000E25208F08EF9002858D1AD
:103AB0006B469A8823001820583301A9FF305A809A
:103AC00008F082F9002849D16B469A8823008C209F
:103AD000583301A940009A8008F076F96B4605003A
:103AE0001A20991DFF3008F06FF90543EDB2002D43
:103AF0002DD16B466A46DB8892881B0413438D20C8
:103B000001A94000236608F05FF900281CD16B462C
:103B10009A881979120A23001C2058331973FF3030
:103B200001A95A7308F050F9002809D16B461B7996
:103B300000205834A37603B030BD114B9A8891E72A
:103B400026220F4B9B5CF3E718220021E3E7742346
:103B5000E35C002B0FD0E1235B02D0E7084B1A8A0D
:103B6000B4E7074BDA89A5E7054B9A8997E7044B39
:103B70001A7A598985E7024B5B69C0E7A8080020DB
:103B800000000020F0B54F46D6464646C0B588B086
:103B900000236A46D3830F339A46F933EC24012776
:103BA0009946344E05E00434A4B2013709364C4539
:103BB00058D01E236B441900200008F005F9051E9B
:103BC000F1D16B46DB8B190A1A0BBA42EBD1524684
:103BD00050460A400842E6D073741E23601C6B44B2
:103BE0001900B27280B208F0EFF86B46DB8BA01CB4
:103BF0001A0AB3731E236B441900F27280B208F0E4
:103C0000E3F86B46DB8BE01C1A0AF3731E236B444C
:103C10001900327380B208F0D7F86B46DB8BB07AAC
:103C20001A0A3374FBB219007273984608F0E4FA6A
:103C30000120717CF37A4A10059502400140307CE6
:103C400004340490F07BA4B20390B07B013702905F
:103C5000707B09360190F0780090404608F0C6FB72
:103C60004C45A6D1002008B0E0BCBA46B146A846F3
:103C7000F0BDC046E82C0020F0B5D64646464F467B
:103C80003220C0B514F000F8061E6CD0374C2378F3
:103C9000FE2B57D1431C994664239A46344B354F2B
:103CA0009846BA44210023001431351B1A78EA548F
:103CB00001338B42FAD114224946380015F033FD06
:103CC000283414220021300015F005FC2278FD2A4A
:103CD0003AD80023283D01E0322B30D02A556278B3
:103CE00001330134DBB2FD2AF6D91D005A1EB25C45
:103CF000002A01D00133DDB2280013F0C5FFF860BF
:103D0000002826D02A00310015F00DFD434642461A
:103D10001B7800210133137030002A0015F0DBFB03
:103D20002378FE2B02D114375745BBD1300013F056
:103D3000B5FF0020E0BCBA46B146A846F0BD31222E
:103D40003225D4E7FF20F5E7012200250023524267
:103D5000CDE714220021380015F0BDFB300013F030
:103D60009DFF0E20E6E7FB20E4E7C04600100408B4
:103D7000801600208416002070B5FFF7E7FC0F4C7A
:103D80002378002B0CD001200D4D411E461C49000C
:103D90003000691808F018F82378F0B28342F4D2A2
:103DA000FFF726FDFFF768FDFFF7BAFDFFF74EFEB0
:103DB000FFF7E8FEFFF760FF70BDC046000000207F
:103DC0001C310020F0B5C64600B5104E3378984639
:103DD000002B16D00023012498460D4F07E0192C24
:103DE00001D90A2398463378ECB2A34209D3631E63
:103DF0005B00F95A651C0029F1D0A8B207F0EEFF6C
:103E0000EDE7404680BCB846F0BDC046000000204B
:103E10001C3100200023F0B54646D6464F46984652
:103E20001B4BC0B599461B4B00269A4605E05346EE
:103E300001361B78F6B2B34224D34B46B400A41922
:103E400064001B5D002BF2D0454647461C352137E8
:103E50004C44ADB2BFB2237861781B022800C91868
:103E6000013589B2ADB207F0B9FF0234BD42F2D1DB
:103E7000434605339BB29846534601361B78F6B24B
:103E8000B342DAD20020E0BCBA46B146A846F0BD43
:103E9000280C002000000020F8B5DE4657464E46AC
:103EA0004546E0B50D0014009B460AAB1B780100A7
:103EB00098460BAB1B78E4209A460CAB1F780DABF1
:103EC0001B7899460EAB1E7807F088FF290A89B245
:103ED000E52007F083FFA9B2E62007F07FFF210A63
:103EE00089B2E72007F07AFFA1B2E82007F076FF59
:103EF0005B461902414489B2E92007F06FFF53463F
:103F00001902791889B2EA2007F068FF4B461902B6
:103F1000711889B2EB2007F061FF0020F0BCBB46AE
:103F2000B246A946A046F8BD70B5224D50222C00DD
:103F30008A2050346378A95C5B011943400007F084
:103F40004DFF8E202179E388C903194389B24000CF
:103F500007F044FF58231620E95A2C00FF3007F0E1
:103F60003DFF8B2058346188400007F037FF182050
:103F70006379217B1B021943FF3007F02FFF8C2050
:103F8000296E400089B207F029FF1A20296EFF3000
:103F9000090C07F023FF8D20637B21791B02194355
:103FA000400007F01BFF1C20A17EFF3007F016FF2A
:103FB000002070BDA8080020F0B5C646124E34227D
:103FC0000021300000B515F086FA104D2B78984688
:103FD000002B15D00023012498460227192C01D963
:103FE0000A2398462B78FCB2A34209D3631E5B00D8
:103FF000F15A671C0029F1D0380007F0EFFEEDE719
:10400000404680BCB846F0BD1C31002000000020B6
:104010000E2330B512248FB06B446C44009303AA76
:1040200006AB05A9012007F071FF04AA08AB07A998
:104030000220009407F06AFF01230A936B460025D3
:104040009B89059809A909930B9510F04BFA022357
:104050000B932388089809A909930A9510F042FA4E
:104060006B4600229989059810F0D2FB052009F0D3
:104070007DFA2188089810F0C5FB03000020002B72
:1040800001D00FB030BD6B4601229989059810F020
:10409000BFFB052009F06AFA2188089810F0B2FBEE
:1040A000013843425841C0B2EBE7C04670B5060044
:1040B0000024074D30002968FCF726F80134E4B2EB
:1040C000002803D00C350D2CF4D10024200070BD45
:1040D0009400002030B5017803003D2902D14278D8
:1040E000002A2BD00C0006203E3C3C39002C02D18B
:1040F0005A78002A24D0002902D15A78002A21D0E7
:104100001A783E2A05D15D783D2D02D19D78002D8B
:104110001AD03C2A05D15D783D2D02D19D78002D25
:1041200014D0212A05D15A783D2A02D19A78002A42
:104130000ED00138C0B20028D8D130BD0120FCE734
:104140000220FAE70320F8E70420F6E70520F4E769
:104150000620F2E770B509F0D7F809F069F907F021
:104160000BFE07F093FE07F0B9FA09F097F907F094
:104170008DFD09F0BDF907F01FFF00285CD1FFF7A6
:1041800047FF002826D1322009F0F0F906F020FE82
:10419000334DFFF7F1FD09F077FD07F057FB2E22B5
:1041A000304B9B5C002B2CD180212F482D3A4901AC
:1041B00010F02EFBFA20400009F0D8F980210022EF
:1041C0002948490110F024FB03F000FD752301226A
:1041D000EA5470BD74230122214D3220EA5409F0C3
:1041E000C5F906F0F5FDE12149020124296600E048
:1041F000296E20000134E4B209F0A2FC072CF7D1AB
:10420000C7E7802101224901174810F001FBFA207D
:10421000400009F0ABF9802100224901124810F05A
:10422000F7FA642009F0A2F980210F480122490120
:1042300010F0EEFA6420BFE70C4C0D4D2368AB4242
:1042400004D007F0E5FD002800D12560BFF34F8FB3
:10425000084B094ADA60BFF34F8FC046FDE7C046FE
:10426000A80800202808002000040050F07F00204B
:10427000ADDEEFBE00ED00E00400FA0510B50FF072
:10428000EDF806F0A1FBFFF765FF03F0E5FE0DF08A
:10429000D1F810BDF0B5C646104B05000124984674
:1042A000032700B50E4E82B0A5420ED043461B8DAB
:1042B000B4705BBA338000220A23002120000097EB
:1042C00004F07CFB0A200DF0BBF80134E4B2072CAB
:1042D000EAD1002002B080BCB846F0BD000000204A
:1042E00028080020F0B557464E464546DE46E0B564
:1042F00085B06A46524B00AF1E780400F31DDB0800
:10430000DB00D31A9D466D46002E09D032000021F5
:10431000684615F0E0F800214A48720015F0DBF815
:104320000122631EEA5415325A43474C5B00924601
:10433000E418012378224548994682440133944683
:10434000002198465246FE60B8605388002B11D079
:104350006046205ADB0882464846884083465046DD
:104360005E46304382466046564626524046EB182B
:10437000013B1870013102320629E6D1FE68B868A7
:10438000002E54D003239B462F4B99465B46FB607F
:104390004B46B1462E001C000021FA680500013A88
:1043A00090468C46002282469B46783405E00132D6
:1043B000D3B20234163599452FD9B35C4345F6D1B3
:1043C00043467B604B462800A846002125009146C5
:1043D000BB604388002B0FD0DB08013BF25C002A56
:1043E0000AD101248C402A8822432A80FA68F25498
:1043F00063460133DBB29C46013102300629E8D125
:104400004A46BB682C00994645467B68013298466F
:10441000D3B2023416359945CFD8624650465B4632
:10442000002A04D0FA680132D2B2FA60B3E7002061
:10443000BD4605B0F0BCBB46B246A946A046F0BD9D
:104440000000002020090020A8080020380D0020CE
:10445000F0B5DE4657464E464546E0B5002695B0D7
:1044600005002E220F0008A80021079615F033F84A
:104470006F4C1A220021200015F02DF82C216D4BD5
:104480006A1E03939B185E541C315E5416235343DB
:10449000694A93465B44180001235A00825A002A55
:1044A00003D0D208BA4200D1B6E00133072BF4D1D1
:1044B000624B1978002900D1B8E00123039A99468C
:1044C0002A339C461600D4339846B83B66449C4633
:1044D0006244B2464B469446002681469D4205D032
:1044E00052464046D05462469A18167001338B42A9
:1044F000F4DD2C239A46039D039B5544AC460C25C2
:1045000048465D44A94600223D00984607AE049007
:104510000594370030000124002301920278013312
:10452000144001308B42F9DB019A002C43D1434601
:104530005246985C3378002B00D0FF200023019571
:1045400062469A5C824204D23D78002D01D110006F
:10455000DCB2013301378B42F2DB0134019DE2B260
:10456000AA4228D001231624571EF3555B467C43EC
:1045700018193B000F0043444C44019302954388B3
:10458000002B12D0DB08DBB2013BF15C00290CD11F
:10459000554601994344495D5D5D0131C9B28D4283
:1045A00003D95546595548215A540230A042E6D104
:1045B0003900029DADE72F000498059C039B9B18D2
:1045C00047331978002300290CD0039E00E029000E
:1045D0001D00625572184732157801330A00DBB2AC
:1045E000002DF4D10123039AD5192B355A00825A94
:1045F000002A06D02978D208611801390978914239
:1046000012D00133072BF1D1002015B0F0BCBB460E
:10461000B246A946A046F0BD0121039A2770D219DF
:104620002B321170D8B2F0E7D8B2EEE70022C5E71E
:10463000E81E002028090020380D0020000000207E
:10464000F0B5DE464E4645465746604BE0B51F0086
:1046500064373A0098465E4B060013CB13C21968C4
:1046600089B011609B88380093800125FBF756FDC7
:104670006D42322382B239003000009509F00AFA07
:10468000544B0124994622004946380014F0A4FEF8
:104690003800FBF743FD013482B232233900300089
:1046A000009509F0F7F9072CEDD1322303223000F1
:1046B0004949009509F0EEF9484B03931B78002B0C
:1046C00074D0474B45460493464B01279B46464BC7
:1046D00000240593454B64350693454B7F42079371
:1046E000444B9A46444B9946631C1A00049928008F
:1046F000029314F071FE2800FBF710FD322382B202
:1047000029003000009709F0C5F916236343984645
:104710005B4642469B5A28005900C918059B490030
:104720009C460522614414F00AFF32230522290029
:104730003000009709F0AEF93223300001220699CB
:10474000009709F0A7F95B465C460C334444984453
:1047500033004646984610E04946280014F03CFED7
:104760002800FBF7DBFC023482B2322329004046EA
:10477000009709F08FF9B4420AD06288002AEBD082
:104780000723514613402800D20814F025FEE7E71E
:1047900046463223022230000799009709F07AF941
:1047A0006B461C7A039B1B78A3429DD801235B4276
:1047B0000093012230001149333309F06BF909B03D
:1047C000F0BCBB46B246A946A046F0BD2809002071
:1047D00038EC01084CEC010830FB01080000002017
:1047E00054EC0108380D002048E2010848EC0108AB
:1047F00070ED010864EC010860EC0108280502086E
:104800003D4BF0B51C00DE4645464E4657466434E7
:104810002200E0B585B00293384B814623CB23C2FA
:1048200023CB23C21B6820001360FBF777FC012316
:104830005B4282B2009321003333484609F02AF9E3
:104840002F4B1A78002A39D0012293462D4A80270F
:1048500090462D4A3F02924603935B465D1E6D00D3
:104860002B00029E454600249846643601E00A2C3F
:104870001BD02200390043461141EB5A0134194242
:10488000F5D023005A465146300014F0A5FD300003
:10489000FBF744FC01235B4282B20093310048469F
:1048A000333309F0F7F80A2CE3D15B460133DBB26E
:1048B0009B46039BA8461B785B45CED2029C134BBC
:1048C0006434220023CB23C223CB23C203CB03C2F5
:1048D0002000FBF723FC01235B4282B200932100FE
:1048E0004846333309F0D6F805B0F0BCBB46B246B3
:1048F000A946A046F0BDC046280900206CEC01087E
:10490000000000201C31002088EC01089CEC01080C
:10491000F0B5DE464E4657464546E0B585B00390B5
:104920000CF01EFF00230370A14B04009B462E23B6
:104930005A46D25C9F4BA0491D006435280098461A
:1049400014F04AFD2900200014F0CDFD34239B4FC4
:104950009B49FA5C280014F03FFD2900200014F068
:10496000C2FD06230022974900932800043B14F05F
:1049700033FD2900200014F0B6FD934A9349280026
:1049800014F02AFD2900200014F0ADFD904A914951
:10499000280014F021FD2900200014F0A4FD2A00B5
:1049A0008D4B383743CB43C219682000116099887A
:1049B000012691809B792900937114F094FD874B17
:1049C00002979A46864B994632005146280014F0C9
:1049D00003FD2900200014F086FD029BF35C042BEC
:1049E0000DD84A469B00D3589F46414664310A0081
:1049F0007C4B83CB83C283CB83C21B88138029006B
:104A00002000013614F06FFD072EDDD1764B774A7A
:104A100043CB43C243CB43C22900200014F063FDC3
:104A2000734B744F9A46642343449946724BD04665
:104A30000125A246714E3C00029316E0B06A06F0D2
:104A400071FA0700206806F06DFA2A003B00414623
:104A50000090484614F0C0FC01354946504614F019
:104A600042FD60360434072D10D03368002BE5D1A9
:104A70002A000299484614F0AFFC013549465046D9
:104A800014F031FD60360434072DEED15446200079
:104A9000FBF744FB05005A4B022219002018029331
:104AA00014F041FEA81C20181D22564914F03BFEAC
:104AB0001E239A46544B80269946544BAA44984646
:104AC0005B460025A3462E271C00360201E0062D7A
:104AD00015D04946E35D2A00013B5B00CB5A31000B
:104AE000114101351942F2D041462A003F4814F0E5
:104AF00073FC58463D4914F0F6FC062DE9D15C469E
:104B00002000FBF70BFB53461B0405001B0C9842CF
:104B100046D003220299601914F005FE039B002B76
:104B200031D105B0F0BCBB46B246A946A046F0BDA7
:104B30004246374B643283CB83C260E741466431DF
:104B40000A00344B83CB83C203CB03C21B781370A0
:104B500055E7414664310A002F4B83CB83C283CB98
:104B600083C219681160998891809B79937146E797
:104B700040464246294B64321968416699889180C3
:104B80009B7993713BE72000FBF7C8FA01235B4256
:104B900082B2009321000398333308F07BFFC0E713
:104BA00005221F49201814F0BEFD0435B1E7C046A8
:104BB0002808002028090020BCEC0108A8090020D2
:104BC000D8EC0108F4EC010814ED010820ED01080F
:104BD00038ED010844ED010860ED010874ED0108AD
:104BE000E4E10108A8ED0108E4ED01088C090020CA
:104BF00018EE010860180020FCED0108EC260020EA
:104C000070ED010848EE01081C31002068EE010833
:104C10009CED010884ED0108C4ED01087CED01085C
:104C200070EE0108F0B5C64600B5037806006D2B9E
:104C30000BD14378652B08D18378002B05D12E2228
:104C4000244B985C80BCB846F0BD30002249FBF78D
:104C50005BFA00283CD033789846232B26D01F4B94
:104C60001F78002F0FD000241D4D29003000FBF7C6
:104C70004BFA002802D14346002B15D10134E4B28F
:104C80000A35BC42F1D10024164D29003000FBF753
:104C90003BFA002805D001340A350A2CF5D16420EE
:104CA000D0E7FE2324021C4320B2CBE7701C12F095
:104CB0008CFFC3B2002B03D0084A12789A4205D267
:104CC0002E21044A6620525C9A42BBD118B2B9E741
:104CD000FF20B7E72808002078EE01080000002038
:104CE000280C00208C080020F0B5C6462A4C8046CF
:104CF00025000E0000B5103521003000FBF704FA46
:104D000000283AD00434AC42F6D1244B1F78012F4E
:104D100010D90125224C03E001350A34BD4209DADD
:104D200021003000FBF7F0F90028F5D1072080BC06
:104D3000B846F0BD1B4D2C00C8356434210030004E
:104D4000FBF7E2F90028F1D00A34A542F6D1164F5C
:104D5000164C3C6403E064683C64002C0FD023686C
:104D60001D682800FBF7DAF929000200300014F072
:104D7000D5FB0028EFD10820D9E70620D7E7434626
:104D8000980040440A4B40003100C01814F0C3FCA6
:104D9000FFF740F8CBE7C046F8E10108000000202B
:104DA000320C002028080020A8090020340100202F
:104DB000280C0020F0B54F464646D6463D4BC0B5C0
:104DC0001F00643780460E0099463D0000242900EC
:104DD0003000FBF799F9002851D001340A350A2C2C
:104DE000F5D1354C2500103521003000FBF78CF94A
:104DF00000284FD00434AC42F6D1304B1B789A4691
:104E0000012B12D901252E4C03E001350A345545FA
:104E10000BDA21003000FBF777F90028F5D10720E5
:104E2000E0BCBA46B146A846F0BD264B264C9A4691
:104E30005C6404E0534664685C64002C0DD0236815
:104E40001D682800FBF76AF929000200300014F001
:104E500065FB0028EED10820E2E73B78002B1BD051
:104E600001340A370A2CF8D18022D2004746013F8C
:104E70007F004F44398E00200A433A86D0E7012252
:104E80004746A240013F7F004F443B8E0020134322
:104E90003B86C5E70620C3E74846A3001B195B0015
:104EA00064303100C01814F036FC0122A24092B2E6
:104EB000DCE7C04628080020F8E1010800000020D7
:104EC000320C0020A80900203401002030B5012157
:104ED00083B01E2012F080FE040009480949027DBB
:104EE000058B837D013A0195407D92008A180090E0
:104EF000126920002C3114F06FFA200003B030BD8D
:104F000000090020F8E101080A002E2100B5074B36
:104F100085B0595C01230393023B02930193033351
:104F200000930B0003F064FD05B000BD28080020CD
:104F300070B505000C00E420002106F04FFF0021B1
:104F4000E52006F04BFF0021E62006F047FF002198
:104F5000E72006F043FF0021E82006F03FFF002194
:104F6000E92006F03BFF0021EA2006F037FF002190
:104F7000EB2006F033FF681E430012491B185B014B
:104F80005B58621E002B10D053009B185B015B58CE
:104F90002800002B03D106F01FFD002070BD06F095
:104FA0001BFD200006F018FDF7E753009B185B017E
:104FB0005B58002B03D0200006F00EFDEDE76820C3
:104FC000ECE7C046EC26002030B583B008F0CAFDFF
:104FD000154A03680500934206D0144A934203D051
:104FE000134AFF2093421CD180214902DA690A4208
:104FF000FCD18024E403DA692242FCD08021019AAA
:1050000089032800009112F0D9FC2B6828009A68C7
:1050100014439C6012F01CFD80200121C0010FF0A0
:10502000F7FF03B030BDC0460038014000440040E7
:10503000004800400F4B104A10B59A61022811D069
:1050400005D8002812D008200FF0D4FF04E0032870
:1050500002D102200FF0CEFF10F016F810F002F887
:10506000002010BD20200FF0C5FFF5E701200FF054
:10507000C1FFF1E7007000403F000100F0B5574666
:105080004546DE464E46E0B5D24C0500277889B04D
:10509000052F66D0BB00DE19201DB6009946831986
:1050A0009846002342461380B31CC01804220021F6
:1050B00014F011FA2B78622B02D1AB782E2B52D040
:1050C000270068372900380014F025FBC24E38004D
:1050D000310014F049FA31000500002014F044FAC0
:1050E00031000700002014F03FFA0600002D36D0F2
:1050F0002800FEF7DBFF804600282CD1002F2ED0A1
:10510000002E2CD03000FEF7D1FF00285CD0042206
:105110002678B500AB199B00E3181A714246D87285
:10512000DA713800FEF7D6FF2278AD199300AD0092
:105130009B1865199B006871E3185B79002B0ED0F2
:10514000013222700026300009B0F0BCBB46B246E6
:10515000A946A046F0BD002FD2D1002E6AD0672606
:10516000F1E70E26EFE76B78303BDBB29A46062B71
:10517000E8D801239B464346B0465A46A0441A80CD
:1051800052464346EE1C9A7130000722934914F0B0
:10519000C5F9002832D00E223000914914F0BEF932
:1051A000002861D106234246D37152468D4BD2006E
:1051B00052449B18022216001B7A1E401A4244D009
:1051C000002601372770BEE72278300093009B1835
:1051D00003229B00E3181A714246DA7112F0EAFCCE
:1051E000FEF74AF926780790B500A8198000201824
:1051F000042207A90A3014F096FA92E705234246E2
:10520000D3715246774BD20052449B185E465A46A1
:105210001B7A1E401A42D3D105920023002201219D
:1052200050460496039602960196009607F0DEF823
:105230002778C6E70221227893009B189B00E31889
:1052400001321971D87122707CE75B460021059309
:105250005046002304960396029601960096013A62
:1052600007F0C4F82778ACE70C2230005E4914F050
:1052700055F900280FD152465A4BD20052449B1880
:105280009E78002E22D0DE78002E3BD01E79002E94
:1052900066D00C2695E730000D22544914F03EF9F3
:1052A000002600288DD153464E4AD900CB18D3187A
:1052B0005E79002E3DD09E79002E6BD0514452185D
:1052C000D679002E00D193E00D267AE72800092335
:1052D00042460F30D37112F072FC2178C3B28A00BB
:1052E00052189200A21813725A4604960592039619
:1052F00002960196009600220021504607F076F8AB
:1053000027785EE728000A2342460F30D37112F057
:1053100056FC2278C0B293009B189B00E3181872C9
:105320005B4604960593039600230296019600902F
:10533000E1E728000C2342461030D37112F03FFC05
:105340002278C0B293009B189B00E31818725B464A
:105350000496059303960023029001960096CAE7EF
:105360003B0028000B224B449B00E3180F30DA71FE
:1053700012F025FC2278C0B293009B189B00E31822
:105380001872012305930023019004930393029361
:105390000093B0E71423280098465F431030073B82
:1053A000E719FB7112F00BFC42462378C0B253435D
:1053B000E318187200210123039005930A000B00E3
:1053C0005046049102910191009107F00FF827785F
:1053D000F7E6C0468016002078ED01081CFC0108A5
:1053E0003CF30108E82C00204CF301085CF30108B1
:1053F0001423280098465F431030063BE719FB71E1
:1054000012F0DDFB42462378C0B25343E318187212
:1054100001230593002304901A00190050460396B7
:1054200002960196009606F0E1FF2778C9E6C0468D
:10543000F8B5CE4647460D0080B5022818D003289F
:105440000AD0012804D00020C0BCB946B046F8BD3F
:105450000800FFF713FEF7E72B4A117801398B009C
:105460005B189B00D2180123137505F0FFFAEAE7D9
:10547000254F08003B78013B9C00E418A4003C1930
:1054800023699846FAF74AFE43460600002B32D0BD
:105490004046FAF743FE0236814631004046494411
:1054A00012F040FE3A782061013A93009B184A4678
:1054B0009B00FB18186901322900801814F02BF9A1
:1054C0003A784946013A93009B1813229B00FB1837
:1054D0001B695A543A78013A93009B189B00FA18BA
:1054E0001269002AAFD1043714220021F81813F0F2
:1054F000F2FF0E20A8E7013012F0C6FB2900206160
:1055000014F009F99FE7C04680160020F0B5574611
:10551000DE464E464546E0B51E0000238BB00290A5
:105520008A4615000021052208A8079313F0D3FF2F
:10553000D04BD14C1F002B782A000320002B0AD01F
:10554000E15C0140012901D12033DBB213705378B3
:105550000132002BF4D1BB7E9946002B50D006229D
:105560002800C64913F0DAFF002800D1D0E04B46EE
:10557000022B1AD129000220FFF75AFF002800D081
:10558000E5E00D233370002398465346002B2AD1C3
:105590003000FAF7C3FD00210200300013F09BFF3A
:1055A0004346002BC7D1BB469FE02E21280013F0B5
:1055B000A7FF8346031E09D0033B1A78622A35D120
:1055C0005A786F2A32D19B78732B2FD199223100D0
:1055D000280092000CF044F880463378002BD7D096
:1055E0005346002BD4D03000FAF798FD01235B42DC
:1055F00082B2009331000298333308F04BFAC7E7C8
:105600002B78692BD1D16B78662BCED120225242D8
:105610009146AB789944202BC7D1E81CFFF72EFDAB
:10562000002800D08AE00223BB76AAE75B465B78BD
:10563000E35C5B07CAD45B4629005A1B07A813F03A
:105640007EFF07A8FFF7EEFA8D4B814604931B7887
:105650000393984200D192E0642800D17EE066284E
:1056600000D195E001239C46E344FF2800D1D2E01D
:10567000C3B20593FE2B00D12CE106225846814986
:1056800013F04CFF002800D089E07F4B00221870F7
:105690009846059B19219B46180003F04DF964209C
:1056A0000BF0CEFE794B59461A78049B18780023EC
:1056B00005F006FB43461B78602B09D1FA21012037
:1056C00089000DF047FC724B1B78002B00D0F5E0F1
:1056D0003378002B00D056E73000FAF71FFD002189
:1056E00002003000BB4613F0F6FE0922002107A895
:1056F00013F0F1FE5B469B7E002B02D15346002B3C
:1057000033D10BB0F0BCBB46B246A946A046F0BDB3
:10571000604AB876117801398B005B189B00D2186B
:105720000123137505F0A2F9412230005A4913F004
:10573000FAFF3378002B00D025E7CDE75222300066
:10574000564913F0F0FF4B46BB763378F2E752220E
:105750003000524913F0E7FF3378EBE7272230009F
:105760004F4913F0E0FF3378E4E701235B420093F5
:1057700038224C490298333308F08CF9C1E7584677
:1057800099223100013092000BF06AFF804624E735
:1057900025223000444913F0C6FF3378CAE72800B9
:1057A000FAF7BCFC07AB03901800FAF7B7FC804689
:1057B000039A5946013A121A3C4813F0C0FE2800D9
:1057C000FAF7ACFC4346421ED21A172192B2059852
:1057D00003F0B2F84A463000354913F0FDFD337846
:1057E000002B0DD05346002B0AD03000FAF796FC60
:1057F000012382B2009331000298313308F04AF954
:105800003000FAF78BFC00210200300013F063FE39
:105810001D4B98464EE71A220021264813F05BFEE6
:105820002800FAF77BFC804607A8FAF777FC424687
:105830008146013A5946121A1C4813F080FE28008E
:10584000FAF76CFC4B46C31A9BB21722FF21039850
:1058500003F04CF899223100920058460BF000FFFB
:1058600080463000FAF75AFC1D221349301813F015
:105870005AFFB2E600170020A1150208C0F3010884
:1058800056080020A8F40108F8080020DC090020D0
:10589000F809002080160020C8F301086CF3010805
:1058A0000CF40108F4F4010834F40108280800207D
:1058B000B0F401080C0C00205CF40108244A30000C
:1058C00013882449013313804B46320013F084FDC2
:1058D00033782FE70312DBB21A2200211E489946C3
:1058E000FB7613F0F8FD2800FAF718FC07AB0590DB
:1058F0001800FAF713FC059A5946013A121A059056
:10590000164813F01CFE2800FAF708FC059B172226
:10591000C31A9BB24946039802F0E8FF049B104A61
:105920001B78013B5B009B5AFA7E1341DB0706D4D0
:10593000320030000B4907AB13F04EFD4DE69922C3
:105940003100584692000BF08BFE8046F0E7C046CF
:1059500084210020D4F401080C0C00202808002029
:10596000580800207CF40108F0B5DE46454657464D
:105970004E46E0B589B004AB9C460F2501210023BB
:105980006544494201202B700DF0E4FA0BF0E8FE6B
:10599000E1225A4B03909B681203934200D1A9E085
:1059A000574B0124984646461B789C4205D0E1217E
:1059B0002000090308F0C4F833780134E4B2072C5E
:1059C000F3D1B0464F48504B0400029040461A882D
:1059D0009B4653009B184D4A5B0000789B184C4A2D
:1059E0001C3412784B490090200013F0F5FC42461D
:1059F0001078A4220A234849920008F081F8200078
:105A0000FAF78CFB414682B20A230878210008F09D
:105A100077F8424A029B0492414A9C469146414A89
:105A20000027059278226244002692463E4C01E00F
:105A30000BF042FF2378012BFAD15B461878FDF773
:105A400029FE472823D04346494618784B46421E34
:105A50009B5C8E542B7001220A232900267008F0CB
:105A60004FF82B780D2B18D00A2BE1D0082B30D013
:105A70007F2B2ED01A00203A5E2AD9D8312FD7DCBE
:105A80007821029AD219013753547FB2D0E7049A91
:105A90001378167042461078DCE7434602221878E5
:105AA00005990A2308F02CF8002F1DD043465246D2
:105AB00018780121039BFFF729FD029851464430D5
:105AC00013F029FE32220021504613F004FD002776
:105AD000AEE7002FFBD0029A013F94467822FBB23A
