:020000040800F2
:1000000000400220455A0108D55A0108993F0108CD
:1000100000000000000000000000000000000000E0
:1000200000000000000000000000000073B601089E
:10003000000000000000000081B70108853F0108B2
:10004000D55A0108D55A0108D55A0108D55A0108D0
:10005000D55A0108D55A0108D55A0108D55A0108C0
:10006000D55A0108F9430108194401086D440108F3
:10007000D55A0108D55A0108D55A0108D55A0108A0
:10008000D55A0108D55A0108D55A0108D55A010890
:10009000D55A0108D55A0108D55A0108D55A010880
:1000A000D55A0108D55A0108D55A01084D40010812
:0C00B000F9400108A5410108D55A0108DB
:1000C00010B5064C2378002B07D1054B002B02D02E
:1000D000044800E000BF0123237010BDA00A0020E7
:1000E0000000000090BA0208044B10B5002B03D0AA
:1000F0000349044800E000BF10BDC04600000000F6
:10010000A40A002090BA020802780B78002A03D0D3
:10011000013001319A42F7D0D01A70470023C25CF7
:100120000133002AFBD1581E7047000002B471460B
:1001300049084900095C49008E4402BC7047C0462A
:1001400003B47146490840004900095A49008E44E9
:1001500003BC7047002243088B4274D303098B42CF
:100160005FD3030A8B4244D3030B8B4228D3030C87
:100170008B420DD3FF22090212BA030C8B4202D329
:100180001212090265D0030B8B4219D300E0090A51
:10019000C30B8B4201D3CB03C01A5241830B8B425A
:1001A00001D38B03C01A5241430B8B4201D34B0343
:1001B000C01A5241030B8B4201D30B03C01A5241A8
:1001C000C30A8B4201D3CB02C01A5241830A8B422D
:1001D00001D38B02C01A5241430A8B4201D34B0216
:1001E000C01A5241030A8B4201D30B02C01A52417A
:1001F000CDD2C3098B4201D3CB01C01A524183092E
:100200008B4201D38B01C01A524143098B4201D367
:100210004B01C01A524103098B4201D30B01C01A92
:100220005241C3088B4201D3CB00C01A524183080C
:100230008B4201D38B00C01A524143088B4201D339
:100240004B00C01A5241411A00D201465241104699
:100250007047FFE701B5002000F0F0F802BDC0468E
:100260000029F7D076E7704703460B437FD400227E
:1002700043088B4274D303098B425FD3030A8B423A
:1002800044D3030B8B4228D3030C8B420DD3FF22A4
:10029000090212BA030C8B4202D31212090265D072
:1002A000030B8B4219D300E0090AC30B8B4201D325
:1002B000CB03C01A5241830B8B4201D38B03C01A6C
:1002C0005241430B8B4201D34B03C01A5241030BE3
:1002D0008B4201D30B03C01A5241C30A8B4201D394
:1002E000CB02C01A5241830A8B4201D38B02C01A3F
:1002F0005241430A8B4201D34B02C01A5241030AB6
:100300008B4201D30B02C01A5241CDD2C3098B429A
:1003100001D3CB01C01A524183098B4201D38B0117
:10032000C01A524143098B4201D34B01C01A5241BA
:1003300003098B4201D30B01C01A5241C3088B42FF
:1003400001D3CB00C01A524183088B4201D38B00EA
:10035000C01A524143088B4201D34B00C01A52418C
:10036000411A00D201465241104670475DE0CA0F63
:1003700000D04942031000D34042534000229C4623
:1003800003098B422DD3030A8B4212D3FC2289012D
:1003900012BA030A8B420CD3890192118B4208D303
:1003A000890192118B4204D389013AD0921100E065
:1003B0008909C3098B4201D3CB01C01A5241830979
:1003C0008B4201D38B01C01A524143098B4201D3A6
:1003D0004B01C01A524103098B4201D30B01C01AD1
:1003E0005241C3088B4201D3CB00C01A524183084B
:1003F0008B4201D38B00C01A5241D9D243088B42A1
:1004000001D34B00C01A5241411A00D20146634643
:1004100052415B10104601D34042002B00D54942A7
:10042000704763465B1000D3404201B5002000F0E6
:1004300005F802BD0029F8D016E770477047C0469E
:100440008446100062468C461900634600E0C046B0
:100450001FB501F045FE002801D40021C8421FBD90
:1004600010B501F085FD4042013010BD10B501F01E
:1004700037FE002801DB002010BD012010BDC04662
:1004800010B501F02DFE002801DD002010BD012077
:1004900010BDC04610B501F0AFFD002801DC002002
:1004A00010BD012010BDC04610B501F0A5FD00280B
:1004B00001DA002010BD012010BDC04684460800AE
:1004C0006146FFE71FB500F0DDFC002801D40021E4
:1004D000C8421FBD10B500F05DFC4042013010BDA8
:1004E00010B500F0CFFC002801DB002010BD01207A
:1004F00010BDC04610B500F0C5FC002801DD00208D
:1005000010BD012010BDC04610B500F06BFC0028E6
:1005100001DC002010BD012010BDC04610B500F068
:1005200061FC002801DA002010BD012010BDC0468A
:10053000002B11D1002A0FD1002900D1002802D0B0
:100540000021C943080007B4024802A140180290E4
:1005500003BDC046E9FEFFFF03B4684601B502983B
:1005600000F0A2F8019B9E4602B00CBC7047C0464A
:10057000F0B5CE469946030C9C46130447461B0C27
:100580001D000E0061460404240C80B50700100C09
:100590004B436543414360432C0CC01824188C46E0
:1005A000A34203D980235B029846C4444946794359
:1005B0005643230C2D042D0C89196344240460191F
:1005C000C918C0BCB946B046F0BDC04670B50022DF
:1005D0000C4B04000D00FFF767FF002804D120003A
:1005E000290002F075FC70BD064B00222000290096
:1005F00002F0B0F802F06CFC80231B069C466044BD
:10060000F1E7C0460000E04170B50022002304007D
:100610000D00FFF72BFF002808D12000290000F073
:100620000FF802000B001000190070BD80231B069C
:10063000E918200000F004F8002342428B41F2E761
:1006400070B500220B4B0D00040001F0BBFDFFF75D
:10065000BDFF060002F0A6FC0022074B01F0B2FD30
:1006600002000B002000290002F074F8FFF7AEFF33
:10067000310070BD0000F03D0000F04170B5060093
:10068000080002F061FC0022064B01F09BFD0D000A
:100690000400300002F086FC2B00220000F0EAFD8E
:1006A00070BDC0460000F041F0B557464E46454685
:1006B000DE46E0B504000D009246994683B08B42B9
:1006C00030D82DD04946504602F07AFD2900060068
:1006D000200002F075FD331A9846203B34D49B4627
:1006E00053465A46934042461F00534693401E00CD
:1006F000AF423BD8AF4200D179E05B46A41BBD417D
:10070000002B00DA76E000220023009201930123FF
:100710005A4693400193012342469340009329E0B7
:100720008242CFD900220023009201930C9B002B20
:1007300001D01C605D600098019903B0F0BCBB461D
:10074000B246A946A046F0BD42469B4620239B1ACE
:100750005246DA40414613004A468A401700424654
:100760001F43534693401E00AF42C3D900220023CB
:10077000009201934346002BD8D0FB0772081A431E
:1007800046467B080EE0AB4201D1A2420CD8A41A27
:100790009D41012024196D410021013E24184D4145
:1007A000002E06D0AB42EED9013E24196D41002E39
:1007B000F8D1009801995B4600196941002B24DBB0
:1007C0002B005A464446D3402A00E2401C005B46B8
:1007D0001500002B2ADB26009E40330026004746EA
:1007E000BE403200801A9941009001919EE7A342D9
:1007F000BCD882E74246202300219B1A00220091A8
:1008000001920122DA40019285E7424620239B1A99
:100810002A0046469A402300F340444613432A00E8
:10082000E2401C005B461500002BD4DA42462F0044
:100830002023260097409B1ADE403B003343CDE740
:10084000F8B5CE46474643025A0A4E024500C40F49
:10085000480091462D0E720A000E944680B59B0901
:10086000C90FB6092A1A8C4221D0002A0DDD0028B2
:100870002DD1002E00D18DE0511E012A00D11DE1A5
:10088000FF2A00D1ABE00A0027E0002A4DD0421B2E
:10089000002D00D0CCE0002B00D179E0541E012ABD
:1008A00000D128E1FF2A00D197E02200C5E0002A0C
:1008B00000DC96E000284FD0FF2D00D18FE0802192
:1008C000C9040E431B2A51DD2A00013318E0FF2D15
:1008D00000D184E08021C9040E4301211B2A08DCD9
:1008E00031002020D140821A96403200501E8241B1
:1008F00011435B1A5A0159D407212A00194049D0E3
:100900000F211940042900D00433590142D5501C4D
:10091000FE2A3AD09B01C0B25B0AC0051843E40727
:100920002043C0BCB946B046F8BDFE2080466F1CCF
:1009300038004746074200D08EE0002D00D0B4E0DA
:10094000002B00D1DBE0002E6CD0981B450100D4B9
:10095000F7E00C00F31A3DE0002E1BD0511E012AD7
:1009600000D182E0FF2A3AD00A00ABE73100202014
:10097000D140821A96403200501E82410A439B1891
:100980005A01B9D56A1CFE2D75D1FF200023C4E79A
:100990000C003300DB08FF2A46D1002BF5D0802263
:1009A000D20313435B02FF205B0AB6E79F01BF0936
:1009B000380002F0E7FB05388740854224DC3B0025
:1009C0002021421B0132D3408A1A97407A1E974158
:1009D00000223B43590793D197E70C003300DB0813
:1009E000DBE7002A14D0421B002D4BD1002BD0D0C6
:1009F000511E012A00D19EE0FF2AEFD00A001B2AD7
:100A00005FDD0200731C7BE7504B2A1A3B40E1E795
:100A1000FE216A1C11423BD1002D5DD1002B7FD0FD
:100A2000002E7FD10022DB085B025B0AD0B274E7A4
:100A3000FF28D2D08024E404234301241B2A07DCAE
:100A40001C002025D440AA1A93405A1E93411C43EF
:100A5000331B05000C004DE79F1B7A0122D4002FA9
:100A6000A6D100240020002357E79B19012501325D
:100A7000590100D440E70121354819405B08034083
:100A80000B43A7E7FF28A9D08021C9040B43B6E791
:100A9000FF2A00D179E79B195B08590700D02FE79F
:100AA000DB08C1E70C00F71A82E7002B2CD1002EDF
:100AB00093D180230024FF20DB032EE701259B1B1D
:100AC00018E719002025D140AA1A93405A1E9341D5
:100AD0000B4305009B1953E7002B00D17EE7002E46
:100AE00000D17CE78022D203914502D3944500D205
:100AF0003300DB0853E70C00F31A0135FAE6002E49
:100B0000AFD00C0033008DE7002E00D167E78022C4
:100B1000D2039145EDD39445EBD20C003300E8E7C6
:100B200033007FE79B1900225901B9D5074A1340CA
:100B3000DB08012278E79B190132013559019AD46B
:100B4000DAE6031E8DD0DB086EE7C046FFFFFFFB31
:100B5000FFFFFF7DF0B54F464646D6464402C0B57E
:100B600047000E1C640A3F0EC50F002F3CD0FF2F1C
:100B700042D00023802299469A46E400D2041443CE
:100B80007F3F73025B0A984673001B0EF60F002B23
:100B90001BD0FF2B13D042468021D200C904114341
:100BA000884600207F3B2900FF1A4B467140C9B29E
:100BB0000F2B00D9B5E0744A9B00D3589F4643469B
:100BC000002B3FD1FF3F023303E04346002B2DD1E2
:100BD000012329004A467140C9B21A430E2A38D867
:100BE0006A48920082589746002C13D104239946F4
:100BF000033B00279A46C4E7002C05D108239946F9
:100C0000063BFF279A46BCE70C239946093BFF2782
:100C10009A46B6E7200002F0B5FA7627431F9C40BB
:100C200000237F4299469A463F1AAAE7404602F0BF
:100C3000A9FA4246431F9A4076235B421B1A90460C
:100C40000020B0E703234A461A4391460320FC33B1
:100C5000A9E70D00FF200022C005ED07104328433F
:100C6000E0BCBA46B146A846F0BD0D000020002207
:100C7000F2E75346022BEDD0032B33D0A046012BD5
:100C800005D100200022E7E7350003287AD03B0099
:100C90007F33002B2DDD4246520707D00F224146FD
:100CA0000A40042A02D004229446E044424612013B
:100CB00005D54246364B1A403B0090468033FE2B0A
:100CC000C8DC42469201520AD8B2C5E7802200250C
:100CD000FF20D203C0E78022D203144202D0434651
:100CE000134249D08022D20322435202FF20520AEB
:100CF000B2E70122D31A1B2BC3DC4246DA4043463B
:100D00009E37BB40591E8B411A43530704D00F2313
:100D10001340042B00D00432530129D501200022B6
:100D20009AE7424663015501AB4215D21B200022CF
:100D3000013F01261C0052005B00002C01DB9D429C
:100D400001D85B1B324301380028F3D1581E834180
:100D5000134398460D009AE71A2001225B1BE8E72F
:100D6000023B5A4253415B4235000022D8B273E73E
:100D700092010020520A6FE71A4352023500FF2009
:100D8000520A69E74446ADE700ED020840ED02086B
:100D9000FFFFFFF770B542004E024C0045026D0A9E
:100DA000120EC30F760A240EC90FFF2A10D0FF2C93
:100DB0000CD00120A2420AD1B54208D18B420FD0FB
:100DC000002A04D12800431E984100E0012070BD94
:100DD0000120FF2CFBD13543F9D14B401800F6E739
:100DE0000020F4E730B5420044024D02C30F480032
:100DF000640A120E6D0A000EC90FFF2A19D0FF28CF
:100E00000BD0002A1ED100280BD1002D27D0002C9A
:100E100034D100292FD0080030BD002D28D1002A60
:100E200001D1002CF5D08B4207D1002B23D0180024
:100E3000F2E7002C1CD1FF2814D0581E02231840C2
:100E40000138E9E70028F8D08B42F6D18242F4DC81
:100E5000EBDBAC42F1D80020AC42DDD2E5E7002C60
:100E6000DAD0EAE7002D03D18B42E6D10020D3E7A8
:100E700002204042D0E701204042CDE78B42E8D03B
:100E8000DBE7C04630B5420044024D02C30F4800C4
:100E9000640A120E6D0A000EC90FFF2A1AD0FF282D
:100EA0000ED0002A1ED100280ED1002D2AD0002CF1
:100EB0000CD08B421DD0581E02231840013810E080
:100EC000002D0DD1002A20D1002C1ED1002923D0C5
:100ED000080006E0002C03D1FF28ECD1002D17D02C
:100EE000022030BD0028E6D08B42E4D18242E2DC11
:100EF00004DBAC42DFD80020AC42F2D2002B0BD096
:100F00001800EEE7002CECD0D5E78B42D3D1F5E703
:100F100000208B42E5D0CEE701204042E1E7C04609
:100F2000F0B54F464646D64643025B0A4500C0B57B
:100F300099460F1C2D0EC60F002D00D188E0FF2D05
:100F400000D18DE08022DB00D2041A4300239146B9
:100F500098469A467F3D7C027B00640A1B0EFF0F79
:100F6000002B68D0FF2B21D08022E400D204144350
:100F700042467F3B5B1900215D1C0A2A2EDC7E4025
:100F80004246022A23DC013A012A00D9BDE00229A7
:100F90006ED001292CD100200022C005F607104395
:100FA0003043E0BCBA46B146A846F0BD2B00FF3343
:100FB000002C65D00322414611433200013588469A
:100FC0007A40FF350A2900DDD8E0160003214046AB
:100FD00001228240A620C000024220D05346022BAC
:100FE00046D0032B00D1BBE051464C460129D2D05C
:100FF0002B007F33002B70DD620704D00F222240CC
:10100000042A00D00434220103D5634B1C402B007A
:101010008033FE2B2CDCA201520AD8B2BDE790200F
:101020008000024227D1B938FF3810426DD03E000F
:10103000A1468A46D2E7002C41D1012342461A43F9
:1010400090462B00424601215D1C0A2A97DDC5E728
:10105000002B26D104239846033B00259A467AE7C5
:10106000002B18D108239846063BFF259A4672E7C5
:10107000FF20002291E780220026FF20D2038CE788
:1010800041460222013511438846FF350A29A5DC75
:1010900002217E4074E70C239846093BFF259A46BF
:1010A00059E7180002F06EF84A46431F76259A4029
:1010B00000236D42914698469A462D1A4BE7200030
:1010C00002F060F84246431F9C402B1A763B0021F9
:1010D0005D1C0A2A00DC52E780E70122D31A1B2B91
:1010E00000DD58E79E352200AC40DA40631E9C418B
:1010F0002243530704D00F231340042B00D00432A3
:10110000530137D50120002247E7210C4A46240429
:10111000240C2700100C1204120C4443574348437C
:1011200051433A0C09195218944203D980214902BB
:101130008C4660443F0411043F0CC9198C01671EA2
:10114000BC41120C890E12180C4392011443120177
:101150000ED5012362081C40144349E73E00A14616
:1011600080224B46D2031A435202FF20520A14E750
:101170001D003DE792010020520A0EE70F29EDD134
:1011800080224B46D2031342EAD01442E8D13E00FB
:10119000FF20224301E7C046FFFFFFF74102420064
:1011A000C30F490A0020120E7E2A03DD9D2A02DDAC
:1011B000094A98187047802000040143952A07DCEB
:1011C0009620821AD1404842002BF3D10800F1E763
:1011D000963A9140F7E7C046FFFFFF7F70B50028C1
:1011E00013D0C317C5185D40C40F280001F0CAFF13
:1011F0009E2301001B1A962B0FDC082834D00839D7
:101200008D406D026D0AD8B202E000240020002556
:10121000C0052843E407204370BD992B16DC421F0C
:10122000052800D095402A00114802406E0709D0D9
:101230000F263540042D05D00432550102D59F23D9
:1012400002405B1A9201550AD8B2E1E70522121A50
:101250002800D040020008001B3085402800451EB1
:10126000A84102431500DEE76D0296206D0ACFE724
:10127000FFFFFFFBF0B557464E464546DE46E0B55C
:1012800083B0009001910C034F00CE0F610A009CC7
:101290001D03640F0C43009900920193C80059008C
:1012A0004B0D9946009A019B6D0AD90F530F2B43A2
:1012B0009A46009B7F0DDA0094464A46B046BA1A19
:1012C0008E4200D1B0E0002A00DC78E049460029D7
:1012D00000D1E9E0C9498F4200D195E10125382AC2
:1012E00016DC8021534609040B439A461F2A00DD71
:1012F000E7E1202155468B1A61469D40D1400D43C0
:10130000614699404B1E99415346D3400D43E41A20
:10131000451BA84280414042241A230200D40FE119
:101320006402640A002C00D139E1200001F02AFF98
:101330000300083B20212800CA1AD0409C4002002C
:101340009D4022439F4200DD73E1D81B0130091A02
:101350002C008D40C4406B1E9D411300C2408B4049
:101360002543002714001D436B0709D00F232B4092
:10137000042B05D02B1DAB42AD416D4264191D00FD
:10138000230200D42DE19D4A0137974200D1D3E0DA
:1013900046469B49ED0821404A072A437C054D02F9
:1013A0002D0B640D24052C43F60734431000210057
:1013B00003B0F0BCBB46B246A946A046F0BD002A29
:1013C00000D184E04A46D21B002F00D06DE12500F9
:1013D000054300D127E1561E012A00D13BE2874D8B
:1013E000AA4200D16AE20125382E12DC32001F2AFF
:1013F00000DDF8E120262500B61A07005346B0406C
:10140000D440B540D740461EB0411B1B9A463D43D1
:1014100005436246551BAC459241534652420E006D
:101420004F4688469C1A78E7002A00DC8EE0494641
:10143000002975D161465346194300D1F6E0511E8B
:10144000012A00D191E16D4DAA4200D1DCE00125D5
:10145000382914DC0A001F2A00DDA2E120215346AE
:10146000891A8B401D006346D3401D4363468B4061
:1014700019004B1E99415346D3400D43E4182D18D3
:101480008542804140422418230259D55B4B0137E5
:101490009F4251D001215A4B6A081C4029400A43FF
:1014A000E507154364085FE761465346194300D1D9
:1014B000BCE0511E012A00D164E1504DAA4200D186
:1014C0006AE10125382900DD22E70A000EE74D4ACE
:1014D0007D1C154200D0D0E02500624653460543EE
:1014E0001A43002F00D037E1002D00D1A8E1002AD7
:1014F00000D16AE16346C51A5346E21AA8429B41ED
:101500005B42D31A1A0200D403E263461D1AAC45AB
:101510009241534652421C1B0E008846A41A23E7F0
:1015200036498F4270D00125382AA8DC80215346E5
:1015300009040B439A468EE73C000025002231E760
:1015400007232B40002B00D010E793E0002A74D033
:101550004A46D21B002F00D1C7E02849894500D157
:1015600085E10125382A12DC802109040C431F2A59
:1015700000DDABE120212500891A070088408D405D
:10158000D740411E8841D4403D430543A2446544B1
:10159000654592415242524414004F4674E7280078
:1015A00001F0F0FD030018331F2B00DCC2E62A0017
:1015B000083882409F4200DDA9E0DB1B581C1F2831
:1015C00000DCACE115001F3BDD40202805D04023A6
:1015D0001B1A9A40531E9A411543072300272B409C
:1015E000B0E7ED08054B62072A43E4089F420FD09D
:1015F0002403250B7C05640DD4E6C046FF070000DC
:10160000FFFF7FFFFE070000C00862070243E408F7
:101610001300234300D186E180252D0325432D03AC
:10162000C34C2D0BBEE6604654460E001700C5089D
:10163000D8E7C04CFF1A144096E6BF4A791C114205
:101640006BD122000243002F00D0DBE0002A00D142
:101650002DE1624653461A4300D1B6E06346C518F1
:1016600085428041544440422418230202D50F0091
:10167000B04B1C403A002800D8E76246851AA842C1
:101680009241534652429146E31A1A004B46D21AEF
:10169000130091461A0254D44A464C462A4300D0BD
:1016A00040E60026002400257CE6A14DA94500D196
:1016B00090E00125382A00DDABE680252D042C437F
:1016C00095E6110055462039CD40A946202A06D07E
:1016D000402153468A1A934062461A43944665460F
:1016E0006B1E9D414B461D4312E62100014300D174
:1016F000C4E0511E012A00D1FBE08D4DAA4200D169
:10170000B5E00125382900DD41E70A002FE7894CC3
:10171000FF1A14406207E4086AE7854A914200D143
:10172000E3E06346C21882428041230040425344B2
:101730001B18DD075C080723520815430F002B40D8
:1017400000E763461D1AAC459241534652421C1BAA
:101750000E008846A41AE5E5002D00D091E0002A8D
:1017600038D180240026240356E76346C5188542F5
:1017700080415444404224180127230200D4DFE66C
:10178000022787E66346C51AA84280415346404275
:10179000E41A0127241AC0E56207C0080243E408DE
:1017A00036E7110053462039CB409946202A06D00F
:1017B000402153468A1A934062461A43944665462E
:1017C0006B1E9D414B461D4359E66207C00802430C
:1017D000E4080DE753465A076346D80853460E00FF
:1017E0000243DC0814E715002600203DEE40202AC5
:1017F00003D04025AA1A94402043421E9041050080
:10180000354306E6002A7CD062465346C0081A4398
:1018100000D1FAE6620710438022E4081203144262
:1018200008D0D908114205D16346D80853460C00A8
:101830005B071843420FC000C00852070243E7E6A7
:10184000002A00D12DE76346D80853465A070E00F8
:101850000243DC08CCE663461D1AAC459241534670
:1018600052421C1B0E008846A41A013755E56346F8
:10187000D90853465A070A43DC08C9E6604654466D
:10188000D4E6C008002A00D1BFE6620710438022D8
:10189000E40812031442CDD0DD081542CAD16346D4
:1018A000D80853465B070E002C001843C2E7634676
:1018B000D90853465A070A43DC0899E66346D80814
:1018C00053465A070E000243DC08A1E61100270028
:1018D0002039CF40202A03D040218A1A9440204347
:1018E000421E904105003D4351E60C0000250022B8
:1018F00058E5604460459241544452420500A418A2
:101900003AE753465A076346D90853460A43DC0868
:101910007EE61A001C002A4300D0ABE6C1E6202177
:101920000025091A19E500220025014C3AE5C046B8
:10193000FF070000FFFF7FFFFE070000F0B5DE4657
:10194000454657464E46E0B587B0009201930B03DB
:101950001B0B9B46CA0F4B00040080465B0D029296
:1019600000D16AE1D44A934200D18CE15946420F3A
:10197000C9000A43802109041143C2009046CF4A9E
:10198000894692469A44002300240393009E019FB7
:101990003B031B0B9B467B0030005B0DFD0F002BB8
:1019A00000D128E1C44A934200D177E15946720F31
:1019B000C9000A438021090411438B46BF49F20044
:1019C0008C4651466344CB1A9A460023029E6E40D1
:1019D0000F2C27D8BA49A40009598F46CB46424656
:1019E000029E039B022B16D0032B00D1A6E2012BF3
:1019F00000D0DFE000220023002490461B05234393
:101A0000F60733434046190007B0F0BCBB46B24668
:101A1000A946A046F0BD002200249046A64BEDE763
:101A20002E00DFE7CB4500D2D4E100D1CFE1012386
:101A30005B429C46444648460027E2445B46150EFE
:101A40001B021D43190C2B04120200951D0C91461C
:101A500002910395FEF704FC02006A430B04210C7B
:101A6000804619438A4209D9009D0123AC465B4256
:101A700061449C46E0448D4200D8FBE1881A0299FB
:101A8000FEF7EEFB039A240442430904240C0300EE
:101A90000C43A24206D90099013B8C466444A14202
:101AA00000D8E1E1A01A424612041A4393464B467D
:101AB00059461B0C1D0004930B0449460904090CEC
:101AC0000C001B0C5C43120C6B43884651436A4369
:101AD000250CAC465B186344994203D98021490226
:101AE0008C466244190C24041B04240C8A181C190B
:101AF000904202D316D1A74214D25B46009D013B0F
:101B00004F4405934F459B41AC465B426344C0182C
:101B1000854200D3A1E1824200D9F6E100D1F1E192
:101B2000059B9B463C1BA742BF41009D801A7F42FC
:101B3000C01B854200D1D0E10299FEF791FB039AC8
:101B40000B044243210C070019438A4200D978E173
:101B5000881A0299FEF784FB039A2404424309047D
:101B6000240C03000C43A24200D95DE14146A41AB3
:101B70003A041A43049D13041B0C594347466B4314
:101B80009C46100C47430B0CBC44634468439F4283
:101B900003D980256D02AC4660441F0C09041B0468
:101BA000090C3F185B18BC4200D202E100D1FDE0F5
:101BB00001231A43434B5344002B00DCAEE0510792
:101BC00000D098E15946C90106D559463E4B194007
:101BD00080238B46DB0053443C498B4200DD1AE7EF
:101BE0005946D208490711435A465B0554028846B4
:101BF000240B5B0D02E75A46009B1A4300D17EE09E
:101C00005B46002B00D100E1584601F0BBFA020010
:101C100003000B3A1D27009EBA1A19005846D640F9
:101C200008398840320002439346009A8A40284986
:101C300053448A469A440023C8E65B4603439946C8
:101C400056D05B46002B00D1CDE0584601F09AFA01
:101C50000B235B429C460200844466461D239B1B6B
:101C6000260011005846DE400839884033000343FF
:101C7000994623008B409846164B00249B1A9A469F
:101C80000023039382E65A46024391462AD100225A
:101C90009A46022390460824039377E65A46009B0F
:101CA0001A430D4B9C46E244002A17D102231C43E1
:101CB00000239B46023389E6FF07000001FCFFFF7B
:101CC0007CED0208FF030000FFFFFFFEFE0700009F
:101CD000F30300000DFCFFFF01F8FFFF03233200B8
:101CE0001C4373E69A460323D9460C2403934DE61E
:101CF000002398469A4601330424039346E60123C1
:101D00001C4300239B46013360E600238024984651
:101D10000026924B240371E6012252420121C91A86
:101D2000382900DD66E61F2900DCABE01F204042B9
:101D3000C31A5846D8400300202904D05846884981
:101D4000514488400243511E8A411A430723190017
:101D50000024114013420CD00F231340042B00D158
:101D6000F9E0111D91429B410A005B4259075B0259
:101D70001C0BD2080A43904600233FE680244B46C2
:101D80002403234209D05B46234206D11C4324038B
:101D90002E009046714B240B30E680244B462403E2
:101DA0001C432403029E6D4B240B27E6002B00D11D
:101DB00000E70098511E84466444844200D284E0C7
:101DC000BC4200D2AEE000D1C1E00A00F0E64245DC
:101DD00000D92CE64B46DC07580843465B081C43F9
:101DE0004346DF072AE601F0CDF915239C468444DB
:101DF0000200634620321C2B00DC2EE7230008384B
:101E0000834099460023984636E701F0BBF902006B
:101E10000300153220331C2A00DCFBE60099083849
:101E2000814000228B4602E70099013B8C466444C6
:101E3000A14200D99AE6A24200D897E6831E6444E4
:101E400094E6AC466144013F8D4200D980E68A4267
:101E500000D87DE6871E61447AE6854200D05FE6C1
:101E6000B94500D95CE656E6A24200D81AE6831EC0
:101E7000644417E68A4200D800E6AC46831E9846C2
:101E80006144FBE537481400504482405B4617002C
:101E90008340CC407A1E974123433B431A005B4664
:101EA000CB40510709D00F211140042905D0111D45
:101EB0009142924152429B180A00190200D455E700
:101EC000002201230024904698E50A00BC4200D07D
:101ED0006EE64B4500D06BE66CE6234B234A534439
:101EE000924500DA18E7012149420A1D8A428941D8
:101EF00049428B4466E60F211140042900D161E676
:101F00001100F2E7BC4200D80AE602235B429C467D
:101F100000994F444F459B41E3448C465B426344E8
:101F2000C018FFE54946009D480048458941AC4638
:101F3000494261448146023A6418C7E780245B46FF
:101F400024031C4324039046044B240B56E5994577
:101F5000E8D30A00BDE7002308E7C046FF070000FA
:101F60003E0400001E040000FF03000002FCFFFF0F
:101F7000F0B55746DE464E464546E0B50D00040036
:101F8000E80F83460903D80F090B824619488C468F
:101F90001F0369005E00490D3F0B760D814218D08A
:101FA00086420FD00120B1420DD1BC450BD19442E5
:101FB00009D1D3451CD0002905D160462043431EDA
:101FC000984100E00120F0BCBB46B246A946A046BD
:101FD000F0BD01208E42F6D1614639430F00174310
:101FE0002743F0D15B465246981A431E9841EAE7D0
:101FF0000020E8E7FF070000F0B557464E4645468B
:10200000DE46E0B50D000F03390B83B004008046B7
:1020100001915800E90F314F400D8C466E001903B5
:1020200082469146760D090BD80FBE421FD0BA45A5
:102030000FD0002E2FD15546019E3443002D27D1BD
:102040000A433AD0002C45D100281AD10120404241
:1020500017E011433BD1002E02D1019F2743F3D05B
:10206000844509D16346002BF0D0604609E0019F0A
:1020700027432CD1B24524D063460220013B1840AF
:10208000013803B0F0BCBB46B246A946A046F0BD3D
:10209000002CD9D0E4E75446002CEDD08445EBD198
:1020A0005645E9DCDEDB019B8B42E5D8DAD1C84539
:1020B000E2D80020C845E4D2D4E70020002CE0D0CC
:1020C000DAE7114303D18445D6D10020D9E70220B5
:1020D0004042D6E78445E6D0CEE7C046FF07000081
:1020E000F0B557464E464546DE46E0B50D000F03B7
:1020F00004008046E80F390B844683B05800304F07
:10210000400D01911E03690082469146490D360B30
:10211000D80FB94220D0BA450FD000292BD1019950
:102120000C435146002937D1324338D0002C44D1DA
:10213000002819D10120404216E0164313D100298E
:1021400002D1019F2743F3D0844520D0634602206B
:10215000013B1840013807E0019F274303D18A451E
:10216000F4D116431FD0022003B0F0BCBB46B246E8
:10217000A946A046F0BD5446002CE7D08445E5D1E1
:102180005145E3DC03DB019BB342DFD80FD063464C
:10219000002BCFD06046E7E7002CC9D0D4E7002061
:1021A000002CE1D0D2E78445D0D10020DCE7C8453F
:1021B000CCD80020C845D7D2E9E78445E3D0C5E7AD
:1021C000FF070000F0B55746DE464E464546E0B5EF
:1021D0001F000B031B0B16009A46CA0F4B0004008E
:1021E000934687B05B0D00D1D5E0BB4A934200D146
:1021F000F8E05146420FC9000A4380210904114307
:10220000C2009146B54A8A469D180023984602931B
:102210003C037B00FA0F3000240B5B0D009200D1D1
:1022200096E0AD4A934231D0720FE40022438024FD
:1022300024041443A94AF000944663445B195A1CD1
:102240000192424600260A2A42DC5A4600994A4038
:1022500093464246022A32DC013A012A00D949E17A
:10226000022E00D1CAE0012E3DD10023002400221D
:1022700010005A461B052343D2071343190007B029
:10228000F0BCBB46B246A946A046F0BD924B2643E1
:10229000EB18002E00D1BBE00322414611435A4601
:1022A000884600994A40802109018C4629006144F2
:1022B000019141460A2900DD33E293460326424656
:1022C00001279740A6213A00C9000A400F4231D0A9
:1022D000029E022E00D135E2032E00D1D2E15446F7
:1022E0004846012EC1D0019A7D4B94466344002B91
:1022F00000DCC0E0420709D00F220240042A05D0CA
:10230000021D82428041404224181000E20106D59D
:10231000744B019A1C4080239446DB006344724A4C
:1023200093426BDC6207C00864025B050243240B26
:102330005B0D9DE7902189000F4263D188223A42CC
:1023400000D1D7E0009BA2469B4681460296BFE79C
:102350002300334300D17FE0002C00D1ADE1200009
:1023600000F010FF020003000B3A1D201900821A32
:1023700030000839D0408C400443300088405B4A2C
:10238000EB1A944663445A1C0192424600260A2ADC
:1023900000DC5AE79CE753460343994654D0534622
:1023A000002B00D177E1504600F0ECFE0B235B429E
:1023B0009C460200844411005046083988401D2381
:1023C000804660461B1A2000D84003004046034365
:1023D0009A4623008B4099460023444D9846AD1AF7
:1023E000029315E752460243914626D100221D0072
:1023F0000223924608329046029309E70024002205
:10240000354B35E7002380249B462403324B2FE7CE
:102410000222414611438022120194462A0062445E
:10242000884601920A2900DD52E75A4600200099A9
:1024300004004A40934602260BE70C221D000323AA
:10244000814690460293E3E600239A460433984679
:10245000033B00250293DBE6424601331A432B007F
:1024600090465A1C019242460024002001260A2A66
:1024700000DCEAE62CE70122D21A382A00DDF4E675
:102480001F2A00DC2AE11F214942CB1A2100D94032
:102490000B00202A05D0164A019D94466544AC40A5
:1024A0002043421E90411843072319000024014095
:1024B00003420CD00F230340042B00D140E1031D45
:1024C0008342A4411800644261076402240BC208DD
:1024D00000230A43CCE6C046FF07000001FCFFFFD3
:1024E000FF030000FFFFFFFEFE0700000DFCFFFFE3
:1024F0003E04000049464A460904090C0D00160C2A
:10250000020C0004000C4543AC4605007543A84688
:1025100015000F007543009202952A00009D6F433D
:1025200065462D0CA94647444F44B84505D91500CA
:10253000802252029046454402953D0C0395654623
:102540002D043F042D0CAC463D0065440495250C3C
:102550002404240CAC4625007543A84665460F00AC
:102560006943414489466743390C49446E43884571
:1025700003D980225202904646440D0CA8463500ED
:1025800045440595039D3F04A8463F0C0904C9191D
:1025900088444546039555462E04360C2F0C3500CD
:1025A0004543784381463800A8462D0CAA46009A38
:1025B000504372434A445244914503D980256D02E9
:1025C000A9464844150CA94645462D042D0CA8469D
:1025D00065467D43120448449044A946320065464E
:1025E00062436E437C43170C3619BF19BC4203D9B2
:1025F00080246402A446E144029C039EA446059DF7
:1026000066448E428941AC4612043C04120CA21866
:102610006244494254184644A4464645A441824671
:102620006442A046AA4292418C458941E244D0448A
:10263000494252420A43A045A4418245894164422D
:1026400049420C4341463F0CD2191219CC0D049952
:1026500070020843411E884141464A44F60D520229
:102660003043490214430843D20135D501224308BF
:1026700002401343E0071843640834E6009BA24677
:102680009B4681468024534624031C4324034A4628
:102690002E4B240BECE500F075FD15239C4684447D
:1026A0000200634620321C2B00DC84E6002399469E
:1026B0002300083883409A468EE600F063FD02004E
:1026C0000300153220331C2A00DC4EE602003400E1
:1026D000083A0020944052E6019304E61C4B210086
:1026E0009C460300019DD3406544A9401943030063
:1026F000AB40581E834119430800D4404B0709D012
:102700000F230B40042B05D00B1D8B428041404210
:1027100024181800230200D4D6E601230024002246
:10272000A6E50F29AAD1802352461B031A42A9D03D
:102730001C42A7D11C43009B02009B46034B97E51C
:102740000024C1E60024014B220091E5FF070000B0
:102750001E040000F0B54E464546DE465746E0B53D
:1027600085B0009001910C034F00CE0F610A009CD0
:10277000B046640F0C4300997F0DC80011001A0089
:102780001B039C460091019251004B0D9946019B01
:10279000009DD90F63466A0F5B0A1343EA00944613
:1027A0009346C14A03900293914500D1CDE00125A3
:1027B00069404D467D1BAA468E4200D180E0002D27
:1027C00000DC35E34946002900D1DFE0974200D123
:1027D00094E152460125382A19DC8022029B12041A
:1027E0001343029352461F2A00DDE3E153462022A1
:1027F0006146029DD21A9540D9400D4361469140F1
:102800000A00511E8A411543029ADA40A41A451B58
:10281000A84280414042241A230200D43DE16402D0
:10282000640A002C00D147E1200000F0ABFC03005B
:10283000083B20212800CA1AD0409C4002009D403D
:1028400022439F4200DD77E1D81B0130091A2C009A
:102850008D40C4406B1E9D411300C2408B402543F8
:10286000002714001D436B0709D00F232B40042BB6
:1028700005D02B1DAB42AD416D4264191D002302F2
:1028800000D440E1884A0137974200D101E1012696
:1028900043468649ED0821404A072A437C054D02FC
:1028A0002D0B640D1E4024052C43F6073443100005
:1028B000210005B0F0BCBB46B246A946A046F0BD1B
:1028C000002D00DCD0E24946002900D0D4E061466A
:1028D000029B194300D12BE1691E012D00D1D9E1E2
:1028E000954200D10AE10125382917DC8A46534672
:1028F0001F2B00DDE7E12022D21A029B61469340A4
:102900001D005346D940634693401A000D43511EA3
:102910008A4153461543029ADA40A4182D1885427D
:10292000804140422418230200D4B6E05E4B0137B8
:102930009F4200D1ADE001215C4B6A081C40294058
:102940000A43E507154364088DE7594A029B9246FE
:102950006246BA441A432CD08E422ED05246002AE8
:1029600060D0002F00D1DBE063460E00029CD80847
:1029700062070243E4081300234300D154E2802598
:102980002D0325432D03484C2D0B8CE76146029BFC
:10299000194300D1CCE029000139012D00D188E193
:1029A000954200D1AAE00125382900DD2FE78A46AB
:1029B00018E7012251408E42D0D15346002B00D15E
:1029C000BEE0002F00D038E1CA462200024300D109
:1029D000E2E15346591E012B00D10DE2324A9245E5
:1029E00000D1D2E10127382913DC1F2900DDEEE1F7
:1029F0002022029B521A250007009A46CC409040A4
:102A00009540CF40A244421E904153462F43074376
:102A100002933D00654465459241029B52424F46F8
:102A2000D41880E7234A7D1C154200D0AAE06246F4
:102A30002500029B05431A43002F00D0F5E0002D2E
:102A400000D16BE1002A00D152E16346C51A029B16
:102A5000E21AA8429B415B42D31A1A0200D4D5E184
:102A600063461D1AAC4592410126029B52421C1B33
:102A70008846A41A0E40F6E697423FD052460125FA
:102A8000382A00DD4AE78022029B12041343029396
:102A90002DE73C000025002205E707232B40002BF3
:102AA00000D0E2E66BE0C046FF070000FFFF7FFFBB
:102AB00001F8FFFFFE070000280000F063FB0300A1
:102AC00018331F2B00DCB4E62A00083882409F42EE
:102AD00000DDB9E0DB1B581C1F2800DCA0E115005D
:102AE0001F3BDD40202805D040231B1A9A40531E6F
:102AF0009A411543072300272B40D0E7C0086207FF
:102B00000243E40837E7EA0863071A43D34BE408B3
:102B10009F4200D12FE72403250B7C05640DC2E6FC
:102B2000CA462200024358D163460E00029C03931A
:102B3000039B5746DA08E7E7C94CFF1A144092E6B0
:102B4000C84D7A1C2A4200D084E022000243002FA4
:102B500000D0EFE0002A00D1E5E0624602990A4386
:102B600000D1C5E06346C5188C4685428041644467
:102B700040422418230202D5B94B01371C40BA4603
:102B80000395D5E76246851AA84292415242914682
:102B9000029BE31A1A004B46D21A130091461A02FE
:102BA0006CD44A464C462A4300D03AE6002600241C
:102BB000002578E6029953460D00203AD540202B97
:102BC00006D04022D21A0B00934062461A43934625
:102BD0005B465A1E93411D4319E653465A1E012B6C
:102BE00000D1C6E09D4EB24500D1BDE688460E003C
:102BF0000125382A10DC1F2A7FDC20212500891AB4
:102C0000070088408D40D740D440411E8841029B38
:102C10003D431B1B054302936246551BAC45924145
:102C2000029B52424F469C1AF6E5002D00D0B7E0B9
:102C3000002A00D1F0E001260E4063460298D90830
:102C400042070A43C40896E6854CFF1A14406207FF
:102C5000E40860E781498A4200D1C9E06346C118AF
:102C600081428041029B4042E3181B18DD075C084B
:102C7000072349080D4317002B4010E763461D1A30
:102C8000AC4592410126029B52421C1B8846A41A65
:102C90000E40C6E56346C518029B854280419C46AE
:102CA0004042644424180127230200D4F5E6022799
:102CB00041E66346C51AA8428041029B4042E41A9D
:102CC0000127241AA8E5029D52462B00203AD34042
:102CD00019005346202B06D04022D21A2B009340D5
:102CE00062461A4393465D466B1E9D410D4315E6B1
:102CF0006207C0080243E4080DE7110027002039ED
:102D0000CF40202A05D040218A1A9440250005434F
:102D10000395039D6A1E95413D437DE7002A00D13E
:102D200044E701260E406346D908029B5A070A432E
:102D3000DC08F0E6002A28D06246029FC0083A4329
:102D400000D1DCE6620710438022E408120314423B
:102D500009D0FD08154206D1634601262C00D8088B
:102D60007B0718430E40420FC000C00852070243C1
:102D700001E663461D1AAC459241029B52421C1B60
:102D80000E0088460127A41A46E56346D908029B2F
:102D90005A070A43DC08EEE56346029C0393C7E644
:102DA000C008002A00D1AAE6620710438022E40886
:102DB00012031442D7D0029FFD081542D3D16346B7
:102DC0000126D8087B072C0018430E40CBE70A00E9
:102DD0002700203AD740202905D04022521A94409B
:102DE000250005430395039D6A1E95412F4310E678
:102DF00014000025002256E5029B60449946604578
:102E000092414C4452420500A4184CE71A001C00A1
:102E10002A4300D0B3E6C9E6802400262403AEE5A9
:102E200020210025091A17E5002200250B4C3AE560
:102E3000002D00D1F6E54B46DA1B9246002F00D15B
:102E40006FE6382A05DC80263604344388460E00B7
:102E5000D1E688460E000125DEE6C046FF070000E9
:102E6000FFFF7FFFFE070000002D00D168E64B4604
:102E7000D91B002F01D18A46A7E50127382900DD9B
:102E8000C7E5802212041443AFE5C046F0B5C6463C
:102E90001E03360BB0460D4E0C034D005F0000B50F
:102EA000240B6D0D7F0DB5420BD0084900208F42D9
:102EB00004D1464616433000431E984180BCB846B4
:102EC000F0BD04430120002CF8D1EEE7FF0700001D
:102ED0000B00020070B5164D0C0382B049000020B3
:102EE00000920193240B490DDE0FA94204DD114825
:102EF000814203DD104BF01802B070BD802040030A
:102F000020430E4C641A1F2C08DD0D4B5B1AD84071
:102F100003005842002EEFD11800EDE7094B009A4C
:102F20009C46030061448B40E2401343F1E7C046F6
:102F3000FE0300001D040000FFFFFF7F33040000BC
:102F400013040000EDFBFFFF70B5002816D0C31777
:102F5000C5185D40C40F280000F014F9104B1B1A6F
:102F60005B055B0D0A2814DC02002E00153296402A
:102F70000B22121AD5402D032D0B03E00024002351
:102F8000002500261B052B43E407234330001900CE
:102F900070BD0B3885402D0300262D0BF2E7C0468F
:102FA0001E04000010B5041E10D000F0EBF80E4B0C
:102FB0001B1A5B055B0D0A280FDC0B222100121A7D
:102FC000D14015300A038440120B01E00023002297
:102FD0001B0513432000190010BD22000B3882404E
:102FE00012030024120BF3E71E04000070B5420226
:102FF0004300C40FFE201B0E591C550A08420CD07A
:10300000E02189008C466D07120B63441B051343B6
:10301000E40723432800190070BD002B14D1002DB4
:103020001BD0280000F0AEF80A281CDC0B232A0075
:103030001B1ADA40030015339D400E4B12031B1A76
:103040005B05120B5B0DE1E7002D09D0130B80220D
:1030500012031A436D07084BD8E700230022D5E777
:103060000022054BD2E703002A000B3B9A400025C3
:10307000E3E7C04689030000FF070000F0B54B00FE
:103080000F035B0D3B4C450F83B07F0A5E1C2F4343
:1030900000900191CA0FC50026420BD036495C183A
:1030A000FE2C13DDFF200023C0051843D207104378
:1030B00003B0F0BD002B02D100200023F4E73D4314
:1030C000F0D08023DB03FF203B43EDE7002C14DD31
:1030D000009BFF009B01581E8341690F3B430B433C
:1030E000590741D00F211940042928D00433590130
:1030F00025D501340023E0B2D6E721001731DBDB10
:1031000080211E2009043943001B1F281BDD0226D5
:103110007642341B0E00E6403400202804D01748C5
:103120008446634499400D432B00591E8B41234331
:10313000590715D00F2100241940042917D19B01EC
:103140005B0AE0B2B0E70E4C1C192B00A540C3404F
:10315000A140681E854129430B4300245907C1D172
:103160009B0100205B0A9FE7DB08E0B29CE7043389
:10317000E5E7C046FE07000080FCFFFFA2FCFFFF62
:1031800082FCFFFF1C2101231B04984201D3000C89
:1031900010391B0A984201D3000A08391B099842CA
:1031A00001D30009043902A2105C40187047C046E0
:1031B0000403020201010101000000000000000000
:1031C00010B5002903D1FFF7DDFF203002E0080031
:1031D000FFF7D8FF10BDC04680B500AFBFF34F8FDB
:1031E000C046044B044ADA60BFF34F8FC046C04666
:1031F000FDE7C04600ED00E00400FA0580B500AF31
:1032000000F010F800F042F800F0ACF800F03AF9E5
:1032100000F04CFA00F0BCFB00F04CFCC046BD4690
:1032200080BD000080B582B000AFFB1D00221A7087
:10323000BB1D01221A7019E0BB1D1B789BB2013324
:1032400098B2BB1D1B78013B5A000E4BD3181900D6
:103250000FF0B1FABB1D1B78192B02D9FB1D0A22F6
:103260001A70BB1D1A78BB1D01321A70064B1B78F1
:10327000BA1D12789A42DFD9FB1D1B781800BD4693
:1032800002B080BD801000209800002090B583B06F
:1032900000AFFB1C00221A70BB1D00221A803B00ED
:1032A00000221A807B1D00221A704BE03B1D012278
:1032B0001A7033E0BB1D1B881C339BB23A0011000F
:1032C00018000FF078FA3B0018887B1D1A783B1D18
:1032D0001978C4B2214813009B009B185B00C318E7
:1032E000221C5A543B001B881B0A98B27B1D1A787B
:1032F0003B1D1B78591EC4B2184813009B009B1835
:103300005B00C318221C5A54BB1D1A88BB1D013216
:103310001A803B1D3A1D127802321A703B1D1B7831
:10332000092BC7D97B1D1A780C4913009B009B18E9
:103330005B00CB18093300221A707B1D1A787B1DA5
:1033400001321A70064B1B787A1D12789A42ADD959
:10335000FB1C1B781800BD4603B090BD5810002020
:103360009800002090B583B000AFFB1C00221A70BB
:10337000BB1D00221A803B0000221A807B1D002208
:103380001A707B1D00221A7015E0BB1D1B88CB3301
:1033900098B27B1D1B785A00374BD31819000FF0D9
:1033A0000AFABB1D1A88BB1D01321A807B1D1A78D0
:1033B0007B1D01321A70314B1B787A1D12789A42AC
:1033C000E3D37B1D00221A704BE03B1D01221A70D3
:1033D00033E0BB1D1B8899339BB23A0011001800E3
:1033E0000FF0E9F93B0018887B1D1A783B1D19780E
:1033F000C4B2234813009B009B185B00C318221C17
:103400005A543B001B881B0A98B27B1D1A783B1D3F
:103410001B78591EC4B21A4813009B009B185B000E
:10342000C318221C5A54BB1D1A88BB1D01321A80B6
:103430003B1D3A1D127802321A703B1D1B78092B76
:10344000C7D97B1D1A780E4913009B009B185B009F
:10345000CB18093300221A707B1D1A787B1D0132AC
:103460001A707B1D1B78092BAFD9FB1C1B78180029
:10347000BD4603B090BDC0467C10002098000020DF
:10348000140B0020B0B588B002AF0B23FB1800224C
:103490001A703B1D00221A80BB1C00221A800824CF
:1034A0003B1900221A80BB1D00221A8017257B19A8
:1034B00000221A7000233B610023FB603B1D1900B2
:1034C000E4200FF078F903001A003B191A803B1929
:1034D0001B88002B03D13B1D1A887B191A703B1DDA
:1034E0001900E5200FF067F903001A0008243B19C2
:1034F0001A80BB1C1900E6200FF05DF903001A00CA
:10350000BB1D1A803B191B88002B0AD1BB1D1B88D1
:10351000002B06D13B1D1B881B04BA1C12889B186C
:103520003B613B1D1900E7200FF045F903001A002D
:1035300008243B191A80BB1C1900E8200FF03BF946
:1035400003001A00BB1D1A803B191B88002B0AD1EF
:10355000BB1D1B88002B06D13B1D1B881B04BA1CFE
:1035600012889B18FB603B1D1900E9200FF023F91E
:1035700003001A0008217B181A807B181B88002B77
:103580000BD13B1D1B881B0A9BB2DAB2414B1A7050
:103590003B1D1B88DAB2404B1A703B1D1900EA2014
:1035A0000FF009F903001A0008217B181A807B1814
:1035B0001B88002B0BD13B1D1B881B0A9BB2DAB268
:1035C000364B1A703B1D1B88DAB2354B1A703B1D07
:1035D0001900EB200FF0EFF803001A0008217B1808
:1035E0001A807B181B88002B0BD13B1D1B881B0AE4
:1035F0009BB2DAB22B4B1A703B1D1B88DAB22A4BF6
:103600001A70244B1B78002B11D0234B1B78002BF6
:103610000DD0204B1D78204B1B78FC683969172290
:10362000BA18107800932B00220006F033FC1B4BD5
:103630001B78002B11D01A4B1B78002B0DD0174B89
:103640001D78174B1B78FC6839691722BA18107857
:1036500000932B00220006F01DFC124B1B78002B60
:1036600011D0114B1B78002B0DD00E4B1D780E4B3B
:103670001B78FC6839691722BA18107800932B0060
:10368000220006F007FC0B23FB181B781800BD4630
:1036900006B0B0BDA7100020A8100020A91000207F
:1036A000AA100020AB100020AC100020B0B584B0F0
:1036B00000AF0F23FB1800221A7008243A198A233E
:1036C0005B00110018000FF076F803001A000C21BF
:1036D0007B181A807B181B88002B24D13B191B8870
:1036E0001A1C03231340DAB2A44B03210A405001F1
:1036F0001A7860218A43111C021C0A431A703B1974
:103700001B881B0A9BB21A1C01231340DAB29B4B85
:1037100001210A4090001A7804218A43111C021CDE
:103720000A431A701FE0964B1B785B069B0FDAB2B8
:10373000924B03210A4050011A7860218A43111CE0
:10374000021C0A431A708E4B1B785B07DB0FDAB240
:103750008A4B01210A4090001A7804218A43111CE7
:10376000021C0A431A7008243A198E235B001100C8
:1037700018000FF020F803001A000C217B181A80A3
:103780007B181B88002B11D13B191B881BB29BB2E5
:10379000DB0BDAB2794B01210A40D0001A780821FC
:1037A0008A43111C021C0A431A700FE0744B1B78E9
:1037B0001B07DB0FDAB2714B01210A40D0001A78E7
:1037C00008218A43111C021C0A431A7008243A1962
:1037D0001623FF33110018000EF0EDFF03001A004E
:1037E0000C217B181A807B181B88002B04D13B19F5
:1037F0001A88644B1A8003E0634B1A88614B1A8065
:1038000008243A198B235B00110018000EF0D3FF37
:1038100003001A000C217B181A807B181B88002BD0
:1038200004D13B191A88574B5A8003E0564B5A88EB
:10383000544B5A8008243A191823FF3311001800FA
:103840000EF0B9FF03001A000C217B181A807B18B8
:103850001B88002B0CD13B191B88DAB2494B1A711B
:103860003B191B881B0A9BB2DAB2464B5A7107E020
:10387000454B1A79434B1A71434B5A79414B5A7154
:1038800008243A198C235B00110018000EF093FFF6
:1038900003001A000C257B191A80BA1D1A23FF3366
:1038A000110018000EF087FF03001A000A217B1890
:1038B0001A807B191B88002B0DD17B181B88002BCD
:1038C00009D13B191B881A00BB1D1B881B041A4316
:1038D0002C4B9A600CE02D4B1B78002B04D0294B0D
:1038E000E12252029A6003E0274B9A68254B9A60C6
:1038F00008243A198D235B00110018000EF05BFFBD
:1039000003001A000C217B181A807B181B88002BDF
:103910000CD13B191B88DAB21A4B1A733B191B885E
:103920001B0A9BB2DAB2174B5A7305E0154B1822EB
:103930005A73144B00221A7308243A191C23FF33BC
:10394000110018000EF037FF03001A000C217B183D
:103950001A807B181B88002B05D13B191B88DAB213
:10396000084B9A7603E0084B9A7E064B9A760F2313
:10397000FB181B781800BD4604B0B0BDA010002095
:10398000A4100020841000209C000020A61000201D
:1039900080B582B000AFBB1D00221A703B00002230
:1039A0001A803B1D00221A80FB1C00221A70FB1D8E
:1039B00000221A7071E0FB1D1B783B339BB29B0009
:1039C0009BB23A00110018000EF0F5FE03001A0039
:1039D0003B1D1A803B1D1B88002B59D13B001B88C7
:1039E0001B0A9AB2FB1C1A70FB1C1B781B09DBB26A
:1039F0001A00FB1D1B7801339A4249D1FB1C1B782E
:103A00000F22134044D0FB1D1B785A1CFB1C1B7853
:103A10000F210B40D8B2264913005B009B18CB182E
:103A20000133021C1A703B001988FB1D1B785A1CBD
:103A3000C8B21F4913005B009B18CB180233021C4D
:103A40001A70FB1D1B785A1C194913005B009B1848
:103A5000CB1801331A78FB1D1B780133DBB2190038
:103A600010000FF08DFDFB1D1B780133D8B2FB1D3C
:103A70001B785A1C0E4913005B009B18CB180233AD
:103A80001B7801221340DBB2002219000FF07AFFED
:103A9000FB1D1A78FB1D01321A70FB1D1B78062BCB
:103AA00089D9BB1D1B781800BD4602B080BDC04639
:103AB000C028002090B585B000AF0F23FB1800226E
:103AC0001A706F4BBB60322021F044FD03003B6055
:103AD0003B68002B01D1FB23CEE0BB681B78FE2B9B
:103AE00001D0FF23C8E0FB1D00221A70B8E00F23AD
:103AF000FB1800221A7010E0BB685A1CBA6019004B
:103B00000F203B181B783A68D3180A78D2B21A7083
:103B10003B181A783B1801321A700F243B191B7896
:103B2000132BE9D9FB1D1A7813009B009B189B00EF
:103B3000544A98183B6801331422190023F059FAAB
:103B40003B6814220021180023F02BF93B190022B6
:103B50001A70BB681433BB600FE0BA680F203B18C3
:103B60001B783968CB1812781A70BB680133BB60B8
:103B70003B183A18127801321A70BB681B78FE2B7A
:103B800008D0BB681B78FF2B04D00F23FB181B78D1
:103B9000312BE2D90F217B181B78013B3A68D318EF
:103BA0001B78002B04D07B187A18127801321A7017
:103BB0000F23FB181A78FB1D1C78100021F0CAFC9B
:103BC000030019002F4A23009B001B199B00D318E8
:103BD0000C331960FB1D1A782A4913009B009B18AF
:103BE0009B00CB180C331B68002B12D1FB1D1A78DD
:103BF00013009B009B189B00224A9B181422002153
:103C0000180023F0CEF83B68180021F0ADFC0E231D
:103C100032E0FB1D1A781B4913009B009B189B0088
:103C2000CB180C3318680F243B191A783B6819001D
:103C300023F0DFF9144B1B780133DAB2124B1A7000
:103C40003B191A783B680021180023F0AAF8BB68DA
:103C50001B78FE2B0AD1FB1D1A78FB1D01321A704E
:103C6000FB1D1B78042B00D841E700E0C0463B68F1
:103C7000180021F079FC00231800BD4605B090BD66
:103C800000B0070834110020B50B002080B582B0C9
:103C900000AFFB1D00221A70BB1D01221A7021E02B
:103CA000BB1D1B785A1E154B5200D35A002B0DD04A
:103CB000BB1D1B789BB2013398B2BB1D1B785A1EEB
:103CC0000E4B5200D35A19000EF096FDBB1D1B7807
:103CD000192B02D9FB1D0A221A70BB1D1A78BB1DB5
:103CE00001321A70064B1B78BA1D12789A42D7D946
:103CF000FB1D1B781800BD4602B080BD801000205F
:103D00009800002090B583B000AFFB1C00221A7011
:103D1000BB1D00221A803B0000221A807B1D00225E
:103D20001A7047E07B1D1A78284913009B009B18E6
:103D30005B005B5C002B38D03B1D01221A7030E029
:103D40007B1D1A783B1D1B78591E204813009B00D1
:103D50009B185B00C3185B5C1B0299B27B1D1A7831
:103D60003B1D1878194C13009B009B185B00E3184F
:103D70001B5C1A003B008A181A80BB1D1B881C3371
:103D80009AB23B001B88190010000EF035FDBB1DD8
:103D90001A88BB1D01321A803B1D3A1D127802326F
:103DA0001A703B1D1B78092BCAD97B1D1A787B1D05
:103DB00001321A70064B1B787A1D12789A42B1D9DB
:103DC000FB1C1B781800BD4603B090BD58100020A6
:103DD00098000020F0B587B000AFB9607A60190094
:103DE0000F243B19021C1A700E257B190A1C1A702D
:103DF0001726BB1900221A703B191B789BB21900B9
:103E0000E4200EF0F9FCBB681B0A9BB21900E52008
:103E10000EF0F2FCBB689BB21900E6200EF0ECFC41
:103E20007B681B0A9BB21900E7200EF0E5FC7B685B
:103E30009BB21900E8200EF0DFFC7B191B789BB2C7
:103E40001B029AB2202310241B19DB191B789BB28A
:103E5000D3189BB21900E9200EF0CEFC24231B19C5
:103E6000DB191B789BB21B029AB228231B19DB19A2
:103E70001B789BB2D3189BB21900EA200EF0BCFC51
:103E80002C231B19DB191B789BB21B029AB230231F
:103E90001B19DB191B789BB2D3189BB21900EB20BE
:103EA0000EF0AAFCBB191B781800BD4607B0F0BD88
:103EB00080B582B000AFFB1D00221A70284B1A8813
:103EC0001623FF33110018000EF096FC244B5A887D
:103ED0008B235B00110018000EF08EFC204B5B79E9
:103EE0001B021AB21E4B1B7B1BB213431BB29AB2AE
:103EF0001823FF33110018000EF07EFC184B9B684E
:103F00009AB28C235B00110018000EF075FC144B64
:103F10009B681B0C9AB21A23FF33110018000EF095
:103F20006BFC0F4B5B7B1B021AB20D4B1B791BB258
:103F300013431BB29AB28D235B00110018000EF0E0
:103F40005BFC074B9B7E1A001C23FF3311001800FB
:103F50000EF052FCFB1D1B781800BD4602B080BD60
:103F60008410002080B582B000AFFB1D00221A70C3
:103F70001B4B04220021180022F013FFBB1D01225D
:103F80001A7021E0BB1D1B785A1E154B5200D35AE4
:103F9000002B0DD0BB1D1B789BB2013398B2BB1D0B
:103FA0001B785A1E0E4B5200D35A19000EF024FCF7
:103FB000BB1D1B78192B02D9FB1D0A221A70BB1DD1
:103FC0001A78BB1D01321A70064B1B78BA1D127885
:103FD0009A42D7D9FB1D1B781800BD4602B080BDA0
:103FE0008010002098000020B0B58EB002AF1423DE
:103FF000F8180A257A191823F9180823FB180093D2
:10400000030001200EF076FD0C23F818BA1D1023D2
:10401000F9183B1D0093030002200EF06BFD1C21DC
:104020007B1801225A607B1800229A607B191B883A
:104030001A007B181A60BB691A000C007B18190063
:1040400010001CF061FA21007B1800225A607B18D6
:1040500002229A603B1D1B881A007B181A60FB68BD
:104060001A007B18190010001CF04EFABB691800EA
:104070007B191B88002219001CF0CFFB052010F0D3
:104080006DFEFB681A003B1D1B88190010001CF018
:10409000A7FB031E17D1BB6918007B191B880122DF
:1040A00019001CF0BAFB052010F058FEFB681A003E
:1040B0003B1D1B88190010001CF092FB0300012B14
:1040C00001D1012300E000231800BD460CB0B0BDB3
:1040D00090B585B000AF78600F23FB1800221A70EE
:1040E0001CE00F243B191A78114913005B009B1840
:1040F0009B00CB1808331A687B6811001800FCF786
:1041000003F8031E04D13B191B780133DBB20BE02B
:104110000F217B181A787B1801321A700F23FB18B5
:104120001B780C2BDDD900231800BD4605B090BDCF
:104130006802002080B584B000AF78600F23FB18C0
:1041400000221A7041E0264A7B6811001800FBF734
:10415000DBFF031E01D101233DE0224A7B681100F1
:104160001800FBF7D1FF031E01D1022333E01E4AE2
:104170007B6811001800FBF7C7FF031E01D1032362
:1041800029E01A4A7B6811001800FBF7BDFF031EE7
:1041900001D104231FE0164A7B6811001800FBF7C9
:1041A000B3FF031E01D1052315E0124A7B681100FD
:1041B0001800FBF7A9FF031E01D106230BE00F2116
:1041C0007B181A787B1801321A700F23FB181B78A2
:1041D000052BB8D900231800BD4604B080BDC046E9
:1041E00090C0020894C0020898C002089CC002084F
:1041F000A0C00208A4C0020890B583B000AFFB1DA8
:1042000001221A7020E05A4B1B78FA1D12789A424C
:1042100006D1FB1D1B78013B564A0021D1540EE00C
:10422000534B1A78FB1D1B785C1EFB1D1B78190075
:10423000100000F087FA03001A004E4B1A55FB1DC0
:104240001A78FB1D01321A70FB1D1B78022BDAD97C
:1042500010F04AFA10F044FC0EF082FA0EF038FB2F
:104260000DF03AFF10F0E0FC0EF084F910F016FDAE
:104270000EF092FB031E03D00EF014FBFEF7ACFF12
:10428000FFF7B2FE031E21D03B4B01221A703220F1
:1042900010F064FD0CF03CFB384BE12252029A60B6
:1042A000BB1D01221A700CE0344B9A68BB1D1B78B1
:1042B0001100180011F058FABB1D1A78BB1D01320D
:1042C0001A70BB1D1B78062BEED904E0322010F0CB
:1042D00045FD0CF01DFBFEF791FF0DF037FF244B61
:1042E0001B78002B13D180235B0125480122190084
:1042F0001CF093FAFA235B00180010F02FFD8023C6
:104300005B011F48002219001CF087FA26E0802379
:104310005B011B48012219001CF07FFAFA235B00A5
:10432000180010F01BFD80235B01154800221900C6
:104330001CF073FA642010F011FD80235B0110481B
:10434000012219001CF069FA642010F007FD802397
:104350005B010B48002219001CF05FFA05F058FBC6
:10436000084B01221A70C046BD4603B090BDC0463E
:10437000990000204C100020A6100020841000207E
:1043800000040050B30B002080B500AF1AF084F891
:104390000BF0C7FEFFF730FF05F064FB16F0BAFD27
:1043A000C046BD4680BD0000F0B58DB000AF1F23F4
:1043B000F918087069460E0013211823CB18D91973
:1043C0000020087017211823CB18D9190020087075
:1043D00016211823CB18D91900200870152018238E
:1043E000C318D9190020087014201823C318D9192C
:1043F00000200870D04909780800013878623961D6
:10440000002078613A697B691000400F3A617B6156
:10441000DD0005433B69DC003960002078603C68C2
:104420007D682300580F2B00DB00FB60FB68034313
:10443000FB602300DB00BB600B000733DB08DB0005
:104440006A46D31A9D466B4600333B6216211823F9
:10445000CB18DB1900221A7018E016201823C31895
:10446000DB191B783A6A0021D1541823C318DB19D1
:104470001A78B24B52000021D1521823C318DB190D
:104480001A781823C318DB1901321A70AA4B1B784B
:10449000162218215218D21912789A42DDD315210A
:1044A0001823CB18DB1918228A18D2191278013276
:1044B0001A701F23FB181B78013B3A6A0800182466
:1044C0000919C9190978D1541823C318DB191822FE
:1044D0008218D219127801321A70172318229B18E9
:1044E000DB1901221A7050E01F23FB181B785A1E9B
:1044F00017241823E318DB19187891491300DB00FF
:104500009B1A1B185B005B5A002B34D01F23FB182F
:104510001B785A1E894B5200D35A1AB22000182316
:10452000C318DB191B78013B012199400B001BB21A
:10453000134319B21F23FB181B785A1E89B27F4BF5
:104540005200D1521F23FB181B785A1E1823C31880
:10455000DB1918787A491300DB009B1A1B185B00E3
:104560005B5ADB089BB2013B3A6A152118200918F7
:10457000C9190978D15417211823CB18DB191A78D7
:104580001823CB18DB1901321A70172318229B1835
:10459000DB191B78062BA7D9142318229B18DB19CB
:1045A00000221A7015221823D318DB19182152186B
:1045B000D219127801321A70162318229B18DB19AF
:1045C00000221A709BE0162318229B18DB191B7817
:1045D0003A6AD35C1A00152318215B18DB191B7883
:1045E000013B9A4200D080E0172318229B18DB1968
:1045F00001221A7072E016241823E318DB191A78C6
:1046000017251823EB18DB1918784D491300DB0028
:104610009B1A1B185B005B5A002B55D01823E3181C
:10462000DB191A781823EB18DB19187844491300A2
:10463000DB009B1A1B185B005B5ADB089BB2013B3B
:104640003A6AD35C002B3FD120001823C318DB1932
:104650001A783A4B5200D35A1AB22C001823E31896
:10466000DB191B78013B012199400B001BB213435E
:1046700019B21823C318DB191A7889B22F4B5200CC
:10468000D1521823C318DB191A781823E318DB1941
:1046900018782B491300DB009B1A1B185B005B5A30
:1046A000DB089BB2013B3A6A152118200918C91989
:1046B0000978D15414221823D318DB191821521861
:1046C000D219127801321A7017211823CB18DB196E
:1046D0001A781823CB18DB1901321A701723182205
:1046E0009B18DB191B78062B85D916211823CB18AC
:1046F000DB191A781823CB18DB1901321A700E4B0C
:104700001B78162218215218D21912789A4200D218
:1047100059E7142318229B18DB191B78002B00D0B3
:104720003AE7132318229B18DB191B78B5461800AB
:10473000BD460DB0F0BDC04698000020780F0020A7
:1047400000000020B0B588B000AF0200FB1D1A7059
:10475000BB1D0A1C1A700823FB1800221A800B23A9
:10476000FB1800221A701F23FB1800221A700A235C
:10477000FB1800221A701E23FB1800221A70994B96
:1047800002220021180022F00CFBFB1D1B78013BCC
:10479000954A0021D154FB1D1B78013B934A00210F
:1047A000D1540123BB612EE0FB1D1B785A1E90499A
:1047B0001300DB009B1ABA699B185B005B5A002B45
:1047C0001ED0FB1D1B785A1E89491300DB009B1A63
:1047D000BA699B185B005B5ADB089AB2BB1D1B7859
:1047E0009BB29A420CD1BB1D1B78013B7E4A012132
:1047F000D1547C4BBA1D12781A70BB69DBB2ECE065
:10480000BB690133BB61BB69062BCDDD01237B6135
:1048100011E0FB1D1B787A699A4209D07B69013B44
:10482000714AFF21D1547B69013B704A0021D15468
:104830007B6901337B616F4B1B781A007B69934264
:10484000E7DD73E008243A19674B1100180000F007
:10485000D3F803001A001F217B1801321A707A184E
:10486000BB1D12781B789A4268D07B181B78013BDD
:104870003A190121D1541323FB1801221A7050E078
:104880001F243B191B785A1E13257B191878584989
:104890001300DB009B1A1B185B005B5A002B3AD0FD
:1048A0003B191B785A1E7B19187851491300DB00FD
:1048B0009B1A1B185B005B5ADB089AB20A217B1813
:1048C0001A707B181B78013B0822BA18D35C002BA6
:1048D00021D13B191B78013B434AD25C0B203B188A
:1048E00001321A707B181B78013B3F4AD35C0500EC
:1048F0003A1812789A420ED208007B181B78013BB6
:10490000394A79190978D1543B181B78013B374A49
:1049100039190978D15413217B181A787B18013280
:104920001A701323FB181B78062BA9D90823FB1830
:10493000180000F0A5F8031E84D000E0C04613E084
:104940001E22BB181B78BA18591C11701900254B70
:104950001F203A1812785A5401007B181B785A1EEF
:104960007B1822498A5C1A701F23FB181B78013BB5
:104970001E4AD35C002BE3D10123FB6029E0FB1D21
:104980001B785A1E1A491300DB009B1AFA689B1801
:104990005B005B5A002B19D0FB1D1B785A1E144973
:1049A0001300DB009B1AFA689B185B005B5ADB085C
:1049B0009BB2BA1D1278013A0B498A5C013A094947
:1049C0008A5C934202D1FB68DBB206E0FB680133EC
:1049D000FB60FB68062BD2DD00231800BD4608B043
:1049E000B0BDC046D819002050100020541000203F
:1049F000000000209800002080B584B000AF7860EF
:104A000039600F217B18FF221A700E23FB18002239
:104A10001A703B681B78002B03D17B187A681278D8
:104A20001A700023BB601BE0BB687A68D3181B7840
:104A30000F217A1812789A420FD9BB683A68D318B6
:104A40001B78002B09D1BB687A68D2187B181278C2
:104A50001A700E23FB18BA681A70BB680133BB606A
:104A6000064B1B781A00BB689342DDDB0E23FB1854
:104A70001B781800BD4604B080BDC04698000020D9
:104A800080B584B000AF78600F23FB1801221A7044
:104A90000023BB600CE0BB687A68D3181A780F213A
:104AA0007B18791809780A401A70BB680133BB601B
:104AB000064B1B781A00BB689342ECDB0F23FB18F4
:104AC0001B781800BD4604B080BDC0469800002089
:104AD000F0B587B002AF0200FB1D1A70834A844B09
:104AE0001100180022F0DEF8814B1800FBF716FBCE
:104AF00003009AB27E49FB1D187801235B420093A4
:104B0000322310F09BFD0F23FB1801221A701BE0CB
:104B10000F243B191A787749754B180022F0C2F818
:104B2000734B1800FBF7FAFA03009AB27049FB1DA9
:104B3000187801235B420093322310F07FFD3B196C
:104B40001A783B1901321A700F23FB181B78062BB9
:104B5000DED96949FB1D187801235B42009332239B
:104B6000032210F06BFD0E23FB1800221A70A7E041
:104B70000E243B191B785A1C60495D4B180022F02B
:104B800091F85B4B1800FBF7C9FA03009AB2584939
:104B9000FB1D187801235B420093322310F04EFD79
:104BA0003B191A7856491300DB009B1A5B005B5ACD
:104BB0001A0013005B009B185B00524A99184C4B7B
:104BC0000522180022F021F94949FB1D187801231C
:104BD0005B4200933223052210F030FD4A49FB1D51
:104BE000187801235B4200933223012210F026FD46
:104BF0000D23FB1801221A704DE00E23FB181A78C2
:104C00000D23FB1818783E491300DB009B1A1B1874
:104C10005B005B5A002B06D13C49354B0022180043
:104C200022F040F822E00E257B191A780D26BB19D8
:104C3000187833491300DB009B1A1B185B005B5A82
:104C4000DB089BB21C007B191A78BB1918782C4919
:104C50001300DB009B1A1B185B005B5A1A0007232A
:104C600013402B492248220022F01CF8204B180048
:104C7000FBF754FA03009AB21D49FB1D1878012373
:104C80005B420093322310F0D9FC0D217B181A7877
:104C90007B1801321A700D23FB181B78062BACD938
:104CA0001C49FB1D187801235B420093322302222A
:104CB00010F0C4FC0E217B181A787B1801321A7090
:104CC000154B1B780E22BA1812789A4200D24FE781
:104CD0001249FB1D187801235B4200933223012205
:104CE00010F0ACFCC046BD4605B0F0BDA8C002083F
:104CF000C00A0020BCC00208C4C00208C8C0020824
:104D000000000020C0BA0208D4C00208D8C00208BF
:104D1000DCC00208E4C0020898000020E8C00208D5
:104D200090B587B002AF0200FB1D1A703C4A3D4BA4
:104D30001100180021F0B6FF3A4B1800FBF7EEF90E
:104D400003009AB23749FB1D187801235B42009398
:104D5000322310F073FC0F23FB1801221A703EE07F
:104D60000E23FB1801221A702EE00F203B181B782F
:104D70005A1E2D4B5200D35A19000E243B191B7892
:104D8000013B802212021A4113000B4016D03B183F
:104D90001A783B191B782549224821F083FF214BC3
:104DA0001800FBF7BBF903009AB21E49FB1D1878E7
:104DB00001235B420093322310F040FC0E217B184C
:104DC0001A787B1801321A700E23FB181B780A2BF5
:104DD000CBD90F217B181A787B1801321A70144B2B
:104DE0001B780F22BA1812789A42B9D9114A0D4B82
:104DF0001100180021F056FF0A4B1800FBF78EF93E
:104E000003009AB20749FB1D187801235B42009307
:104E1000322310F013FCC046BD4605B090BDC0461D
:104E2000ECC00208C00A00208010002008C102085F
:104E3000980000201CC10208F0B589B002AF020042
:104E4000FB1D1A701223FB1800221A8016F0E2F9DB
:104E50000300FB60FB6800221A70C74B1B781A0026
:104E6000C649C74B180021F01DFFC54AFB68110059
:104E7000180021F09EFFC34B1B781A00C249C04B9B
:104E8000180021F00FFFBE4AFB681100180021F046
:104E900090FFBE49BA48002300930423002221F06A
:104EA00001FFB74AFB681100180021F082FFB84AE1
:104EB000B849B34B180021F0F5FEB14AFB68110068
:104EC000180021F076FFB44AB449AD4B180021F028
:104ED000E9FEAB4AFB681100180021F06AFFB04AF6
:104EE000A74B1100180021F0DDFEA54AFB68110058
:104EF000180021F05EFF1723FB1801221A7048E00A
:104F000017243B191A78A7499D4B180021F0CAFEB7
:104F10009B4AFB681100180021F04BFF3B191B78DE
:104F2000A14AD35C042B27D89A00A04BD3181B6846
:104F30009F469F4A924B1100180021F0B3FE1CE0DF
:104F40009C4A8F4B1100180021F0ACFE15E09A4AE4
:104F50008B4B1100180021F0A5FE0EE0974A884BFC
:104F60001100180021F09EFE07E0954A844B1100C5
:104F7000180021F097FE00E0C046814AFB6811004E
:104F8000180021F016FF17217B181A787B180132C0
:104F90001A701723FB181B78062BB1D9894A784B56
:104FA0001100180021F07EFE754AFB681100180000
:104FB00021F0FFFE1623FB1801221A7043E0162190
:104FC0007B181B785A1E804B9200D3581B68002B0D
:104FD0000DD17B181A787D49694B180021F062FECB
:104FE000674AFB681100180021F0E3FE25E0162651
:104FF000BB191C78BB191B785A1E734B9200D358EF
:105000009B6A18000BF0FAFD03001D00BB191B780A
:105010005A1E6F4B9200D35818000BF0EFFD03009F
:105020006C49574800932B00220021F03BFE544A64
:10503000FB681100180021F0BCFE16217B181A78BD
:105040007B1801321A701623FB181B78062BB6D971
:10505000FB681800FBF762F803001A00FB689A1857
:105060005D4B1000190003231A0021F0C2FFFB68FA
:105070001800FBF753F803001A00FB689A18574B07
:10508000100019001D231A0021F0B3FFFB6818005F
:10509000FBF744F802001223FB181A801523FB18B3
:1050A00001221A7023E0344B1B785A1E4C4B5200DD
:1050B000D35A190015203B181B78013B802212029D
:1050C0001A4113000B400CD03B181A7845492C4B61
:1050D000180021F0E7FD2A4AFB681100180021F0B2
:1050E00068FE15217B181A787B1801321A70152377
:1050F000FB181B78062BD6D91223FB181C88FB68DB
:105100001800FBF70BF803009C420ED1FB68180057
:10511000FBF704F803001A00FB689A18324B1000E2
:10512000190005231A0021F064FFFB681800FAF744
:10513000F5FF03001A00FB689A18274B10001900AE
:1051400003231A0021F055FFFB1D1B78002B0ED006
:10515000FB681800FAF7E2FF03009AB2F968FB1D3A
:10516000187801235B420093322310F067FAC0469F
:10517000BD4607B0F0BDC046990000203CC1020802
:10518000C00A0020B00B002058C1020874C10208F8
:1051900094C10208A0C10208B8C10208C4C1020833
:1051A000E0C10208F4C10208C00B0020F8C20208E6
:1051B000FCC1020804C202081CC2020828C202087C
:1051C00044C2020864C202084C2700207CC20208C4
:1051D0002418002098C20208E4C00208C8C20208CD
:1051E00080100020E8C20208F0C2020890B585B025
:1051F00000AF78600E23FB1800221A700F23FB18F3
:1052000000221A704A4A7B6811001800FAF77CFFE6
:10521000031E03D1474B1B781BB285E0464A7B68CF
:1052200011001800FAF770FF031E01D1FF237BE085
:105230007B681B78232B25D17B680133180020F075
:1052400082F902000E217B181A700A00BB181B7825
:10525000002B0AD0394B1B781100BA1812789A42E9
:1052600003D87B181B781BB25EE0324B1B780E22F2
:10527000BA1812789A4203D12E4B1B781BB253E016
:10528000662351E00F23FB1800221A701DE00F2443
:105290003B191A7813009B009B185B00284A9A1848
:1052A0007B6811001800FAF72FFF031E07D17B68F7
:1052B0001B78002B03D03B191B781BB234E00F2165
:1052C0007B181A787B1801321A701C4B1B780F213F
:1052D0007A1812789A42DAD37B1800221A701DE0ED
:1052E0000F243B191A7813009B009B185B00154A8A
:1052F0009A187B6811001800FAF706FF031E07D101
:105300003B191B781B021BB2FE2213431BB20BE09E
:105310000F217B181A787B1801321A700F23FB18A3
:105320001B78092BDCD964231800BD4605B090BD5D
:105330000CC302089900002010C302089800002046
:1053400058100020140B0020B0B586B000AF02004A
:105350003960FB1D1A701323FB1800221A700023FA
:105360007B6100237B610FE07B699A00404BD21880
:105370003B6811001800FAF7C7FE031E01D106238F
:1053800071E07B6901337B617B69032BECDD0123D9
:105390007B6112E07A6913009B009B185B00354A21
:1053A0009A183B6811001800FAF7AEFE031E01D1EF
:1053B000072358E07B6901337B612F4B1B781A0070
:1053C0007B699342E6DB00237B6112E07A6913007C
:1053D0009B009B185B00294A9A183B681100180033
:1053E000FAF792FE031E01D107233CE07B690133EB
:1053F0007B617B69092BE9DD214B224A1A6019E0A8
:105400001F4B1B681B681B68FB60FB681800FAF7E2
:1054100085FE0300BB60BA68F9683B68180021F09C
:10542000E3FC031E01D108231DE0154B1B685A68DD
:10543000134B1A60124B1B68002BE1D1FB1D1A782D
:1054400013009B009B185B000A4A9B183A681100E6
:10545000180021F0C6FD13257C19FEF753FC03004C
:1054600023707B191B781800BD4606B0B0BDC0463E
:10547000DCBB02085810002098000020140B00200C
:10548000B01000204C03002080B588B000AF0200AF
:105490003960FB1D1A701723FB1800221A700023B5
:1054A000FB610023BB610023FB6129E0FA69130063
:1054B0009B009B185B005B4A9A183B681100180020
:1054C000FAF722FE031E18D1FB1D1B785A1E564BFD
:1054D0005200D35A1AB20121FB6999400B001BB24A
:1054E000134319B2FB1D1B785A1E89B24E4B520052
:1054F000D1521723FB181B7890E0FB690133FB6145
:10550000FB69092BD2DD0023BB610FE0BB699A0068
:10551000464BD2183B6811001800FAF7F5FD031E40
:1055200001D106237AE0BB690133BB61BB69032B60
:10553000ECDD0123BB6112E0BA6913009B009B18EC
:105540005B003B4A9A183B6811001800FAF7DCFD33
:10555000031E01D1072361E0BB690133BB61354BF9
:105560001B781A00BB699342E6DB334B334A1A605F
:1055700019E0314B1B681B681B683B613B691800D5
:10558000FAF7CCFD0300FB60FA6839693B68180044
:1055900021F02AFC031E01D108233FE0264B1B68A3
:1055A0005A68254B1A60244B1B68002BE1D100235D
:1055B000FB6118E01B49FA6913009B009B185B0014
:1055C0005B5C002B0CD1FA6913009B009B185B00FD
:1055D000144A9B183A681100180021F002FD05E0FA
:1055E000FB690133FB61FB69092BE3DDFB1D1B78C4
:1055F0005A1E0D4B5200D35A1AB20121FB69994031
:105600000B001BB2134319B2FB1D1B785A1E89B243
:10561000054B5200D1521723FB181B781800BD46CA
:1056200008B080BD140B00207C100020DCBB0208F9
:105630005810002098000020B41000204C030020D7
:1056400080B586B000AFB9607A6019000F23FB18EF
:10565000021C1A700E203B180A1C1A701623FB1825
:1056600020221A807A6880231B059A4200D3D4E056
:105670007B68DAB2E54B1A70E44B3A1812785A702C
:105680003B181B78082B00D9BDE19A00E04BD318DA
:105690001B689F46BB681B78DAB2DC4B9A700F23FD
:1056A000FB181B7803222021180004F03FFFB4E10F
:1056B000BB681B785BB2DAB2D44B9A700F23FB182D
:1056C0001B7803222021180004F030FFA5E1BB68FD
:1056D0001B889BB2DAB2CD4B9A70BB681B889BB219
:1056E0001B0A9BB2DAB2C94BDA700F23FB181B7886
:1056F00004222021180004F019FF8EE1BB681B88EA
:105700001BB2DAB2C14B9A70BB681B881BB21B126A
:105710001BB2DAB2BD4BDA700F23FB181B780422E0
:105720002021180004F002FF77E1BB681B68DAB2A1
:10573000B64B9A70BB681B681B0ADAB2B34BDA70BF
:10574000BB681B681B0CDAB2B04B1A71BB681B68D4
:105750001B0EDAB2AD4B5A710F23FB181B780622D1
:105760002021180004F0E2FE57E1BB681B68DAB2A2
:10577000A64B9A70BB681B681B12DAB2A34BDA7097
:10578000BB681B681B14DAB2A04B1A71BB681B689C
:105790001B16DAB29D4B5A710F23FB181B78062299
:1057A0002021180004F0C2FE37E1BB681B78DAB292
:1057B000964B9A70BB6801331B78DAB2934BDA7060
:1057C000BB6802331B78DAB2904B1A71BB680333A3
:1057D0001B78DAB28D4B5A71BB6804331B78DAB28E
:1057E0008A4B9A71BB6805331B78DAB2874BDA7142
:1057F000BB6806331B78DAB2844B1A72BB68073376
:105800001B78DAB2814B5A720F23FB181B780A22DD
:105810002021180004F08AFEFFE07C4B00221A7061
:105820007A4B0E217A1812785A707B681B0EDAB206
:10583000764B9A707B681B0CDAB2744BDA707B681B
:105840001B0ADAB2714B1A717B68DAB26F4B5A716C
:105850007B181B78082B00D9DEE09A006D4BD3181B
:105860001B689F46BB681B78DAB2684B9A71162397
:10587000FB1819880F23FB181B780722180004F067
:1058800055FECAE0BB681B785BB2DAB25F4B9A7117
:105890001623FB1819880F23FB181B780722180002
:1058A00004F044FEB9E0BB681B889BB2DAB2574BE8
:1058B0009A71BB681B889BB21B0A9BB2DAB2534B2E
:1058C000DA711623FB1819880F23FB181B7808229E
:1058D000180004F02BFEA0E0BB681B881BB2DAB2F4
:1058E0004A4B9A71BB681B881BB21B121BB2DAB2FF
:1058F000464BDA711623FB1819880F23FB181B7807
:105900000822180004F012FE87E0BB681B68DAB2B8
:105910003E4B9A71BB681B681B0ADAB23B4BDA71CB
:10592000BB681B681B0CDAB2384B1A72BB681B6869
:105930001B0EDAB2354B5A721623FB1819880F2347
:10594000FB181B780A22180004F0F0FD65E0BB6824
:105950001B68DAB22D4B9A71BB681B681B12DAB256
:105960002A4BDA71BB681B681B14DAB2274B1A7218
:10597000BB681B681B16DAB2244B5A721623FB183D
:1059800019880F23FB181B780A22180004F0CEFD9B
:1059900043E0BB681B78DAB21C4B9A71BB680133D9
:1059A0001B78DAB2194BDA71BB6802331B78DAB2B2
:1059B000164B1A72BB6803331B78DAB2134B5A7258
:1059C000BB6804331B78DAB2104B9A72BB6805339C
:1059D0001B78DAB20D4BDA72BB6806331B78DAB289
:1059E0000A4B1A73BB6807331B78DAB2074B5A733A
:1059F0001623FB1819880F23FB181B780E2218009A
:105A000004F094FD09E0C04607E0C046180D0020F0
:105A100014C3020838C30208C0463B6A002B13D0E7
:105A200018F0B6FD03003B61C0460A4B1B78002B03
:105A300007D018F0ADFD02003B69D31A3A6A9A42CA
:105A4000F3D8044B1B7800E000231800BD4606B0D5
:105A500080BDC046A1100020B0B584B002AF1E20AA
:105A60001FF078FD03007B607B681E220021180078
:105A700021F097F90C4B1B7D5A1E0C4B9200D2580B
:105A8000094B9B7D1D00084B5B7D1C00064B1B8B4F
:105A900007497868019300942B0021F003F97B6893
:105AA0001800BD4602B0B0BD841000201C000020CC
:105AB0005CC3020890B587B004AF0200FB1D1A70EA
:105AC000BB1D0A1C1A700D4B19780C4B1C78BB1DA2
:105AD0001A78FB1D18780123039301235B4202937C
