:020000040800F2
:1000000000400220A9ED000839EE0008B5E0000824
:1000100000000000000000000000000000000000E0
:10002000000000000000000000000000B5FB000818
:10003000000000000000000011FC0008A9E000081A
:1000400039EE000839EE000839EE000839EE0008F4
:1000500039EE000839EE000839EE000839EE0008E4
:1000600039EE000839EE000839EE000839EE0008D4
:1000700039EE000839EE000839EE000839EE0008C4
:1000800039EE000839EE000839EE000839EE0008B4
:1000900039EE000839EE000839EE000839EE0008A4
:1000A00039EE000839EE000839EE0008EDE00008EE
:0C00B000FDE000080DE1000839EE00083A
:1000C00010B5064C2378002B07D1054B002B02D02E
:1000D000044800E000BF0123237010BD2808002061
:1000E0000000000038C30108044B10B5002B03D0FA
:1000F0000349044800E000BF10BDC04600000000F6
:100100002C08002038C3010802780B78002A03D09D
:10011000013001319A42F7D0D01A70470023C25CF7
:100120000133002AFBD1581E7047000002B471460B
:1001300049084900095C49008E4402BC7047C0462A
:1001400003B47146490840004900095A49008E44E9
:1001500003BC7047002243088B4274D303098B42CF
:100160005FD3030A8B4244D3030B8B4228D3030C87
:100170008B420DD3FF22090212BA030C8B4202D329
:100180001212090265D0030B8B4219D300E0090A51
:10019000C30B8B4201D3CB03C01A5241830B8B425A
:1001A00001D38B03C01A5241430B8B4201D34B0343
:1001B000C01A5241030B8B4201D30B03C01A5241A8
:1001C000C30A8B4201D3CB02C01A5241830A8B422D
:1001D00001D38B02C01A5241430A8B4201D34B0216
:1001E000C01A5241030A8B4201D30B02C01A52417A
:1001F000CDD2C3098B4201D3CB01C01A524183092E
:100200008B4201D38B01C01A524143098B4201D367
:100210004B01C01A524103098B4201D30B01C01A92
:100220005241C3088B4201D3CB00C01A524183080C
:100230008B4201D38B00C01A524143088B4201D339
:100240004B00C01A5241411A00D201465241104699
:100250007047FFE701B5002000F0F0F802BDC0468E
:100260000029F7D076E7704703460B437FD400227E
:1002700043088B4274D303098B425FD3030A8B423A
:1002800044D3030B8B4228D3030C8B420DD3FF22A4
:10029000090212BA030C8B4202D31212090265D072
:1002A000030B8B4219D300E0090AC30B8B4201D325
:1002B000CB03C01A5241830B8B4201D38B03C01A6C
:1002C0005241430B8B4201D34B03C01A5241030BE3
:1002D0008B4201D30B03C01A5241C30A8B4201D394
:1002E000CB02C01A5241830A8B4201D38B02C01A3F
:1002F0005241430A8B4201D34B02C01A5241030AB6
:100300008B4201D30B02C01A5241CDD2C3098B429A
:1003100001D3CB01C01A524183098B4201D38B0117
:10032000C01A524143098B4201D34B01C01A5241BA
:1003300003098B4201D30B01C01A5241C3088B42FF
:1003400001D3CB00C01A524183088B4201D38B00EA
:10035000C01A524143088B4201D34B00C01A52418C
:10036000411A00D201465241104670475DE0CA0F63
:1003700000D04942031000D34042534000229C4623
:1003800003098B422DD3030A8B4212D3FC2289012D
:1003900012BA030A8B420CD3890192118B4208D303
:1003A000890192118B4204D389013AD0921100E065
:1003B0008909C3098B4201D3CB01C01A5241830979
:1003C0008B4201D38B01C01A524143098B4201D3A6
:1003D0004B01C01A524103098B4201D30B01C01AD1
:1003E0005241C3088B4201D3CB00C01A524183084B
:1003F0008B4201D38B00C01A5241D9D243088B42A1
:1004000001D34B00C01A5241411A00D20146634643
:1004100052415B10104601D34042002B00D54942A7
:10042000704763465B1000D3404201B5002000F0E6
:1004300005F802BD0029F8D016E770477047C0469E
:100440008446100062468C461900634600E0C046B0
:100450001FB502F059F8002801D40021C8421FBD81
:1004600010B501F0A9FF4042013010BD10B502F0F7
:100470004BF8002801DB002010BD012010BDC04654
:1004800010B502F041F8002801DD002010BD012068
:1004900010BDC04610B501F0D1FF002801DC0020DE
:1004A00010BD012010BDC04610B501F0C7FF0028E7
:1004B00001DA002010BD012010BDC04684460800AE
:1004C0006146FFE71FB500F03DFD002801D4002183
:1004D000C8421FBD10B500F0C9FC4042013010BD3C
:1004E00010B500F02FFD002801DB002010BD012019
:1004F00010BDC04610B500F025FD002801DD00202C
:1005000010BD012010BDC04610B500F0D5FC00287C
:1005100001DC002010BD012010BDC04610B500F068
:10052000CBFC002801DA002010BD012010BDC04620
:10053000002B15D1002A13D1002906DB01DC00288D
:1005400006D00020C043410802E0802109060020B7
:1005500007B4024801A14018029003BDE1FEFFFF6D
:1005600003B4684601B5029800F0A8F9019B9E46C5
:1005700002B00CBC7047C046002B11D1002A0FD12D
:10058000002900D1002802D00021C943080007B487
:10059000024802A14018029003BDC046A1FEFFFF21
:1005A00003B4684601B5029800F0BCF8019B9E4672
:1005B00002B00CBC7047C046F0B5CE469946030C5D
:1005C0009C46130447461B0C1D000E0061460404A4
:1005D000240C80B50700100C4B4365434143604336
:1005E0002C0CC01820188C46834203D980235B0250
:1005F0009846C444494679435643030C2D042D0CB8
:100600008919634400044019C918C0BCB946B046F2
:10061000F0BDC0469E2110B5C905041CFFF77EFF42
:10062000002803D1201C00F0BFFF10BD9E21201C1C
:10063000C90500F019FE00F0B7FF80231B069C4699
:100640006044F2E770B500220C4B04000D00FFF788
:100650002BFF002804D12000290002F01BFE70BDF2
:10066000064B00222000290002F074FA02F012FE6C
:1006700080231B069C466044F1E7C0460000E04131
:1006800070B505000C000022002328002100FFF7B0
:10069000EDFE002808D12800210000F00FF802002C
:1006A0000B001000190070BD80231B06E118280004
:1006B00000F004F8002342428B41F2E770B50022BB
:1006C0000B4B0D00040001F083FFFFF7BBFF06009A
:1006D00002F046FE0022074B01F07AFF02000B00F9
:1006E0002000290002F036FAFFF7ACFF310070BDA0
:1006F0000000F03D0000F04170B50600080002F077
:10070000FFFD0022064B01F063FF0D0004003000E6
:1007100002F026FE2B00220001F000F870BDC0465A
:100720000000F041F0B557464E464546DE46E0B57E
:1007300004000D009246994683B08B4230D82DD0EC
:100740004946504602F01EFF29000600200002F034
:1007500019FF331A9846203B34D49B4653465A46D9
:10076000934042461F00534693401E00AF423BD881
:10077000AF4200D179E05B46A41BBD41002B00DAFB
:1007800076E0002200230092019301235A46934011
:100790000193012342469340009329E08242CFD93E
:1007A00000220023009201930C9B002B01D01C60BF
:1007B0005D600098019903B0F0BCBB46B246A94603
:1007C000A046F0BD42469B4620239B1A5246DA4083
:1007D000414613004A468A40170042461F4353468B
:1007E00093401E00AF42C3D9002200230092019320
:1007F0004346002BD8D0FB0772081A4346467B08B5
:100800000EE0AB4201D1A2420CD8A41A9D410120B6
:1008100024196D410021013E24184D41002E06D0BF
:10082000AB42EED9013E24196D41002EF8D100985B
:1008300001995B4600196941002B24DB2B005A46C5
:100840004446D3402A00E2401C005B461500002BC2
:100850002ADB26009E40330026004746BE40320079
:10086000801A9941009001919EE7A342BCD882E78B
:100870004246202300219B1A00220091019201226E
:10088000DA40019285E7424620239B1A2A00464619
:100890009A402300F340444613432A00E2401C00E0
:1008A0005B461500002BD4DA42462F002023260099
:1008B00097409B1ADE403B003343CDE7F8B5CE4668
:1008C000474680B59146984604000D0002F066FE4A
:1008D00007000E0002000B0048464146FFF76CFE81
:1008E000241A8D41089B380031001C605D60C0BC3B
:1008F000B946B046F8BDC046F8B54746CE464A02AE
:1009000043024500C40F500A804648005B0A000EAF
:100910009209944680B51E00814602002D0EDF002C
:10092000C90F8C4224D0281A00280EDD002A3ED19F
:100930006246002A00D1FDE0421E012800D137E1C5
:10094000FF2800D1A9E0100039E0002863D04B4611
:10095000521B002D00D0E0E0002F00D1CEE0531E4E
:10096000012A00D155E1FF2A00D194E01A00D9E014
:100970002A1A002A00DC99E0002862D0FF2D00D15D
:100980008BE080236146DB0419438C461B2A00DC84
:10099000D2E00123DB195A016AD50135FF2D5BD066
:1009A0000122A3491A405B080B4013431CE0FF2DB2
:1009B00000D172E080236246DB041A4394461B2870
:1009C00000DC90E00123FB1A5A0151D59B019E09DE
:1009D000300002F0B9FD330005388340854200DC69
:1009E00075E0944A2D1A13405A0704D00F221A407A
:1009F000042A00D004335A013CD5681CFE2D2BD0AC
:100A00009B015E0AC0B2C0053043E4072043C0BC6E
:100A1000B946B046F8BDFE206A1C104272D1002DC6
:100A200000D0AEE0002F00D1ECE063460020002BA8
:100A3000E9D0FB1A5A0100D4F3E063460C00DB1B3B
:100A4000D2E7614600295BD0511E012A00D1A7E000
:100A5000FF2A22D00A0099E7FF200026D3E7FE21D3
:100A60006A1C114273D0FF2AF6D0150067447B0838
:100A70005A07BBD1DB08FF2D0FD05B025E0AE8B23C
:100A8000C1E76246002A08D08022D203134204D074
:100A90004046104201D10C004346002BDCD080269A
:100AA000F6031E437602FF20760AACE7002AD6D072
:100AB000421B002D5CD0FF28EED08023DB041F43B7
:100AC0001B2A00DC82E001234D46634463E72022B9
:100AD000401B0130121A19009340C1405A1E934125
:100AE00000250B4380E7202361461B1A994062468C
:100AF0000B00C240591E8B41134364E70C00434670
:100B00001500B8E76346FE1A730145D4002E00D0E5
:100B10005EE700240020002675E7FF2BBBD0802372
:100B2000DB041F431B2A47DD012362460C004D46B0
:100B3000D31A49E705009EE761462023D1409B1A5E
:100B400062469A4013005A1E93410B4322E7002D40
:100B500046D1002F62D063460020002B00D152E71F
:100B60003B0063445A0183D5324A013513407FE785
:100B7000002FC4D0531E012A12D0FF2A8CD01A0095
:100B80009EE7002F00D07CE76346002B83D18026B0
:100B90000024FF20F60336E763460C00DE1B17E750
:100BA0003B00634401255A0100D461E70225F7E6C2
:100BB00063460125FB1A07E720239B1A38009F4054
:100BC0003B00D0405A1E93410343AEE720239B1ABB
:100BD00039009F403B00D1405A1E93410B4373E7BD
:100BE000002F00D158E76246002A00D155E7802245
:100BF000D203134200D150E74146114200D04CE7E6
:100C000043464AE76346002B83D00C00464600204B
:100C1000F9E663460C00DB1B0135D5E646460020AD
:100C2000F1E6002B00D023E700240026EBE6C046C7
:100C3000FFFFFF7DFFFFFFFBF0B54F464646D64660
:100C40004502C0B547000C1C6D0A3F0EC60F002FB1
:100C500000D16FE0FF2F00D174E00023802299467D
:100C60009A46ED00D20415437F3F63025B0A984623
:100C700063001B0EE40F002B4DD0FF2B45D04246E6
:100C80008021D200C9041143884600227F3B3100F5
:100C9000FF1A4B466140C9B20F2B00D9B8E070482B
:100CA0009B00C3589F46002398462600454692461F
:100CB0005346022B00D18DE0032B00D1A1E0012B84
:100CC00018D03B007F33002B6DDD6A0704D00F2264
:100CD0002A40042A00D004352A0103D5614B1D4067
:100CE0003B008033FE2B00DD74E0AA01520AD8B22B
:100CF00002E00E0000200022C005F607104330433A
:100D0000E0BCBA46B146A846F0BD4346002B3FD1F1
:100D10000222FF3F03E04346002B2DD10122310088
:100D20004B466140C9B213430F2B38D84E489B0045
:100D3000C3589F46002D13D104239946033B002737
:100D40009A4692E7002D05D108239946063BFF27D6
:100D50009A468AE70C239946093BFF279A4684E77F
:100D6000280002F0F1FB7627431F9D4000237F42BD
:100D700099469A463F1A78E7404602F0E5FB42461C
:100D8000431F9A4076235B4290461B1A00227EE75F
:100D900003234A461A439146FC33032277E70E00A9
:100DA000FF200022A8E70122D31A1B2BA2DC9E37CA
:100DB0002A00BD40DA406B1E9D4115436A0704D0EE
:100DC0000F222A40042A00D004356A0144D50120AC
:100DD000002291E7FF2000228EE780220026FF20DC
:100DE000D20389E7002398468022D203154208D017
:100DF0004346134205D11A4352022600FF20520AED
:100E00007AE78022D2032A435202FF20520A73E774
:100E100042466B015501AB421AD21B200022013F12
:100E200001261C0052005B00002C01DB9D4201D812
:100E30005B1B324301380028F3D1581E8341134312
:100E40001D003B007F330E00002B00DD3DE7AAE7CD
:100E50001A2001225B1BE3E7AA010020520A4BE79C
:100E6000B4CC0108FFFFFFF7F4CC010870B54200D5
:100E700045024E024C00C30F6D0A0120120E760A85
:100E8000240EC90FFF2A06D0FF2C03D0A24201D1A5
:100E9000B54206D070BD002DFCD1FF2CFAD1002E3A
:100EA000F8D18B4206D00120002AF3D12800431E3E
:100EB0009841EFE70020EDE770B5420045024E0291
:100EC0004C00C30F6D0A120E760A240EC80FFF2ABB
:100ED0001BD0FF2C0ED0002A1BD1002C01D1002EDC
:100EE0001CD0002D0CD083421CD00221581E08407B
:100EF000013870BD002E22D1002AF4D1002DF2D18C
:100F00000028F6D101204042F3E7002D17D1FF2C35
:100F1000F0D0002CE7D1002EE5D1E6E70020002D2F
:100F2000E7D0E2E7A24205DCEADBB54202D8E7D32C
:100F30000020DEE74342584140000138D9E7022053
:100F40004042D6E770B5420045024E024C00C30F46
:100F50006D0A120E760A240EC80FFF2A0BD0FF2C42
:100F60000DD0002A1FD1002C16D1002E14D1002044
:100F7000002D10D009E0002D0CD1FF2C13D1002E34
:100F800008D1002A08D0834212D00221581E0840FE
:100F9000013800E0022070BD002DF4D10028FAD104
:100FA00001204042F7E7002CEDD1002EEBD1ECE719
:100FB000A24205DCF2DBB54202D8EFD30020EAE71B
:100FC0004342584140000138E5E7C04643025B0A0E
:100FD000F0B54F4646469946D646C30F450098465B
:100FE000C0B54B460F1C2D0E00D1CBE0FF2D00D11C
:100FF000CFE08022DB00D2041A4300239146002672
:101000009A467F3D7C027B00640A1B0EFF0F002B7B
:1010100000D1A9E0FF2B11D08022E400D2041443B8
:1010200042467F3B5B197A400020D2B25D1C0A2EFB
:1010300013DD3A000B2E47D047463FE02B00FF332D
:10104000002C1ED102221643424601357A40D2B20C
:10105000FF350A2E00DDE4E00220022E1CDC013EFA
:10106000012E42D802283DD0012866D1002000215F
:10107000C0050843D2071043E0BCBA46B146A846B3
:10108000F0BD03221643424601357A40D2B2FF3505
:101090000A2E00DDE4E003200121B140A626F6007F
:1010A00031420AD19026B600314216D1B93EFF3EF8
:1010B0000E421AD0A146824600E0170053463A007D
:1010C000022B0FD04C4650460328CDD18021C903B6
:1010D00021434902FF20490ACAE780210022FF205C
:1010E000C903C5E7FF200021C2E7200C49462404BC
:1010F000240C27000E0C0904090C74434F4346438B
:101100004843390C001909188C4203D98020400249
:10111000844666443F0408043F0CC0198401671EDE
:10112000BC41090C800E8919044389010C43090153
:1011300071D5012361081C400C432B007F33002B29
:1011400051DD610704D00F212140042900D004346F
:10115000210103D5434B1C402B008033FE2BC1DC07
:10116000A101490AD8B283E7002C2CD101234246C1
:101170001E432B007A400120D2B25D1C0A2E00DDF6
:1011800057E76AE7002B10D10123042600259A4671
:1011900038E7002B04D102230826FF259A4631E7C1
:1011A00003230C26FF259A462CE7484602F0CCF98B
:1011B0004A46431F76259A4000236D4291460026F9
:1011C0009A462D1A1EE7200002F0BEF94246431F40
:1011D0009C402B1A763B7A400020D2B25D1C0A2E2E
:1011E00000DD26E739E70121CB1A1B2B00DD3DE7A7
:1011F0009E352100AC40D940631E9C4121434B07E2
:1012000004D00F230B40042B00D004314B0104D534
:10121000012000212CE71D008FE789010020490AE9
:1012200026E702230F2E0CD180214B46C9030B4227
:101230000DD00C420BD1214349023A00FF20490A4C
:1012400016E70B2E00D0F7E6A1469A4636E7802136
:101250004B46C903194349024246FF20490A07E7A2
:101260000323DFE7FFFFFFF7F0B5C64643025B0A43
:101270004500DA00C40F48024F009446420A1E009F
:10128000904600B52D0E3F0EC90F8009FF2F59D093
:10129000012251408C4239D0EA1B002A58DD002F30
:1012A00068D0FF2D00D1D1E08023DB0418431B2A36
:1012B00000DCE3E001236246D31A5A0100D4ACE01B
:1012C0009B019E09300002F03FF93300053883404E
:1012D000854200DCC6E0B24A2D1A13405A0704D0FA
:1012E0000F221A40042A00D004335A0100D497E098
:1012F0006A1CFE2D00D184E09B015E0AD2B2D005AB
:101300003043E407204380BCB846F0BDEA1B002A06
:1013100041DD002F6BD0FF2D00D197E08023DB044F
:1013200018431B2A00DCCCE0012363445A0174D526
:101330000135FF2D65D001229A491A405B080B4008
:101340001343CBE700281FD08C4222D02A00FF3A5B
:10135000002A35D07A1B002D00D099E06346002B7F
:1013600000D1DDE0531E012A00D105E1FF2A6BD038
:101370001A0094E0002873D0511E012A00D1DFE04A
:10138000FF2A63D00A0092E701225140A14200D017
:1013900082E72A00FF3A002A36D07A1B002D00D1BE
:1013A000AAE0FF2F00D1DAE080236146DB04194375
:1013B0008C461B2A00DCD4E001233D001B18B5E756
:1013C000FE276A1C174271D1002D00D09EE06346B3
:1013D000002B00D1D5E00022002800D18FE71B1A96
:1013E0005E0100D4D6E063460C00C31A76E70028FD
:1013F00036D0511E012A00D19AE0FF2A26D00A00D9
:101400008FE7FF2200267AE7FE276A1C174262D088
:10141000FF2AF6D01500604443085A0700D05FE762
:10142000DB08FF2D12D05B025E0AEAB267E7624674
:10143000002A00D193E0002808D08022D203134272
:1014400004D04046104201D10C004346002BD8D0B6
:101450008026F6031E437602FF22760A4FE74346B4
:101460001500DEE72022401B0130121A19009340BC
:10147000C1405A1E934100250B432FE720239B1A9E
:10148000010098400300D1405A1E93410B4312E7DC
:10149000FF2FD9D080236446DB041C43A4461B2ABB
:1014A00052DD01230C003D00C31A06E763461E1AF5
:1014B000730139D4002E00D004E700240022002656
:1014C0001DE720239B1A010098400300D1405A1EBB
:1014D00093410B4329E7002DA9D16346002B56D039
:1014E0000022002800D10AE7030063445A0194D582
:1014F0002B4A0135134090E76346002BAFD0531EB3
:10150000012A15D0FF2A2AD01A0052E76246002A83
:1015100091D1002898D180260024FF22F603EEE620
:101520000C00434615007CE763460C00C61AC9E66A
:101530000300634401255A0100D46EE70225FAE650
:10154000634601251B1AB8E664462023D4409B1A43
:1015500062469A4013005A1E93412343A2E7434632
:1015600074E761462023D1409B1A62469A401300DB
:101570005A1E93410B4320E763460C000125C31A12
:101580009BE6002899D00C0046460022B7E6464666
:101590000022B4E6002B00D03FE700240026AEE690
:1015A000FFFFFFFBFFFFFF7D41024200C30F490A1F
:1015B0000020120E7E2A03DD9D2A02DD094A9818BA
:1015C0007047802000040143952A07DC9620821A88
:1015D000D1404842002BF3D10800F1E7963A914000
:1015E000F7E7C046FFFFFF7F70B5002813D0C31791
:1015F000C5185D40C40F280001F0A6FF9E2301001E
:101600001B1A962B0FDC082831D008398D406D024B
:101610006D0AD8B202E0002400200025C00528434E
:10162000E407204370BD992B0CDD0522121A280017
:10163000D040020008001B3085402800451EA8410C
:1016400002431500052916DC2A000F4802406E07E8
:1016500009D00F263540042D05D00432550102D59E
:101660009F2302405B1A9201550AD8B2D6E76D0259
:1016700096206D0AD2E74A1F95402A000248024090
:101680006E07F0D0E5E7C046FFFFFFFB70B5041E14
:101690000ED001F059FF9E2301001B1A962B0CDC83
:1016A00008282CD008398C406402640AD8B201E0C2
:1016B00000200024C005204370BD992B0ADD0200E4
:1016C00020001B3290400200501E82410520401A2B
:1016D000C4401443052916DC22000F480240650768
:1016E00009D00F252C40042C05D00432540102D51A
:1016F0009F2302405B1A9201540AD8B2DAE76402CF
:101700009620640AD6E74A1F94402200024802400D
:101710006507F0D0E5E7C046FFFFFFFBF0B54F4699
:101720004646D6460400C0B51F000B0310004E000D
:101730005B0ACD0F610F7A001943E3003C03FF0FF2
:10174000BC46640A470F2743760D520DC000B946C8
:101750008046B71A654500D19BE0002F00DC84E08D
:10176000002A00D1BEE0C84A964200D124E180227E
:101770004C4612041443A146382F00DD67E11F2FA9
:1017800000DDD6E120224C46D21B9440A2464446BE
:10179000FC4020005446044340469040421E904185
:1017A0004A46FA400443891A1C1BA3429241524202
:1017B0008B1A9A4653461B0200D4D4E053465A0271
:1017C000530A9A465346002B00D104E1504601F0DB
:1017D000BBFE0300083B20222000D21A5146D04015
:1017E000994002009C400A43B34200DA02E19B1B8D
:1017F000591C1F2900DDA7E02023100026005B1ADA
:101800009C409840CE40CA40631E9C413043924663
:1018100000260443630709D00F232340042B05D07F
:10182000231DA342A4416442A2441C0053461B0250
:1018300000D49BE0944B01369E4200D1B8E0534661
:101840009249E4080B4019005B07234372054C02E0
:10185000240B520D1205ED0722432A4318001100F4
:10186000E0BCBA46B146A846F0BD002F48D0971B51
:10187000002E00D00EE10C001C4300D1B7E17C1E0D
:10188000012F00D126E2804DAF4200D1D5E12700E3
:1018900007E1002F00DCB2E0002A47D07A4A9642E6
:1018A00000D189E080224C4612041443A146382F0F
:1018B0006BDC1F2F00DC6EE13A004846203AD04036
:1018C0008446202F07D040224846D21B9040020079
:1018D0004046104380464046421E90416246040006
:1018E000144357E04A46024300D103E17A1E012F18
:1018F00000D193E1644CA74200D18AE117003BE795
:10190000634C721C224200D0E0E00A001A43002E11
:1019100000D074E1002A00D1D0E14A46024300D051
:10192000E3E14A07DB081343C90829E04A460243BA
:1019300000D17DE17A1E012F00D1E0E0524CA74298
:1019400000D166E11700B2E710001F3BD840202904
:1019500003D040235B1A9A401443631E9C4100232A
:1019600000269A460443630700D055E75246E30831
:101970005207134352463700D108434A97421FD0BB
:1019800009037A050C0B520D64E742464C4614439A
:10199000621E9441E4189C429241524292468A440B
:1019A00053461B02DFD5384B01369E4200D0B3E0D0
:1019B0003200002400234DE74A07DB081343C9081F
:1019C0001A000A4300D100E2802424030C432403BC
:1019D0002D4A240B3EE7200001F0B6FD030018332A
:1019E0001F2B00DCF7E62200083882400024B342B7
:1019F00000DBFCE6F61A254B1A4092460AE7002F58
:101A00002BD0971B002E00D1B8E01F4CA24200D172
:101A10001CE1802424042143382F00DD1EE11F2F08
:101A200000DD9EE120260C00F61B1800B340B440F8
:101A3000F8405E1EB341F94004431C4389444444CA
:101A400044459B415B424B449A461600A8E74246F8
:101A50004C461443621E9441A6E60D4C721C224271
:101A600000D0A8E00A001A43002E00D00AE1002AA4
:101A700000D15EE14A46024300D061E14A07DB083B
:101A80001343C9087CE7C046FF070000FFFF7FFF44
:101A9000FE070000CF4CA24200D1CEE080242404F7
:101AA0002143382F5BDC1F2F00DDDCE020250C00FC
:101AB000ED1B1E00AB40AC40FE405D1EAB4134430D
:101AC000F9401C434B465B1A99464CE04A461C1AA7
:101AD000881AA34292415242924602005046121A7C
:101AE0009246120278D45346234300D06AE600217E
:101AF000002545E74A07DB081343C9083DE71C18E2
:101B00009C429B4149448A465B429A445346012683
:101B10001B0200D427E702265246AF4B01211A4090
:101B20001300214062080A43DC075B089A4614430D
:101B300070E63A004C46203AD440A446202F07D005
:101B400040224846D21B9040020040461043804647
:101B50004046421E904162460400144324E6194365
:101B60000C00631E9C4143461C1BA0459B414946FB
:101B70005B42CB1A9A46654616001BE60C001C43D6
:101B800000D1C7E07C1E012F00D1F9E0914EB74291
:101B90005CD0270040E720224C464046D21B9440B0
:101BA000F840044340469040421E90414A46FA4065
:101BB00004438918EEE6874CA24200D1F9E61818D2
:101BC00098429B4149445B42CB18DC0740085B08C4
:101BD0009A4616000443C6E64246D41AA045804100
:101BE0004B464042591A0B1A9A466546EAE54B465F
:101BF0004A46C0085B0765460343D108BDE6002A94
:101C000000D08EE04B46034317D180210025090305
:101C1000DAE64A07DB081343C908D1E61C1A4A462C
:101C2000A3429B41891A5B42CB1A9A460126C1E521
:101C30004A07DB081343C9089FE64346D8084B46CA
:101C40004A465B0765460343D108B9E64346D808D0
:101C50004B464A465B070343D108B1E619430C00E3
:101C6000631E9C41EBE63C000D00203CE540202F2C
:101C700003D04024E41BA1400B431C00631E9C4185
:101C80002C4370E7002AE1D04A460243C1D04A07FC
:101C9000DB0813438022C9081203114208D04846CA
:101CA000C408144204D143462100DB084207134311
:101CB0005A0FDB005207DB08134381E64B46034310
:101CC00000D114E74B464A46C0085B07654603430C
:101CD000D10855E6C41AA04580414B464042591AE6
:101CE0000B1A9A466546012664E51C1A4A46A34229
:101CF00080418A1A4042121A9246120249D542463F
:101D0000D41AA04580414B464042591A0B1A9A46B4
:101D100065467FE54B464A46C0085B070343D1084A
:101D20002BE64A46DB08024338D14A071343C90869
:101D300046E64B464A46C0085B070343D1081FE608
:101D40001C189C429B4149448A465B429A44534634
:101D50001B0200D407E652461F4B01261A4092464A
:101D600001E63C000E00203CE640202F03D040243A
:101D7000E41BA1400B431C00631E9C4134435EE600
:101D800043448342804149448A4640421C00824485
:101D9000BCE65346234300D1A9E6E4E54A071343D2
:101DA0008022C9081203114209D04846C4081442CF
:101DB00005D1434665462100DB08420713435A0F0D
:101DC000DB00DB0852071343FAE50023014A1C003D
:101DD00040E5C046FF070000FFFF7FFFF0B5574614
:101DE0004E464546DE46E0B50C031F004B008146DB
:101DF0009246050085B0240B5B0DCE0F002B00D161
:101E000052E1D24A934200D16EE1420FE400144302
:101E10008022120422439046CD4AC50093469B443B
:101E20000023994600933C037B005046240B5B0D36
:101E3000FF0F002B00D11AE1C44A934200D15EE1AA
:101E4000420FE4002243802424041443C04AC1000A
:101E500094465A466344D31A9B46002033007B4085
:101E60009A464B460F2B27D8BA4A9B00D3589F4619
:101E7000B246009B022B16D0032B00D187E2012B28
:101E800000D0D5E00023002200251B051343524655
:101E9000D20713432800190005B0F0BCBB46B24678
:101EA000A946A046F0BD00220025A84BEDE7BA46A2
:101EB000A0460D000090DCE7444500D2C4E100D10B
:101EC000BFE101235B429C462E0040460025E344CF
:101ED00023020C0E1C431B0C994623040A021F0C00
:101EE000494600920197FEF7BBF902007A430B04C2
:101EF000310C804619438A4207D901235B429C4634
:101F00000919E0448C4200D801E2881A4946FEF7DC
:101F1000A7F9019A360442430904360C03000E4324
:101F2000B24204D93619013BB44200D8E9E1B01AF3
:101F30004246009E12041A43330C1F00110C9046B7
:101F4000029313043204160C32001B0C5A430396FE
:101F50007B434E437943170CBC469B1963449E4216
:101F600003D980267602B44661441E0C711816040B
:101F70001B04360C9E19884202D312D1B54210D2EE
:101F800043465A1E009B9C4665441F009D429B4150
:101F90005B421B19C018844200D29EE100D199E136
:101FA0009046AE1BB542AD41401A6D42401B844283
:101FB00000D1D2E14946FEF753F9019A0B0442439E
:101FC000310C050019438A4200D96CE1881A494650
:101FD000FEF746F9019A360442430904360C030021
:101FE0000E43B24200D953E10398B61A02002D0401
:101FF0001D43029F2B041B0C5A437B439C46290C18
:102000004843130C844463447943984203D98020A5
:10201000400284466144180C12041B04120C401840
:102020009B18864200D200E100D1FBE001231D4352
:10203000494B5B44002B00DCAAE06A0700D03DE17D
:10204000E9084246D20106D54246444B1A40802355
:102050009046DB005B44424A934200DD23E7424660
:102060005B05550752020D43120B5B0D0DE7514600
:10207000214300D17CE0002C00D1FBE0200001F0E6
:1020800063FA02000B3A1D239B1A52460100DA4004
:10209000534608398B408C4019001443314B584447
:1020A0009B4683440020D9E603002343984644D04E
:1020B000002C00D1CFE0200001F046FA0100020020
:1020C0000B391D235B1A49461000D940083884405B
:1020D0000B004D46234398468540234B9B1A9B4655
:1020E0000023994600939EE60200224390461DD1AC
:1020F00008229B46022300259146009393E6514611
:10210000214309D102234A461A43184B91469C4663
:1021100000240220E344A1E603234A461A43134B5A
:1021200091469C4651460320E34497E60C229B4689
:102130000323A0469146009375E6042399460023A5
:102140009B460133002500936DE6C046FF07000063
:1021500001FCFFFF34CD0108FF030000FFFFFFFE7D
:10216000FE070000F30300000DFCFFFF01F8FFFF76
:102170004A4601231A439146002401206EE60023BB
:1021800080229A460025884B12037EE601256D4287
:102190000122D21A382A00DD74E61F2A00DCBDE0D5
:1021A0001F214942CB1A4146D9400B00202A04D0B6
:1021B00041467E4A5A4491400D4329004A1E9141AE
:1021C000194307231D0000220D400B4200D1D0E02F
:1021D0000F2200230A40042A00D1C7E00A1D8A42C8
:1021E000894149425B1811001A0200D4BEE0012364
:1021F0000022002549E6802243461203134208D0FC
:10220000144206D122431203BA460D00664B120B4C
:102210003BE68022434612031A431203B246624B46
:10222000120B32E6002B00D102E7A6196A1EA64265
:1022300000D289E0864200D29FE000D1AFE01500D5
:10224000F4E6A94200D93CE64346DE0758086B088D
:102250001E43ED073CE601F077F90100020015315D
:1022600020321C2900DC2CE74B460838834000252F
:10227000984632E701F068F903001A001532203061
:102280001C2A00DCFFE65446083B00219C4005E781
:102290003619013BB44200D9A6E6B24200D8A3E603
:1022A000831E3619A0E60919013D8C4200D98DE63E
:1022B0008A4200D88AE6851E091987E60F222A403D
:1022C000042A00D1BCE6291DA942AD416D42C908CE
:1022D000A844B6E6AF4200D962E6814204D800D0F5
:1022E0005EE6AE4200D85BE602235B429C46009B62
:1022F000E0449C4665449D429B415B421B19C018CB
:102300004FE6B24200D812E6831E36190FE68A4223
:1023100000D8FAE5831E98460919F6E5244B2800F3
:102320005B4441469D409940D0406B1E9D414346D1
:1023300001432943D3404A0700D155E70F220A4001
:10234000042A00D04AE74FE71500864200D06DE628
:10235000009A9A4200D069E66AE6164B5B44002B6D
:1023600000DC13E701250021A8446AE65D075B0253
:102370001A0BC90800230D4387E50099023D4A0066
:102380008A42BF417F423F19F6190092DDE7802261
:10239000434612031A431203034B120B75E50099CF
:1023A0009942EAD31500D3E7FF0700003E0400007E
:1023B0001E040000FF030000F0B54E464546DE4611
:1023C00057469046E0B517001A03120B05008446E5
:1023D00019480E034C0091465A00DB0F9B46360B02
:1023E000640DC90F520D844219D0824210D00120D1
:1023F00094420ED14E450CD10120C44509D1594516
:1024000017D0002C05D130002843431E984100E02E
:102410000120F0BCBB46B246A946A046F0BD330041
:1024200001202B43F5D1A242F3D14B463B43F0D1DF
:10243000E2E70020EDE7C046FF070000F0B54746A1
:10244000CE460400180016001B031B0B2D4D4A003E
:10245000994680B543000F03A446B0463F0B520D8A
:10246000C90F5B0DC00FAA4221D0AB4213D0002A86
:1024700022D13C43002B02D14D462E4322D0002CCA
:1024800010D0814222D00220013908400138C0BC5E
:10249000B946B046F0BD4D462E4329D1002AF0D1B1
:1024A0003C43EED10028F2D101204042EFE73D004D
:1024B00025431DD19342EED0002BE2D14C4626435A
:1024C000DFD1E0E70020002CE1D0DCE79A420ADC13
:1024D000E8DB4F45D7D80ED000204F45D7D2002992
:1024E000E2D00800D3E74342584140000138CEE72C
:1024F00002204042CBE7C445C5D80020C445C6D21F
:10250000EDE7C046FF070000F0B54746CE460400A1
:10251000180016001B031B0B2C4D4A00994680B572
:1025200043000F03A446B0463F0B520DC90F5B0D8D
:10253000C00FAA420DD0AB4210D0002A27D13C4395
:10254000002B11D14D462E430ED10020002C15D06A
:102550000EE03D00254310D1934218D14D462E4345
:102560000BD1002A02D13C43002C0BD0814214D065
:10257000022001390840013800E00220C0BCB94601
:10258000B046F0BD0028F9D101204042F6E7002B0B
:10259000ECD14C462643E9D1EAE79A4204DD4342B6
:1025A000584140000138E9E79A42EBDB4F45DFD85C
:1025B00006D000204F45E1D20029E5D00800DDE734
:1025C000C445D5D80020C445D8D2F5E7FF070000A0
:1025D000F0B54546DE4657464E46E0B51F000B03B4
:1025E0001B0B9B464D00CB0F04009146984687B0CD
:1025F0006D0D00D1CDE1CE4B9D4200D1E9E15A46AF
:10260000430FD2001343802212041A43C3009A4698
:10261000C84B93469C4600230026654400933C0328
:102620007B004846240B5B0DFF0F002B00D189E196
:10263000BF4A934219D0420FE4002243802424046D
:102640001443BC4A00219446424663445B190193FB
:10265000019B7A400133C000D2B202930A2E1CDDE6
:102660003A000B2E5ED0474656E04946B04B214318
:10267000EB18019300292AD18020022200012B00AF
:1026800084461643424663447A40D2B202930A2EED
:1026900000DD31E2002000240221022E26DC013E72
:1026A000012E52D802294CD0012900D018E1002374
:1026B000002400251B052343D207134328001900DB
:1026C00007B0F0BCBB46B246A946A046F0BD80218B
:1026D000032209012B008C461643424663447A408C
:1026E000D2B202930A2E00DD28E203210125B54073
:1026F000AC46A6266346F600354033420BD1902601
:10270000B600334218D1B93EFF3E1E421DD0A3464B
:102710008246009100E0170000993A00022910D08B
:102720005C4650460329BFD180231B031C4324036E
:1027300005007F4B240BBDE7802400227C4B240343
:10274000B8E7002400257A4BB4E753461E04360C44
:102750001F0C3300010C0004000C43439846030097
:102760007B43994633004B439C4643460D001B0C6C
:102770009A467D43CC44D4440095E14504D9802356
:102780005B0299464D44009563461B0C1D00634651
:102790001B049C4643461B041B0C9846634643445B
:1027A0000393230C984633002404240C63439C4673
:1027B00023007B43994643465E435F434E44634652
:1027C000B2461E0C5644B14503D980235B0299469C
:1027D0004F44330C99463B004B4405936346AC464B
:1027E0001F043F0C3604F619B444634604935B4659
:1027F0001B0C9C465B461F043F0C3B004343994621
:10280000634643439A464B4660461B0C9B464843EF
:102810007943514459448A4503D980235B029A463F
:1028200050440B0C9A464B461B041B0C99463B002C
:102830006343090445464944994663465C436B43F8
:102840009C464B461B0C98466F433F1947445044E7
:10285000BC4203D980235B029846C444049B009D7C
:1028600098464544B542B641734298464B461E04CD
:10287000059B3C049946360CA4194C44A14683465A
:102880006E18C1448E428941CB445D4649426D1861
:102890009C42A441C1459B41834580418D42894171
:1028A0005B4264421C434042039B49420143700225
:1028B0003F0C1843E419471EB84164186444F60DF0
:1028C00061023043EC0D6E020C433043C90100D469
:1028D000F1E00121430801400B43E007184364087D
:1028E0001549029B8C466344002B00DC97E04107AE
:1028F00009D00F210140042905D0011D81428041EA
:10290000404224180800E10106D58021C9008C4608
:102910000A4B1C40029B634409498B4200DD10E7CF
:102920006107C50864025B050D43240B5B0DC1E61E
:10293000FF07000001FCFFFFFF030000FFFFFFFE99
:10294000FE0700004B46234359D0002C00D1A3E0E2
:10295000200000F0F9FD010003000B391D22521A7E
:1029600049461800D1404A46083882408440100049
:102970000C43744AEB1A9446424663440193019B0C
:102980007A4001330021D2B202930A2E00DD67E6BD
:1029900083E65B4603439A462AD05B46002B6DD004
:1029A000584600F0D1FD010003000B391D22521AD8
:1029B000210018005D46D140083885400A00844057
:1029C0002A439346A2465F4D0026ED1A002300934A
:1029D00025E65B4603439A4605D100239B46023316
:1029E000082600931BE6032382460C26009316E676
:1029F00000239B4601330426002500930FE6424640
:102A0000013301951E43019B7A40013300240020CD
:102A10000121D2B202930A2E00DD21E63DE601211A
:102A2000C91A382900DD42E61F2947DD1F26250087
:102A30007642F31ADD402B00202905D04249029D41
:102A40008C466544AC402043411E8841184307230F
:102A50001D000024054003424AD00F2300240340F8
:102A6000042B42D0031D83428041404224181800A9
:102A700023023AD50123002400251BE600F064FD63
:102A800001000300153120331C298FDD0838002296
:102A900084409246A34696E700F056FD01000300ED
:102AA000153120331C2900DC58E702004C46083A57
:102AB000002094405DE7019B029311E7234B260021
:102AC0009C460300029DCB406544AE401E4303007C
:102AD000AB40581E834130001843CC404307C7D059
:102AE0000F230340042BBDD1C2E765076402240B0A
:102AF000C00800230543DDE5002502230F2E0CD17D
:102B000080245B46240323420ED021420CD10C4387
:102B100024033A000E4B240BCCE50B2E00D0A2E58B
:102B20008B46AA460093F7E580245B4624031C43AA
:102B3000240342465546064B240BBBE54D46210077
:102B40000323DBE70DFCFFFF3E0400001E04000032
:102B5000FF070000F0B557464E464546DE46E0B555
:102B60000D000400190010002B035B0A620F1A43CA
:102B7000E3000C03640A470F2743D04C6E009146D4
:102B800083B04A00C0009846A246760DED0F520D64
:102B9000C90F0190A24200D1B9E0012461408B46E7
:102BA0008D4200D18DE0B41AA446002C00DCB7E0C1
:102BB000002A00D1CBE0C14A964200D186E18022B2
:102BC000120417436246382A00DDA4E11F2A00DD03
:102BD0001DE2614620223C00521A010090409440C0
:102BE000421E90416246A0466446D7404A46E140B4
:102BF0004446D21B91460C4304431C1BA342924102
:102C00004B4652429B1A9A4653461B0200D42BE174
:102C100053465A02530A9A465346002B00D166E1A6
:102C2000504600F091FC0300083B20222000D21AFD
:102C30005146D040994002009C400A439E4200DD2C
:102C400064E19B1B591C1F2900DDFEE020231000BE
:102C500026005B1A9C409840CE40CA40631E9C41AF
:102C60003043924600260443630709D00F232340D4
:102C7000042B05D0231DA342A4416442A2441C009E
:102C800053461B0200D4F2E08C4B01369E4200D129
:102C90000FE153468A49E4080B4019005B072343C0
:102CA00072054C02240B520D12052243ED072A43F4
:102CB0001800110003B0F0BCBB46B246A946A046BE
:102CC000F0BDB41AA446002C59DD002A00D1B0E0B2
:102CD000564500D1FAE08022120417436246382A92
:102CE00000DDD4E01F2A00DCC0E13900203AD140E9
:102CF0006246202A06D064464022121B3C009440C3
:102D000004430194019C621E94410C43C3E03C00C7
:102D100004432BD08B468D422ED06A4CA446B4443B
:102D20006446002C5FD0941BA446002E00D020E106
:102D30004C461C4300D1C7E161464C1E012900D11D
:102D400023E25E4DAC4500D1D8E1A4461AE13A0039
:102D5000024300D1E4E02200013A012C00D1C3E19A
:102D600056498C4200D1B1E094462BE701246140E2
:102D70008B468D4200D016E752498C46B4446446D7
:102D8000002C00D1D3E0911B8C46002E00D15EE1D7
:102D90004A498A4200D1BEE180214C4609040C43D5
:102DA000A1466146382900DDBAE11F2900DD27E28E
:102DB0002024641A4946A1401E0088466146A3406B
:102DC000CE4041465C1EA341314319430C0063468B
:102DD0004946D9407F18241884429B415B429A4659
:102DE0001600BA445DE0384C721C224200D0DFE08D
:102DF0004A461A43002E00D05CE1002A00D1CFE100
:102E00003A00024300D17FE11C1A4A46A34289419D
:102E1000D21B4942521A9246120200D40AE2C41A44
:102E2000A04280414B464042FF1A3B1A9A465D46FB
:102E30001AE73A00024373D02200013A012C00D174
:102E4000CBE0544542D0944648E710001F3BD840A1
:102E5000202903D040235B1A9A401443631E9C41EF
:102E6000002300269A460443630700D0FEE652463C
:102E7000E308520713435246B446D2080F498C4523
:102E80002AD01203140B62465205520D0CE73C0087
:102E90000443621E9441E4189C42924152424A44C7
:102EA000924653461B02DFD5044B01369E4200D0AA
:102EB000A0E0320000240023F6E6C046FF07000031
:102EC000FFFF7FFF01F8FFFFFE070000DB084A4617
:102ED000520713434A46D2081900114300D1B5E105
:102EE0008024240314432403D54A240BDCE6200069
:102EF00000F02AFB030018331F2B00DC95E62200AC
:102F00000838824000249E4200DC9AE6F61ACD4B37
:102F10001A409246A8E63C000443621E94416CE6C7
:102F20004A46DB08520713434A46D208A6E7C64C76
:102F3000721C224200D0ACE04A461A43002E00D058
:102F400005E1002A00D156E13A00024300D1DBE05E
:102F50001C189C429B414F44BA465B429A445346DC
:102F60001B0200D480E75246B64B01261A40924617
:102F70007AE7B34CA24200D1C0E080244D4624043D
:102F80002543A9466446382C53DC61461F2C00DDDE
:102F9000CDE020251E002D1B4C46AB40AC40CE4062
:102FA0005D1EAB41344323434C46CC403F1B45E0C0
:102FB0004A461C1AD11BA3429241524292460A0031
:102FC0005146521A9246120200D583E053462343DB
:102FD00000D021E60022002553E71C189C429B41AB
:102FE0004F44BA465B429A44534601261B0200D422
:102FF0003AE702265246934B01211A401300214022
:1030000062080A43DC075B089A4614432CE6390041
:10301000203AD1406246202A06D064464022121B44
:103020003C00944004430194019C621E94410C4373
:10303000E3E5494619430B005C1EA341C41AA042B4
:103040009B415B42FB1A9A465D461600DCE5494609
:10305000194300D1AEE0614664460139012C00D12C
:10306000E0E0774CA44556D08C469AE66146202293
:103070003C00521A944001009040A0466446421E13
:1030800090416246E1404446D7400C430443B94472
:1030900001E76B498A4200D10CE7181898429B411E
:1030A0004F445B42FB18DC0740085B089A46160059
:1030B0000443D9E6002A00D081E03B0003431DD140
:1030C0008022002512030BE7C0087B075D460343FF
:1030D000FA08D3E6C41AA04280414B464042FF1A88
:1030E0003B1A9A465D4697E51C1A4A46A3429B4105
:1030F000D71B5B42FB1A9A46012685E5C0087B0771
:103100005D460343FA08E7E64A46DB0852071343E5
:103110004A46D208B5E6C0087B070343FA08DBE657
:10312000494619430B00591E8B411C0053E64D467E
:10313000203CE540202905D04024641A4946A1409E
:103140000B43984643465C1EA3412B4376E7002A77
:10315000E1D03A00DB08024300D1B8E64A46520704
:10316000802413434A462403D208224207D0FE0893
:10317000264204D15D463200C3087F073B43590F06
:10318000DB004907DB080B43A6E6C41AA0428041D6
:103190004B464042FF1A3B1A9A465D46012633E5EC
:1031A0003B00034300D115E7C0087B075D4603439E
:1031B000FA0866E6C0087B070343FA085EE63A00B1
:1031C000DB08024300D182E64A46520780241343BB
:1031D0004A462403D208224207D0FE08264204D1E0
:1031E0005D463200C3087F073B43590FDB00DB0815
:1031F00049070B4370E6C0087B070343FA0840E623
:103200004C462039CC406146202906D066464021F4
:10321000891B4E468E40334398464346591E8B4188
:103220001C43D8E51C18844280414F44BA464042B2
:103230008244D9E65346234300D1CBE614E6C04688
:10324000FF070000FFFF7FFFFE0700000023014A89
:103250001C0029E5FF07000070B505000C481C03A1
:1032600016005B000A034900120B490D240B5B0D8D
:10327000814208D0064A0020934203D12000304307
:10328000431E984170BD01202A43FBD1F2E7C0469E
:10329000FF0700000A0030B5134C53000903050076
:1032A000090B00205B0DD20FA34204DD0F488342BF
:1032B00002DD0F4BD01830BD8020400301430D4884
:1032C000C01A1F2808DD0C48C31AD9400B00584209
:1032D000002AF0D11800EEE7084CC540A44663442C
:1032E00099400B002B43F2E7FE0300001D04000091
:1032F000FFFFFF7F3304000013040000EDFBFFFF1E
:1033000070B5002816D0C317C5185D40C40F28003B
:1033100000F01AF9114B1B1A0A2816DC02002E00C5
:10332000153296400B22121AD5405B052D032D0B4A
:103330005B0D03E000240023002500261B052B4322
:10334000E40723433000190070BD0B3885405B054E
:103350002D0300262D0B5B0DF0E7C0461E04000078
:1033600010B5041E10D000F0EFF80F4B1B1A0A28FE
:1033700011DC0B222100121AD14015300A035B0523
:103380008440120B5B0D01E0002300221B05134358
:103390002000190010BD22000B3882405B0512038B
:1033A0000024120B5B0DF1E71E04000070B5420211
:1033B0004300C40FFE201B0E591C550A08420CD0B6
:1033C000E02189008C466D07120B63441B051343F3
:1033D000E40723432800190070BD002B14D1002DF1
:1033E0001BD0280000F0B0F80A281CDC0B232A00B0
:1033F0001B1ADA40030015339D400E4B12031B1AB3
:103400005B05120B5B0DE1E7002D09D0130B802249
:1034100012031A436D07084BD8E700230022D5E7B3
:103420000022054BD2E703002A000B3B9A400025FF
:10343000E3E7C04689030000FF0700000200F0B583
:103440004B000D03400F5B0DCC0F6D0A3A4905434D
:10345000581CD70008420AD038495918FE2916DDF1
:10346000FF200022C0051043E4072043F0BD002BDD
:1034700006D13D4326D005229201520AD8B2F1E787
:103480002F43EDD08022D203FF202A43EAE7002910
:103490001BDD9201501E8241ED007F0F2A433A430B
:1034A000530747D00F231340042B00D0043280234E
:1034B000DB0413403ED0481CFE29D1D09201520AB1
:1034C000C0B2CFE700200022CCE70A0017322FDB82
:1034D000802636042E431E256D1A1F2D11DD022273
:1034E0005242521A3100D140202D04D0144A944641
:1034F00063449E4037433A00531E9A410A430021D9
:10350000CEE7104A38009446634498403A00411E82
:1035100088419E40EA403043024300215307C1D115
:1035200080211300C90401200B400A42C6D1A3E741
:103530000023A0E70B009FE7FE07000080FCFFFFD1
:10354000A2FCFFFF82FCFFFF1C2101231B04984209
:1035500001D3000C10391B0A984201D3000A083924
:103560001B09984201D30009043902A2105C4018DB
:103570007047C0460403020201010101000000007F
:103580000000000010B5002903D1FFF7DDFF203057
:1035900002E00800FFF7D8FF10BDC046F0B557465F
:1035A0004E464546DE46E0B50F00190000230600F2
:1035B0009846100083B0002F07DA33003C00002744
:1035C0005E42A74101235B429846002907DA434641
:1035D000DB430C009846030000215842A14134000F
:1035E0003D0082468946B94269D866D04946504670
:1035F000FFF7C8FF834639003000FFF7C3FF5B4683
:103600001B1A9C46203B6BD4514699409B46604612
:103610000B00514681400A00BB4200D973E0BB4217
:1036200000D17AE034003D005946A41A9D4100299A
:1036300000DA75E000210020012600900191594632
:103640008E400196614601268E4061460096002913
:1036500060D0D90756080E435F0861460122002357
:103660000CE0AF4201D1A6420AD8A41BBD412419E7
:103670006D410139A4185D41002906D0AF42F0D94F
:10368000013924196D410029F8D1009801995B4650
:1036900000196941002B4EDB2E002C00DE406346F2
:1036A000DC405B46002B56DB34009C402300644624
:1036B000A6403200801A994103E0B04296D900201A
:1036C00000214346002B04D003000C000021584287
:1036D000A14103B0F0BCBB46B246A946A046F0BD2E
:1036E000624648469B462023514690409B1AD9404B
:1036F00003000091009960460B43514681400A0047
:10370000BB4200D88BE70021002000900191614668
:1037100000299ED100980199D3E7B142F3D881E7FF
:10372000614620260127761A00200021F7400090EC
:103730000191019786E7624620239B1A2A009A404E
:10374000260013006246D6402C001E436346DC4030
:103750005B46002BA8DA62462023350094409B1A72
:10376000DD4023002B43A2E71B2807D8044A01238E
:10377000C24047201340C01AC0B270474720FCE740
:1037800060C08A0BF0B5C6460600162000B51D00C5
:1037900006AB1B781700013B5843204A0C00835AA4
:1037A000300098460BF004FA002818D01C4BB200E9
:1037B0002900D0580BF0C8FF002810D14346DBB2D7
:1037C0001B2B03D8174ADA40D20710D430000BF075
:1037D000EFF93A00210010F097FF050000E0012505
:1037E0000A200DF0E3FF280080BCB846F0BD00239E
:1037F0009846002FF3D030000BF0DAF901222100B7
:1038000010F082FF050002200DF0D0FF4346013387
:10381000DAB290460134BA42EDD3E1E75C0D002004
:10382000D01E002060C08A0BF0B5224B22491B88B5
:1038300083B09AB28B4235D0160A2CD01F4BF6B209
:103840001E701F4B1A706B46D91D002302220125E2
:103850009C461C4C63460B700B780A2B14D86B1ECD
:103860009800C0184000C018124BD7180B783F883A
:10387000C3185B00E7520B7802320133DBB20B70E6
:103880000B7892B20A2BEFD90135EDB2AE42E1D2FC
:10389000002003B0F0BD0121084B01261970084B30
:1038A0001A70D0E70122054BFA201A700022044B4F
:1038B0001A70EEE700000408FFFF0000000000207F
:1038C000480800205C0D0020F0B557464E46DE4605
:1038D0004546E0B583B06B469E1D00239846338075
:1038E000194B21279A46194B9B4643469B001D00C6
:1038F000994645447C1F6D00A4B255442000310018
:1039000008F0BEFF338801346B70A4B21B0A2B7021
:103910000235BC42F2D14F46002347447F00574452
:103920007B7243460133DBB298465B461B78053415
:10393000A7B24345D9D2002003B0F0BCBB46B24683
:10394000A946A046F0BDC0464C0C00200000002057
:10395000F0B54646D6464F46C0B582B06B469E1D72
:103960000023234D33802B780024002B3CD0214BA7
:10397000002198461F1D20004900CB30791880B2E5
:1039800008F07EFF611C2B788CB2C9B28B42F2D852
:1039900038232700D0349C46A3B2994600239A4688
:1039A0009E37E044BFB245467C1FA4B220003100E0
:1039B00008F066FF338801346B70A4B21B0A2B70C9
:1039C0000235BC42F2D1434652465A720A239C4603
:1039D0000534A7B2E0444F45E5D1002002B0E0BC79
:1039E000BA46B146A846F0BD024B9846D0E7C0465D
:1039F0000000002048080020F0B585B000236A468A
:103A0000E42003A99381D38108F03AFF0025002820
:103A100001D16B461D7B03A9E52008F031FF0E2381
:103A20006B4404001900E62008F02AFF0443A4B206
:103A30000026002C04D16B469E89DB893604F618DB
:103A400003A9E72008F01CFF0E236B4404001900B3
:103A5000E82008F015FF0443A4B20027002C04D18D
:103A60006B469F89DB893F04FF18E92003A908F012
:103A700007FF00282FD0264CEA2003A908F000FFFA
:103A8000002804D16B469B891A0AA277E377EB20C2
:103A900003A908F0F5FE002806D16B4620229B8979
:103AA000190AA1540132A354237F002B02D0627F54
:103AB000002A1ED1A37F002B02D0E27F002A1FD153
:103AC0002023E35C002B03D02122A25C002A09D131
:103AD000002005B0F0BD6B469B890D4C1A0A227779
:103AE0006377C9E7009231003A00280004F0B2FC85
:103AF000EEE7009231003A00280004F0ABFCD9E771
:103B0000009231003A00280004F0A4FCD8E7C04637
:103B1000C80800208A2030B583B001A9400008F011
:103B2000AFFE002800D06AE06B4624229B88494CF7
:103B3000A3541B0A25008E20243501A940006B7078
:103B400008F09EFE002800D07CE06B469B88DA0BD4
:103B50002A715B08162001A9FF30638508F090FEEA
:103B6000002800D06BE06B469B888B2001A94000A9
:103B7000A38508F085FE00285ED16B469B8818203F
:103B800001A9FF30E38508F07BFE00284DD16B468C
:103B900022009B882C3213711B0A22008C202C32AD
:103BA00001A94000537108F06BFE6B4605001A2016
:103BB000991DFF3008F064FE0543ADB2002D2DD1F4
:103BC0006B466A46DB8892881B0413438D2001A94B
:103BD0004000636308F054FE00281BD16B469B88AD
:103BE00023871C2001A9FF3008F04AFE00280DD1D0
:103BF0006B461B7900202C34A37603B030BD242201
:103C0000154B144C1979A1545B7993E72622124B7A
:103C10009B5CEFE7C0235B012387E2E74823E35C7B
:103C2000002B14D0E1235B02D0E722000A4B2C3298
:103C3000197C11715B7CB0E7074BDB899FE7064B72
:103C40009B8992E7044B1A7A2A715B8982E7024BBF
:103C50005B69BBE7C808002000000020F0B55746AC
:103C60004E464546DE46E0B589B000236A46D3831A
:103C70000F3399460E3B9A460833FF330127EC2455
:103C80009846344E05E00434A4B209360137444561
:103C900058D01E236B441900200008F0F1FD051ECA
:103CA000F1D16B46DB8B190A1A0BBA42EBD14A46AB
:103CB00048460A400842E6D073741E23601C6B44D9
:103CC0001900B27280B208F0DBFD6B46DB8BA01CE2
:103CD0001A0AB3731E236B441900F27280B208F003
:103CE000CFFD6B46DB8BE01C1A0AF3731E236B447B
:103CF0001900327380B208F0C3FD6B46DB8BB07ADB
:103D00001A0A3374FBB2190072739B4609F0A2FAC7
:103D10005046717CF37A4A10059502400140307C90
:103D200004340490F07BA4B20390B07B013702907E
:103D3000707B09360190F0780090584609F084FBBA
:103D40004445A6D1002009B0F0BCBB46B246A94606
:103D5000A046F0BDCC2C0020F0B5D64646464F46D6
:103D60003220C0B512F03AF8061E6CD0374C2378DA
:103D7000FE2B57D1431C994664239A46344B354F4A
:103D80009846BA44210023001431351B1A78EA54AE
:103D900001338B42FAD114224946380013F085FDD5
:103DA000283414220021300013F053FC2278FD2A1D
:103DB0003AD80023283D01E0322B30D02A556278D2
:103DC00001330134DBB2FD2AF6D91D005A1EB25C64
:103DD000002A01D00133DDB2280011F0FFFFF860A6
:103DE000002826D02A00310013F05FFD43464246EA
:103DF0001B7800210133137030002A0013F029FCD6
:103E00002378FE2B02D114375745BBD1300011F077
:103E1000EFFF0020E0BCBA46B146A846F0BD312213
:103E20003225D4E7FF20F5E7012200250023524286
:103E3000CDE714220021380013F00BFC300011F004
:103E4000D7FF0E20E6E7FB20E4E7C0460010040899
:103E5000A4160020A816002070B5FFF7E5FC0F4C53
:103E60002378002B0CD001200D4D411E461C49002B
:103E70003000691808F004FD2378F0B28342F4D2D0
:103E8000FFF722FDFFF764FDFFF7B6FDFFF742FEE7
:103E9000FFF7E4FEFFF760FF70BDC04600000020A2
:103EA000EC300020F0B5C64600B5104E3378984689
:103EB000002B16D00023012498460D4F07E0192C43
:103EC00001D90A2398463378ECB2A34209D3631E82
:103ED0005B00F95A651C0029F1D0A8B208F0F8FC83
:103EE000EDE7404680BCB846F0BDC046000000206B
:103EF000EC3000200023F0B54646D6464F469846A3
:103F00001C4BC0B599461C4B00269A4605E053460B
:103F100001361B78F6B2B34226D34B46B400A4193F
:103F200064001B5D002BF2D04546474601341C352A
:103F300021374C44ADB2BFB221781B022800C9180A
:103F4000013589B2ADB208F0C3FCBD4202D063783E
:103F50000234F1E7434605339BB298465346013697
:103F60001B78F6B2B342D8D20020E0BCBA46B146C4
:103F7000A846F0BD4C0C002000000020F8B5DE463D
:103F800057464E4645468B46E0B51C000AAB1B78AB
:103F900001009A460BAB1B78E42098460CAB1F78C7
:103FA0000DAB1E780EAB91461D7808F091FC5B4678
:103FB000190A89B2E52008F08BFC5B46E62099B22D
:103FC00008F086FC4B46190A89B2E72008F080FC0D
:103FD0004B46E82099B208F07BFC2102514489B29B
:103FE000E92008F075FC43461902C91989B2EA2094
:103FF00008F06EFC3102491989B2EB2008F068FC28
:104000000020F0BCBB46B246A946A046F8BDC0465B
:1040100070B5214C242225008A2024356B78A15CC0
:104020005B011943400008F053FC8E202979638D11
:10403000C903194389B2400008F04AFC1620A18D3B
:10404000FF3008F045FC8B202500E18D400008F092
:104050003FFC18202C356B79297B1B021943FF305C
:1040600008F036FC8C20A18E400008F031FC1A20AC
:10407000E18EFF3008F02CFC8D206B7B29791B0230
:104080001943400008F024FC1C20A97EFF3008F0F2
:104090001FFC002070BDC046C8080020F0B5C64611
:1040A000124E34220021300000B513F0D2FA104D28
:1040B0002F78002F16D00223012400279846192CB0
:1040C00000D90A274346DCB22B78A3420AD3631EE9
:1040D0005B00F15A631C98460029F0D0180008F0E4
:1040E000F7FBECE7380080BCB846F0BDEC300020B0
:1040F000000000200E2330B512248FB06B446C44B6
:10410000009303AA06AB05A9012008F0D5FE04AA76
:1041100008AB07A90220009408F0CEFE01230A9301
:104120006B4600259B89059809A909930B950EF00C
:10413000A1FB02230B932388089809A909930A95E8
:104140000EF098FB6B460022998905980EF034FD1D
:1041500005200AF031FA218808980EF027FD0300A7
:104160000020002B01D00FB030BD6B460122998991
:1041700005980EF021FD05200AF01EFA2188089806
:104180000EF014FD013843425841C0B2EBE7C0467F
:1041900070B506000024084D30002968FBF7B4FF15
:1041A0000134002805D0E4B20C350D2CF4D10020E8
:1041B00070BDE0B2FCE7C0469400002070B5017805
:1041C00003000C003D3C3D2900D144780D00062041
:1041D0003E3D3C39002C27D0002D02D15A78002AD0
:1041E00024D0002902D15A78002A21D01A783E2AF8
:1041F00005D15E783D2E02D19E78002E1AD03C2A41
:1042000005D15E783D2E02D19E78002E14D0212A51
:1042100005D15A783D2A02D19A78002A0ED0013869
:10422000C0B20028D6D170BD0120FCE70220FAE719
:104230000320F8E70420F6E70520F4E70620F2E77C
:1042400070B50AF08BF80AF01FF908F039FC08F095
:10425000F5FD07F07DFF0AF049F908F041FA0AF090
:104260006DF908F097FE002857D1FFF743FF0028AB
:1042700025D132200AF0A0F906F0C0FF304DFFF73B
:10428000EBFD0AF02BFD08F00BF880212D4B0122ED
:104290001B782D484901002B28D10EF08DFCFA2007
:1042A00040000AF089F980210022274849010EF0D8
:1042B00083FC03F099FD49230122EA5470BD482391
:1042C00001221F4D3220EA540AF076F906F096FFDB
:1042D000E12149020124696300E0696B2000013497
:1042E000E4B20AF053FC072CF7D1C8E70EF064FCE7
:1042F000FA2040000AF060F98021002249011248AA
:104300000EF05AFC64200AF057F980210E48012271
:1043100049010EF051FC6420C3E70C4C0C4D23689E
:10432000AB4204D008F06CFB002800D12560BFF33D
:104330004F8F084B084ADA60BFF34F8FC046FDE746
:10434000C80800204808002000040050F07F00202A
:10435000ADDEEFBE00ED00E00400FA0510B50DF093
:10436000FFF906F045FDFFF76BFF03F059FF0BF077
:10437000C7F910BDF0B5C646124E134B3700050005
:104380000124984600B54C3782B0A54210D0434670
:104390004C221B8DBC705BBAB352032300220093E6
:1043A00000212000073304F04DF90A200BF0AEF98C
:1043B0000134E4B2072CE8D1002002B080BCB8463A
:1043C000F0BDC046C808002000000020F0B55746E8
:1043D0004E464546DE46E0B585B06A464B4B00AFDB
:1043E0001E780400F31DDB08DB00D31A9D466D46E2
:1043F000002E0AD032000021684613F02AF9444802
:10440000002172007C3013F024F90122631EEA546B
:104410003F4815323F495A435B00C01801238C4680
:1044200098460133B960624400217C249C46AB4627
:10443000FE605388002B0DD0065BDB08B146464674
:104440008E40B2464E4655462E4365465B44013B80
:1044500006531D70013102320629EAD15D4602235E
:10446000FE689B46B0462E00294B7B605B460133BD
:10447000DBB29B464346002B3FD001235B425B44AB
:10448000994600237C6800229C46BD687C3405E088
:104490000132D3B21635023498452BD9B35C4B4563
:1044A000F6D14B462800AA46002125009146FB6024
:1044B0004388002B0FD0DB08013BF25C002A0AD1B5
:1044C00001248C402A8822432A805A46F2546346AB
:1044D0000133DBB29C46013102300629E8D14A465D
:1044E0002C005546FB6801329946D3B2163502348A
:1044F0009845D3D86346002BB8D10020BD4605B0FF
:10450000F0BCBB46B246A946A046F0BD0000002064
:10451000C80800205C0D0020F0B5DE4645464E463A
:104520005746E0B5002593B004000E002E220191FD
:1045300006A80021059513F08CF86D4B1A22002176
:104540001800029313F085F830216A4B621E9846DA
:104550009B185D541C315D5416235343664A012059
:1045600093461A005A440392B1B24300D35A002B27
:1045700003D0DB088B4200D1A9E001300728F4D139
:104580005E4B18780123002800D1ACE04746454631
:10459000FF2600212F374B359C4202D05A19FE547A
:1045A000117001338342F7DD002346469A463033CB
:1045B000994605AF30363C003A00012100231578BA
:1045C0000133294001328342F9DB00294BD13B788A
:1045D000002B43D043464A46FF259A5C00238C4675
:1045E00000E09A5DAA4205D22178002902D1D9B211
:1045F0008C461500013301348342F2DB6146013100
:10460000CBB29A46019B9A452ED053465D1E01239C
:104610005C465A467B5515336B430C34D218E4186C
:10462000454400905388002B13D0DB08DBB2013BDC
:10463000F95C00290DD149464846695C4344013183
:10464000185CC9B2884204D9484619544C215046D6
:1046500058540232A242E5D10098ACE74A4643469C
:104660009D5C2A00BAE75346013B4C214344595C08
:10467000002300290FD050464546029C00E011005F
:104680001A00A0546A184B32127801330800DBB2CA
:10469000002AF4D1A84601200199039D4144029CBF
:1046A0002F314300EB5A002B06D00A78DB08A21802
:1046B000013A12789A4214D001300728F1D1002033
:1046C00013B0F0BCBB46B246A946A046F0BD019B64
:1046D00001211A0042442F321170029AC0B21370A5
:1046E000EEE7C0B2ECE700225B429246BDE7C0466F
:1046F000F41E0020480900205C0D0020000000206E
:10470000F0B5DE464E46454657465F4BE0B51F00C6
:1047100068373A0098465D4B060013CB13C2196800
:1047200089B011609B88380093800125FBF7F6FC67
:104730006D42322382B23900300000950AF0D0F980
:10474000534B0124994622004946380012F002FFDB
:104750003800FBF7E3FC013482B232233900300029
:1047600000950AF0BDF9072CEDD132230322300069
:10477000484900950AF0B4F9474B02931B78002B87
:1047800072D0464B45460393454B01270493454B56
:1047900000240593444B68350693444B7F420793AE
:1047A000434B9A46434B9946631C1A0003992800D1
:1047B0009B4612F0CFFE2800FBF7B0FC322382B2FA
:1047C0002900300000970AF08BF916236343049CFC
:1047D0009846E35A05225900C918059B49009C4692
:1047E0002800614412F069FF3223052229003000BD
:1047F00000970AF075F932233000012206990097DC
:104800000AF06EF923000C334444984433004646C2
:10481000984610E04946280012F09CFE2800FBF75D
:104820007DFC023482B232232900404600970AF010
:1048300057F9B4420AD06288002AEBD007235146C8
:1048400013402800D20812F085FEE7E73223022247
:104850004046079900970AF043F95B46DCB2029B99
:1048600046461B78A3429FD801235B420093012256
:104870003000114933330AF033F909B0F0BCBB46BC
:10488000B246A946A046F0BD4809002074CD0108F3
:1048900088CD01086CDC01080000002090CD0108E3
:1048A0005C0D0020FCC3010884CD0108ACCE0108DA
:1048B000A0CD01089CCD010864E601083B4BF0B592
:1048C0001C00DE46454657464E4668342200E0B599
:1048D00085B00293364B824623CB23C223CB23C21F
:1048E0001B6820001360FBF719FC01235B4282B2B6
:1048F00000932100333350460AF0F2F82D4B039316
:104900001B78002B34D0012399462B4B80279846E7
:104910002A4B3F029B464B46029E5D1E00246D00C3
:10492000683601E00A2C1BD02200390043461141B1
:104930005B5B01341942F5D023004A4659463000EA
:1049400012F008FE3000FBF7E9FB01235B4282B264
:1049500000933100504633330AF0C2F80A2CE3D1F9
:104960004B460133DBB29946039B1B784B45D2D2B1
:10497000029C134B6834220023CB23C223CB23C2D7
:1049800003CB03C22000FBF7C9FB01235B4282B2C9
:1049900000932100504633330AF0A2F805B0F0BC72
:1049A000BB46B246A946A046F0BDC0464809002015
:1049B000A8CD010800000020EC300020E4CD010863
:1049C000C4CD0108F0B5DE464E4645465746E0B533
:1049D00087B005900BF040F8002303709D4B040056
:1049E0001A7803939C4B9D491D0068352800049359
:1049F00012F0B0FD2900200012F033FE984B9949C7
:104A00009846382342462800D25C12F0A3FD2900C4
:104A1000200012F026FE062300229349009328006E
:104A2000043B12F097FD2900200012F01AFE8F4A75
:104A30008F49280012F08EFD2900200012F011FE8F
:104A40008C4A8D49280012F085FD2900200012F0C3
:104A500008FE2A00894B43CB43C21968200011602D
:104A60009988012691809B792900937112F0F9FDB4
:104A7000834B9A46834B9946834B9B463200514663
:104A8000280012F067FD2900200012F0EAFD4346DD
:104A90003C33F35C042B0BD84A469B00D3589F460B
:104AA0007A4B7B4A83CB83C283CB83C21B88138020
:104AB00029002000013612F0D4FD072EDED1754BFF
:104AC000734AA04643CB43C243CB43C229002000D4
:104AD00012F0C7FD682294466F4B704F9A46049BB4
:104AE0000125634499466E4B3C009B466D4E16E093
:104AF000B06A06F0A1FC0700206806F09DFC2A00C1
:104B00003B0051460090484612F024FD01354946CD
:104B1000404612F0A6FD60360434072D10D03368ED
:104B2000002BE5D12A005946484612F013FD013505
:104B30004946404612F095FD60360434072DEED10B
:104B40004046FBF7EBFA44460600574B0222190099
:104B500020189A4612F0A9FEB01C20181D225349B5
:104B600012F0A3FE1E239846514BB0449946514B78
:104B700080269B464B46049FA14600251C0036021A
:104B8000683701E0062D15D02A0031001141039B42
:104B900001351B78013B5B00E35A1942F2D05946BC
:104BA0002A00380012F0D6FC3900484612F059FDB0
:104BB000062DE9D14846FBF7B1FA43461E044C46A0
:104BC0000500360CB0423ED003225146601912F067
:104BD0006CFE059B002B29D107B0F0BCBB46B2464A
:104BE000A946A046F0BD344B294A83CB83C25FE778
:104BF000324B274A83CB83C203CB03C21B7813708B
:104C000056E75A46224B83CA83C383CA83C31168BB
:104C100019609188998092799A7149E7284B1A68AE
:104C20002A609A88AA809B79AB7141E72000FBF744
:104C300075FA01235B4282B2009321000598333359
:104C400009F04EFFC8E705221E49201812F02DFE7C
:104C50000435B9E74808002048090020F8CD0108CC
:104C6000C809002014CE010830CE010850CE01083A
:104C70005CCE010874CE010880CE01089CCE0108EC
:104C8000B0CE010850C3010800CF0108E4CE0108EE
:104C9000B009002020CF010854CF0108841800205B
:104CA00038CF0108D4260020ACCE010884CF0108FB
:104CB000EC300020A4CF0108D8CE0108C0CE0108F6
:104CC000B8CE0108ACCF0108F0B5C64600B50378F0
:104CD00006006D2B0AD14378652B07D18378002B12
:104CE00004D1254B187880BCB846F0BD300023496C
:104CF000FBF70AFA00283CD033789846232B27D0BC
:104D00001F4B1F78002F0FD000241E4D29003000AC
:104D1000FBF7FAF9002802D14346002B16D10134E3
:104D2000E4B20A35A742F1D10024134D38352900E9
:104D30003000FBF7E9F9002805D001340A350A2CC8
:104D4000F5D16420CFE7FE2324021C4320B2CAE73A
:104D5000701C10F0E4FFC3B2002B03D0084A127895
:104D60009A4204D2044A662012789A42BBD118B201
:104D7000B9E7FF20B7E7C04648080020B4CF0108D4
:104D8000000000204C0C0020F0B5C6462A4C80469E
:104D900025000E0000B5103521003000FBF7B4F9F6
:104DA00000283AD00434AC42F6D1244B1F78012FAE
:104DB00010DD0125224C03E001350A34BD4209DA39
:104DC00021003000FBF7A0F90028F5D1072080BCB6
:104DD000B846F0BD1B4D2C009C3538342100300006
:104DE000FBF792F90028F1D00A34A542F6D1164F0C
:104DF000164C7C6403E064687C64002C0FD023684C
:104E00001D682800FBF78AF929000200300012F023
:104E100043FC0028EFD10820D9E70620D7E7434616
:104E2000980040440A4B40003100C01812F035FD94
:104E3000FFF760F8CBE7C046ACC3010800000020D4
:104E4000560C002048080020C8090020300100202E
:104E50004C0C0020F0B54F464646D6463C4BC0B5FC
:104E60001F00383780460E0099463D000024290077
:104E70003000FBF749F9002851D001340A350A2CDB
:104E8000F5D1344C2500103521003000FBF73CF9FA
:104E900000284ED00434A542F6D12F4B1B789A46F9
:104EA000012B12DD01252D4C03E001350A34AA4502
:104EB0000BDD21003000FBF727F90028F5D1072092
:104EC000E0BCBA46B146A846F0BD254B254C9A46F3
:104ED0009C6404E0534664689C64002C0DD02368F5
:104EE0001D682800FBF71AF929000200300012F0B3
:104EF000D3FB0028EED10820E2E73B78002B1AD044
:104F000001340A370A2CF8D18022D2004746013FEB
:104F10007F004F44B98800200A43BA80D0E70122BD
:104F20004746A240013F7F004F44BB881343BB80EC
:104F3000C6E70620C4E74846A3001B195B003830CB
:104F40003100C01812F0A9FC0122A24092B2DDE7A4
:104F500048080020ACC3010800000020560C0020C7
:104F6000C809002030010020F8B54746CE46242568
:104F700080B58C4608A910C9924EA846775D2500D9
:104F80008146681E8541404609786D0135540D0003
:104F9000691E8D416900802520312D05AA4229D244
:104FA0004C21725432004C325370082B19D8864A67
:104FB0009B00D3589F4663461A6833004C339A705F
:104FC000624612681212DA706246126812141A717E
:104FD0006246126812165A7120210622484603F0D2
:104FE000ADFD24230020F754002C15D1C0BCB946D8
:104FF000B046F8BD4C25002070553500100E4C35DC
:10500000A870100C52BA6B70E870AA80082BE8D810
:105010006E4A9B00D3589F460CF0C2FB4C260500FD
:105020006B4FB85D0028E1D00CF0BAFB401BA042EA
:10503000F7D3B85DDAE763461A7833004C339A71D8
:105040004846072203F07AFDCBE763461A7833001F
:105050004C339A7020210322484603F06FFDC0E7CD
:10506000634632001B884C32937063461B881B0AD0
:10507000D37020210422484603F060FDB1E7634667
:105080001A7833004C339A70624652782021DA70D5
:105090006246927848461A716246D2785A716246E0
:1050A00012799A7162465279DA71624692791A726D
:1050B0006246D2795A720A2203F040FD91E76346B4
:1050C0001A7833004C339A71624652784846DA7146
:1050D000624692781A726246D2785A7262461279A1
:1050E0009A7262465279DA72624692791A7362460D
:1050F000D2795A730E2203F021FD72E763461A68D3
:1051000033004C339A7062461268120ADA706246B3
:105110001268120C1A7162461268120E5BE763463F
:1051200032001B884C32937063461B881BB21B12E3
:105130009EE763461A6833004C339A7162461268E0
:1051400048461212DA716246126812141A726246E6
:10515000126812165A720A2203F0F0FC41E7634605
:105160001A6833004C339A71624612684846120A34
:10517000DA7162461268120C1A7262461268120ED6
:105180005A720A2203F0DAFC2BE7634632001B88CE
:105190004C32937163461B8848461BB21B12D37175
:1051A000082203F0CBFC1CE7634632001B884C321C
:1051B000937163461B8848461B0AD371082203F08B
:1051C000BDFC0EE7C808002064C3010888C30108BD
:1051D000C809002070B5012182B01E2010F0A6FD84
:1051E0000B4D0400280044262C30027DAD5B837DEE
:1051F00008490195013A407D92008A180090126991
:1052000020002C3112F0A6F9200002B070BDC0467B
:10521000C8080020ACC3010800B5084B0A00197883
:10522000012385B00393023B029301930333009360
:105230000B0003F0B9FC05B000BDC04648080020D3
:1052400070B505000C00E420002107F041FB0021AF
:10525000E52007F03DFB0021E62007F039FB0021A7
:10526000E72007F035FB0021E82007F031FB0021A3
:10527000E92007F02DFB0021EA2007F029FB00219F
:10528000EB2007F025FB691E4B005B18104A5B0101
:105290009B58611E002B11D04B005B185B019B5883
:1052A0002800002B03D107F0C1F8002070BD07F0E3
:1052B000BDF8200007F0BAF80020F7E74B005B18B4
:1052C0005B019B58002B01D02000ECE76820EDE744
:1052D000D4260020F0B5C64600B5264D07002B7831
:1052E000013B9C00E418A4002C1923699846002B6C
:1052F0002ED01800FAF712FF06003800FAF70EFF5A
:1053000031180231404610F0BBFF2A782061013A83
:1053100093009B189B00EB181869721C80183900C9
:1053200012F0BBFA2A78013A93009B1813229B00D3
:10533000EB181B699A552A78013A93009B189B0039
:10534000EA181269002A0DD0002080BCB846F0BDD2
:10535000FAF7E4FE013010F041FD3900206112F04F
:105360009CFAF1E7281D14220021C01812F071F9EF
:105370000E20EAE7A4160020F0B54E464546DE466C
:105380005746E0B5D04C0500267889B0052E65D08B
:10539000B300981980009946231898460023424686
:1053A0004046938000210422063012F052F92B78F7
:1053B000622B02D1AB782E2B52D027006837290000
:1053C000380012F06AFAC14E3800310012F08AF942
:1053D00031000500002012F085F93100070000209F
:1053E00012F080F90600002D36D02800FEF7D0FE1E
:1053F000804600282CD1002F2ED0002E2CD030003B
:10540000FEF7C6FE002859D004222678B500AB1955
:105410009B00E3181A714246D872DA713800FEF721
:10542000CDFE2278AD199300AD009B1865199B0045
:105430006871E3185B79002B0ED0002701322270CF
:10544000380009B0F0BCBB46B246A946A046F0BD44
:10545000002FD2D1002E68D06727F1E70E27EFE7A3
:105460006B780027303BDBB29A46062BE8D84146E2
:105470005046012388718B80E91C8B4607225846D1
:10548000934912F009F9002832D00E22584691496A
:1054900012F002F9002862D106234246D371524627
:1054A0008D4BD20052449B18022217001B7A1F40DA
:1054B0001A4245D0002701362670C1E72278300015
:1054C00093009B1803229B00E3181A714246DA717D
:1054D00010F01AFCFDF7B2FF26780790B500A81966
:1054E00080002018042207A90A3012F0DEF995E79F
:1054F00005234146CB715146774BCA0052449B1855
:1055000001221B7A01371F401A42D3D10123002206
:1055100005930121002350460497039702970197B2
:10552000009707F091FF2678C5E7022122789300C3
:105530009B189B00E31801321971D87122707FE724
:1055400001230021059350460023049703970297F7
:1055500001970097013A07F077FF2678ABE70C2216
:1055600058465E4912F098F800280FD152465A4B1F
:10557000D20052449B189F78002F21D0DF78002F53
:105580003AD01F79002F65D00C2794E70D2258469A
:10559000534912F081F800288DD153464E4AD90064
:1055A000CB18D3185F79002F3DD09F79002F6BD097
:1055B00051445218D779002F00D193E00D277AE794
:1055C000092342462800D3710F3010F0A2FB217846
:1055D000C3B28A0052189200A218137201220497D3
:1055E00005920397029701970097002200215046E9
:1055F00007F02AFF26785EE70A2342462800D37187
:105600000F3010F086FB2278C0B293009B189B00ED
:10561000E318187201230497059303970023029758
:1056200001970090E1E70C2342462800D371103027
:1056300010F06FFB2278C0B293009B189B00E31818
:105640001872012304970593039700230290019792
:105650000097CAE733000B2228004B449B00E31855
:10566000DA710F3010F055FB2278C0B293009B180E
:105670009B00E31818720123059300230190049303
:10568000039302930093B0E71423280098465E43E7
:10569000073BA619F371103010F03BFB424623780C
:1056A000C0B25343E31818720021012303900593FD
:1056B0000A000B005046049102910191009107F0FD
:1056C000C3FE2678F7E6C046A4160020B4CE010833
:1056D000A0DC010878D40108CC2C002088D4010873
:1056E00098D401081423280098465E43063BA61967
:1056F000F371103010F00DFB42462378C0B25343D3
:10570000E318187201230593002304901A0019006E
:105710005046039702970197009707F095FE267869
:10572000C9E6C046F0B5DE464E4657464546E0B5AA
:105730001E0000238BB083468A46150000210522F7
:1057400008A8079311F085FFC84BC94C99462B78E0
:105750002A000320002B0AD0E15C0140012901D17D
:105760002033DBB2137053780132002BF4D14B4657
:105770009F7E002F4DD006222800BE4911F08CFFDD
:10578000002800D1A6E0022F25D12800FFF7A2FDB6
:10579000002800D0D8E00D2333705346002B00D1F1
:1057A000AEE0002398463000FAF7B8FC01235B42D4
:1057B00082B2009331005846333309F091F930003A
:1057C000FAF7ACFC00210200300011F042FF434622
:1057D000002BBCD19CE02E21280011F04FFF071EAA
:1057E00009D0C31E1A78622A2AD15A786F2A27D183
:1057F0009B78732B24D199223100280092000AF063
:10580000A9F880463378002BD9D05346002BD6D048
:10581000C9E72B78692BDED16B78662BDBD1AB78AF
:105820001F00203F202BD6D1E81CFFF7A5FD002844
:1058300000D080E002234A4693760B333370ACE706
:105840007B78E35C5B07D6D429007A1B07A811F0AC
:1058500034FF07A8FFF738FA874B029004931B78B0
:105860000393984200D187E0029B642B00D172E041
:10587000029B662B00D187E0029BFF2B00D1C4E086
:105880006B461B7A0593FE2B00D127E17B1C062279
:1058900018007A49984611F0FFFE002800D07AE0FF
:1058A000059B774F9846002219213870180003F0A5
:1058B00045F9642009F02AFF724B41461A78049B8F
:1058C0001878002305F012FC3B78602B00D1EFE044
:1058D000337812E04B466C4A9876117801398B0088
:1058E0005B189B00D2180123137505F0D3FA4122EF
:1058F0003000664911F0D9FF3378002B00D04CE717
:105900003000FAF70BFC00210200300011F0A1FE7C
:105910000922002107A811F09CFE4B469B7E002B1C
:1059200002D15346002B1DD10BB0F0BCBB46B24692
:10593000A946A046F0BD52223000554911F0B5FFEE
:105940004B469F763378D8E752223000504911F009
:10595000ACFF3378D1E7272230004E4911F0A5FF84
:105960003378CAE701235B420093382258464A49FC
:10597000333309F0B5F8D7E799223100781C92004B
:1059800009F0E8FF80463DE725223000434911F049
:105990008CFF3378B1E72800FAF7C0FB07AB039020
:1059A0001800FAF7BBFB039A4146013A121A0700A6
:1059B0003B4811F082FE2800FAF7B0FB421ED21BD2
:1059C000172192B2059803F0B9F830003549029AD0
:1059D00011F0C0FD3378002B0DD05346002B0AD0B8
:1059E0003000FAF79BFB012382B200933100584646
:1059F000313309F075F83000FAF790FB002102000E
:105A0000300011F026FE1E4F5EE71A2200212648C4
:105A100011F01FFE7B1C28009846FAF77FFB07ABAE
:105A200002901800FAF77AFB029A4146013A121ADC
:105A300007001B4811F041FE2800FAF76FFBC31B5B
:105A40009BB21722FF21039803F028F89922310016
:105A50009200404609F07EFF80463000FAF75EFB78
:105A60001D221249301811F020FFCBE62417002028
:105A700071F80108FCD4010848080020E4D50108A9
:105A8000EC080020000A0020A416002004D501081C
:105A9000A8D4010848D5010830D6010870D50108FE
:105AA00014090020ECD50108300C002098D501081D
:105AB000FA21012089000BF0D7FB284B1B78002B23
:105AC00000D105E7264A30001388264901331380A8
:105AD000029B320011F03EFD33780EE74A46029BEE
