:020000040800F2
:10000000004002204DE60008DDE6000875D9000832
:1000100000000000000000000000000000000000E0
:1000200000000000000000000000000055F400087F
:100030000000000000000000B1F4000869D90008C9
:10004000DDE60008DDE60008DDE60008DDE6000884
:10005000DDE60008DDE60008DDE60008DDE6000874
:10006000DDE60008DDE60008DDE60008DDE6000864
:10007000DDE60008DDE60008DDE60008DDE6000854
:10008000DDE60008DDE60008DDE60008DDE6000844
:10009000DDE60008DDE60008DDE60008DDE6000834
:1000A000DDE60008DDE60008DDE60008ADD9000861
:0C00B000BDD90008CDD90008DDE600082D
:1000C00010B5064C2378002B07D1054B002B02D02E
:1000D000044800E000BF0123237010BD300B002056
:1000E0000000000058BC0108044B10B5002B03D0E1
:1000F0000349044800E000BF10BDC04600000000F6
:10010000340B002058BC010802780B78002A03D079
:10011000013001319A42F7D0D01A70470023C25CF7
:100120000133002AFBD1581E7047000002B471460B
:1001300049084900095C49008E4402BC7047C0462A
:1001400003B47146490840004900095A49008E44E9
:1001500003BC7047002243088B4274D303098B42CF
:100160005FD3030A8B4244D3030B8B4228D3030C87
:100170008B420DD3FF22090212BA030C8B4202D329
:100180001212090265D0030B8B4219D300E0090A51
:10019000C30B8B4201D3CB03C01A5241830B8B425A
:1001A00001D38B03C01A5241430B8B4201D34B0343
:1001B000C01A5241030B8B4201D30B03C01A5241A8
:1001C000C30A8B4201D3CB02C01A5241830A8B422D
:1001D00001D38B02C01A5241430A8B4201D34B0216
:1001E000C01A5241030A8B4201D30B02C01A52417A
:1001F000CDD2C3098B4201D3CB01C01A524183092E
:100200008B4201D38B01C01A524143098B4201D367
:100210004B01C01A524103098B4201D30B01C01A92
:100220005241C3088B4201D3CB00C01A524183080C
:100230008B4201D38B00C01A524143088B4201D339
:100240004B00C01A5241411A00D201465241104699
:100250007047FFE701B5002000F0F0F802BDC0468E
:100260000029F7D076E7704703460B437FD400227E
:1002700043088B4274D303098B425FD3030A8B423A
:1002800044D3030B8B4228D3030C8B420DD3FF22A4
:10029000090212BA030C8B4202D31212090265D072
:1002A000030B8B4219D300E0090AC30B8B4201D325
:1002B000CB03C01A5241830B8B4201D38B03C01A6C
:1002C0005241430B8B4201D34B03C01A5241030BE3
:1002D0008B4201D30B03C01A5241C30A8B4201D394
:1002E000CB02C01A5241830A8B4201D38B02C01A3F
:1002F0005241430A8B4201D34B02C01A5241030AB6
:100300008B4201D30B02C01A5241CDD2C3098B429A
:1003100001D3CB01C01A524183098B4201D38B0117
:10032000C01A524143098B4201D34B01C01A5241BA
:1003300003098B4201D30B01C01A5241C3088B42FF
:1003400001D3CB00C01A524183088B4201D38B00EA
:10035000C01A524143088B4201D34B00C01A52418C
:10036000411A00D201465241104670475DE0CA0F63
:1003700000D04942031000D34042534000229C4623
:1003800003098B422DD3030A8B4212D3FC2289012D
:1003900012BA030A8B420CD3890192118B4208D303
:1003A000890192118B4204D389013AD0921100E065
:1003B0008909C3098B4201D3CB01C01A5241830979
:1003C0008B4201D38B01C01A524143098B4201D3A6
:1003D0004B01C01A524103098B4201D30B01C01AD1
:1003E0005241C3088B4201D3CB00C01A524183084B
:1003F0008B4201D38B00C01A5241D9D243088B42A1
:1004000001D34B00C01A5241411A00D20146634643
:1004100052415B10104601D34042002B00D54942A7
:10042000704763465B1000D3404201B5002000F0E6
:1004300005F802BD0029F8D016E770477047C0469E
:100440008446100062468C461900634600E0C046B0
:100450001FB502F015F8002801D40021C8421FBDC5
:1004600010B501F065FF4042013010BD10B502F03B
:1004700007F8002801DB002010BD012010BDC04698
:1004800010B501F0FDFF002801DD002010BD0120A6
:1004900010BDC04610B501F08DFF002801DC002022
:1004A00010BD012010BDC04610B501F083FF00282B
:1004B00001DA002010BD012010BDC04684460800AE
:1004C0006146FFE71FB500F039FD002801D4002187
:1004D000C8421FBD10B500F0C5FC4042013010BD40
:1004E00010B500F02BFD002801DB002010BD01201D
:1004F00010BDC04610B500F021FD002801DD002030
:1005000010BD012010BDC04610B500F0D1FC002880
:1005100001DC002010BD012010BDC04610B500F068
:10052000C7FC002801DA002010BD012010BDC04624
:10053000002B15D1002A13D1002906DB01DC00288D
:1005400006D00020C043410802E0802109060020B7
:1005500007B4024801A14018029003BDE1FEFFFF6D
:1005600003B4684601B5029800F0A8F9019B9E46C5
:1005700002B00CBC7047C046002B11D1002A0FD12D
:10058000002900D1002802D00021C943080007B487
:10059000024802A14018029003BDC046A1FEFFFF21
:1005A00003B4684601B5029800F0BCF8019B9E4672
:1005B00002B00CBC7047C046F0B5CE46474680B589
:1005C000070099463B0C9C4613041B0C1D000E00B3
:1005D00061460004140C000C45434B4360436143E7
:1005E000C0182C0C20188C46834203D980235B0250
:1005F0009846C444494679437243030C63442D042E
:100600002D0CC918000440198918C0BCB946B04661
:10061000F0BDC0469E2110B5C905041CFFF77EFF42
:10062000002803D1201C00F0A1FF10BD9E21201C3A
:10063000C90500F0EDFD00F099FF80231B069C46E4
:100640006044F2E770B500220C4B04000D00FFF788
:100650002BFF002804D12000290002F091FD70BD7D
:10066000064B00222000290002F0DAF902F088FD92
:1006700080231B069C466044F1E7C0460000E04131
:1006800070B505000C000022002328002100FFF7B0
:10069000EDFE002808D12800210000F00FF802002C
:1006A0000B001000190070BD80231B06E118280004
:1006B00000F004F8002342428B41F2E770B50022BB
:1006C0000B4B0D00040001F03FFFFFF7BBFF0600DE
:1006D00002F0BCFD0022074B01F036FF02000B00C8
:1006E0002000290002F09CF9FFF7ACFF310070BD3B
:1006F0000000F03D0000F04170B50600080002F077
:1007000075FD0022064B01F01FFF0D0004003000B4
:1007100002F09CFD2B00220000F0D8FF70BDC04607
:100720000000F041F0B557464E464546DE46E0B57E
:1007300004000D009246994683B08B4230D82DD0EC
:100740004946504602F096FE29000600200002F0BD
:1007500091FE331A9846203B9B4633D45A46534663
:10076000934042461F00534693401E00AF423AD882
:10077000AF4200D178E05B46A41BBD41002B00DAFC
:1007800075E0002200230092019301235A46934012
:100790000193012342469340009328E08242CFD93F
:1007A00000220023009201930C9B002B01D01C60BF
:1007B0005D600098019903B0F0BCBB46B246A94603
:1007C000A046F0BD424620239B1A5246DA404146DD
:1007D00013004A468A40170042461F43534693403F
:1007E0001E00AF42C4D90022002300920193434669
:1007F000002BD9D0FB0772081A4346467B080EE04F
:10080000AB4201D1A2420CD8A41A9D410120241967
:100810006D410021013E24184D41002E06D0AB420F
:10082000EED9013E24196D41002EF8D100980199AE
:100830005B4600196941002B24DB2B005A464446D5
:10084000D3402A00E2401C005B461500002B2ADB47
:1008500026009E40330026004746BE403200801AE4
:100860009941009001919FE7A342BCD883E742469B
:10087000202300219B1A0022009101920122DA40DC
:10088000019286E7424620239B1A2A0046469A4058
:100890002300F340444613432A00E2401C005B4619
:1008A0001500002BD4DA42462F0020232600974063
:1008B0009B1ADE403B003343CDE7C046F8B5CE4639
:1008C000474680B59146984604000D0002F0DEFDD3
:1008D00007000E0002000B0048464146FFF76CFE81
:1008E000241A8D41089B380031001C605D60C0BC3B
:1008F000B946B046F8BDC046F0B5C64643025B0AED
:100900004E0245004F00DA00C40F9C46700A904624
:1009100000B52D0E3F0EC90FB6098C424BD0EA1B15
:10092000002A36DD002F61D0FF2D00D1ADE08023FD
:10093000DB041E431B2A00DCD3E001204346181AC7
:10094000430100D48CE080018709380002F074FD77
:1009500005388740854200DCB6E02D1AB3483840A0
:10096000430704D00F230340042B00D0043043017D
:1009700000D478E06A1CFE2D65D08001430A9C46B5
:10098000D2B26346D0051843E407204380BCB84682
:10099000F0BD002A35D07A1B002D00D0AFE04346D1
:1009A000002B00D1A7E0531E012A00D12FE1FF2A1E
:1009B00069D01A00AAE0E91B002970DD002F37D0AA
:1009C000FF2D62D08023DB041E431B2900DCB0E036
:1009D00001204044430143D50135FF2D33D001238D
:1009E000934A0340400810401843B9E7002E00D155
:1009F00083E0511E012A00D1D8E0FF2A45D00A0029
:100A000098E7FE276A1C174200D086E0002D00D030
:100A1000B7E04346002B00D1F3E00022002EB0D017
:100A2000981B430100D4FAE043460C00F01A97E704
:100A3000002E00D1C8E04A1E012900D1AEE0FF29F6
:100A400023D01100C1E70023FF229C4699E7FE2135
:100A50006A1C114277D0FF2AF5D015004644700871
:100A6000430700D07EE7C308FF2D0ED05B025B0A70
:100A70009C46EAB285E7002E07D08022D2031342BB
:100A800003D0104201D10C000300002BDBD08020EA
:100A9000C00318434002430A9C46FF2271E7002925
:100AA000D5D07A1B002D60D14346002B24D0531E95
:100AB000012A73D0FF2AE7D01A001B2A00DC85E048
:100AC00001203D00801985E720233A00451B3800AE
:100AD0000135EA405D1BA840431E984100251043A4
:100AE0003EE7202330009B1A31009840D140431E3E
:100AF0009841084322E70C0003001500B4E7FF2FDC
:100B0000C1D080234046DB04184380461B2A51DDB8
:100B100001200C003D00301A12E743469F1B7B0169
:100B20002BD4002F00D010E70023002400229C4685
:100B300027E7202332003000CA40591A8840431E5C
:100B40009841104345E7002D4AD14346002B63D01E
:100B50000022002E00D114E730004044430100D4AD
:100B60007EE7324B013518407AE7FF2F8CD0802387
:100B70004146DB04194388469FE743460C00F71AB9
:100B8000E3E64246002A00D075E7002E00D07AE75F
:100B90008023DB0300249C46FF22F2E63000404421
:100BA0000125430100D45BE7022518E743460125F0
:100BB000981BC5E6202344464046D4409A1A9040EC
:100BC000431E98412043A4E70D004DE720234146F2
:100BD0004046D1409A1A9040431E9841084370E71E
:100BE0004246002A00D14FE7002E00D14DE7802277
:100BF000D203134200D148E7104200D045E703007A
:100C000043E7002E90D00C0084460022B9E643460C
:100C10000C00F01A013593E684460022B1E6002864
:100C200000D01DE7002300249C46AAE6FFFFFFFB3F
:100C3000FFFFFF7DF0B54F464646D6464502C0B59C
:100C400047000C1C6D0A3F0EC60F002F00D170E04C
:100C5000FF2F00D175E0EB008025ED041D4300233C
:100C600099469A467F3F6002430A984663001B0EEE
:100C7000E40F002B4ED0FF2B46D04246D0008022FE
:100C8000D2040243904600227F3B3100FF1A4B46BC
:100C90006140C9B213430F2B00D9B5E06E489B00E9
:100CA000C3589F4600239846260045469246534621
:100CB000022B00D189E0032B00D19EE0012B18D03C
:100CC0003B007F33002B69DD6A0704D00F222A40E6
:100CD000042A00D004352A0103D5604B1D403B0097
:100CE0008033FE2B00DD70E0AD016D0AD8B202E06A
:100CF0000E0000200025C0052843F6073043E0BC65
:100D0000BA46B146A846F0BD4346002B3FD1022269
:100D1000FF3F03E04346002B2DD1012231004B461B
:100D20006140C9B213430F2B34D84D489B00C358C0
:100D30009F46002D13D104239946033B00279A4672
:100D400091E7002D05D108239946063BFF279A46D7
:100D500089E70C239946093BFF279A4683E7280039
:100D600002F06AFB7627431F9D4000237F4299468D
:100D70009A463F1A77E7404602F05EFB4246431F21
:100D80009A4076235B4290461B1A00227DE7FF23A0
:100D900003227AE70E00FF200025ACE70120C01AED
:100DA0001B28A6DC9E372A00BD40C2406B1E9D4119
:100DB00015436B0704D00F232B40042B00D00435C0
:100DC0006B0144D50120002595E7FF20002592E71F
:100DD00080250026FF20ED038DE700239846802024
:100DE000C003054209D04346034206D145460543A8
:100DF0006D022600FF206D0A7DE78020C0030543B9
:100E00006D02FF206D0A76E742466B015001834276
:100E100019D21B220025013F01261C006D005B003A
:100E2000002C01DB984201D81B1A3543013A002AF5
:100E3000F3D15A1E93411D433B007F330E00002B1C
:100E400000DD41E7AAE71A2201251B1AE4E7AD01FC
:100E500000206D0A4FE7C04664C50108FFFFFFF799
:100E6000A4C5010870B5420045024E024C00C30FF4
:100E70006D0A0120120E760A240EC90FFF2A06D031
:100E8000FF2C03D0A24201D1B54206D070BD002D87
:100E9000FCD1FF2CFAD1002EF8D18B4206D00120D4
:100EA000002AF3D12800431E9841EFE70020EDE728
:100EB00070B5420045024E024C00C30F6D0A120E7F
:100EC000760A240EC80FFF2A1BD0FF2C0ED0002A52
:100ED0001BD1002C01D1002E1CD0002D0CD0834240
:100EE0001CD00221581E0840013870BD002E22D1AE
:100EF000002AF4D1002DF2D10028F6D10120404281
:100F0000F3E7002D17D1FF2CF0D0002CE7D1002EF5
:100F1000E5D1E6E70020002DE7D0E2E7A24205DCBC
:100F2000EADBB54202D8E7D30020DEE7434258416E
:100F300040000138D9E702204042D6E770B54200B0
:100F400045024E024C00C30F6D0A120E760A240EA3
:100F5000C80FFF2A0BD0FF2C0DD0002A1FD1002C68
:100F600016D1002E14D10020002D10D009E0002D44
:100F70000CD1FF2C13D1002E08D1002A08D08342B7
:100F800012D00221581E0840013800E0022070BD36
:100F9000002DF4D10028FAD101204042F7E7002CBF
:100FA000EDD1002EEBD1ECE7A24205DCF2DBB5423D
:100FB00002D8EFD30020EAE743425841400001380D
:100FC000E5E7C046F0B54F464646D64644024500E2
:100FD000C0B5640A0F1C2D0EC60F002D00D18DE088
:100FE000FF2D00D192E00023802099469A46E4002C
:100FF000C00404437F3D7802430A98467B001B0EE1
:10100000FF0F002B00D170E0FF2B00D186E042469D
:10101000D00080227F3BED180023D204024390468B
:101020009C4631004B467940681C0F2B1CD8764AF1
:101030009B00D3589F4639004446E2465346022B54
:101040000FD0032B00D1D7E0012B37D10020002493
:10105000C0052043C9070843E0BCBA46B146A846CC
:10106000F0BDFF200024F3E7260C2404220C4446A4
:101070002404240C434627001B0C574374435A4353
:101080005E4312193B0C9B189C4203D980225202EA
:10109000944666443F041A043F0CD2199401671E1B
:1010A000BC411B0C920E9B1914439B011C431B015A
:1010B00000D49BE0012362081C40144302007F32ED
:1010C000002A64DD630704D00F232340042B00D0E3
:1010D0000434230103D502004C4B80321C40FE2A0D
:1010E000BFDCA401640AD0B2B2E74346002B3DD175
:1010F0004A4601331A4391469C4692E7002C29D177
:1011000004239946033B00259A4674E7002C1BD123
:1011100008239946063BFF259A466CE74346FF3570
:10112000002B0BD102234A461A4391469C4678E78E
:1011300053463100022B00D083E792E703234A464F
:101140001A4391469C466CE70C239946093BFF25C0
:101150009A4650E7200002F06FF97625431F9C4025
:1011600000236D4299469A462D1A44E7404602F004
:1011700063F94246431F9A4000232D1A90469C462D
:10118000763D4EE780240021FF20E40360E7012341
:101190009B1A1B2B00DD59E722009E30DA40844069
:1011A0001300621E94411C43630704D00F232340A5
:1011B000042B00D0043463011AD50120002447E732
:1011C0008020C003044209D04346034206D144466E
:1011D000044364023900FF20640A39E78020C00319
:1011E000044364023100FF20640A31E7280065E708
:1011F000A4010020640A2BE78020C003044364029A
:10120000FF20640A24E7C046E4C50108FFFFFFF79A
:10121000F8B5CE46474643025B0A4E02DA009446D2
:10122000720A914645004A0080B52D0E1F00C40F7A
:10123000120EC90FB609FF2A5BD0012041408C4233
:1012400039D0A81A00285ADD002A6AD0FF2D00D113
:10125000D9E08022D20416431B2800DCE9E00120FB
:101260006346181A430100D4B4E0800187093800AE
:1012700002F0E2F805388740854200DCCCE02D1A08
:10128000B5483840430704D00F230340042B00D057
:101290000430430100D4A0E06A1CFE2D00D18DE093
:1012A0008001470AD2B2D0053843E4072043C0BCCE
:1012B000B946B046F8BDA81A8046002845DD002A88
:1012C00070D0FF2D00D19EE08023DB041E434346F7
:1012D0001B2B00DCD2E00120604443017AD50135AC
:1012E000FF2D6BD001239D4A034040081040184356
:1012F000C8E7002E20D08C4223D02800FF380028D9
:1013000039D0571B002D00D09DE06346002B00D143
:10131000DBE07B1E012F00D10DE1FF2F71D01F00FC
:1013200098E0002E00D1A7E0421E012800D1E6E09F
:10133000FF2868D010008FE701204140A14200D073
:101340007FE7FF2040428046A8444046002838D02E
:10135000511B002D00D1AEE0FF2A00D1DFE0802339
:101360006046DB04184384461B2900DCD9E00120D9
:1013700015008019B1E7FE206A1C104271D1002DC2
:1013800000D0A6E06346002B00D1D9E00022002E59
:1013900000D188E7981B430100D4E1E063460C00CC
:1013A000F01A6FE7002E00D1B7E00200013A0128E1
:1013B00000D19CE0FF2826D0904688E7FF22002736
:1013C00071E7FE206A1C104264D0FF2AF6D0150097
:1013D00066447008430700D056E7C308FF2D12D0BB
:1013E0005B025F0AEAB25EE76246002A00D196E03D
:1013F000002E08D08022D203134204D04846104267
:1014000001D10C004B46002BD8D08027FF031F438F
:101410007F02FF227F0A46E720233A00451B38005F
:101420000135EA405D1BA840431E9841002510434A
:1014300028E720231B1A32009E40C2403000431E82
:10144000984110430CE7FF2ADBD080236046DB0481
:10145000184384461B2F56DD01200C001500301A5E
:1014600000E763469F1B7B013DD4002F00D0FEE6C2
:1014700000240022002716E70500AFE732004346AC
:101480004146DA4020235B1A9E403000431E9841BB
:10149000104321E7002DA7D16346002B59D000222D
:1014A000002E00D1FFE630006044430192D52A4B64
:1014B000013518408EE76346002B47D04B1E0129AB
:1014C00015D0FF292BD019004EE70C004B463D00EC
:1014D00084E76246002A8BD1002E92D18027002417
:1014E000FF22FF03DFE663460C00F71ABFE6300079
:1014F00060440125430100D46CE70225F2E663460F
:101500000125981BAEE6202364466046FC40DF1BA5
:10151000B840431E984120439FE705005EE74B46D5
:1015200071E7202365466046CD40591A8840431E26
:10153000984128431CE763460C000125F01A91E608
:10154000002E95D00C004F460022ACE64B460D0015
:1015500044E74F460022A6E6FFFFFFFBFFFFFF7DAB
:10156000002800D036E7002400279CE64102420014
:10157000C30F490A0020120E7E2A03DD9D2A02DDD8
:10158000094A98187047802000040143952A07DC17
:101590009620821AD1404842002BF3D10800F1E78F
:1015A000963A9140F7E7C046FFFFFF7FF8B5002865
:1015B00013D0C317C6185E40C40F300001F03CFFC3
:1015C0009E2305001B1A962B0FDC082801DD083D21
:1015D000AE407602760AD8B202E00024002000264F
:1015E000C0053043E4072043F8BD992B0CDD0522EC
:1015F0003100121AD1400A00010030001B3188402E
:10160000411E884102431600052D12DC31000D4FAA
:101610003940720709D00F203040042805D004312A
:101620004A0102D59F2339405B1B89014E0AD8B27B
:10163000D6E76A1F96403100024F39407207F4D056
:10164000E9E7C046FFFFFFFB70B5051E0ED001F0B5
:10165000F3FE9E2304001B1A962B0CDC082801DDE8
:10166000083CA5406D026D0AD8B201E000200025BB
:10167000C005284370BD992B09DD020029001B32EB
:1016800091404A1E91410522121AD5400D43052C66
:1016900012DC29000C4E31406A0709D00F20284087
:1016A000042805D004314A0102D59F2331401B1B79
:1016B00089014D0AD8B2DBE7621F95402900024E2E
:1016C00031406A07F4D0E9E7FFFFFFFBF0B54F4672
:1016D0004646D6460D000400C0B51F001100280381
:1016E000620F400A10437A00520DE3003C0391461A
:1016F000640AFA0F4F0F6E0027439246B846760DE4
:10170000ED0FC900954200D199E04C46341BA44628
:10171000002C00DC7CE04A46002A00D1B8E0C54A33
:10172000964200D11CE180223C0012041443A046E2
:101730006246382A00DD61E11F2A00DDCCE1644603
:101740002022121B444694400F00A146644691405B
:10175000E7404C464A1E91413C4342462143644681
:10176000E240801A5C1AA3429B415F42C71B3B02C6
:1017700000D4D0E07F027F0A002F00D1FFE03800C4
:1017800001F05AFE01000839202322005B1A8F4025
:10179000DA408C401743B14200DAFFE0891B4B1C52
:1017A0001F2B00DDA8E020223900D21A200094402F
:1017B0009140D840621E9441DF40002601430C4313
:1017C000630709D00F232340042B05D0231DA34218
:1017D000A44164423F191C003B0200D49EE0954B9B
:1017E00001369E4200D1B7E0934AE40817407B07D8
:1017F00071057F0223433F0B4A0D12053A43ED0763
:101800002A4318001100E0BCBA46B146A846F0BD14
:10181000002C4BD04C46A41BA446002E00D023E144
:1018200004001C4300D1AFE16246541E012A00D1DE
:1018300015E2804DAC4500D1C8E1A4461BE14A4603
:10184000B21A9446002A00DCACE04A46002A43D093
:10185000784A964200D1AFE180223C001204144342
:10186000A0466246382A67DC1F2A00DC5FE1474653
:10187000203AD7406246202A05D064464022121BF7
:101880004446944021434A1E91410C003C4357E09A
:101890003A000A4300D105E12200013A012C00D1AF
:1018A00082E1644CA4455BD0944641E7634C771CCD
:1018B000274200D0C4E004001C43002E00D069E1A0
:1018C000002C00D1BFE144460C4300D0D0E14207D8
:1018D000DB081343C00829E03A000A4300D170E155
:1018E00062466446013A012C00D1E0E0514CA44527
:1018F00000D161E19446B4E73A001F39CA401100B3
:10190000202B03D04022D31A9F403C43631E9C41AE
:10191000002700260C43630700D053E7B446E408D1
:101920007B072343F808434A94451DD062460703CA
:1019300052053F0B520D60E744460C43621E944132
:10194000E4189C429B415F423F183B02E3D5394B70
:1019500001369E4200D0B5E03200002700234CE75C
:101960004207DB081343C0081A00024300D1E1E13B
:1019700080273F0307433F032E4A3F0B3DE72000EC
:1019800001F05AFD010018311F2900DCFCE608387F
:10199000844027000024B14200DBFFE6264A761A85
:1019A00017400DE7002A2FD04A46921B9446002E7E
:1019B00000D1ADE01F4A914500D10FE18022120411
:1019C00010436246382A00DD0FE11F2A00DD80E166
:1019D000644620221E00121B674604009340944078
:1019E000FE405A1E9341F84034431C43804464181F
:1019F0008C42BF417F424E464744A6E742460A43D7
:101A000011004A1E9141ADE60C4C721C224200D0DE
:101A1000A1E002001A43002E00D0FAE0002A00D113
:101A200045E13A000A4300D046E14207DB08134390
:101A3000C0087BE7FF070000FFFF7FFFFE070000F5
:101A400047465C1AC21BA342BF417F42B9461700FA
:101A50004A46BF1A3A0200D58DE023003B4300D02E
:101A60008AE60020002561E7B44CA14500D1ADE035
:101A70008024240420436446382C3DDC62461F2C1D
:101A800000DDB7E020251E002D1B0400AB40AC405C
:101A9000D640D04042465D1EAB413443121A9046B8
:101AA00023432CE04207DB081343C0083BE75C18E4
:101AB0009C429B4140445B42C71801263B0200D434
:101AC00029E702269E4A63081740012214401C435E
:101AD000FB071C437F0873E64446203AD440624625
:101AE000202A05D067464022D21B474697403943FB
:101AF0004A1E9141214335E60343581E8341CC1AC7
:101B0000A142BF4143467F4255464E46DF1B2EE66B
:101B100002001A4300D1BDE062466446013A012C3E
:101B200000D1E5E0854CA44558D0944649E7644689
:101B30002022121B444694400F00A1466446914067
:101B4000E7404C464A1E91413C4342460C436146A5
:101B5000CA408018F4E6794CA24200D1FDE659183B
:101B600099429B4140445F42C719FC07490816004F
:101B70000C437F08CFE6CC1AA142BF4143467F42C7
:101B8000181A5546C71BF7E5C9087B0755460B438E
:101B9000F808C8E6002C00D081E043460B4315D17D
:101BA000802000250003E3E65C1AA3429B41C71B8B
:101BB0005B420126FF1ADAE54207DB081343C0083F
:101BC000D2E64207DB081343C008ACE64346424670
:101BD000C9085B0755460B43D008C5E64346424655
:101BE0005B07C9080B43D008BEE603431C00631E15
:101BF0009C41FCE60200203CE24014006246202AA0
:101C000003D04025AD1AA8400343581E8341234307
:101C100075E7002AE2D03A000A43CDD04207DB083C
:101C200013438022C0081203104206D0FC0814425D
:101C300003D12000CB087A0713435A0FDB00520769
:101C4000DB08134390E643460B4300D109E74346C4
:101C50004246C9085B0755460B43D00866E6CC1AD6
:101C6000A14289413F1A4942554601267F1A7EE525
:101C700042465C1A871AA34292415242BF1A3A0264
:101C80003DD5CC1AA1428941434649421F1A5546C7
:101C90007F1A95E57B07C9080B43F80843E64446DD
:101CA000DB080C4330D142071343C0085CE67B07D6
:101CB000C9080B43F80839E65C189C429B41404434
:101CC0005B42C7183B0200D425E61D4B01261F408E
:101CD00021E60400203AD4406246202A04D0402263
:101CE0006646921B904003435A1E93411C437EE676
:101CF0005C188C428941404449424718DDE6230084
:101D00003B4300D1ADE606E6440723438024C008E8
:101D10002403204208D04246D608264204D1554624
:101D20003000CB0851070B435A0FDB00DB0852078A
:101D3000134319E60023014A1F005EE5FF07000078
:101D4000FFFF7FFFF0B557464E464546DE46E0B5FD
:101D5000814605000C03480092461F0085B0240B05
:101D6000400DCE0F002800D156E1D44B984200D14F
:101D700072E16B0FE4001C4380231B04234398464D
:101D8000CF4BED009B4600239946834400933C03D0
:101D90007B005046240B5B0DFF0F002B00D11FE191
:101DA000C64A934200D162E1C549420F8C46E40025
:101DB00059461443802263441204CB1A14439B46B1
:101DC000C200002033007B409A464B460F2B27D899
:101DD000BC499B00CB589F46B246009B022B16D0B5
:101DE000032B00D18EE2012B00D0D9E00023002488
:101DF000002552461B052343D20713432800190030
:101E000005B0F0BCBB46B246A946A046F0BD0024D2
:101E10000025AA4BEDE7BA46A04615000090DCE786
:101E2000444500D2C7E100D1C2E101235B429C4698
:101E30002E0040460025E3442302140E1C431B0CD5
:101E4000994623041F0C1202494600920197FEF79F
:101E500007FA02007A430B04310C804619438A4288
:101E600007D901235B429C460919E0448C4200D803
:101E700007E2881A4946FEF7F3F909048C46310453
:101E80006646019A090C4243030031438A4204D951
:101E90000919013B8C4200D8EDE1881A4246120430
:101EA0001A4390464146009B0E041B0C1F000293F0
:101EB000009B360C1B04190C0B007343120C7E4361
:101EC000039151437A431F0CBC4676186644B142D5
:101ED00003D9802149028C466244310C8A183104AE
:101EE0001E04360C8E19904202D312D1B54210D284
:101EF0004346591E009B9C4665441F009D429B41E2
:101F00005B421B19C018844200D2A0E100D19BE1C2
:101F10008846AE1BB542AD41801A6D42401B8442DB
:101F200000D1D5E14946FEF79BF9019A0B044243E3
:101F3000310C050019438A4200D96CE1881A4946E0
:101F4000FEF78EF9019A360442430904360C030069
:101F50000E43B24200D953E10398B61A02002D0491
:101F60001D43029F2B041B0C5A437B439C46290CA8
:101F70004843130C844463447943984203D9802036
:101F8000400284466144180C12041B04120C4118D0
:101F90009B188E4200D2FFE000D1FAE001231D43DE
:101FA000494A5A44002A00DCAAE06B0700D03DE110
:101FB000ED084346DB0106D54246444B1A409046A5
:101FC0008022D2005A44424B9A4200DD1FE743462A
:101FD0005B071D43434652055C02240B530D08E783
:101FE0005246224300D17BE0002C00D1FAE02000D1
:101FF00001F022FA02000B3A1D2301009B1A5246FF
:102000000839DA408C40144352468A40314B5844D8
:102010009B4683440020D5E64B462343984644D054
:10202000002C00D1CEE0200001F006FA01000200F1
:102030000B391D235B1A49461000D94008388440EB
:102040000B004D462343984685402348831A9B4600
:102050000023994600939AE64B46234398461DD1A8
:1020600008239946063B0025834600938FE6524697
:10207000224309D1022349461943184B89469C46FD
:1020800000240220E3449DE603234A461A43134BEF
:1020900091469C4652460320E34493E60C2399461E
:1020A000093BA0468346009371E60423994600232A
:1020B0009B4601330025009369E6C046FF070000F8
:1020C00001FCFFFF24C60108FF030000FFFFFFFE25
:1020D000FE070000F30300000DFCFFFF01F8FFFF07
:1020E0004946012319438946002401206AE600235A
:1020F00080249A4600258A4B24037AE601256D4206
:1021000001239B1A382B00DD70E61F2B00DCBFE09B
:102110001F2149428A1A4146D1400A00202B04D08F
:102120004146804B5B4499400D436B1E9D41072304
:102130002A431D0000241540134200D1D4E00F2192
:1021400000231140042900D1CBE0111D914292419E
:1021500052429B180A00190200D4C2E00123002455
:10216000002546E6802341461B03194208D01C4245
:1021700006D11C432403BA461500694B240B38E6EC
:102180008024434624031C432403B246644B240B9F
:102190002FE6002B00D103E7A619681EA64200D245
:1021A0008DE08E4200D2A3E000D1B3E00500F5E659
:1021B000AA4200D939E64346DE0758086B081E4399
:1021C000ED0739E6484601F037F901000200153104
:1021D00020321C2900DC2CE74B46083883400025C0
:1021E000984632E701F028F903001A001532203032
:1021F0001C2A00DC00E75446083B00229C4005E70F
:102200003619013BB44200D9A6E6B24200D8A3E693
:10221000831E3619A0E60919013D8C4200D98DE6CE
:102220008A4200D88AE6851E091987E60F232B40CB
:10223000042B00D1BCE605235B42AB429B41043535
:102240005B42ED089844B4E6AF4200D960E68242B2
:1022500004D800D05CE6AE4200D859E602235B42C7
:102260009C46009BE0449C4665449D429B415B42EA
:102270001B19C0184DE68A4200D80EE6831E0919C4
:102280000BE68A4200D8F4E5831E98460919F0E56A
:102290002549280059448D4042468A40691E8D4197
:1022A0004146D840D94002432A430B00510700D190
:1022B00051E70F211140042900D046E74BE7050004
:1022C0008E4200D06AE6009A934200D066E667E646
:1022D000164A5A44002A00DC10E7012300259844DE
:1022E00067E65D075B021C0BD2080023154380E5FF
:1022F0000098023D42008242BF417F423C1936199C
:102300000092DDE78024434624031C432403044B4E
:10231000240B6EE5009A9A42EAD30500D3E7C04643
:10232000FF0700003E0400001E040000FF03000041
:10233000F0B54E464546DE4657469046E0B5170096
:102340001A03120B0500844619480E034C009146EF
:102350005A00DB0F9B46360B640DC90F520D8442A9
:1023600019D0824210D0012094420ED14E450CD19A
:102370000120C44509D1594517D0002C05D13000A2
:102380002843431E984100E00120F0BCBB46B24602
:10239000A946A046F0BD330001202B43F5D1A2424F
:1023A000F3D14B463B43F0D1E2E70020EDE7C046D6
:1023B000FF070000F0B54746CE460400180016009F
:1023C0001B031B0B2D4D4A00994680B543000F039C
:1023D000A446B0463F0B520DC90F5B0DC00FAA4279
:1023E00021D0AB4213D0002A22D13C43002B02D192
:1023F0004D462E4322D0002C10D0814222D0022004
:10240000013908400138C0BCB946B046F0BD4D4660
:102410002E4329D1002AF0D13C43EED10028F2D13D
:1024200001204042EFE73D0025431DD19342EED00D
:10243000002BE2D14C462643DFD1E0E70020002C00
:10244000E1D0DCE79A420ADCE8DB4F45D7D80ED072
:1024500000204F45D7D20029E2D00800D3E74342FD
:10246000584140000138CEE702204042CBE7C44546
:10247000C5D80020C445C6D2EDE7C046FF0700001E
:10248000F0B54746CE460400180016001B031B0B90
:102490002C4D4A00994680B543000F03A446B04630
:1024A0003F0B520DC90F5B0DC00FAA420DD0AB42BE
:1024B00010D0002A27D13C43002B11D14D462E438A
:1024C0000ED10020002C15D00EE03D00254310D188
:1024D000934218D14D462E430BD1002A02D13C43E2
:1024E000002C0BD0814214D0022001390840013861
:1024F00000E00220C0BCB946B046F0BD0028F9D1CA
:1025000001204042F6E7002BECD14C462643E9D1AE
:10251000EAE79A4204DD4342584140000138E9E7C6
:102520009A42EBDB4F45DFD806D000204F45E1D281
:102530000029E5D00800DDE7C445D5D80020C44512
:10254000D8D2F5E7FF070000F0B557464E4645469E
:10255000DE46E0B598460C034B000600924687B075
:10256000240B5B0DCF0F002B00D15CE1D94A9342C5
:1025700000D175E1420FE400144380221204144399
:10258000D54AC500944663440093002399469B4670
:10259000434642461E03D20F5B0050469046360B20
:1025A0005B0D00D120E1CB4A934200D162E1CA49E0
:1025B000420F8C4600996344F6008C4616438022F5
:1025C0009C44120463461643C20000200093009905
:1025D000434601318C4649467B4001930F2926D85A
:1025E000BE4B890059588F4643460193340015006D
:1025F00083465B46022B16D0032B00D103E2012B4E
:1026000000D0CDE0002200240025019B12052243CA
:10261000DB071A432800110007B0F0BCBB46B246E6
:10262000A946A046F0BD00240025AA4AEDE7280CE3
:102630002D042D0C2B00110C1204120C5343984640
:1026400013002F00434399464F434F44BB46474630
:102650000B003F0CBA464343DA440293D14504D9F8
:1026600080277F02B9464B44029353461B0C9B467E
:1026700053461F0443461B041B0C98463B0043442F
:102680000493330C3604360C984633004343994682
:10269000434643432F009A46434677435D43380CF5
:1026A0004D444519A94503D980235B029946CA4484
:1026B0003F04280C3F0C2D04ED19270C2404240C96
:1026C0000300200050437A4391463A005344059357
:1026D000030C9A464A43614349445144AB448945FB
:1026E00003D980235B0299464A4400040B0C000C7A
:1026F0000904091820009946434670435C437E4311
:102700005F43030C9846A41944444A440397A642E5
:1027100004D980235B029846474403972304029E12
:102720009A46059B5E449846AE42AD4176188E426D
:1027300089410004000C504440446D424719B8469A
:10274000934649428946C344D94498428041A845AA
:10275000AD4193459241894589416D4240422843AC
:10276000240C524249420A43039B00198018C7189F
:102770004B46DC0D049B75021D436A1E95414B467A
:10278000F60D7F0235435A023C431543FB0100D44A
:102790001CE101216A080D401543E2071543640856
:1027A0004F496144002900DCB0E06B0709D00F22DB
:1027B0002A40042A05D02A1DAA42AD416D4264195F
:1027C0001500E30104D58021464AC9001440614444
:1027D000454A914200DD26E76207ED08640249059B
:1027E0001543240B4A0D10E75246324300D17FE0D7
:1027F000002E00D1DCE0300000F01EFE02000B3A9B
:102800001D2301009B1A52460839DA408E401643B8
:1028100052468A40009B3549181A03008C4663448F
:1028200000200093D3E6250005434AD0002C00D1B8
:10283000B0E0200000F000FE010002000B391D2373
:1028400010005B1A3100350008388440D9408540BB
:102850000C432648831A0093002399469B4697E62B
:102860000500254326D10822009302230024914627
:102870009B468DE65246009B324310D115490026F7
:102880008C4663444946009302231943894602203B
:102890009DE65B460197022B00D0ADE6C3E60D4AEC
:1028A0000320944663444A46009303231A43914607
:1028B00052468CE60C2200930323050091469B466A
:1028C00066E60423994600230093013300249B46C7
:1028D0005EE6C046FF07000001FCFFFF64C601087A
:1028E000FF030000FFFFFFFEFE0700000DFCFFFFDF
:1028F00049460123194389460026012067E6002343
:1029000080240025434A019324037EE60120401AD7
:10291000382800DD76E61F285BDD1F2223005242A7
:10292000511ACB401900202803D03B4A62449440FE
:1029300025436A1E95412A000A4307210D00002401
:10294000154011425BD00F2100241140042953D0BF
:10295000111D914292415242A4180A0023024BD504
:1029600001220024002550E680231B031C4209D0CD
:102970001E4207D133431C0343461500240B254A4E
:10298000019342E68022120314432403214A240BBC
:1029900001973AE600F050FD0100020015312032A7
:1029A0001C2900DC4BE7340008380025844050E740
:1029B00000F042FD03001A00153220301C2A00DC12
:1029C0001EE75646083B00229E4023E7009B9C469C
:1029D000E6E61249220061442E008D408A40C6403E
:1029E000691E8D4132432A43C4405307B6D00F219C
:1029F00011400429ACD1B1E765076402240BD20869
:102A00001543002201E68022120314432403014AE5
:102A1000240BFAE5FF0700003E0400001E0400003E
:102A2000F8B557464E464546DE46E0B51E0017004F
:102A30004A000B03520D5B0A9046420F1A43CD0F1A
:102A4000CD4C3103C300944670007A0F490AFF0051
:102A50009A46B946400DF60F1143A04200D1B1E0AD
:102A600001225640B346B54200D188E04246121AD0
:102A7000002A00DCAEE0002800D1C1E0BE4880455D
:102A800000D151E1802000040143382A00DD7BE1C0
:102A90001F2A00DDEEE120203E00801A0C00D64007
:102AA000D140874062468440521A781E874194463E
:102AB00034432743DC1BA3429B4162465B42D31A4B
:102AC00099464B461B0200D418E14B465802430A74
:102AD00099464B46002B00D137E1484600F0ACFC4C
:102AE000010008392023220048465B1ADA4088405A
:102AF0008C4043461043884500DD36E1C91A4B1C23
:102B00001F2B00DDEAE020222600D21A01009440AB
:102B1000DE40D84000239140621E94418146984691
:102B200031430C43630709D00F232340042B05D006
:102B3000231DA342A4416442A1441C004B461B0236
:102B400000D4DEE041468C4B0131994200D1E7E0F0
:102B50004B468A48E4080340180049055B074002D9
:102B600023434A0D040B1205ED0722432A431800A4
:102B70001100F0BCBB46B246A946A046F8BD42468D
:102B8000121A002A52DD002800D19CE0A04500D195
:102B9000CAE0802000040143382A00DD49E11F2AF1
:102BA00000DC97E110000E002038C640202A04D037
:102BB0004020821A91400F43B9464C46621E944110
:102BC00034433AE10A003A4328D0B346B5422BD009
:102BD0006B4A4244002A5DD042464446821A002C89
:102BE00000D0F5E065461D4300D19CE1551E012A49
:102BF00000D1FBE1604CA24200D1BDE12A00F0E02F
:102C00000800384300D1C3E0501E012A00D1A8E1DA
:102C1000594CA24200D187E0020036E7012256401B
:102C2000B346B54200D021E7554A4244002A00D1BC
:102C3000B5E042464446821A002C00D138E14E4E9F
:102C4000B04200D1DEE18026644636043443A44617
:102C5000382A00DD96E11F2A00DD24E22026B41A7E
:102C6000A24664465646B440A1461C004E46D44097
:102C7000264334005646B3405E1EB3411C436346B0
:102C8000D340C918E419BC42BF417F42B9468046CF
:102C90008944D8E040463B4C0130204200D0B4E0AB
:102CA0004046002800D044E16046184300D190E13E
:102CB0000800384300D0AAE16146DB0849070B430E
:102CC0006146CC0827E00800384361D0501E012A35
:102CD00000D139E1A24227D002005DE702001F398E
:102CE000CA401100202B03D04022D31A984004433D
:102CF000631E9C410023994698460C43630700D00D
:102D000012E74B464A46E4085B072343D408424691
:102D100019498A420ED024035205240B520D22E792
:102D20000A00002400231EE7DB0862465207134313
:102D30006246D4081A00224300D1FCE1802212032B
:102D4000144324030C4A240B0DE7200000F074FB0D
:102D5000010018311F2900DCC4E6083884404346CE
:102D600020000024884500DCC8E6044A5B1A1040B5
:102D700098468146D6E6C046FF070000FFFF7FFF6A
:102D800001F8FFFFFE0700000F437A1E974191E60E
:102D90006146DB0849070B436146CC08B8E740466B
:102DA000D34C0130204200D0A2E04046002800D0A1
:102DB00001E16046184300D15EE10800384300D0CD
:102DC0005FE16146DB0849070B436146CC08A2E797
:102DD000C84DA84200D1CFE0802564462D042C4385
:102DE000A446382A56DC1F2A00DDD1E020251E002B
:102DF000AD1A6446AB40AC40D6405D1EAB41344397
:102E000023436446D440091B49E06046DC1B461A54
:102E1000A34280414042814630004E46801B81469D
:102E2000000276D44B46234300D052E6002400250E
:102E300071E739430C00621E9441E4189C429B41A7
:102E40005B42634499464B461B0200D456E701237C
:102E50009C46A84BE044984538D04B46A6480122F2
:102E600003401800630814401C43C3071C43430875
:102E7000994657E610000E002038C640202A04D09C
:102E80004020821A91400F43B9464F467A1E97411F
:102E900037430FE662461A4313005A1E9341FC1A49
:102EA000A742BF417F42CB1B99465D46804608E65C
:102EB00066461E4300D1BEE0561E012A00D109E13C
:102EC0008C4CA24200D119E13200C1E642460024F6
:102ED000002348E620200C00801A3E0087408440F2
:102EE000D640781E8741D14034433C438C44A4E70C
:102EF000804A904200D1E9E0DF199F429B41614442
:102F00005B42C918CC077F084B08994680463C4372
:102F1000F4E6FC1AA742BF4163467F42C91ACB1BA5
:102F200099465D46D5E5FF084B075D463B43CC0817
:102F3000EEE662461A4300D082E00B003B431BD111
:102F4000802400252403F9E6DC199C429B4161445E
:102F500089465B4299444B461B0244D40123984660
:102F6000CCE6DC1B6246A3429B41511A5B42CB1A62
:102F7000994601239846A4E5FF084B075D463B436D
:102F8000CC08D7E662461A431400631E9C4179E6DA
:102F900015006446203DEC40A046202A05D040257F
:102FA0006446AA1A944023439A465446631E9C41A1
:102FB0004346234373E762461A4323D00A003A4349
:102FC00000D0A0E06246DB08520713436246D408F3
:102FD000B0E60B003B4300D128E7FF084B075D46F6
:102FE0003B43CC0897E60223984636E7FC1AA742F3
:102FF000BF4163467F42C91ACB1B994601235D46F8
:1030000098465EE54B07FF083B43CC0892E6DC1B85
:103010006046A342B641401A7642801B81460002B8
:1030200060D5FC1AA742BF4163467F42C91ACB1B39
:1030300099465D4676E5FF084B073B43CC0867E6BB
:103040000A00DB083A4300D16FE662465207134399
:103050006246D40880221203144207D0C8081042E6
:1030600004D15D460400FB0849070B435A0FDB00FF
:10307000DB08520713435DE64B07FF083B43CC08D0
:1030800049E6DC199C429B41614489465B42994474
:103090004B461B0200D431E64A46174B1A40012327
:1030A000914698462AE616006446203EF440A04623
:1030B000202A05D040266446B21A944023439A46FB
:1030C0005446631E9C4143461C43DBE5020000243A
:1030D000002348E5DC19BC42BF41614489467F4278
:1030E000B94438E74B46234300D19FE606E6C04685
:1030F000FE070000FF070000FFFF7FFFFF084B07F0
:103100003B43CC0816E66246DB085207134362468F
:10311000D40880221203144207D0C808104204D1F8
:103120005D460400FB0849070B435A0FDB005207BA
:10313000DB081343FEE50023014A1C0013E5C046EB
:10314000FF07000070B505000C481C0316005B006B
:103150000A034900120B490D240B5B0D814208D074
:10316000064A0020934203D120003043431E984179
:1031700070BD01202A43FBD1F2E7C046FF070000E3
:103180000A0030B5134C530009030500090B002059
:103190005B0DD20FA34204DD0F48834202DD0F4BCB
:1031A000D01830BD8020400301430D48C01A1F28AD
:1031B00008DD0C48C31AD9400B005842002AF0D150
:1031C0001800EEE7084CC540A446634499400B0044
:1031D0002B43F2E7FE0300001D040000FFFFFF7F0A
:1031E0003304000013040000EDFBFFFF70B500285E
:1031F00016D0C317C5185D40C40F280000F01CF995
:10320000114A121A0A2816DC03002E0015339E40BC
:103210000B23181AC54052052D032D0B530D03E047
:1032200000240023002500261B052B43E40723432D
:103230003000190070BD0B38854052052D03002663
:103240002D0B530DF0E7C0461E04000010B5041E00
:1032500010D000F0F1F80F4B1B1A0A2811DC0B22DA
:103260002100121AD14015300A035B058440120B6D
:103270005B0D01E0002300221B0513432000190011
:1032800010BD22000B3882405B0512030024120B94
:103290005B0DF1E71E04000070B543004602C40F49
:1032A000FE201B0E591C750A08420CD0E022920029
:1032B00094466D07360B63441B053343E4072343F1
:1032C0002800190070BD002B14D1002D1BD0280040
:1032D00000F0B2F80A281CDC0B232E001B1ADE407B
:1032E000030015339D400E4A3603121A5205360B61
:1032F000530DE1E7002D09D08022360B1203094B54
:103300006D071643D8E700230026D5E70026054BB6
:10331000D2E703000B3B9D402E000025E3E7C046AB
:1033200089030000FF07000002004B00F0B55B0DB1
:103330000C033D4E640A400F5F1CC90F0443D500C7
:1033400037420AD039481E18FE2E16DDFF20002411
:10335000C0052043C9070843F0BD002B06D12C430C
:1033600026D005229201540AD8B2F1E72543EDD0C8
:103370008020C0030443FF20EAE7002E1BDD9201FA
:10338000531E9A41E4006D0F22432A43530748D04D
:103390000F231340042B00D004328023DB0413409E
:1033A0003FD0701CFE2ED1D09201540AC0B2CFE79C
:1033B00000200024CCE73200173222DB80200004FA
:1033C00020431E24A41B1F2C1DDD02225242961BEB
:1033D0000200F2401600202C04D0154A94466344A3
:1033E000984005432A00531E9A4132430026530752
:1033F000CED180241300E404012023402242D3D103
:10340000B0E70023ADE70B4A94462A00E2401400DF
:103410002A0063449A409840551EAA410243224321
:10342000E4E733009EE7C046FE07000080FCFFFF94
:10343000A2FCFFFF82FCFFFF1C2101231B0498421A
:1034400001D3000C10391B0A984201D3000A083935
:103450001B09984201D30009043902A2105C4018EC
:103460007047C04604030202010101010000000090
:103470000000000010B5002903D1FFF7DDFF203068
:1034800002E00800FFF7D8FF10BDC046F0B5574670
:103490004E464546DE46E0B50F0019000023060003
:1034A0009846100083B0002F07DA33003C00002755
:1034B0005E42A74101235B429846002907DA434652
:1034C000DB430C009846030000215842A141340020
:1034D0003D0082468946B9426AD867D0494650467F
:1034E000FFF7C8FF834639003000FFF7C3FF5B4694
:1034F0001B1A9C46203B9B466BD458465146814044
:1035000060460B00514681400A00BB4200D972E080
:10351000BB4200D179E034003D005946A41A9D41D8
:10352000002900DA74E000210020012600900191BA
:1035300059468E400196614601268E4061460096AE
:1035400000295FD0D90756080E435F086146012263
:1035500000230CE0AF4201D1A6420AD8A41BBD4112
:1035600024196D410139A4185D41002906D0AF42EC
:10357000F0D9013924196D410029F8D10098019939
:103580005B4600196941002B4DDB2E002C00DE400C
:103590006346DC405B46002B55DB34009C40230037
:1035A0006446A6403200801A994103E0B04295D9A2
:1035B000002000214346002B04D003000C00002112
:1035C0005842A14103B0F0BCBB46B246A946A04652
:1035D000F0BD624648462023514690409B1AD94090
:1035E00003000091009960460B43514681400A0058
:1035F000BB4200D88CE70021002000900191614679
:1036000000299FD100980199D4E7B142F3D882E70D
:10361000614620260127761A00200021F7400090FD
:103620000191019787E7624620239B1A2A009A405E
:10363000260013006246D6402C001E436346DC4041
:103640005B46002BA9DA62462023350094409B1A82
:10365000DD4023002B43A3E7F0B5C64600B50500C7
:103660000C0016001F000AF0F7FE00281BD0124BBA
:10367000AA003900D0580BF0B9FC002813D1002E55
:1036800011D0002728000AF0E7FE2100012210F0E7
:10369000D1FC804602200DF0F5FC7B1CDFB201342A
:1036A000B742EFD301E0012398460A200DF0EAFC6F
:1036B000404680BCB846F0BDB4210020F0B5224B96
:1036C00022491B8883B09AB28B4235D0160A2CD07F
:1036D0001F4BF6B21E701F4B1A706B46D91D00238C
:1036E000022201259C461C4C63460B700B780A2B6A
:1036F00014D86B1E9800C0184000C018124BD71881
:103700000B783F88C3185B00E7520B780232013315
:10371000DBB20B700B7892B20A2BEFD90135EDB208
:10372000AE42E1D2002003B0F0BD0121084B0126DA
:103730001970084B1A70D0E70122054BFA201A7055
:103740000022044B1A70EEE700000408FFFF00009F
:1037500000000020500B002064100020F0B55746F8
:103760004E46DE464546E0B583B06B469E1D0023BF
:1037700098463380194B21279A46194B9B4643465E
:103780009B001D00994645447C1F6D00A4B2554422
:103790002000310008F0E8FC338801346B70A4B2DB
:1037A0001B0A2B700235BC42F2D14F46002347441E
:1037B0007F0057447B7243460133DBB298465B4639
:1037C0001B780534A7B24345D9D2002003B0F0BC22
:1037D000BB46B246A946A046F0BDC046540F0020E5
:1037E00000000020F0B54646D6464F46C0B582B030
:1037F0006B469E1D0023234D33802B780024002B25
:103800003CD0214B002198461F1D20004900CB30A1
:10381000791880B208F0A8FC611C2B788CB2C9B270
:103820008B42F2D838232700D0349C46A3B2994665
:1038300000239A469E37E044BFB245467C1FA4B29F
:103840002000310008F090FC338801346B70A4B282
:103850001B0A2B700235A742F2D1434652465A72D8
:103860000A239C460537BFB2E0444F45E5D100200E
:1038700002B0E0BCBA46B146A846F0BD024B98463D
:10388000D0E7C04600000020500B0020F0B585B006
:1038900000236A46E42003A99381D38108F064FCE5
:1038A0000025002801D16B461D7B03A9E52008F007
:1038B0005BFC0E236B4404001900E62008F054FC66
:1038C0000443A4B20026002C04D16B469E89DB89F8
:1038D0003604F61803A9E72008F046FC0E236B44D3
:1038E00004001900E82008F03FFC0443A4B20027BC
:1038F000002C04D16B469F89DB893F04FF18E92027
:1039000003A908F031FC00282FD0264CEA2003A997
:1039100008F02AFC002804D16B469B891A0AA2777A
:10392000E377EB2003A908F01FFC002806D16B46C3
:1039300020229B89190AA1540132A354237F002B12
:1039400002D0627F002A1ED1A37F002B02D0E27F2B
:10395000002A1FD12023E35C002B03D02122A25C8C
:10396000002A09D1002005B0F0BD6B469B890D4CA3
:103970001A0A22776377C9E7009231003A002800DB
:1039800004F0A0FCEEE7009231003A00280004F0B9
:1039900099FCD9E7009231003A00280004F092FC2B
:1039A000D8E7C046D00B00208A2030B583B001A9EB
:1039B000400008F0D9FB534C00285ED16B468E20A6
:1039C0009B8801A9A384400008F0CEFB00285ED1AB
:1039D0006B46210016209B882431DA0B0A715B08A4
:1039E00001A9FF30638508F0BFFB00285DD16B465D
:1039F0008B209B8801A94000A38508F0B5FB002817
:103A00005DD16B4618209B8801A9FF30E38508F043
:103A1000ABFB00285DD16B469B8823868C2001A9D7
:103A2000400008F0A1FB6B4605001A20991DFF30ED
:103A300008F09AFB0543ADB2002D56D16B466A469D
:103A4000DB8892881B04134363638D2001A9400027
:103A500008F08AFB002844D16B469B8823871C20F2
:103A600001A9FF3008F080FB002836D16B461B7996
:103A700000202C34A37603B030BD8E20224B01A948
:103A80009B884000A38408F06FFB0028A0D0220090
:103A900016201D4B2432197AFF3011715B8901A960
:103AA000638508F061FB0028A1D08B20164B01A98B
:103AB0009B894000A38508F057FB0028A1D018205F
:103AC000114B01A9DB89FF30E38508F04DFB00288D
:103AD000A1D00D4B1B8A2386A0E726230A4AD35C7C
:103AE000C6E7C0235B012387B9E74823E35C002BCB
:103AF00003D0E1235B026363A7E7034B5B69636366
:103B0000A3E7C046D00B002000000020F0B54F46D0
:103B10004646D646C0B588B000236A46D3830F33E5
:103B200098460E3B99460833FF330127EC249A460A
:103B3000334E06E004340137A4B2FFB209365445CF
:103B400057D01E236B441900200008F00DFB051E02
:103B5000F0D16B46DB8B190A1A0BBA42EAD1424606
:103B600040460A400842E5D073741E23601C6B4433
:103B70001900B27280B208F0F7FA6B46DB8BA01C1A
:103B80001A0AB3731E236B441900F27280B208F054
:103B9000EBFA6B46DB8BE01C1A0AF3731E236B44B3
:103BA0001900327380B208F0DFFA6B46DB8B390004
:103BB0001A0A72733374B07A08F0BCFF4846717CFD
:103BC000F37A4A10059502400140307C0434049099
:103BD000F07BA4B20390B07B09360290307901905B
:103BE000F07800903800013709F09EF8FFB2544594
:103BF000A7D1002008B0E0BCBA46B146A846F0BD47
:103C00003C2F0020F0B5D64646464F463220C0B580
:103C100011F042FD061E6CD0374C2378FE2B57D195
:103C2000431C994664239A46344B354F9846BA4410
:103C3000210023001431351B1A78EA5401338B42DA
:103C4000FAD114224946380011F04CFF28341422CE
:103C50000021300011F04FFF2278FD2A3AD80023CE
:103C6000283D01E0322B30D02A55627801330134EF
:103C7000DBB2FD2AF6D91D005A1EB25C002A01D023
:103C80000133DDB2280011F007FDF860002826D0CE
:103C90002A00310011F026FF434642461B780021DE
:103CA0000133137030002A0011F025FF2378FE2B1A
:103CB00002D11437BA45BBD1300011F0F7FC002017
:103CC000E0BCBA46B146A846F0BD31223225D4E761
:103CD000FF20F5E70122002500235242CDE7142200
:103CE0000021380011F007FF300011F0DFFC0E203A
:103CF000E6E7FB20E4E7C04600100408881900202E
:103D00008C19002070B5FFF7D9FC0F4C2378002BDD
:103D10000CD001200D4D411E461C49003000691891
:103D200008F022FA2378F0B28342F4D2FFF716FDAE
:103D3000FFF758FDFFF7AAFDFFF736FEFFF7E6FE97
:103D4000FFF760FF70BDC046000000205833002020
:103D5000F0B5C64600B5104E33789846002B16D005
:103D60000023012498460D4F07E0192C01D90A239E
:103D700098463378ECB2A34209D3631E5B00F95A2C
:103D8000651C0029F1D0A8B208F016FAEDE740460C
:103D900080BCB846F0BDC04600000020583300206B
:103DA0000023F0B54646D6464F4698461C4BC0B554
:103DB00099461C4B00269A4605E0534601361B786F
:103DC000F6B2B34226D34B46B400A41964001B5D7F
:103DD000002BF2D04546474601341C3521374C4470
:103DE000ADB2BFB221781B022800C918013589B2D3
:103DF000ADB208F0E1F9BD4202D063780234F1E7D8
:103E0000434605339BB29846534601361B78F6B2BB
:103E1000B342D8D20020E0BCBA46B146A846F0BDB5
:103E2000540F002000000020F8B5DE4657464E46ED
:103E300045468B46E0B51C000AAB1B7801009A464C
:103E40000BAB1B78E42098460CAB1F780DAB1E78AB
:103E50000EAB91461D7808F0AFF95B46190A89B29E
:103E6000E52008F0A9F95B46E62099B208F0A4F92C
:103E70004B46190A89B2E72008F09EF94B46E82024
:103E800099B208F099F92102514489B2E92008F069
:103E900093F943461902C91989B2EA2008F08CF94E
:103EA0003102491989B2EB2008F086F90020F0BCF4
:103EB000BB46B246A946A046F8BDC04670B5214CE7
:103EC000242225008A2024356B78A15C5B011943EC
:103ED000400008F071F98E202979638DC9031943D8
:103EE00089B2400008F068F91620A18DFF3008F073
:103EF00063F98B202500E18D400008F05DF9182062
:103F00002C356B79297B1B021943FF3008F054F9DB
:103F10008C20A18E400008F04FF91A20E18EFF306E
:103F200008F04AF98D206B7B29791B021943400068
:103F300008F042F91C20A97EFF3008F03DF900206E
:103F400070BDC046D00B0020F0B5C646124E3422DC
:103F50000021300000B511F0CEFD104D2F78002F5C
:103F600016D00223012400279846192C00D90A27CD
:103F70004346DCB22B78A3420AD3631E5B00F15A9E
:103F8000631C98460029F0D0180008F015F9ECE7FA
:103F9000380080BCB846F0BD583300200000002037
:103FA0000E2330B512248FB06B446C44009303AAE7
:103FB00006AB05A9012008F0F3FB04AA08AB07A98A
:103FC0000220009408F0ECFB01230A936B460025C5
:103FD0009B89059809A909930B950EF0C1F8022356
:103FE0000B932388089809A909930A950EF0B8F84D
:103FF0006B460022998905980EF05CFA052009F0BD
:104000002FFF218808980EF04FFA03000020002BA4
:1040100001D00FB030BD6B460122998905980EF092
:1040200049FA052009F01CFF218808980EF03CFA97
:10403000013843425841C0B2EBE7C04670B50600B4
:104040000024084D30002968FCF75EF80134002890
:1040500005D0E4B20C350D2CF4D1002070BDE0B2D7
:10406000FCE7C0469400002070B5017803000C0006
:104070003D3C3D2900D144780D0006203E3D3C39B1
:10408000002C27D0002D02D15A78002A24D00029F4
:1040900002D15A78002A21D01A783E2A05D15E78BA
:1040A0003D2E02D19E78002E1AD03C2A05D15E7892
:1040B0003D2E02D19E78002E14D0212A05D15A78A7
:1040C0003D2A02D19A78002A0ED00138C0B20028C9
:1040D000D6D170BD0120FCE70220FAE70320F8E703
:1040E0000420F6E70520F4E70620F2E770B509F0B2
:1040F0007BFD09F01DFE08F057F908F013FB07F0EF
:104100006FFD09F047FE07F067FF09F06BFE08F04E
:10411000B5FB002857D1FFF743FF002825D13220F7
:1041200009F09EFE06F038FE304DFFF7EBFD0AF079
:1041300029FA07F06BFD80212D4B01221B782D48B9
:104140004901002B28D10EF0B5F9FA20400009F002
:1041500087FE80210022274849010EF0ABF903F0C9
:1041600077FD49230122EA5470BD482301221F4DE7
:104170003220EA5409F074FE06F00EFEE1214902F5
:104180000124696300E0696B20000134E4B20AF0A5
:1041900051F9072CF7D1C8E70EF08CF9FA2040004E
:1041A00009F05EFE80210022490112480EF082F9DA
:1041B000642009F055FE80210E48012249010EF0CD
:1041C00079F96420C3E70C4C0C4D2368AB4204D052
:1041D00008F08AF8002800D12560BFF34F8F084B04
:1041E000084ADA60BFF34F8FC046FDE7D00B0020CE
:1041F000500B002000040050F07F0020ADDEEFBE29
:1042000000ED00E00400FA0510B50CF015FF06F013
:10421000C1FBFFF76BFF03F03BFF0AF0C3FE10BDCD
:10422000F0B5C646124E134B3700050001249846E0
:1042300000B54C3782B0A54210D043464C221B8DAE
:10424000BC705BBAB352032300220093002120000C
:10425000073304F02DF90A200AF0AAFE0134E4B273
:10426000072CE8D1002002B080BCB846F0BDC046A3
:10427000D00B002000000020F0B557464E464546C2
:10428000DE46E0B583B06A464A4B00AF1E780400B4
:10429000F31DDB08DB00D31A9D466D46002E0AD0C5
:1042A00032000021684611F026FC434800217200CC
:1042B0007C3011F020FC01231622601E2B543F4B52
:1042C00042439C463C4B400018180123984601335A
:1042D000624400217C249C46AB467E605388002BC0
:1042E0000DD0065BDB08B14646468E40B2464E46D0
:1042F00055462E4365465B44013B06531D70013114
:1043000002320629EAD15D4602237E689B46B0460A
:104310002E005B460133DBB29B464346002B3FD069
:1043200001235B425B4499460023234C00229C46B8
:10433000224D7C3405E00132D3B202341635984563
:104340002BD9B35C4B45F6D143462800AA46002141
:10435000250090467B604388002B0FD0DB08013B93
:10436000F25C002A0AD101248C402A8822432A8048
:104370005A46F25463460133DBB29C4601310230A7
:104380000629E8D142467B682C0098465546013202
:10439000D3B2023416359845D3D86346002BB8D132
:1043A0000020BD4603B0F0BCBB46B246A946A046BD
:1043B000F0BDC04600000020D00B0020641000209B
:1043C000F0B5DE4645464E465746E0B5002593B06B
:1043D00004000E002E22029106A80021059511F07E
:1043E0008AFB1A2200216A4811F085FB3021694BB3
:1043F000621E98469B185D541C315D54162353432E
:10440000654A012093461A005A440392B1B2430010
:10441000D35A002B03D0DB088B4200D1A8E0013037
:104420000728F4D15D4B18780123002800D1ABE0B8
:1044300047464546FF2600212F374B359C4202D088
:104440005A19FE54117001338342F7DD00234646AA
:104450009A463033994605AF30363C003A00012188
:10446000002315780133294001328342F9DB00290A
:104470004AD13B78002B42D043464A46FF259A5CFE
:1044800000238C4600E09A5D954205D921780029E9
:1044900002D1D9B28C461500013301348342F2DBDC
:1044A00061460131CBB29A46029B9A452DD05346C4
:1044B0005D1E012316247B555B466C431A190C3391
:1044C0001C19454401905388002B13D0DB08DBB244
:1044D000013BF95C00290DD149464846695C4344DB
:1044E0000131185CC9B2884204D9484619544C219C
:1044F000504658540232A242E5D10198ADE74A46EF
:1045000043469D5C2A00BBE75346013B4C21434494
:10451000595C50460023002901D10CE011001A001B
:104520001B4C0133A054424652184B3212780800FB
:10453000DBB2002AF2D101200299039C41442F31C1
:104540004300E35A002B08D0114D0A78AC46624470
:10455000013A1278DB089A4214D001300728EFD1D3
:10456000002013B0F0BCBB46B246A946A046F0BD41
:10457000029B01211A0042442F321170044AC0B23A
:104580001370EEE7C0B2ECE700225B429246BDE753
:10459000D8210020500C00206410002000000020D2
:1045A000F0B5DE464E46454657465B4BE0B51F002C
:1045B00068373A009846594B060013CB13C2196866
:1045C00083B011609B88380093800125FBF7A6FD1E
:1045D0006D42322382B239003000009509F0D4FEDA
:1045E0004F4B0124994622004946380011F0A8FC9F
:1045F0003800FBF793FD013482B2322339003000DA
:10460000009509F0C1FE072CEDD1322303223000C2
:104610004449009509F0B8FE434B1B78002B6AD043
:10462000424B45469A46424B01270024994668353D
:104630007F42631C1A003F4928009B4611F080FC12
:104640002800FBF76BFD322382B22900300000976F
:1046500009F09AFE1623634398464246364B2800DB
:104660009B5A05225900C918344B49009C466144A5
:1046700011F0BBFC3223052229003000009709F01D
:1046800083FE3223300001222D49009709F07CFE81
:10469000294B294C0C3344449844330046469846F1
:1046A00010E04946280011F04BFC2800FBF736FDCE
:1046B000023482B2322329004046009709F064FE9A
:1046C000B4420AD06288002AEBD007235146134037
:1046D0002800D20811F034FCE7E7322302224046DA
:1046E0001849009709F050FE5B46DCB20E4B464677
:1046F0001B78A3429DD801235B4200930122300026
:104700001149333309F040FE03B0F0BCBB46B2465A
:10471000A946A046F0BDC046500C0020A4C6010822
:10472000B8C601089CD5010800000020D0C60108C9
:10473000CCC60108C0C60108641000201CBD0108D9
:10474000B4C60108DCC7010898DF0108F0B5DE46F1
:10475000454657464E46374CE0B568342200364B46
:10476000824623CB23C223CB23C21B6883B01360B2
:104770002000FBF7D3FC01235B4282B200932100AF
:104780003333504609F000FE2C4B1B78002B34D0FD
:10479000012399462A4B802798462A4B3F029B4685
:1047A0004B46244E5D1E00246D00683601E00A2C45
:1047B0001BD022003900434611415B5B0134194292
:1047C000F5D023004A465946300011F0B9FB3000BD
:1047D000FBF7A4FC01235B4282B2009331005046F8
:1047E000333309F0D1FD0A2CE3D14B460133DBB260
:1047F0009946124B1B784B45D2D20E4C124B683463
:10480000220023CB23C223CB23C203CB03C220002D
:10481000FBF784FC01235B4282B2009321005046E7
:10482000333309F0B1FD03B0F0BCBB46B246A94634
:10483000A046F0BD500C0020D8C6010800000020A2
:104840005833002014C70108F4C60108F0B5DE464D
:104850004E4645465746E0B585B003900AF04EFDFA
:10486000002304009A4D03709A4B68351A789A49D0
:10487000280011F065FB2900200011F081FB974B07
:1048800097499846382342462800D25C11F058FBDD
:104890002900200011F074FB0623002291490093A7
:1048A0002800043B11F04CFB2900200011F068FBAC
:1048B0008D4A8E49280011F043FB2900200011F099
:1048C0005FFB8B4A8B49280011F03AFB290020003E
:1048D00011F056FB2A00884B43CB43C219682000D5
:1048E00011609988012691809B792900937111F0BC
:1048F00047FB824B9A46824B9946824B9B4632003D
:104900005146280011F01CFB2900200011F038FB53
:1049100043463C33F35C042B0BD84A469B00D358E8
:104920009F46794B794A83CB83C283CB83C21B8852
:10493000138029002000013611F022FB072EDED162
:10494000734B724AA04643CB43C243CB43C22900B8
:10495000200011F015FB682294466E4B6E4F9A466C
:104960005B4B0125634499466C4B3C009B466C4E67
:1049700016E0B06A06F0C2FA0700206806F0BEFA38
:104980002A003B0051460090484611F0D9FA013503
:104990004946404611F0F4FA60360434072D10D031
:1049A0003368002BE5D12A005946484611F0C8FA71
:1049B00001354946404611F0E3FA60360434072DCC
:1049C000EED14046FBF7AAFB44460600554B0222B7
:1049D000190020189A4611F085F8B01C1D22524982
:1049E000201811F07FF81E239846B04480264F4BC4
:1049F000374F99464E4B00259B463602683701E0FB
:104A0000062D16D04946334B2A001B780135013B51
:104A10005B00CB5A310011411942F1D059462A00AE
:104A2000380011F08DFA3900200011F0A9FA062D96
:104A3000E8D12000FBF772FB43461E040500360C4C
:104A4000B0423ED003225146601911F04BF8039B4F
:104A5000002B29D105B0F0BCBB46B246A946A04602
:104A6000F0BD344B294A83CB83C262E7324B274ADD
:104A700083CB83C203CB03C21B78137059E75A461A
:104A8000224B83CA83C383CA83C311681960918888
:104A9000998092799A714CE7284B1A682A609A8813
:104AA000AA809B79AB7144E72000FBF737FB012319
:104AB0005B4282B2009321000398333309F064FC17
:104AC000C8E705221E49201811F00CF80435B9E793
:104AD000500C0020500B002028C70108D00C0020EB
:104AE00044C7010860C7010880C701088CC70108D6
:104AF000A4C70108B0C70108CCC70108E0C7010876
:104B000070BC010830C8010814C80108B80C0020A6
:104B100050C8010884C80108681B002068C8010843
:104B200044290020DCC70108B4C80108583300201C
:104B3000D4C8010808C80108F0C70108E8C701087F
:104B4000DCC80108F0B5C64600B5037806006D2B39
:104B50000AD14378652B07D18378002B04D1264BEB
:104B6000187880BCB846F0BD30002449FBF7CCFA79
:104B7000002837D033789846232B22D0204B1F783B
:104B8000002F0FD000241F4D29003000FBF7BCFA86
:104B9000002802D14346002B26D10134E4B20A3565
:104BA000A742F1D10024144D383529003000FBF71D
:104BB000ABFA00281AD001340A350A2CF5D164204A
:104BC000CFE7701C10F0DDFCC3B2002B03D00C4A01
:104BD00012789A4204D2084A662012789A42C0D1CA
:104BE00018B2BEE7FF20BCE720B2BAE7FE202402DD
:104BF000204300B2B5E7C046500B0020E4C80108CE
:104C000000000020540F0020F0B5C6462A4C804614
:104C100025000E0000B5103521003000FBF774FAB6
:104C200000283AD00434AC42F6D1244B1F78012F2F
:104C300010DD0125224C03E001350A34BD4209DABA
:104C400021003000FBF760FA0028F5D1072080BC76
:104C5000B846F0BD1B4D2C009C3538342100300087
:104C6000FBF752FA0028F1D00A34A542F6D1164FCC
:104C7000164C7C6403E064687C64002C0FD02368CD
:104C80001D682800FBF74AFA29000200300011F0E5
:104C90009AF90028EFD10820D9E70620D7E7434644
:104CA00098000B4F404440003100C01911F083F9C7
:104CB000FFF776F8CBE7C046CCBC01080000002027
:104CC0005E0F0020500B0020D00C0020300100208F
:104CD000540F0020F0B54F464646D6463C4BC0B573
:104CE0001F00383780460E0099463D0000242900F9
:104CF0003000FBF709FA002851D001340A350A2C9C
:104D0000F5D1344C2500103521003000FBF7FCF9BB
:104D100000284ED00434A542F6D12F4B1B789A467A
:104D2000012B12DD01252D4C03E001350A34AA4583
:104D30000BDD21003000FBF7E7F90028F5D1072053
:104D4000E0BCBA46B146A846F0BD254B254C9A4674
:104D50009C6404E0534664689C64002C0DD0236876
:104D60001D682800FBF7DAF929000200300011F075
:104D70002AF90028EED10820E2E73B78002B1AD070
:104D800001340A370A2CF8D18023DB004746013F63
:104D90007F004F44BA8800201343BB80D0E7012234
:104DA0004746A240013F7F004F44BB881343BB806E
:104DB000C6E70620C4E74A46A3001B19580038324C
:104DC0003100101811F0F7F80123A3401BB2DDE702
:104DD000500B0020CCBC0108000000205E0F00201A
:104DE000D00C002030010020F8B54746CE462425DF
:104DF00080B58C4608A910C9924EA846775D25005B
:104E00008146681E8541404609786D0135540D0084
:104E1000691E8D416900802520312D05AA4229D2C5
:104E20004C21725432004C325370082B19D8864AE8
:104E30009B00D3589F4663461A6833004C339A70E0
:104E4000624612681212DA706246126812141A71FF
:104E50006246126812165A7120210622484603F053
:104E6000C7FD24230020F754002C15D1C0BCB9463F
:104E7000B046F8BD4C25002070553500100E4C355D
:104E8000A870100C52BA6B70E870AA80082BE8D892
:104E90006E4A9B00D3589F460CF0EEF84C26050056
:104EA0006B4FB85D0028E1D00CF0E6F8401BA04243
:104EB000F7D3B85DDAE763461A7833004C339A715A
:104EC0004846072203F094FDCBE763461A78330087
:104ED0004C339A7020210322484603F089FDC0E735
:104EE000634632001B884C32937063461B881B0A52
:104EF000D37020210422484603F07AFDB1E76346CF
:104F00001A7833004C339A70624652782021DA7056
:104F10006246927848461A716246D2785A71624661
:104F200012799A7162465279DA71624692791A72EE
:104F30006246D2795A720A2203F05AFD91E763461B
:104F40001A7833004C339A71624652784846DA71C7
:104F5000624692781A726246D2785A726246127922
:104F60009A7262465279DA72624692791A7362468E
:104F7000D2795A730E2203F03BFD72E763461A683A
:104F800033004C339A7062461268120ADA70624635
:104F90001268120C1A7162461268120E5BE76346C1
:104FA00032001B884C32937063461B881BB21B1265
:104FB0009EE763461A6833004C339A716246126862
:104FC00048461212DA716246126812141A72624668
:104FD000126812165A720A2203F00AFD41E763466C
:104FE0001A6833004C339A71624612684846120AB6
:104FF000DA7162461268120C1A7262461268120E58
:105000005A720A2203F0F4FC2BE7634632001B8835
:105010004C32937163461B8848461BB21B12D371F6
:10502000082203F0E5FC1CE7634632001B884C3283
:10503000937163461B8848461B0AD371082203F00C
:10504000D7FC0EE7D00B002084BC0108A8BC0108E7
:10505000D00C002070B5012182B01E2010F098FA0B
:105060000B4D0400280044262C30027DAD5B837D6F
:1050700008490195013A407D92008A180090126912
:1050800020002C3110F05CFF200002B070BDC04643
:10509000D00B0020CCBC010800B5084B0A001978E1
:1050A000012385B00393023B0293019303330093E2
:1050B0000B0003F0D3FC05B000BDC046500B002030
:1050C00070B505000C00E420002107F075F8002100
:1050D000E52007F071F80021E62007F06DF80021C7
:1050E000E72007F069F80021E82007F065F80021C3
:1050F000E92007F061F80021EA2007F05DF80021BF
:10510000EB2007F059F8691E4B005B18104A5B0151
:105110009B58611E002B11D04B005B185B019B5804
:105120002800002B03D106F033FE002070BD06F0EE
:105130002FFE200006F02CFE0020F7E74B005B1846
:105140005B019B58002B01D02000ECE76820EDE7C5
:1051500044290020F0B5C64600B5264D07002B783F
:10516000013B9C00E418A4002C1923699846002BED
:105170002ED01800FAF7D2FF06003800FAF7CEFF5B
:1051800031180231404610F0E9FC2A782061013ADA
:1051900093009B189B00EB181869721C801839004B
:1051A00010F009FF2A78013A93009B1813229B0004
:1051B000EB181B699A552B78013B9800C3189B008C
:1051C000EA181269002A0DD0002080BCB846F0BD54
:1051D000FAF7A4FF013010F05FFA3900206110F0F7
:1051E000EAFEF1E7281D14220021C01810F083FC0C
:1051F0000E20EAE788190020F0B54E464546DE4607
:105200005746E0B5D04C0500267889B0052E65D00C
:10521000B300981980009946231898460023424607
:105220004046938000210422063010F064FC2B7865
:10523000622B02D1AB782E2B52D027006837290081
:10524000380010F0B8FEC14E3800310011F01CFDDE
:1052500031000500002011F017FD3100070000208B
:1052600011F012FD0600002D36D02800FEF7E6FEF4
:10527000804600282CD1002F2ED0002E2CD03000BC
:10528000FEF7DCFE002859D004222678B500AB19C1
:105290009B00E3181A714246D872DA713800FEF7A3
:1052A000E3FE2278AD199300AD009B1865199B00B1
:1052B0006871E3185B79002B0ED000270132227051
:1052C000380009B0F0BCBB46B246A946A046F0BDC6
:1052D000002FD2D1002E68D06727F1E70E27EFE725
:1052E0006B780027303BDBB29A46062BE8D8414664
:1052F0005046012388718B80E91C8B460722584653
:10530000934910F060FE002832D00E225846914991
:1053100010F059FE002862D106234246D37153464D
:10532000DA008D4B52449B18022217001B7A1F4053
:105330001A4245D0002701362670C1E72278300096
:1053400093009B1803229B00E3181A714246DA71FE
:1053500010F00CF9FDF7E8FF26780790B500A819C2
:1053600080002018042207A90A3010F0BBFB95E743
:1053700005234146CB715146774BCA0052449B18D6
:1053800001221B7A01371F401A42D3D10123002288
:105390000593012100235046049703970297019734
:1053A000009707F0C1FC2678C5E702212278930018
:1053B0009B189B00E31801321971D87122707FE7A6
:1053C0000123002105935046002304970397029779
:1053D00001970097013A07F0A7FC2678ABE70C226B
:1053E00058465E4910F0EFFD00280FD15346DA0011
:1053F000594B52449B189F78002F21D0DF78002F03
:105400003AD01F79002F65D00C2794E70D2258461B
:10541000534910F0D8FD00288DD153464E4AD9008B
:10542000CB18D3185F79002F3DD09F79002F6BD018
:1054300051445218D779002F00D193E00D277AE715
:10544000092342462800D3710F3010F094F82178D8
:10545000C3B28A0052189200A21813720122049754
:10546000059203970297019700970022002150466A
:1054700007F05AFC26785EE70A2342462800D371DB
:105480000F3010F078F82278C0B293009B189B0080
:10549000E3181872012304970593039700230297DA
:1054A00001970090E1E70C2342462800D3711030A9
:1054B00010F061F82278C0B293009B189B00E318AB
:1054C0001872012304970593039700230290019714
:1054D0000097CAE733000B2228004B449B00E318D7
:1054E000DA710F3010F047F82278C0B293009B18A1
:1054F0009B00E31818720123059300230190049385
:10550000039302930093B0E71423280098465E4368
:10551000073BA619F371103010F02DF8424623789E
:10552000C0B25343E318187200210123039005937E
:105530000A000B005046049102910191009107F07E
:10554000F3FB2678F7E6C04688190020E4C7010877
:10555000D0D50108A8CD01083C2F0020B8CD010806
:10556000C8CD01081423280098465E43063BA619BF
:10557000F37110300FF0FFFF42462378C0B253435F
:10558000E318187201230593002304901A001900F0
:105590005046039702970197009707F0C5FB2678BE
:1055A000C9E6C046F0B5DE464E4657464546E0B52C
:1055B0001E0000238BB082468B4615000021052279
:1055C00008A8079310F097FAD34BD44C99462B7840
:1055D0002A000320002B0AD0E15C0140012901D1FF
:1055E0002033DBB2137053780132002BF4D14B46D9
:1055F0009F7E002F4DD006222800C94910F0E3FC01
:10560000002800D1A5E0022F25D12800FFF7A2FD38
:10561000002800D0D7E00D2333705B46002B00D16B
:10562000ADE0002398463000FAF778FD01235B4295
:1056300082B2009331005046333308F0A5FE3000AB
:10564000FAF76CFD00210200300010F054FA4346D6
:10565000002BBCD19BE02E21280010F09EFC071EE1
:1056600009D0C31E1A78622A2AD15A786F2A27D104
:105670009B78732B24D1992231002800920009F0E5
:10568000BBFD80463378002BD9D05B46002BD6D0AB
:10569000C9E72B78692BDED16B78662BDBD1AB7831
:1056A0001F00203F202BD6D1E81CFFF7A5FD0028C6
:1056B00000D07FE002234A4693760B333370ACE789
:1056C0007B78E35C5B07D6D429007A1B07A810F02F
:1056D0008CFC07A8FFF736FA924B03901B780493D3
:1056E000984200D187E0039B642B00D172E0039BBA
:1056F000662B00D187E0039BFF2B00D1C4E06B46F3
:105700001B7B0593FE2B00D12EE17B1C062218008B
:105710008549984610F057FC002800D07AE0059B98
:10572000824F9846002219213870180003F060F962
:10573000642009F03DFC7E4B41461A78794B18787D
:10574000002305F0A1FA3B78602B00D1CDE033783F
:1057500012E04B46774A9876117801398B005B1836
:105760009B00D31801221A7505F066F9412230001A
:10577000714910F0B7F93378002B00D04DE73000B5
:10578000FAF7CCFC00210200300010F0B4F9092235
:10579000002107A810F0AFF94B469B7E002B02D1E9
:1057A0005B46002B1DD10BB0F0BCBB46B246A946F0
:1057B000A046F0BD52223000604910F093F94B46EC
:1057C0009F763378D8E7522230005C4910F08AF98E
:1057D0003378D1E727223000594910F083F9337824
:1057E000CAE701235B4200933822504655493333C0
:1057F00008F0CAFDD7E799223100781C920009F021
:10580000FBFC80463EE7252230004F4910F06AF944
:105810003378B1E72800FAF781FC07AB0490180051
:10582000FAF77CFC049A4146013A121A07004748ED
:1058300010F0DBFB2800FAF771FC421ED21B172187
:1058400092B2059803F0D4F83000039A404910F062
:1058500077FB3378002B0DD05B46002B0AD030004D
:10586000FAF75CFC012382B20093310050463133D9
:1058700008F08AFD3000FAF751FC002102003000E8
:1058800010F039F9294F5EE71A220021314810F053
:1058900032F97B1C28009846FAF740FC07AB0390CE
:1058A0001800FAF73BFC039A4146013A121A070026
:1058B000264810F09AFB2800FAF730FCC31B9BB275
:1058C0001722FF21049803F043F899223100920037
:1058D000404609F091FC80463000FAF71FFC1D227B
:1058E0001D49301810F0FEF8CCE6FA21012089009D
:1058F0000BF01EF9194B1B78002B00D127E7184A33
:1059000030001388174901331380039B320010F0D5
:1059100017FB337830E7C046081A00204DF1010824
:105920002CCE0108500B002014CF0108F40B0020EE
:10593000080D00208819002034CE0108D8CD0108B8
:1059400078CE010860CF0108A0CE01081C0C002011
:105950001CCF0108380F0020C8CE01081C0D002004
:105960002C24002040CF01084A46039B0021181236
:10597000C3B2D3761C481A22039310F0BCF8280057
:10598000FAF7CCFB059007A8FAF7C8FB059A013790
:10599000013A121A39000590144810F026FB28002D
:1059A000FAF7BCFB059A0399831A9BB21722049855
:1059B00002F0CEFF0E4B0F4A1B78013B5B009B5A57
:1059C0004A46D27E1341DB0706D4320030000A4932
:1059D00007AB10F0B5FA55E6992231003800920075
:1059E00009F00AFC8046F0E7380F00201C0C00206C
:1059F000500B0020540B0020E8CE0108F0B5DE4625
:105A000057464E464546E0B587B002AB9C460F244C
:105A10000121002364444942012023700BF088F8DF
:105A200009F06CFCE123514A039092681B039A42EF
:105A300000D198E04E4B012599464E461B789D4279
:105A400005D0E1212800090308F0F4FC3378013582
:105A5000EDB2072DF3D1B1464649474B8B460D00B9
:105A600049461A88097853009B18444A5B009B18E2
:105A7000434A1C35127828000091424910F060FA20
:105A80004B46A4224049920018780A2308F0B2FC41
:105A90002800FAF743FB4B46290082B218780A2304
:105AA00008F0A8FC0023984678335B4400269A4609
:105AB000364D374F16E00A2B12D0082B41D07F2BE2
:105AC0003FD01A00203A5E2A0AD84246312A07DC23
:105AD0005A46782142445354434601335BB29846B8
